:100000000C94FD020C9435030C9435030C94672F6B
:100010000C9435030C9435030C9435030C94350380
:100020000C9435030C9435030C94991A0C9487198D
:100030000C943F1C0C9435030C9435030C9435033D
:100040000C9435030C9435030C9435030C94350350
:100050000C9435030C94011C0C9435030C9435035B
:100060000C9435030C9435030C9435030C94350330
:100070000C9435030C9435030C9435030C94350320
:100080000C9435030C9435030C9435030C94350310
:100090000C9435030C9435030C9435030C94350300
:1000A0000C9435030C9435030C9435038004F4044C
:1000B0008804520456048C0459048F049A0464047E
:1000C000EA0468049E046C04A204CC047004A60430
:1000D000D6047604AC04B6045D049304600496046C
:1000E0007B04B104C204E204E4044E048404FD046D
:1000F00042054805330539054E0554055A05C20524
:10010000900595059A059F05A405A905AE05B305BB
:10011000B805BD0579067906AC06AC062707450784
:100120005B085B084A07D807E907E9079C08A708A6
:10013000C205900595059A059F05A405A905AE057C
:10014000B305B805BD051B264226E2274226E22755
:100150008A26AD26E2279C27B0271D0014001A002E
:10016000080015001700D3000424162107280922CF
:100170000A0000001D001B00060019000500000019
:100180000000000000073441E100040013001200E9
:100190000C0018001C00A80033340F310E380D324B
:1001A0000B0000003800370036001000110000007E
:1001B0000000000023522C422A0200001E021F02EF
:1001C00020022102220200002324242125282622A5
:1001D0002702000035002F0030002F0230020000FF
:1001E0000000000000520000000000002D02260068
:1001F000250024002E0200002D2423312238213234
:100200002E000000370020001F001E0032000000FA
:1002100000000000270028004C0000000000D10072
:10022000CD00D200D90000000000CF00CE00D000E9
:10023000DA0000000000DB00D300DC00000000005A
:1002400000000000005223522C000000A9004D00C5
:100250004B004E004A000000AA004F00520051001F
:1002600050000000A800AB00AD00AE00AC000000E4
:1002700000000000E60001002800000042780000B5
:100280000000000000000000437845784778497876
:100290004B7800004478467848784A784C780000DB
:1002A0000000000000520000007C00000000000080
:1002B000000000000000000000000000000000003E
:1002C000000000000000000000000000000000002E
:1002D0000000000000000000280000003A003B0081
:1002E0003C003D00460000003E003F004000410051
:1002F0004700000042004300440045004800000061
:1003000000000000000000000000000000000000ED
:1003100000000000000000000000000000000000DD
:1003200000000000000000000000000000000000CD
:10033000000000000000000000001C001800000089
:100340000D320E3800003600370000001E001F007E
:10035000000006001900000009220D320000000113
:100360000101010101010101020202020202020275
:100370000203030303030303030404040404040447
:10038000050505050506060606060707070707080B
:10039000080808090909090A0A0A0B0B0B0C0C0CBE
:1003A0000D0D0D0E0E0E0F0F0F1010111111121258
:1003B00013131414151516161717181819191A1AD5
:1003C0001B1B1C1D1D1E1E1F202021222223242436
:1003D000252626272829292A2B2C2D2D2E2F303172
:1003E0003232333435363738393A3B3C3D3E3F4084
:1003F0004142434445464748494A4C4D4E4F50516F
:100400005354555658595A5B5D5E5F616264656628
:1004100068696B6C6D6F7072737577787A7B7D7EAF
:100420008082838587888A8C8E8F91939596989AFF
:100430009C9EA0A2A3A5A7A9ABADAFB1B3B5B7BA17
:10044000BCBEC0C2C4C6C9CBCDCFD1D4D6D8DBDDEB
:10045000DFE2E4E7E9EBEEF0F3F5F8FAFDFF050182
:100460000902A10185020901A10005091901290854
:100470001500250195087501810205010930093132
:100480001581257F95027508810609381581257F1C
:10049000950175088106050C0A38021581257F959E
:1004A0000175088106C0C005010980A101850319F5
:1004B000012AB700150126B700950175108100C00B
:1004C000050C0901A101850419012AA002150126C4
:1004D000A002950175108100C005010906A10185E2
:1004E00006050719E029E715002501950875018122
:1004F000020507190029EF1500250195F075018106
:1005000002050819012905950575019102950175E6
:10051000039101C005010906A101050719E029E7BA
:100520001500250195087501810295017508810165
:100530000507190029FF150026FF0095067508819B
:10054000000508190129051500250195057501917A
:1005500002950175039101C009023B00020100A050
:10056000FA09040000010301010009211101000141
:10057000224400070581030800010904010001036A
:1005800000000009211101000122B60007058203C5
:100590002000011201000200000008534601000182
:1005A00000010200010C0343006F0072006E006541
:1005B000000000100366006F006F0073007400619C
:1005C000006E00000004030904004C4C4C4C4C002D
:1005D0004C4C2A4C4C004C4C4C4C4C0000002A2AF1
:1005E0002A00525252525200525252525200525209
:1005F0005252520000002A2A2A0011241FBECFEFB7
:10060000DAE0DEBFCDBF04B603FE18C080916505F9
:1006100090916605A0916705B09168058730904B71
:10062000A740B04B59F410926505109266051092E0
:10063000670510926805E0E0F8E3099512E0A0E094
:10064000B1E0EEEAF2E602C005900D92AE38B107D5
:10065000D9F725E0AEE8B2E001C01D92A536B20799
:10066000E1F70E94BD080C9455310C940000A0E005
:10067000B0E0EDE3F3E00C949230FC0124812223FE
:1006800009F476C57C0161E00E94B42AEC0186324F
:10069000F2E29F07A1F120F484329142B1F03BC015
:1006A000C33284E2D80729F0C53298E2D907D9F0DD
:1006B00032C0F7018681807F99F18581882381F19D
:1006C00060E070E083E292E00BC0F7018681807FFA
:1006D00039F18581882321F160E070E084E292E0C5
:1006E0000E94082D00C2F7018681807FC9F08581B4
:1006F0008823B1F060E070E085E292E0F1CFF7018D
:100700008681807F69F08581882351F060E070E008
:1007100086E292E0E5CFC337FCE7DF0709F483C147
:1007200080916005882309F490C0109154030091D2
:1007300055030E94331C88579C4E9093B6028093B9
:10074000B502F7018581882309F47FC0102B1D793C
:1007500009F076C0C034F2E5DF07B8F4C11522E530
:10076000D20708F072C0C11530E4D30748F4C115B0
:1007700080E2D80740F5C63ED10509F040C065C00B
:10078000C11590E5D907A0F13AC0C03EE2E5DE0709
:10079000A0F4C03CF2E5DF0708F057C0C03622E500
:1007A000D20768F1C03A32E5D30708F44EC0C43B23
:1007B00082E5D80709F449C022C0CE0187579C477B
:1007C0000297E8F442C0F7018681807FA9F48D2F5B
:1007D0008F718231B1F028F4823091F581EE90E092
:1007E00012C0843191F1863159F586EE92E10BC049
:1007F000F7018681807FA9F1CE01992704C0CE013F
:1008000002C085EE90E0109263058832910530F4C5
:100810008E319105C0F4049798F00EC08D32910589
:1008200059F018F48A9779F00BC08C34910559F07F
:100830008D32924041F004C082E08093630503C092
:100840000E94C62802C00E94CD0DFE01E851FC475F
:10085000E730F10508F403C1F7019581992309F404
:100860004FC410923904CE019057839708F028C1E5
:1008700084E090E00E94D730909343048093420438
:10088000FE01E150F047E232F10520F4EA5AFF4F51
:100890000C943931809142048160ACC08091430452
:1008A0008860B4C0809142048260A4C080914204F8
:1008B00020C08091420488609DC0809143041EC086
:1008C000809143048260A2C080914204806192C002
:1008D0008091420480628EC08091420480648AC00C
:1008E0000E944B0F80914204806884C08091420432
:1008F000886084607FC0809143048260816086C08C
:10090000809142048E7F76C080914304877F7EC0B1
:10091000809142048D7F6EC08091420420C08091FE
:100920004204877F67C0809143041EC080914304C6
:100930008D7F6CC0809142048F7E5CC080914204A8
:100940008F7D58C0809142048F7B54C00E944B0F12
:10095000809142048F774EC080914204877F8B7FC5
:1009600049C0809143048D7F8E7F50C080914204A6
:1009700082FB222720F991E0922790FB82F990FBDD
:1009800083F938C080914304982F909591708E7FA1
:10099000892B90FB81F93AC08091420486FB222783
:1009A00020F991E0922790FB86F924C00E944B0F1A
:1009B0008091420487FB222720F991E0922790FB47
:1009C00087F918C061E001C060E08EE090E00E940D
:1009D000ED301EC08091420484FB222720F991E073
:1009E000922790FB84F906C080914204982F90953D
:1009F00090FB80F9809342040BC08091430483FBF9
:100A0000222720F991E0922790FB83F980934304F9
:100A1000609142047091430484E090E00E940B31A5
:100A20000E944B0F60C0F7018581882309F45BC0E9
:100A300080916005882319F00E94C62854C0109246
:100A400054030E94DD180E94331C88579C4E9093DB
:100A5000B6028093B50281E08093600544C0E858F7
:100A6000FF4F0C94393106E221EE41EE6AE17CE75A
:100A700005C007E225EE45EE6BE17CE7C7010E9469
:100A8000281D31C006E221EE40EE68E17CE7F6CF9A
:100A900007E225EE44EE69E17CE7F0CF06E221EEC5
:100AA00042EE6CE17CE7EACF07E225EE46EE6DE12F
:100AB0007CE7E4CF08E221E045EE6EE17CE7DECFA3
:100AC00080915403C631FCE7DF07F9F48A7A91E09C
:100AD00009F490E090939002811110C389E20E9482
:100AE000961C0E94CD0D80912B03877009F440C3A2
:100AF000F7018581882309F43BC38091430482FF79
:100B000037C382E00E94080F33C38272FE01E052B5
:100B1000F847EB30F105C8F5E158FF4F0C94393137
:100B2000882329F00E948129DECF8823D9F30E94EF
:100B30008B29D9CF882329F00E946D29D4CF88230F
:100B4000D9F30E947729CFCF882329F00E94532917
:100B5000CACF8823D9F30E946029C5CF882329F002
:100B60000E943929C0CF8823D9F30E944629BBCFE0
:100B7000882329F00E941D29B6CF8823D9F30E942B
:100B80002B29B1CF0E949629AECF91E09E01205E25
:100B9000324520323105A8F4911113C0CF7181E0A4
:100BA00090E09C0102C0220F331FCA95E2F7E901D1
:100BB000622F83E090E00E94ED30CE010E94460F4C
:100BC00092CFF70185818823E1F1C3303CE7D30759
:100BD00021F140F4C1159CE7D90789F0C130DC4709
:100BE00011F12FC0CB35FCE7DF0741F1CC352CE705
:100BF000D207E1F0CA35DC4721F581E020C00E9430
:100C00004B0F8FEF94E3ECE081509040E040E1F730
:100C100000C000000E94DD1B66CF6FEF7FEF80E019
:100C200090E00E940B310E94F22C5DCF8091430432
:100C300082FB882780F991E0892701C080E00E942B
:100C40001F0FF701878190850097B9F4F70185811F
:100C5000C081D181882349F0CE010E941F0E182F38
:100C6000682FCE010E94BD0E04C0CE010E948A0EE4
:100C7000182FBE01812F0E947F170E949C17D82F2A
:100C8000C92FF7011581068102950F7080912B0302
:100C90008770F9F01123E9F0892F807F803461F0AB
:100CA00080E28D0F8830A8F0892F807E803221F479
:100CB000D23078F0002369F08091430482FF09C0AC
:100CC00082E00E94080F80912B038770DD24D3946B
:100CD0008111D12CCC2EC2948FE0C8228C2D90E0B3
:100CE0008C30910508F0E7C1FC01E657FF4F0C94EA
:100CF00039318C2F807FCF70882311F0C295C07F4F
:100D00001123B9F0CC2309F4C4C180E28D0F8830DF
:100D100010F0D11106C090915403C92BC093540315
:100D200005C090916305C92BC09363050E94CD0D4A
:100D3000B0C18D2F0E94252ECC2309F4BCC180E2C6
:100D40008D0F883078F1DD2369F1C09590916305AE
:100D5000C923C093630529C08C2F807FCF70803258
:100D600011F0C295C07FDD2321F0D13009F44CC0D1
:100D700055C08091430482FD1BC0112369F0CC2330
:100D800039F090915403C92BC09354030E94CD0DA8
:100D900080E00E94582E8FC180E00E94252ECC2337
:100DA00009F489C18C2F0E94E3180E94CD0D83C1E4
:100DB000112381F00023B1F1013009F07CC1909141
:100DC00055038C2F8923C81709F475C1C92BC0930B
:100DD000550371C101116FC18C2F0E94E0128091E7
:100DE00055039C2F982329F09C2F9095892380935D
:100DF0005503909191028C2F892309F45CC1C09511
:100E0000C923C093910257C1112321F0063008F085
:100E100052C108C0053008F04EC115C0112331F091
:100E2000011137C18C2F0E94E71245C1002359F0F0
:100E3000D93309F03DC1FFEF27EE33E0F1502040F8
:100E40003040E1F733C18C2F0E94E01234C18C2F67
:100E500086958695837019F0813061F02CC111233D
:100E600021F08D2F9C2F937002C080E090E00E94B3
:100E7000F21C28C1112321F08D2F9C2F937002C0EA
:100E800080E090E00E94CD1C1DC1612F8D2F0E943B
:100E90004D2D18C18C2F837009F041C011110FC165
:100EA0002D2F229526952770220F220F8D2F8F70C0
:100EB00090E0022E02C0880F991F0A94E2F7D4FF37
:100EC0000BC04FE050E002C0440F551F2A95E2F7D7
:100ED0009A012095309502C020E030E0C695C69575
:100EE000C370C23099F068F44091A0025091A10201
:100EF000C13029F0822B932B8423952304C0842BAB
:100F0000952B822B932B0E94460FD9C0822B932BBB
:100F10002091A0023091A10282279327F4CF1123C0
:100F200019F08C2F817001C08695882309F4C7C001
:100F30002D2F229526952770220F220F8D2F8F702F
:100F400090E0022E02C0880F991F0A94E2F7D4FFA6
:100F50000BC04FE050E002C0440F551F2A95E2F746
:100F60009A012095309502C020E030E0C695C695E4
:100F7000C370C23079F0B8F44091A2025091A3023C
:100F8000C13029F0822B932B842395230EC0842B10
:100F9000952B09C0822B932B2091A2023091A302A2
:100FA0008227932702C0822B932B0E94F10E87C0C9
:100FB000CF70112339F08C2F0E94360F8D2F0E9495
:100FC000E7127DC08D2F0E94E0128C2F0E94F60E3A
:100FD00076C0D23F61F128F4D03F41F0D13F11F10A
:100FE00054C0D33F59F1D43FC9F04FC0112391F001
:100FF000053008F060C0CF7181E090E002C0880F3A
:10100000991FCA95E2F72091A2023091A30282278C
:10101000932721C0063008F04EC0EDCF80914304E5
:1010200082FD1CC0112329F08C2F8F7122C0112347
:10103000D9F38C2F8F710E94F60E3DC0112349F019
:10104000CF7181E090E002C0880F991FCA95E2F746
:1010500002C080E090E00E94F10E2DC0112361F0EB
:101060008C2F8F7198E0899F900111242360209329
:101070002B030E94360F1FC081E00E94080F023030
:10108000D0F082E00E94080F16C0112321F0002347
:1010900059F28D2F7ECE002361F2D93349F4EFEF60
:1010A000F7EE23E0E150F0402040E1F700C00000FF
:1010B0008D2F0E94252E88EF8C0D843018F40E940D
:1010C000171D17C0DD20A9F080912B0380FD11C0F2
:1010D000F70115828695869586950E94360FC70181
:1010E0000E94370380912B038695869586950E94F2
:1010F000F60E60E0C7010E94B42A3AC085E3EFCC47
:10110000C6312CE7D20751F480919002811104C0BE
:1011100089E20E94681CE5CC85E3FBCF80915403F3
:101120008272FE01E054F847ED30F10508F02ECD53
:10113000EA56FF4F0C94393180918804837011F482
:1011400010926701809188048C7F816009C0809132
:101150008804837011F010926701809188048C7F5D
:101160008093880480918704816080938704BBCC3E
:10117000CDB7DEB7E8E00C94AE30A2E1B0E0E3EC2E
:10118000F8E00C94883085B7806885BF85B78068A3
:1011900085BF84B7877F84BF0FB6F894A8958091E8
:1011A0006000886180936000109260000FBE90E044
:1011B00080E80FB6F89480936100909361000FBEB1
:1011C00081E08093630181EF92E190938F0280939D
:1011D0008E020E94CB190E943E1A8091E200846028
:1011E0008093E2007894809170048823A1F010919C
:1011F000E9001F709091EC00892F817090FD80E8CC
:10120000182B1092E9008091E80083FD0E9435259B
:101210001F701093E90082E084BD93E095BD9AEFC2
:1012200097BD80936E0010929202109293021092DA
:1012300094021092950288EC90E02091E30027FD43
:101240000EC0AFE3BCE91197F1F700C000000197B1
:10125000A1F70E94CB191092700480E001C081E0D8
:1012600080933A0480933B048093000181110E9493
:10127000222F8091000180910001811102C094E031
:1012800001C090E090939F0284E0891B80939E02AE
:101290000FE611E023E7E22E21E0F22EF801819122
:1012A0008F018F3F11F00E945215E016F106B1F741
:1012B00003E711E099E7E92E91E0F92ED8018D912D
:1012C0008D018F3F11F00E945215E016F106B1F723
:1012D00088E0E4EAF2E0DF01282F1D922A95E9F781
:1012E000E6E9F2E0DF011D928A95E9F780E090E0FF
:1012F0000E94D730853E9E4F09F461C065EE7EEFB7
:1013000080E090E00E940B3160E082E090E00E947B
:10131000ED3081E090E09093A1028093A00261E023
:1013200083E090E00E94ED3060E074E184E090E0C2
:101330000E940B3160E086E090E00E94ED3060E0BA
:1013400087E090E00E94ED3040E050E0BA0188E094
:1013500090E00E94FF3060E083E290E00E94ED3078
:1013600060E08CE090E00E94ED3060E08DE090E085
:101370000E94ED3019821A821B821C821D821E82FD
:101380001F82188648E050E067E170E0CE010196C8
:101390000E94DD3040E050E0BA018FE190E00E9411
:1013A000FF3040E050E0BA018FE090E00E94FF3053
:1013B00040E050E0BA0183E190E00E94FF3082E01B
:1013C00090E00E94CF308093AC0284E090E00E94D5
:1013D000D73090934304809342040E946915EFEF45
:1013E000F6E721E0E150F0402040E1F700C00000C6
:1013F0000E94691580913B04811102C0E4E001C0A4
:10140000E0E0F0E0EC55FD4F808181FF08C06FEF18
:101410007FEF80E090E00E940B310E94DD1B83E0B3
:1014200090E00E94CF3090E00E94460F0E9410286A
:1014300010929004E9EAF4E08FEF9FEF819391938B
:1014400034E0E93BF307D1F781E08093870448E07B
:1014500050E067E170E088E894E00E94BF301092AD
:101460008704809188048C7FF9F485E08093880458
:1014700080916C0190916D01A0916E01809389041F
:1014800090938A04A0938B048FE780938C048FEF52
:1014900080938D0448E050E067E170E088E894E0D4
:1014A0000E94DD301092870480913A04811102C0BD
:1014B0000E94252F81E091E090933F0480933E04A9
:1014C000FF24F39480917004853009F051C010E43A
:1014D00000E182E1E82E80917004853009F042C07D
:1014E00080917004843009F430C00E94C529809135
:1014F000BD04811105C00E94E02080E00E94B8294F
:10150000F092BD041092440488E190E00FB6F89484
:10151000A895809360000FBE1093600083B7817F11
:10152000846083BF83B7816083BF7894889583B7D5
:101530008E7F83BF0FB6F894A89580916000886174
:1015400080936000109260000FBE0E946915E4EA6B
:10155000F2E08191811142C2ACEAB2E0AE17BF075E
:10156000C1F7B9CF0E944B0F0E94171D1092BD0406
:101570000E9469151DEAA12E12E0B12EE4EAF2E004
:10158000F98BE88BDF01F50191918D91892722E09C
:10159000E53BF20719F08823B9F305C0811103C0B8
:1015A0000E94B918C1C030913A043A8BBCEB2B2E83
:1015B000B1E03B2E712CA889B9894D90B98BA88BCD
:1015C000F5015080542409F4A3C0C12CD12C662409
:1015D0006394852D862109F490C0142D1621FA8973
:1015E000FF23A1F0C9867A860E94331C9C878B87D3
:1015F00021E02D8791E0111101C090E09E8749857F
:101600005A856B857C858D850E94E42A112331F0F3
:10161000F101EC0DFD1D80818F3F11F4E12C03C021
:101620008F87EE24E3940E2D10E080919004D80172
:10163000A80FB11D1997ACF1E8E08E2E912C801AFD
:10164000910AB8016F5F7F4F60577B4FA40181E91A
:1016500094E00E944C31B801675F7F4F60577B4F29
:10166000A40189E994E00E944C31A401440F551F64
:10167000B801660F771F675E7F4F60577B4F89EA1F
:1016800094E00E944C31B8016F5E7F4F60577B4FF2
:10169000A40181EA94E00E944C3188E08E19809385
:1016A00090048091900490E0EF85AE2FB0E09D0112
:1016B000220F331F24513E4FAA0FBB1FBD016351A0
:1016C0007E4F41E0480F9E15B0F490E0FC01E057DA
:1016D000FB4FD9015C915183DB015C915187BF8540
:1016E000B18B880F991FFC01E057FB4F128E118EB2
:1016F00091E0842FE6CF80939004660CEFEFCE1A32
:10170000DE0AF6E0CF16D10409F063CFD5014C9282
:101710007394BFEFAB1ABB0AE6E02E0E311CF8E063
:101720007F1249CF0E940C1780913A04882309F454
:1017300040C080915D01882359F1009128041091E7
:1017400029040115110521F10E94331C801B910B06
:10175000209161053091620528173907C8F49091EE
:10176000260480912704981759F00E943D1E10927C
:10177000620510926105109229041092280408C095
:101780000E946B2810922904109228040E94B52808
:1017900080916005882369F00E94331C2091B50276
:1017A0003091B602821B930B8F3F9F4710F40E942B
:1017B000C6280E94C52986E0E1E3F4E0DE01119627
:1017C00001900D928A95E1F7A0903204E0903304E5
:1017D000B0903404D0903504C09036041092330495
:1017E000109234041092350410923604E11003C0B4
:1017F000BB2009F44DC000912F04109130040E94C9
:10180000331C9C01201B310B90912A04992309F46D
:1018100000C125313105E0F19F3F19F09F5F9093A2
:101820002A04EE2061F00E94001E1E1414F09FEFA7
:1018300001C091E0899F802D112480933304BB2047
:1018400061F00E94001E1B1414F491E001C09FEF90
:10185000899F802D11248093340480913304882340
:10186000B9F010913404112399F00E94201E8823AE
:1018700019F08093330402C0F0923304812F0E9448
:10188000201E882319F08093340402C0F09234049F
:10189000D11003C0CC2009F44DC000912D0410914B
:1018A0002E040E94331C9C01201B310B90912B04B1
:1018B000992309F4B3C021353105E0F19F3F19F0B8
:1018C0009F5F90932B04DD2061F00E94DE1D1D14AC
:1018D00014F09FEF01C091E0899F802D1124809327
:1018E0003504CC2061F00E94DE1D1C1414F491E03C
:1018F00001C09FEF899F802D112480933604809131
:1019000035048823B9F010913604112399F00E9410
:10191000201E882319F08093350402C0F09235040C
:10192000812F0E94201E882319F08093360402C064
:10193000F092360480913204A8121AC080913304C8
:10194000882311F0E81214C080913404882311F028
:10195000B8120EC080913604882311F0C81208C056
:1019600090913504992331F081E0D91204C002C06E
:1019700081E001C080E080FD15C0809133048111B9
:101980000FC08091340481110BC080913504811106
:1019900007C081E090913604911103C080E001C03E
:1019A00081E080FD0E94B41DAA82EB82BC82DD82B0
:1019B000CE8286E0FE013196A1E3B4E001900D9263
:1019C0008A95E1F70E94171D9091B702891709F4D3
:1019D00079CD8093B7020E94271C74CD80916F044B
:1019E000882309F478CD09BDE9BC09B400FEFDCF18
:1019F0008091D8008F7D8093D8008091E000826034
:101A00008093E0008091E00081FDFCCF0E944B0FAD
:101A100062CD2B30310508F001CF3ACF2B303105A4
:101A200008F04ECF87CF20912A039091E10259E030
:101A30002917A9F030E0529FF001539FF00D1124B7
:101A4000EE51FD4F7181761306C07081781303C08B
:101A50007581741306C02F5F3F4F2770E9CF80E078
:101A6000089581E0089580912A039091E1028917F9
:101A700019F08F5F8770FBCF08958091E00290E0AE
:101A800020E0422F022E000C550B4817590714F482
:101A90002F5FF7CF0895CF93C091540380916305D2
:101AA000C82B809155038823E1F0C82B80916201F7
:101AB000813041F48091420487FF04C02EE187E920
:101AC00093E003C026E08FE893E0FC0180E0215022
:101AD00028F091919923D9F38F5FF9CF81110E945A
:101AE000DD188C2FCF910895CF93DF9380918404DC
:101AF00082958F7009F04EC080918304882309F489
:101B000049C080912A034091E10250917F04609185
:101B10007E04C0918004D091810479E08417D1F1D2
:101B200090E0789FF001799FF00D1124DF01AE5114
:101B3000BD4F14962C911497222349F111962C91A4
:101B40001197251324C02C91261321C015962C9192
:101B5000159721111CC012962D913C9113972C1BA7
:101B60003D0B283C310598F4809184048F7080618E
:101B700080938404E851FD4F80818F708061808361
:101B80008EE794E00E9437030E94330D03C0019654
:101B90008770C4CFDF91CF91089580916201813029
:101BA00051F58091420487FF26C00E944B0D80931F
:101BB000960340E250E06CE273E085E993E00E9416
:101BC0003F31892BD9F180E2E5E9F3E0ACE2B3E003
:101BD00001900D928A95E1F7E0913E04F0913F0467
:101BE000309761F186E0809395030480F581E02DC4
:101BF00085E993E022C00E944B0D80938D0348E05D
:101C000050E06CE473E08DE893E00E943F31892B53
:101C1000A9F088E0EDE8F3E0ACE4B3E001900D92C8
:101C20008A95E1F7E0913E04F0913F04309731F05E
:101C30000280F381E02D8DE893E009950895A0E0FE
:101C4000B0E0E5E2FEE00C9491307C010091A2024C
:101C50001091A3028091A0029091A102082B192B50
:101C6000CFE0D0E0CC24C394D12CC6010C2E02C00E
:101C7000880F991F0A94E2F780239123892B21F47E
:101C8000219798F7B12C09C0BC2EB7018C2F0E9468
:101C90007F170E949C17019799F38B2DCDB7DEB764
:101CA000E9E00C94AD30CF93DF93EC010E941F0E5E
:101CB000BE010E947F170E949C17DF91CF9108956B
:101CC000FC012481222311F187819085009719F06E
:101CD0000E949C1704C0808191810E94530E9295AE
:101CE0009F70963079F010F4925001C09A50923063
:101CF00068F4803F69F018F4883E40F409C0843FDE
:101D000029F406C0883E20F0813F11F080E008955C
:101D100081E00895983078F5863068F5E82FF0E096
:101D200086E0989FE00DF11D11249E2F977083E0AF
:101D3000F695E7958A95E1F7EE0FFF1FEE0FFF1F6F
:101D4000E854FD4F40E050E080E0219130E0092E62
:101D500002C0369527950A94E2F721703327042EA6
:101D600001C0220F0A94EAF7822B4F5F5F4F443085
:101D7000510559F7089580E00895983088F5863028
:101D800078F5E82FF0E086E0989FE00DF11D112432
:101D90008E2F877051E001C0550F8A95EAF783E0D6
:101DA000F695E7958A95E1F7EE0FFF1FEE0FFF1FFF
:101DB000E854FD4F20E030E070E04081CB01022E7E
:101DC00002C0969587950A94E2F7817081958427E1
:101DD0008523842781932F5F3F4F2430310569F796
:101DE00008959093A3028093A202089521E030E029
:101DF00002C0220F331F8A95E2F72095309580911B
:101E0000A2029091A302822393230E94F10E0895CF
:101E100090912B038095892380932B03282F277083
:101E200069F4981759F09091430492FF07C0869582
:101E3000869586950E94F60E10922B030895909138
:101E4000430492FB222720F9281779F080FB92F9AE
:101E500090934304609142047091430484E090E0C5
:101E60000E940B3182E00E94080F089521E030E0CB
:101E700002C0220F331F8A95E2F78091A20290914F
:101E8000A302822B932B0E94F10E08959093A1023E
:101E90008093A002089510925403809162018130D2
:101EA00041F48091420487FF04C08EE1E7E9F3E04A
:101EB00003C086E0EFE8F3E0DF011D928A95E9F7C1
:101EC00080E090E00E94F21C80E090E00E94CD1C37
:101ED000109263050E94CD0DE1E3F4E086E0DF019E
:101EE0001D928A95E9F710922A0410922B04109201
:101EF0002C040E94B41D0895CF93DF93EC018091D0
:101F0000E002883020F00E944B0F1092E002809196
:101F1000E002E82FF0E0EE0FFF1FE053FD4FD1830A
:101F2000C0838F5F8093E002DF91CF910895A8E195
:101F3000B0E0EDE9FFE00C948C308C0186E0F80114
:101F4000DE01539601900D928A95E1F7D801BC907D
:101F50001196EC9011971296CD90DC9013971496F1
:101F6000AC9014971596FC90F1103FC0BB8AEC8A98
:101F70005091E002252F30E0E0E08E2F0E2E000C75
:101F8000990B821793078CF5880F991F80539D4FEB
:101F9000DC0111964C911197E41203C08C91B81694
:101FA00011F0EF5FEACFEF3F01F1D80116968C9167
:101FB00016978F70806116968C93E517A0F4AFEF9B
:101FC000A50FA093E002EA1770F4F0E0EE0FFF1FF8
:101FD000E053FD4FB0E0AA0FBB1FA053BD4F8D9142
:101FE0009C91918380830E943D0D9EE7892E94E011
:101FF000992E80918204811122C0AA2009F44EC03A
:10200000FF2009F448C0C8010E94600EF82E882302
:1020100009F441C089E0F801AEE7B4E001900D9207
:102020008A95E1F780918204813031F480917E04B9
:1020300090917F040E94530E0E94740D3AC260E09A
:102040008EE794E00E94B42A9C01709083048091F2
:10205000800490918104772009F498C1F601E81B6F
:10206000F90BE83CF10508F03BC1AA20B9F09091CA
:102070008404592F507F40917F04D80111968C9190
:102080001197552371F0481709F4DEC0C8010E946A
:10209000600E8111F8C0C8010E943703FF24F39439
:1020A00008C248131FC040917E048C9148131AC087
:1020B000609185047091860417964D915C911897F4
:1020C0006417750779F4F1100DC09F7090619093BB
:1020D00084048EE794E00E94370380918404F80121
:1020E0008683E7C1C90190528115F0E39F0708F08C
:1020F00071C0F11072C040E06E2D8B2D0E94130D47
:10210000882309F49EC160E0C8010E94B42AC80176
:102110000E941E24F82E811194C1809184048F7036
:1021200080618093840480917E0490917F040E945A
:102130007C0F8EE794E00E94370389E0EEE7F4E03D
:10214000DF011D928A95E9F789E0D82E00912A03D4
:102150008091E1020817C9F110E0D09E3001D19EB4
:10216000700C1124F301EE51FD4F4F01858188233E
:1021700089F0CF010E94600E882361F0F301E851DD
:10218000FD4F80818F7080618083D4018D919C91FF
:102190000E947C0FC4010E94370380912A0390E0C3
:1021A00001968770992780932A03D09EF001D19ED3
:1021B000F00D1124EE51FD4F8181E812C7CF8081CF
:1021C000B812C4CF8581882309F20E943D0D0E9478
:1021D000330D6FC1FF2009F434C1209184042160C4
:1021E000209384048115904308F029C160E0C80160
:1021F0000E94B42AC8010E941E24811120C180912E
:1022000084048E7F80938404C8010E94600EF82E9F
:10221000811115C1809184048F7080618093840442
:1022200080917E0490917F040E947C0F0E943D0D5E
:102230008EE794E00E94370389E0EEE7F4E0DF01E7
:102240001D928A95E9F735C120917E04F8018081BD
:1022500028131CCF40918504509186042781308536
:102260004217530709F012CFF11010CF9683C8011F
:102270000E94370389E0F801AEE7B4E001900D92C7
:102280008A95E1F759C0FF2009F405CF2091840415
:10229000822F82958F7090E00297BCF080917E042F
:1022A00090917F049B878A87DD86CC86809182040B
:1022B0008E871F86288B80918504909186049A8B47
:1022C000898BCE010A960E94370389E0F801AEE7B8
:1022D000B4E001900D928A95E1F70E94740DDECE74
:1022E00080918404982F907F29F48EE794E00E94D7
:1022F0003703A0C0AA2009F4D1CE20917F04F801B1
:10230000918129131BC020917E049081291316C04E
:1023100040918504509186042781308542175307E8
:1023200069F4F1100BC08683C8010E94370389E06D
:10233000D4011D928A95E9F7F72CBBC0C8010E9411
:10234000600E882309F4A7CEFF2009F4A4CE2091C3
:102350008404822F82958F7090E002970CF4B5CFA1
:1023600080917E0490917F049A838983DC82CB8262
:10237000809182048D831E822F83809185049091A9
:10238000860499878887CE0101969DCFC81AD90AFD
:10239000B8ECCB16D10408F04DC0AA2009F47ECECB
:1023A000FF2009F478CE90917F04F8018181981381
:1023B00033C090917E04808198132EC020918504B3
:1023C00030918604878190852817390729F58091F7
:1023D000840480FD18C082958F70482F50E041150D
:1023E000510589F02091840426834F30510541F036
:1023F0008F5F982F9295907F822F8F70892B868385
:10240000C8010E94370389E0F801AEE7B4E001900B
:102410000D928A95E1F74DC0C8010E94600E8111AE
:1024200054CF80918404816080938404C8010E9409
:1024300037033FC089E0D4011D928A95E9F7F12C5A
:1024400038C040E06E2D8B2D0E94130D40E06E2DA4
:102450008B2D0E94130DF82E8111F1CFBB8AEC8ACF
:102460008B899C890E94530E292F22952F7024302E
:1024700020F49F70223028F009C02A50223080F0CA
:1024800014C0992349F0811107C013C0992321F08A
:10249000F8019681907F69F0805E883030F409C041
:1024A000803F38F0815F833020F0C8010E943703FD
:1024B00043CF8F2D6896EEE00C94A830A2E1B0E0F7
:1024C000E4E6F2E10C9496300A871B872C873D875F
:1024D0004E875F87688B798B8A8BCE010A960E9424
:1024E000970F81113BC089E0FE013A96DE011196FB
:1024F00001900D928A95E1F76E85662379F120911E
:10250000E10230E0C90101968770992740912A03C2
:1025100050E084179507A1F06D8399E0929FD00158
:10252000939FB00D1124AE51BD4FFE013196019025
:102530000D929A95E1F78093E1020E94330D0EC04F
:102540000E944B0F1092E10210922A03EEE7F4E092
:1025500089E0DF011D928A95E9F719C019E08091A1
:102560002A039091E102891791F0189FC00111246C
:102570008E519D4F0E94970F882349F080912A0326
:1025800090E001968770992780932A03E8CF62969E
:10259000E4E00C94B230882341F08095909163057B
:1025A0008923809363050E94CD0D0895882339F017
:1025B00090916305892B809363050E94CD0D08954A
:1025C000882321F00E94E3180E94CD0D08958823EE
:1025D00039F090915403892B809354030E94CD0DC0
:1025E000089580E008959091420492FF10C041E068
:1025F000282F2471243009F040E031E0282F287181
:10260000283009F030E0431711F02CE0822793FFC7
:1026100010C041E0282F2471243109F040E031E05E
:10262000282F2871283109F030E0431711F02CE0F1
:1026300082273091430430FF10C051E0282F2171D0
:10264000213009F050E041E0282F2871283009F0AE
:1026500040E0541711F029E0822731FF10C041E01B
:10266000282F2171213109F040E031E0282F287115
:10267000283109F030E0431711F029E0822794FD5A
:10268000877E08958238910569F1B0F48133910510
:1026900009F475C048F48932910509F467C08A329B
:1026A000910509F471C008958533910509F459C065
:1026B00089339105B9F00895833E910589F138F485
:1026C000803E9105D1F0823E910529F10895863E24
:1026D0009105C9F1873E9105D9F1843E910509F034
:1026E0006CC027C02091420420FD57C021FD55C079
:1026F0002091430423FD5BC008958091420480FD36
:1027000048C08091430480FF48C08091420484FD0A
:1027100046C083EE51C08091420482FF3CC0F5CF99
:102720008091420482FD37C08091430480FD35C012
:10273000ECCF8091430481FF36C08091420484FD38
:102740002EC087EE39C08091420483FF2AC0F5CFA6
:102750008091420483FD25C08091430481FD23C004
:10276000ECCF8091420485FD22C01FC080914204BD
:1027700085FD1BC08091430483FF19C00AC080916E
:10278000420486FD16C017C08091420486FD13C026
:1027900010C089E311C082EE0FC080EE0DC080E052
:1027A0000BC086EE09C084EE07C085E305C089E250
:1027B00003C08AE201C081E390E00895A0E0B0E0A8
:1027C000E4EEF3E10C9490307C015B016A018091AE
:1027D0008C038A3018F001E010E002C00AE010E03B
:1027E000C1E0D0E0B501C701F6010995811115C01E
:1027F00021960C171D0794F0CC9F9001CD9F300DB2
:10280000300D112480E090E045E34A95F1F7000097
:10281000019682179307C1F7E5CF81E0CDB7DEB708
:10282000EAE00C94AC30A0E0B0E0E9E1F4E10C9413
:102830008E30C82F7B01D42F6901FB0180809180ED
:10284000A280B3800E94271CDC01CB018819990962
:10285000AA09BB0984369105A105B10510F4DD2351
:1028600039F10C2E000CDD0B01151105A9F0FE014C
:1028700083E0EE0FFF1F8A95E1F7E55FFE4F818150
:10288000928182599C4F408150E00417150708F44B
:10289000A801B6010E944C31CE010E940D30882360
:1028A00041F00E94271CF701608371838283938328
:1028B00081E0CDB7DEB7ECE00C94AA30A9E0B0E03F
:1028C000E4E6F4E10C94963088E0E8E8F4E0DE0118
:1028D000119601900D928A95E1F78091BD04898748
:1028E00049E050E06BE773E0CE0101960E943F3172
:1028F00041E0892B09F440E009E010E09E012F5FE0
:102900003F4F68E873E084E00E9413142996E4E0E6
:102910000C94B2300F931F93CF93DF93EC0144E0FC
:1029200050E063E773E00E943F3141E0892B09F4F6
:1029300040E004E010E09E016AE673E082E00E945D
:102940001314DF91CF911F910F9108958F929F9251
:10295000AF92BF92EF92FF921F93CF93DF9300D07D
:1029600000D01F92CDB7DEB77B0180E090E00E94DF
:102970000D30882309F45CC040910E0150E04115F0
:10298000510511F041E050E060910F01709110018C
:1029900062597C4FCE0105960E944C3180906603AF
:1029A00090906703A0906803B09069030E94271C71
:1029B000DC01CB0188199909AA09BB098436910564
:1029C000A105B10538F48FE693E00E941E259D8194
:1029D000891781F181E090E00E940D30182F882343
:1029E00091F04091160150E04530510510F044E05F
:1029F00050E0609117017091180162597C4FCE012F
:102A000001960E944C318FE693E00E941E2591E0D2
:102A10002D81281390E0192341F10E94271C609317
:102A200066037093670380936803909369030FC0F4
:102A300010E001C011E080916F0390917003A091AC
:102A40007103B091720389839A83AB83BC83112392
:102A500061F089819A81AB81BC81809362039093FC
:102A60006303A0936403B093650380916203909124
:102A70006303A0916403B0916503F70180839183A0
:102A8000A283B383812F0F900F900F900F900F9020
:102A9000DF91CF911F91FF90EF90BF90AF909F90EB
:102AA0008F900895F894E82FE295EF70F0E031A14F
:102AB000282F2F7081E090E001C0880F2A95EAF757
:102AC000982F9095932391A392A1892B82A3789418
:102AD0000895ACE0B0E0EFE6F5E10C948B30AE0188
:102AE0004F5F5F4F7A0188E0DA011D928A95E9F71E
:102AF0000FE611E06A0183E7682E81E0782EAA24B0
:102B0000A394B12C29E7822E21E0922EF801808136
:102B10008F3F09F440C0F894E82FE295EF70F0E0A1
:102B200021A18F70A50102C0440F551F8A95E2F7BD
:102B3000CA01922F982B91A392A18095892382A3F9
:102B4000789400C0E3E7F1E0512C31E021912F3F70
:102B500089F0A22FA295AF70B0E090968C9190E092
:102B60002F7002C0959587952A95E2F780FD02C0E7
:102B7000832F01C080E0582A330F8E169F0631F74D
:102B8000D8018C918F3F11F00E945215B0EABA958E
:102B9000F1F7F60150820F5F1F4FFFEFCF1ADF0AE8
:102BA0006016710609F0B2CF48E050E0B70186E93F
:102BB00092E00E943F31892B99F088E0F701A6E965
:102BC000B2E001900D928A95E1F781E080935A037B
:102BD0000E94331C9093590380935803F12C29C011
:102BE00080915A038823D1F300919F02E09058030B
:102BF000F09059030E94331C8E199F09059770F3BA
:102C000010E00C551D4F44E050E066E972E0C80149
:102C10000E943F31892B09F4FDC084E0E6E9F2E02F
:102C2000D80101900D928A95E1F7FF24F394109258
:102C30005A0380913A04E0919F02882309F484C0EA
:102C400019861A861B861C860E2F10E00C551D4F08
:102C500080918C038A3060F446EA54E1BE01675FDC
:102C60007F4FC8010E94DE13882309F43FC00CC0C7
:102C7000C0905B03D0905C030E94331C8C199D09AB
:102C8000843F914048F743C04AE854E1BE01675F82
:102C90007F4FC8010E94DE13882341F146E257E1CD
:102CA000BE01675F7F4FC8010E94DE138823F1F0E9
:102CB0004EE554E1BE01675F7F4FC8010E94DE13FD
:102CC0008823A1F010928C0380919E0290E044E052
:102CD00050E0BE01675F7F4F8C559D4F0E943F3192
:102CE00021E020936103892B01F58EC080918C0334
:102CF0008F3F19F08F5F80938C0380918C038A3013
:102D000018F30E94331C90935C0380935B038091C3
:102D10006103882309F478C0FE01399684E0DF015D
:102D20001D928A95E9F710926103E0919E02F0E00E
:102D3000EC55FD4F89859A85AB85BC858083918351
:102D4000A283B38381E061C000919E0210E00C5524
:102D50001D4FF0E0EC55FD4F84E0AFE6B3E001908D
:102D60000D928A95E1F78FE693E00E941E258093ED
:102D70006E0384E0E3E7F3E0D80101900D928A95B9
:102D8000E1F78090770390907803A0907903B0905A
:102D90007A0380915D0390915E03A0915F03B091EF
:102DA000600388169906AA06BB06B1F080925D03FF
:102DB00090925E03A0925F03B09260030E94271C72
:102DC000861A970AA80AB90A8092920290929302F0
:102DD000A0929402B092950288E0EBE7F3E0A8E8B5
:102DE000B4E001900D928A95E1F7109183031123CD
:102DF00049F08091BD04811105C00E94E02080E06F
:102E00000E94B8291093BD0480E08F292C96EFE032
:102E10000C94A730F12C0BCF0F931F9380913A04A1
:102E2000882319F00E94271C0EC00E94271C0091C5
:102E30009202109193022091940230919502600FBA
:102E4000711F821F931F1F910F910895CF92DF92E0
:102E5000EF92FF92CF93DF9300D000D0CDB7DEB7D3
:102E6000C0908403D0908503E0908603F0908703A0
:102E70000E94271CDC01CB018C199D09AE09BF09FA
:102E800084369105A105B10570F10E940C17DC0193
:102E9000CB010296A11DB11D89839A83AB83BC83AC
:102EA000809124019091250182599C4F40912301EA
:102EB00050E04530510510F044E050E0BE016F5F36
:102EC0007F4F0E944C3183E090E00E940D308823B8
:102ED00059F00E94271C60938403709385038093AC
:102EE00086039093870381E00F900F900F900F90CF
:102EF000DF91CF91FF90EF90DF90CF9008957830E1
:102F0000B0F46630A0F48530A0F490E3899FF0011E
:102F1000112486E0789FE00DF11D1124E60FF11DCC
:102F2000EE0FFF1FE65AFE4F85919491089580E0C1
:102F300001C081E090E008951F93CF93DF930E943A
:102F40004213EC01C11580E5D807E8F5C11590E4FE
:102F5000D90708F0A8C0C03ED10530F5CD3CD10559
:102F600008F094C0C83AD10578F4C53AD10508F004
:102F700083C0C130D10509F47CC008F4F2C0C4306C
:102F8000D10508F0F1C0EDC0C33CD10508F0E9C09F
:102F9000C85AD0E0CC0FDD1FC458DE4F0990D8814D
:102FA000C02DCE019464E1C0C11580E2D80708F0BD
:102FB000CBC0C11591E0D90708F06BC0C83ED10560
:102FC00008F4D2C0CEC0C03682E5D80728F5C03498
:102FD00092E5D90708F079C0C03282E5D80708F039
:102FE0006CC0C11592E5D90708F481C04C2F4695F5
:102FF000469580E2489FA0011124C37021E030E093
:10300000C90102C0880F991FCA95E2F7EA01C82BCF
:10301000D92BCE019D68A9C0C03A82E5D807B8F483
:103020008C2F8F71C03892E5D90708F07BC0869548
:10303000869590E2899F90011124C37081E090E011
:1030400002C0880F991FCA95E2F79A6868C0C03C11
:1030500082E5D80708F46DC0C03E92E5D90708F0B4
:1030600080C0CF71DD27DC2FCC27CE01806F906A26
:103070007CC081E090E079C0C55AD0E0C758DE4FEF
:103080008881C82FD0E0CE0190646FC0CE019065DA
:103090006CC08D2F0E94F312182FCE0199270E9429
:1030A00042131F715CC0CE0199270E944213CC27A6
:1030B000DF70D06A8C2B9D2B58C0CF71D0E0DC2FF5
:1030C000CC27CE01816F906A50C08C2F8F7186956E
:1030D000869590E2899F90011124C37081E090E071
:1030E00002C0880F991FCA95E2F79C6818C08C2F00
:1030F0008F710E94F31295E0D695C7959A95E1F7E6
:10310000CF70D0E0DC2FCC27282F30E084FF05C023
:1031100084E0220F331F8A95E1F7D069CE01822B1C
:10312000932B23C090E0D82FCC27CE01846F906AD8
:103130001CC08C2F8F710E94F3128F7190E0D82FDA
:10314000CC27CE01906211C08D2F8F710E94F31297
:10315000182FCE0199270E9442131F719062912B64
:1031600004C080E090E001C0CE01DF91CF911F91BB
:103170000895A6E0B0E0EFEBF8E10C9496300E94E1
:10318000331C8C018091560390915703081719073F
:1031900081F019821A820E94331C682F49815A815A
:1031A000792F80E090E00E94E42A10935703009367
:1031B00056032696E4E00C94B230809155038111B9
:1031C000109255030895809590915403892380931C
:1031D000540308952091E4003091E50095E6409174
:1031E000EC00842F817040FF23C08091E80080FDB7
:1031F0001DC080917004882399F0853099F08091EA
:10320000EB0085FD11C04091E4005091E5002417CA
:10321000350729F3915011F09A01E1CF84E0089528
:1032200082E0089583E0089581E0089580E00895A4
:103230004091E80042FFDDCF08958091610108953B
:103240000F931F93CF93DF938B01EA01909170044A
:10325000943079F58F708093E9008FEF9091E800BA
:10326000815095FD06C095ED9A95F1F7000081110A
:10327000F5CF8091E80085FF1CC00E94EA188823E2
:1032800061F08091E8008E778093E80012C0F80129
:1032900081918F018093F1002197209791F3809184
:1032A000E80085FDF4CF8091E8008E778093E800F8
:1032B000E4CFDF91CF911F910F91089543E050E04B
:1032C000BC0182E00E942019089546E050E0BC0154
:1032D00082E00E942019089540E250E0BC0182E0A3
:1032E0000E9420190895CF93DF93EC0148E050E04D
:1032F000BC0181E00E94201988E0FE01A6E6B4E04E
:1033000001900D928A95E1F7DF91CF9108951F9278
:103310000F920FB60F9211242F933F934F935F9309
:103320006F937F938F939F93AF93BF93CF93DF93CD
:10333000EF93FF93C091E900CF708091EC00D82FFC
:10334000D17080FDD0E81092E9008091F000877F75
:103350008093F00078940E9435251092E9008091C6
:10336000F00088608093F000CD2BCF70C093E9000F
:10337000FF91EF91DF91CF91BF91AF919F918F918D
:103380007F916F915F914F913F912F910F900FBE61
:103390000F901F901895E8EDF0E080818E7F80837C
:1033A0001092E2001092DA001092E100A0EEB0E07C
:1033B0008C9181608C9380818F77808319BCA7ED7D
:1033C000B0E08C918E7F8C9380818F7E8083109271
:1033D000490408958091720487FF11C08091E8002C
:1033E00082FD05C0809170048111F8CF11C08091D9
:1033F000E8008B770BC080917004882349F080919E
:10340000E80080FFF8CF8091E8008E778093E80095
:103410000895982F973068F59093E900981739F040
:103420007091EC002091ED005091F00003C0242F2A
:10343000762F50E021FD02C09F5FECCF3091EB0072
:103440003E7F3093EB003091ED003D7F3093ED00F7
:103450003091EB0031603093EB007093EC002093DF
:10346000ED005093F0002091EE0027FDE5CF80E0C5
:1034700008958F708093E90081E00895A0E0B0E0A6
:10348000E4E4FAE10C949230C8EDD0E088818F7EBC
:103490008883E7EDF0E080818160808384E082BFF3
:1034A00081E08093490488818E7F888302EE10E05A
:1034B000F80110821092DA0081EEC82ED12CF601AC
:1034C000108288818F77888388818068888388814B
:1034D0008F7D888319BC1092700410927104109231
:1034E0006F0410926E0490EEE92EF12CF7018081AA
:1034F0008B7F808388818160888342E060E080E008
:103500000E94091AF60180818E7F8083F8018081F4
:1035100081608083808188608083F70180818E7FD5
:103520008083888180618883CDB7DEB7E8E00C9422
:10353000AE301F920F920FB60F9211242F933F932C
:103540004F935F936F937F938F939F93AF93BF93AB
:10355000EF93FF938091E10082FF09C08091E20028
:1035600082FF05C08091E1008B7F8093E100809114
:10357000DA0080FF2AC08091D80080FF26C08091A9
:10358000DA008E7F8093DA008091D90080FF18C026
:1035900080E189BD82E189BD09B400FEFDCF81E0F3
:1035A000809370048091490481110FC00E94CB194F
:1035B0000E943E1A8091E20084608093E20005C080
:1035C00019BC10927004109249048091E10080FFB0
:1035D0001AC08091E20080FF16C08091E2008E7FC9
:1035E0008093E2008091E20080618093E20080910C
:1035F000D80080628093D80019BC85E08093700465
:1036000083E0809363018091E10084FF37C0809163
:10361000E20084FF33C080E189BD82E189BD09B445
:1036200000FEFDCF8091D8008F7D8093D8008091DF
:10363000E1008F7E8093E1008091E2008F7E809395
:10364000E2008091E20081608093E2008091710449
:10365000882311F084E007C08091E30087FD02C059
:1036600081E001C083E08093700480917004843015
:1036700011F081E001C082E0809363018091E1005C
:1036800083FF2CC08091E20083FF28C08091E1007D
:10369000877F8093E10082E0809370041092710430
:1036A0008091E1008E7F8093E1008091E2008E7F27
:1036B0008093E2008091E20080618093E20042E02A
:1036C00060E080E00E94091A8091F0008860809399
:1036D000F00081E08093630180936201FF91EF919C
:1036E000BF91AF919F918F917F916F915F914F911A
:1036F0003F912F910F900FBE0F901F901895209122
:103700007804309179042617370748F06115710560
:1037100039F42091E8002E772093E80001C0B90128
:10372000FC0120E06115710579F180917004882316
:10373000F1F18530F1F18091E80083FD3CC080918A
:10374000E80082FD2EC08091E80080FFEBCF209141
:10375000F3008091F20090E0922B6115710551F019
:103760008830910538F421912093F100615071095E
:103770000196F3CF21E0089709F020E08091E8005E
:103780008E778093E800CECF2111CFCF0AC08091F1
:103790007004882361F0853061F08091E80083FD3A
:1037A0000AC08091E80082FFF2CF80E0089582E0B5
:1037B000089583E0089581E0089581E08093E0001A
:1037C00080E28093D8001092C9008FE19EE40197B7
:1037D000F1F700C0000087E090EBDC018093650505
:1037E00090936605A0936705B09368059CE088E117
:1037F0000FB6F894A895809360000FBE9093600078
:10380000FFCF78941F920F920FB60F9211248F93CF
:103810009F93AF93BF938091450490914604A091EC
:103820004704B09148040196A11DB11D8093450441
:1038300090934604A0934704B0934804BF91AF917E
:103840009F918F910F900FBE0F901F9018952FB7DB
:10385000F8946091450470914604809147049091DA
:1038600048042FBF08952FB7F89480914504909194
:103870004604A0914704B09148042FBF08951F92B9
:103880000F920FB60F9211248F939F93AF93BF9314
:1038900080914404811113C08091450490914604A5
:1038A000A0914704B09148044196A11DB11D809399
:1038B000450490934604A0934704B0934804BF91F5
:1038C000AF919F918F910F900FBE0F901F90189501
:1038D00090916201913021F49091420497FD03C0D0
:1038E000EDE8F3E01DC0E82FE695E695E695EE31AC
:1038F000E0F4F0E0EB56FC4F877021E030E0A901E6
:1039000002C0440F551F8A95E2F7CA018095928143
:10391000892382830895319653E0E339F50729F02E
:1039200092818913F8CF1282F6CF089590916201A7
:103930009130D1F49091420497FF16C0E82FE6959C
:10394000E695E695EE3140F5F0E0EB56FC4F8770DA
:1039500021E030E0A90102C0440F551F8A95E2F72B
:10396000CA019281892B16C0AFE8B3E0EFEF90E077
:103970002D91821789F0EF3F19F4211101C0E92F31
:103980009F5F9630A9F7EF3F39F00E2E000CFF0B2A
:10399000E357FC4F828308950895A3E0B0E0E3ED80
:1039A000FCE10C9498302091400430914104281798
:1039B0003907A1F09093410480934004E0913E04C4
:1039C000F0913F04309751F024E029839B838A8350
:1039D0000084F185E02DCE01019609952396E2E061
:1039E0000C94B430A3E0B0E0E8EFFCE10C94983024
:1039F00020913C0430913D0428173907A1F09093A1
:103A00003D0480933C04E0913E04F0913F043097E4
:103A100051F023E029839B838A830084F185E02D84
:103A2000CE01019609952396E2E00C94B430809182
:103A30003A04882359F0E0913E04F0913F04309716
:103A400029F00190F081E02D0995089580E0089516
:103A5000FF920F931F93CF93DF93C42FD22FF02E9B
:103A6000FC0185818823B1F0409339040E94331C06
:103A7000909338048093370480E28C0F883008F0EC
:103A80006EC0C77081E001C0880FCA95EAF70E9436
:103A9000E71265C080913904481355C0009137047E
:103AA000109138040E94331C801B910B883C9105B7
:103AB00008F049C0CD1729F180E28C0F883040F41E
:103AC000C77081E001C0880FCA95EAF70E94E01232
:103AD00080E28D0F883048F481E09D2F977001C0FF
:103AE000880F9A95EAF70E94E712F9E3FF1619F09A
:103AF00000E010E002C000E510E08F2D0E94582E7B
:103B000008C099E3F912F4CF89E30E94582E00E52A
:103B100010E00115110549F08FE99FE00197F1F7D9
:103B200000C0000001501109F4CF8F2D0E94252EF6
:103B300080E28D0F883098F4D77081E001C0880F43
:103B4000DA95EAF70AC080E28C0F883040F4C7703B
:103B500081E001C0880FCA95EAF70E94E012CDB754
:103B6000DEB7E5E00C94B1300E94331C20913304A1
:103B7000211104C020913404222321F090933004B9
:103B800080932F0420913504211104C02091360424
:103B9000222321F090932E0480932D04E0913E0483
:103BA000F0913F04309749F082E080933104068021
:103BB000F781E02D81E394E00995089580912C042C
:103BC00080FD16C081FD16C082FD18C080912B04B7
:103BD000882391F0883290F428E0829FC00111245C
:103BE00068E270E00E942531862F672B29F007C01C
:103BF00082E0089584E0089581E0089588E00895C2
:103C000080912C0480FD14C081FD14C082FD16C07B
:103C100080912A04882381F08E3180F420E5829FF0
:103C2000C00111246EE170E00E942531862F0895B5
:103C300084E1089588E2089588E0089580E5089574
:103C4000282F35EB2303C001112497FF03C08058B0
:103C5000910902C080589F4F892F0895109229041E
:103C60001092280410925D0180912704809326040D
:103C70000E94B5280E946B280895A0E0B0E0E3E41C
:103C8000FEE10C948830C091260497E0892E01E073
:103C900010E02DE0922E34E0232E80912704C817E7
:103CA00009F47AC0D0E0FE01EE0FFF1FE25EFB4F89
:103CB000808191818630910540F4889ED001899E53
:103CC000B00D1124AD5CBE4F02C0A0E0B0E0149670
:103CD0002C91149721115DC06090B50346EB53E021
:103CE00020E030E0712C261508F051C0FA01C384A1
:103CF000D4844D905C9011976FEF7FEF312CA32C03
:103D0000B12CF501EE0FFF1FE40DF51DE590F490C9
:103D1000CE14DF0409F4B501E114F10411F0339479
:103D2000EECF6F3FFFEF7F0769F1F80102C0EE0FA2
:103D3000FF1F6A95E2F77E2AB801032C02C0660FC6
:103D4000771F0A94E2F761507109E72DF0E06E17D2
:103D50007F07B1F412964D915C911397929EF001FA
:103D6000939EF00D1124EA54FC4F50874783248220
:103D70001082118292878187F1E01596FC9307C02B
:103D8000FA0114822F5F3F4F435F5F4FACCF0E9419
:103D900037282196C37081CF0E946B280E94B528D6
:103DA000CDB7DEB7E2E10C94A430A22F50E0FA01C7
:103DB000EE0FFF1FE454FE4F91A9905297FD91958D
:103DC000440F551FFA01E451FE4F3081232F30E09C
:103DD0002A1B3109290F311D97FD3A95620F08956D
:103DE000622F0895E42FF0E0EE0FFF1FE451FE4F25
:103DF000408134EE439F412D1124E82FF0E050E044
:103E0000445E5F4FDA01A21BB1099D01B7FF03C0F9
:103E100031952195310993E0220F331F9A95E1F7EF
:103E2000AF01421B530B9A0157FF02C020E030E064
:103E3000582F259F212D1124822F0895E42FF0E083
:103E4000EE0FFF1FE451FE4F408134EE439F412DA2
:103E50001124E72FF0E050E0445E5F4FDA01A21B2F
:103E6000B1099D01B7FF03C031952195310993E058
:103E7000220F331F9A95E1F7AF01421B530B9A01B2
:103E800057FF02C020E030E0279F212D1124722F20
:103E90000895FC019B01009721F477FF2BC080E877
:103EA0000895AC0197FF04C044275527481B590BC0
:103EB000B901640F751F37FD0CC0241B350BC901F8
:103EC000A5E0880F991FAA95E1F70E94253180E2AD
:103ED0000CC0CB0165E0880F991F6A95E1F7BA0124
:103EE000621B730B0E94253180E6861BF7FF03C01F
:103EF0008195089580E00895EF920F93CF93DF931B
:103F0000D72FC82FC9010E19BA010E94491F602F6F
:103F1000681B7D2F8C2FDF91CF910F91EF9008952B
:103F2000EF920F931F93CF93DF93D62FC72F182FA6
:103F3000C9010E19010FBA010E94491F081B202F49
:103F4000219F212D1124822F6D2F7C2FDF91CF9166
:103F50001F910F91EF900895EF920F931F93CF93BE
:103F6000DF93D62F172FC82FC9010E19070FBA01DB
:103F70000E94491F702F781B719F712D11246D2F86
:103F80008C2FDF91CF911F910F91EF900895482FC3
:103F9000982F46FD9095E92FEF739F7046FD9F5F28
:103FA000E295EF70EE0FF0E0EC54FE4F2181299F77
:103FB000802D212D112482958F702295207F822BB8
:103FC0003081982F930F892F47FD81958058089550
:103FD0001F93CF93DF93C62F172FD82F822F86954D
:103FE0000E94C71F805887FD8195880F682F2CE09D
:103FF000629F612D11246C0F712F8D2FDF91CF9156
:104000001F9108951F93CF93DF93D62FC72F182F9B
:10401000822F86950E94C71F805887FD8195880F43
:10402000282F219F212D1124822F6D2F7C2FDF918E
:10403000CF911F91089530913B04311104C08B3111
:1040400091050CF04B970E9404280895FF920F935E
:104050001F93CF93DF93182F062FF42EC0E0D0E0EC
:104060002F2D402F612FCE010E941B202196C63399
:10407000D105B1F7CDB7DEB7E5E00C94B13020E063
:1040800030E0869F212D969F200D311D1124C901FE
:104090000895982F80913B04882321F081E09B3183
:1040A00028F003C081E0963308F080E00895A0E096
:1040B000B0E0EDE5F0E20C9492307B01E82FF0E007
:1040C000F11006C0E25AFC4F8491782F682F73C01C
:1040D0002F2D30E0E25AFC4FE491FE2F0E2F10E01E
:1040E00046E0649FC0011124CFEFD0E0BE010E94E2
:1040F0001131AB016BEA6403C001659F900D11247F
:104100008E0D911D8E0D911D982F990F980FBE0148
:10411000621B730B609FD001619FB00D709FB00D4B
:1041200011248B2FF99EB0011124672F77277E0170
:10413000E61AF70AB701609F7001619FF00C709F4B
:10414000F00C11246E01C91AD108C29EB001C39EA1
:10415000700DD29E700D1124272F3327C21BD30B55
:10416000C09F9001C19F300DD09F300D1124732F3F
:104170004230510591F048F441155105D9F04130D4
:104180005105B1F47E2FEF2D15C04430510561F07B
:1041900040F04630510571F00BC0EB2F832F7F2F7D
:1041A00009C07F2DEB2F02C0E32F7B2F8F2F02C082
:1041B0007B2F8F2D6E2FCDB7DEB7E8E00C94AE309D
:1041C000A5E0B0E0E6EEF0E20C948830782E809125
:1041D000690187110DC020918804237030E040915F
:1041E000680150E081E02417350719F480E001C030
:1041F00081E081708093660180918D0490916501CA
:10420000981739F08093650140E060E080E00E94FB
:10421000262028E0721229C08CEA9FE105C097157C
:1042200008F44DC180E99FE10E948F240AC08715E0
:1042300008F05CC0E5E07E12D6C082E090E20E9409
:104240004D24909164019F5F909364018111C6C2D7
:1042500082E080936701809166018111BFC2711075
:10426000BDC283E080936701B9C2271508F419C164
:1042700083E07812DCCF809164010E94A4299A83A4
:10428000898300918A04D0908B0420918C0410E4DF
:10429000129F112D11242A818981821728F5E98125
:1042A000EE2EF12CF701E85AFD4F908180916501C7
:1042B0008923B1F0F701EE0FFF1FE454FE4F81A9EF
:1042C00082958F7060918904819F600D1124702FF9
:1042D0008D2D0E945720472F282FC7010E941B2099
:1042E000F981FF5FF983D7CF822F19C091E079124E
:1042F0002EC0809164010E94A4299A8389836091D1
:10430000890470918A0480918B040E945720162F93
:10431000072FF82E9A81E981E91720F0892F0E9452
:1043200049208FCF2981E22FF0E0DF01A85ABD4F4D
:104330008C9190916501982331F02F2D402F612FA2
:10434000CF010E941B2089818F5F8983E3CF97155E
:1043500058F080916601882309F443C040E060E092
:1043600080E00E9426203DC0809164010E94A42923
:104370009A83898300918A0410918B04F0908904B8
:104380006F2D702F812F0E945720E62ED72EC82E1A
:1043900060918C046F0D702F812F0E945720162F73
:1043A000072FF82E8A819981981708F0B8CFF981E4
:1043B0008F2F90E0FC01E85AFD4F3081209165017C
:1043C000232359F030FF04C02F2D402F612F03C04D
:1043D0002C2D4D2D6E2D0E941B2029812F5F2983AE
:1043E000E1CF80E02ECF7E1608F03FC080916401BF
:1043F0000E94A4299A83898300918A04D0908B0417
:1044000020918C0410E4129F112D1124FA8129812E
:104410002F1748F59981E92EF12CF701E85AFD4F45
:104420009081809165018923D1F0F701EE0FFF1F84
:10443000E451FE4F6081169FB001112455E075953F
:1044400067955A95E1F780918904680F702F8D2D3B
:104450000E945720472F282FC7010E941B20E98167
:10446000EF5FE983D3CF8F2F5ACFF6E07F1203C0DF
:104470008EE19FE1E4CE27E072120DC082EF9EE153
:10448000DECE7E1628F1FFE07F1609F489C02FEFFB
:10449000721609F472C1809164018F5F8093640188
:1044A000D7CE8CE0781203C08CE79FE1BDCE871594
:1044B00048F09AE07912B3CE80EF9EE1C0CE85ED50
:1044C0009EE1BDCEEEE07E12DCCF88EE9FE1B7CE5E
:1044D00080916401811131C060918C0420E1620FF0
:1044E00008F46FEF80917A0490917B040E943F2042
:1044F0006AE070E00E941131892BF9F440916A0161
:1045000050916B0125E038E0429FC001439F900D20
:10451000529F900D1124875E994C90936B0180936C
:104520006A01890FE6E38E9FC0011124892F880F4D
:10453000880B90935E0180935F01809164010E94DB
:10454000A4299A83898390916601992369F02A812D
:104550008981821718F56091650189810E94D028B0
:10456000F981FF5FF983F3CF40915E0150915F01C4
:10457000282F30E04217530788F0EA818E2F90E011
:104580004817590758F460916501842F0E94D0287C
:1045900087E390E090935F0180935E018A81BFCEB4
:1045A00080916601882329F040E060E080E00E946D
:1045B0002620809164010E94A4299B8340917A0463
:1045C00050917B0460917C0470917D048091620421
:1045D00090916304A0916404B091650484179507D9
:1045E000A607B70708F0C7C06091890470918A04D4
:1045F00080918B040E945720362E7A83282E0AE45D
:1046000014E08CEB91E09D838C8335E0832E38E0C1
:10461000932EAC80BD8065017801F2E0F983F7014B
:104620008081811104C0412C512C612C03C0422C8B
:104630005A80632CF50181915F0190E0FC01E85AFA
:10464000FD4F308120916501232329F0242D452D34
:10465000662D0E941B20F601858190E0FC01E85A3E
:10466000FD4F308120916501232329F0242D452D14
:10467000662D0E941B20F701818181937F01F981C2
:10468000F150F98321E0C21AD108F111C8CFF80125
:104690008281811104C0D12CE12CF12C03C0D22CD9
:1046A000EA80F32CEC81FD81828190E0FC01E85AE4
:1046B000FD4F308120916501232329F02D2D4E2DB2
:1046C0006F2D0E941B20EC81FD81838190E0FC0115
:1046D000E85AFD4F308120916501232329F02D2DCB
:1046E0004E2D6F2D0E941B2020916A0130916B018D
:1046F000289DC001299D900D389D900D1124875E45
:10470000994C90936B0180936A01890F837091E0BB
:1047100009F090E0F80192830D5F1F4F8C819D811D
:1047200006969D838C838C5E914009F072CF209118
:104730008C0430E1230F08F42FEF60E1822F90E02A
:104740000E943F20BC0188EB9BE00E9411318091C8
:104750007A0490917B04A0917C04B0917D04860F33
:10476000971FA11DB11D8093620490936304A093D1
:104770006404B09365048B81D2CD80917A049091CA
:104780007B04A0917C04B0917D0488279C70AA27AB
:10479000BB272AE0B695A795979587952A95D1F7D7
:1047A00082309105A105B10571F083309105A10515
:1047B000B10569F040E00197A105B10511F060E095
:1047C00008C064E102C044E160E080E003C044E16D
:1047D00064E184E10E94262082E044CD2596E2E156
:1047E0000C94A43090918804937071F080938904A4
:1047F00060938A04493708F048E740938B0480911E
:104800008704816080938704089590918804937051
:10481000A1F0811102C0946007C0803110F09C6348
:1048200003C0880F880F982B90938804109267011B
:10483000809187048160809387040895DC018091D2
:104840008204813041F514968C911497813019F5CA
:1048500090917F0486E0E0917E04F0E0899FE00D76
:10486000F11D1124E753FA4F94919A32A1F0119659
:104870002C911197EC91F0E0829FE00DF11D112435
:10488000E753FA4FE49181E0EA3219F09E1301C038
:1048900080E08170089581E00895A0E0B0E0E3E554
:1048A000F4E20C9493308C01809164010E94A4295D
:1048B000EC0160918C046695669521E0620F08F426
:1048C0006FEF80917A0490917B040E943F20D82E54
:1048D000CD17E8F4EC2EF12CF701E85AFD4F90814A
:1048E00080916501892389F06091890470918A041F
:1048F00080918B042D2D4C2FF80109950E94572093
:10490000472F282FC7010E941B20CF5FE1CF8D2F9B
:104910000E944920CDB7DEB7E7E00C94AF30A0E0AD
:10492000B0E0E5E9F4E20C9491306C01809164010F
:104930000E94A429F92E182F60918C04669580910D
:104940007A0490917B040E943F20B82E1F1508F036
:104950006DC0C12FD0E0FE01E85AFD4F90818091DB
:104960006501892309F460C0FE01EE0FFF1FE451C9
:10497000FE4F408150E040575109FE01EE0FFF1FEE
:10498000E454FE4FE1A9F0E0B097449FB001459F89
:10499000700D700D1124EE9FC001EF9F900D900DD2
:1049A0001124680F791F6230710510F4062F2BC097
:1049B000613E8EE1780748F4CB01B5E09695879586
:1049C000BA95E1F728E0280F01C02FEF31E0822FE0
:1049D00090E0830F911D95958795889FD001899FC1
:1049E000B00DB00D11246A177B0718F42FEF280FB4
:1049F00004C08F3F39F031E0380F231740F70FEF35
:104A0000030F01C00FEF6091890470918A048091B7
:104A10008B04EB2C9F01F60109950E945720472F2C
:104A2000282FCE010E941B201F5F90CF8F2D0E9448
:104A30004920CDB7DEB7E9E00C94AD30FC01AC0104
:104A40004C5F5F4F8FEF91E32191822728E030E0A8
:104A500087FF03C0880F892701C0880F21503109C3
:104A6000B9F7E417F50781F70895AAE2B0E0EBE3A0
:104A7000F5E20C949730E2E7F4E08AE794E02091C5
:104A8000F10021938E179F07D1F780917304833033
:104A900009F461C030F4813071F0823009F4A0C0B3
:104AA000B7C08A3009F48CC08B3009F46CC08930EF
:104AB00009F0AEC020C080917204813A09F0A8C00C
:104AC0008091E800877F8093E80080917604909140
:104AD0007704892B21F468E086E694E003C060E067
:104AE00080E090E070E00E947F1B8091E8008B776F
:104AF0008093E8008DC080917204813209F088C0F3
:104B00008091760490917704029708F081C080919B
:104B1000E800877F8093E8008091E80082FD05C06F
:104B2000809170048111F8CF73C02091F3008091BF
:104B3000F20090E0922B029731F48091F1008130E5
:104B400011F0863021F48091F10080936101809111
:104B5000E8008B7759C080917204813A09F058C0FF
:104B60008091760490917704892B09F051C080914F
:104B7000E800877F8093E8008091E80080FFFCCF09
:104B8000809162013CC080917204813209F040C082
:104B90008091760490917704892BD1F58091E8007B
:104BA000877F8093E8000E94EA1981E09091740465
:104BB000911101C080E0809362010E944B0F28C0D8
:104BC00080917204813221F58091E800877F809383
:104BD000E8000E94EA19809175048093600118C072
:104BE00080917204813AA1F48091E800877F8093DC
:104BF000E8008091E80080FFFCCF80916001809305
:104C0000F1008091E8008E778093E8000E94EA1915
:104C10008091E80083FFD6C1809172049091730463
:104C2000492F50E04A30510508F0CCC1FA01ED554A
:104C3000FF4F0C943931803821F0823809F0C2C11D
:104C400008C080916E0490916F04992389F082606E
:104C50000FC0809176048F70873008F0B3C18093C5
:104C6000E9008091EB0085FB882780F91092E9002C
:104C70009091E800977F9093E8008093F100109264
:104C8000F10066C1282F2D7F09F09CC1882319F0FF
:104C9000823061F097C180917404813009F092C133
:104CA000933009F080E080936F042EC080917404EB
:104CB00081112AC0809176048F702FEF280F263043
:104CC00008F080C18093E9002091EB0020FF1CC018
:104CD000933021F48091EB00806214C09091EB003E
:104CE00090619093EB0021E030E0A90102C0440FF5
:104CF000551F8A95E2F74093EA001092EA008091EE
:104D0000EB0088608093EB001092E9008091E8004E
:104D1000877F21C1811156C1109174041F77809142
:104D2000E3008078812B8093E3008091E800877F07
:104D30008093E8000E94EA198091E80080FFFCCF90
:104D40008091E30080688093E300111102C082E04B
:104D500001C083E08093700435C18058823008F030
:104D600031C180917404909175048C3D53E0950796
:104D700079F583E08A838AE289834FB7F894DE016C
:104D8000139620E03EE051E2E32FF0E0509357000D
:104D9000E49120FF03C0E295EF703F5FEF708E2F2C
:104DA00090E0EA3010F0C79601C0C0968D939D93B5
:104DB0002F5F243149F74FBF8091E800877F8093B0
:104DC000E8006AE270E0CE0101960E947F1BAEC04F
:104DD0004091760450917704292F332723303105F1
:104DE000A9F068F42130310509F4FBC02230310507
:104DF00009F0E8C08BE390E0E8E5F5E044C021323B
:104E0000310521F12232310571F1DCC09927813061
:104E10009105A1F058F0029709F0D4C0E5EAF5E059
:104E2000E4918E2F90E0E5EAF5E02AC0E5ECF5E0AC
:104E3000E4918E2F90E0E5ECF5E022C0E3EBF5E0A5
:104E4000E4918E2F90E0E3EBF5E01AC04115510597
:104E500009F4CCC04130510509F0B4C089E090E0BC
:104E6000E3E8F5E010C04115510509F4C4C0413034
:104E7000510509F0A7C086EB90E0EEE5F4E003C031
:104E8000009709F49FC02091E800277F2093E80055
:104E900020917804309179048217930708F49C01DB
:104EA00040E02115310589F180917004882309F4CF
:104EB0003DC08530D9F18091E80083FD37C08091F5
:104EC000E80082FD2FC08091E80080FFEACF40918A
:104ED000F3008091F20090E0942B2115310559F0F8
:104EE0008830910540F444914093F100319621506F
:104EF00031090196F2CF41E0089709F040E0809136
:104F0000E8008E778093E800CCCF4111CDCF0AC066
:104F100080917004882351F0853041F08091E80041
:104F200083FD04C08091E80082FFF2CF8091E80009
:104F30008B778093E80046C0803809F043C08091A9
:104F4000E800877F8093E800809171048093F100EE
:104F50008091E8008E778093E8000E94EA1932C0C1
:104F6000811130C080917404909175049927029743
:104F70004CF58091E800877F8093E80010917404DD
:104F8000109371040E94EA19111106C08091E30088
:104F900087FD02C081E001C084E08093700442E09C
:104FA00061EC81E00E94091A42E261EC82E00E9419
:104FB000091A80917004843011F081E001C082E010
:104FC000809363018091E80083FF1AC08091E8001C
:104FD000877F8093E8008091EB0080628093EB00F4
:104FE0000FC082E190E0E3E9F5E04DCF89E090E089
:104FF000EAE6F5E048CF84E490E0E4E1F5E043CF71
:10500000AA96E3E00C94B330FC01EE0FFF1F8E0F65
:105010009F1FFC01E254FB4F61834083228308956C
:10502000539A08958BB1877F9BB198602FB7F894FE
:10503000EEEBF4E035E0E036F30789F0319148E03B
:105040009BB9000000C037FF8BB9330F000000C0D0
:1050500000C000C08BB900C04A9591F7EBCF2FBFBD
:105060008FE594E00197F1F700C000000895AC01CE
:105070008091260460912704982F961759F1292FC3
:1050800030E0F901EE0FFF1FE25EFB4F0190F0816F
:10509000E02DE417F507C9F44630510548F467E000
:1050A000649FF001659FF00D1124ED5CFE4F02C07E
:1050B000E0E0F0E041E0448398130CC02F5F3F4FE5
:1050C000237033272093260408952F5F3F4F922F9C
:1050D0009370D3CF0895EF92FF920F931F93CF93C6
:1050E000DF938091B5038823D9F1C09164058DE0E9
:1050F000F82E8091B503C81778F5EE24E394EC0EF2
:10510000E0926405D0E0FC9EF001FD9EF00D1124BC
:10511000EA54FC4F84818823E9F087819085892BAC
:1051200021F481859285019659F4008111812281B3
:105130003381448155816681778180850E945E122A
:10514000FC9EF001FD9EF00D1124EA54FC4F1482E8
:1051500010926305CE2DCDCF1092B5031092640549
:10516000CDB7DEB7E6E00C94B03010926205109235
:105170006105E3E3F1E08581811102C014821682AA
:10518000379681E0ED35F807B1F708958091600515
:10519000882329F082E20E94CB12109260050895C4
:1051A0000F931F93CF93DF93C82FD0E0FE01E85AEF
:1051B000FD4F80816823E1F100918A0410918B04F6
:1051C00040918904E42FF0E060916A0170916B01D5
:1051D00085E098E0689F9001699F300D789F300DC1
:1051E0001124275E394C30936B0120936A01230F01
:1051F000CF018C549F4F68E671E00E9425318E1BD1
:105200009F0B97FD0396959587959595879553E008
:10521000259F90011124642F839F600D1124702F0E
:10522000812F0E945720472F282FCE010E941B203C
:10523000DF91CF911F910F910895E8E8F4E0248168
:105240003AE0231B08F420E02483809187048160E6
:10525000809387040895E8E8F4E024813AE0230F7E
:1052600008F42FEF24838091870481608093870462
:105270000895E8E8F4E0438128E0421B08F440E0A8
:105280008181628190E00E94F2230895E8E8F4E0D1
:10529000438128E0420F08F44FEF8181628190E062
:1052A0000E94F2230895E8E8F4E0628128E0621B9E
:1052B00008F460E08181438190E00E94F223089528
:1052C000E8E8F4E0628128E0620F08F46FEF818182
:1052D000438190E00E94F2230895E8E8F4E08181A0
:1052E00090E04381628108970E94F2230895E8E8E4
:1052F000F4E0818190E04381628108960E94F2236C
:1053000008958091880486958695815009F48FE0F0
:105310000E940524089580918804869586958F5F64
:10532000803108F081E00E9405240895E8E8F4E067
:10533000908181E0892780831092670180918704A2
:1053400081608093870408959BE0899F802D1124BC
:10535000980F973308F096E320913B04222321F025
:105360009C3128F09BE108958B3108F48BE108957E
:1053700080936901809188048370809368010E9402
:10538000122883E08093670108954F925F926F9295
:105390007F928F929F92AF92BF92CF92DF92EF92C5
:1053A000FF92CF938090B9049090BA04A090BB0470
:1053B000B090BC0480913A04882319F00E94271C05
:1053C00002C00E940C176B017C01C818D908EA08BA
:1053D000FB080E940C174B015C016093B9047093A9
:1053E000BA048093BB049093BC04A0919004E0E9BC
:1053F000F4E08A2F90E04FEF5FEF60E070E04C192F
:105400005D096E097F09A91799F0218D328D290157
:10541000612C712C441555056605770510F48150F3
:1054200004C02C0D3D1D328F218F9F5F3296EBCF34
:10543000809390048091BD04811108C0C0918804BC
:105440008C2F837019F0C695C69501C0C0E080917D
:1054500067018130A1F028F08230E1F08330F1F073
:1054600048C01092640180927A0490927B04A092CA
:105470007C04B0927D0481E0809367013AC08C2F58
:105480000E94E020CC23A9F18091640181500E9408
:10549000A4292FC08C2F0E94B8292BC0809187048B
:1054A000882351F048E050E067E170E088E894E03C
:1054B0000E94DD3010928704C0907A04D0907B0463
:1054C000E0907C04F0907D0480913A04882319F0E8
:1054D0000E94271C02C00E940C17DC01CB018C1912
:1054E0009D09AE09BF094097A105B10510F01092C2
:1054F0006701CF91FF90EF90DF90CF90BF90AF907A
:105500009F908F907F906F905F904F9008959C0137
:105510003A9521153F4130F5BC0166277270AC0108
:10552000442754709C012227387094FF0FC090FFCD
:1055300002C080E101C080E0672B09F08062452B4A
:1055400009F08064232B79F080680895892F817099
:10555000672B09F08260452B09F08460232B19F03A
:105560008860089580E00895A6E0B0E0EAEBFAE2F2
:105570000C949730FC0187819085009709F5CF0145
:1055800026E0DE01119601900D922A95E1F7FC01CB
:10559000258189819A81222359F0662349F00E944E
:1055A0001F0E182F682F89819A810E94BD0E03C09B
:1055B0000E948A0E182F69817A81812F0E947F179D
:1055C0002696E3E00C94B330ACE1B0E0EAEEFAE208
:1055D0000C9488304B8B5C8B6D8B7E8B8F8B988F74
:1055E0009111109263058E01065F1F4F89E0F8014B
:1055F00011928A95E9F786E0FE017396D801019031
:105600000D928A95E1F78E8581110CC00A851B8564
:105610002C853D854E855F85688979898A890E94B8
:105620005E12DCC161E0C8010E94B42A61E0C801D9
:105630000E94B42A61E0C8010E94B42A6C0180353E
:10564000FCE79F0739F48F858823D1F081E08093B0
:105650005D01C2C181359C4731F48F85882381F07B
:105660000E942E1EB9C182E5C8168CE7D80641F407
:105670008F85882329F080915D01882339F3F0CF4D
:10568000F3E3EF2EF1E0FF2E512CA12CB12C662478
:105690006394712C44244394FE013196FA8FE98F70
:1056A000F7014081518188248A94982C60E0262F4C
:1056B00030E0F901EE0FFF1FE40FF51F8591949183
:1056C000C816D90609F44901892B11F06F5FEFCF95
:1056D000FFEF8F169F0609F422C1F70144814111A3
:1056E00004C010915D01812F02C080E090E0182F6E
:1056F00011702F85F70195818681222309F4B6C0A8
:10570000112309F4B3C0911114C09301082C01C0F6
:10571000220F0A94EAF7822B86838091610590918B
:105720006205C29730F482E390E090936205809323
:105730006105930102C0220F331F6A95E2F72150E1
:105740003109F701868190E02817390709F0E8C090
:1057500080902804909029048114910451F00E94B3
:10576000331C88199909C39720F0F701448211E08E
:10577000D7C080912604209127042B8FA0E0B0E0B1
:105780002B8D821709F460C0282F30E0F901EE0F4D
:10579000FF1FE25EFB4F408151814630510548F4C6
:1057A00097E0949FD001959FB00D1124AD5CBE4F42
:1057B00002C0A0E0B0E03C9011962C90119770E0F0
:1057C00090E060E0E32DF22DE60FF11DE60FF11DF4
:1057D0008590949081149104C1F0F701008191812A
:1057E0009C8F90E0E02FFC8DE90FF11DE90FF11D7A
:1057F000459154914115510531F08416950609F4EF
:1058000071E09F5FEFCF6F5FDDCF7723B9F0961721
:1058100008F4DBC01097A1F014964C921497AE15C3
:10582000BF0509F47DC090912604891309C0C90100
:105830000196837099278093260402C0A0E0B0E00F
:10584000C901019683709CCFAE15BF0509F468C0ED
:1058500090E0FC01EE0FFF1FE25EFB4FB182A082E1
:10586000019683709927809327045AC0911112C022
:10587000930102C0220F331F6A95E2F721503109CC
:1058800090E028173907F1F54423E9F1C5010E949A
:10589000372838C090E09C01215031092823392352
:1058A000082C02C0959587950A94E2F7232B39F5C9
:1058B00080FF25C0F70182819381892BE1F089E087
:1058C000E98DFA8D11928A95E9F70E94331C282FF1
:1058D0008B839C8384E08D83F70182819381782F71
:1058E0008887998709811A813C8144E05E816F81B4
:1058F000892F0E945E12F701158211E004C0182F53
:10590000117001C010E0C301082C01C0880F0A9477
:10591000EAF78095F70196818923868301C010E01C
:10592000512AFFEFAF1ABF0A27E0E20EF11C86E012
:10593000A816B10409F0B4CE8F85882379F15520DB
:1059400069F10E94331C909329048093280480916C
:10595000B5038830A0F591E0980F9093B50399E0D6
:10596000FE013A96DE01119601900D929A95E1F7AB
:10597000EDE08E9FC00111248A549C4F29E0FE0166
:105980003196DC0101900D922A95E1F72FEF3FEF60
:10599000FC0132872187D486C38611C090912604EA
:1059A00080912704981719F00E943D1E08C00E949C
:1059B0006B2810922904109228040E94B52881E0D7
:1059C000511080E080FD22CE09C0E114F10409F4F9
:1059D00035CFF7014482A4CF81E0F4CF6C96E2E1A9
:1059E0000C94A4300E944B0F2FEF84E39CE02150D5
:1059F00080409040E1F700C000009CE088E10FB6D5
:105A0000F894A895809360000FBE90936000FFCF3C
:105A1000EF92FF920F931F93CF93DF93EC018B01D3
:105A20007C0180EEE81AF10898E0E916F10410F024
:105A3000209731F4CE010E94872A0E94E71205C008
:105A4000CE010E94872A0E94D6128C2F0E94582EC7
:105A50000115110549F08FE99FE00197F1F700C0AA
:105A6000000001501109F4CF8C2F0E94252E98E0E0
:105A7000E916F10410F0209731F4CE010E94872A34
:105A80000E94E01205C0CE010E94872A0E94CB121C
:105A9000CDB7DEB7E6E00C94B030662309F45CC005
:105AA0008D3C21F40E94001E819504C08E3C29F497
:105AB0000E94001E80933404C5C08F3C21F40E94D4
:105AC000001E819504C0803D29F40E94001E809331
:105AD0003304B8C0893D19F40E94DE1D05C08A3D1B
