:100000000C94E5020C941D030C941D030C94D32D49
:100010000C941D030C941D030C941D030C941D03E0
:100020000C941D030C941D030C94A10E0C948F0DC5
:100030000C9472100C941D030C941D030C941D035E
:100040000C941D030C941D030C941D030C941D03B0
:100050000C941D030C9409100C941D030C941D03A7
:100060000C941D030C941D030C941D030C941D0390
:100070000C941D030C941D030C941D030C941D0380
:100080000C941D030C941D030C941D030C941D0370
:100090000C941D030C941D030C941D030C941D0360
:1000A0000C941D030C941D030C941D036804DC04C4
:1000B00070043A043E0474044104770482044C043E
:1000C000D2045004860454048A04B40458048E04F0
:1000D000BE045E0494049E0445047B0448047E042C
:1000E00063049904AA04CA04CC0436046C04E5042D
:1000F0002A0530051B05210536053C054205AA05E4
:1001000078057D05820587058C05910596059B057B
:10011000A005A50561066106940694060F072D0744
:10012000430843083207C007D107D10783088E0868
:10013000AA0578057D05820587058C05910596053C
:100140009B05A005A50543256A250A276A250A27D8
:10015000B225D5250A27C426D8261C001800000081
:100160000D320E3800003600370000001E001F0060
:10017000000006001900000009220D3200001D00D9
:1001800014001A00080015001700D30004241621DB
:10019000072809220A0000001D001B0006001900A4
:1001A000050000000000000000073441E1000400E9
:1001B000130012000C0018001C00A80033340F318B
:1001C0000E380D320B0000003800370036001000EA
:1001D000110000000000000023522C422A020000FF
:1001E0001E021F02200221022202000023242421D9
:1001F000252826222702000035002F0030002F027C
:10020000300200000000000000520000000000006A
:100210002D022600250024002E0200002D2423316B
:10022000223821322E000000370020001F001E005F
:100230003200000000000000270028004C000000F1
:100240000000D100CD00D200D90000000000CF0096
:10025000CE00D000DA0000000000DB00D300DC009C
:100260000000000000000000005223522C0000009B
:10027000A9004D004B004E004A000000AA004F00AC
:100280005200510050000000A800AB00AD00AE00CD
:10029000AC00000000000000E600010028000000A3
:1002A000427800000000000000000000437845781C
:1002B000477849784B7800004478467848784A78FF
:1002C0004C7800000000000000520000007C00009C
:1002D000000000000000000000000000000000001E
:1002E000000000000000000000000000000000000E
:1002F00000000000000000000000000028000000D6
:100300003A003B003C003D00460000003E003F003C
:100310004000410047000000420043004400450007
:100320004800000000000000000000000000000085
:1003300000000000000000000000000000000000BD
:1003400000000000000000000000000000000000AD
:10035000000000000000000000000000000000019C
:100360000101010101010101020202020202020275
:100370000203030303030303030404040404040447
:10038000050505050506060606060707070707080B
:10039000080808090909090A0A0A0B0B0B0C0C0CBE
:1003A0000D0D0D0E0E0E0F0F0F1010111111121258
:1003B00013131414151516161717181819191A1AD5
:1003C0001B1B1C1D1D1E1E1F202021222223242436
:1003D000252626272829292A2B2C2D2D2E2F303172
:1003E0003232333435363738393A3B3C3D3E3F4084
:1003F0004142434445464748494A4C4D4E4F50516F
:100400005354555658595A5B5D5E5F616264656628
:1004100068696B6C6D6F7072737577787A7B7D7EAF
:100420008082838587888A8C8E8F91939596989AFF
:100430009C9EA0A2A3A5A7A9ABADAFB1B3B5B7BA17
:10044000BCBEC0C2C4C6C9CBCDCFD1D4D6D8DBDDEB
:10045000DFE2E4E7E9EBEEF0F3F5F8FAFDFF050182
:100460000902A10185020901A10005091901290854
:100470001500250195087501810205010930093132
:100480001581257F95027508810609381581257F1C
:10049000950175088106050C0A38021581257F959E
:1004A0000175088106C0C005010980A101850319F5
:1004B000012AB700150126B700950175108100C00B
:1004C000050C0901A101850419012AA002150126C4
:1004D000A002950175108100C005010906A10185E2
:1004E00006050719E029E715002501950875018122
:1004F000020507190029EF1500250195F075018106
:1005000002050819012905950575019102950175E6
:10051000039101C005010906A101050719E029E7BA
:100520001500250195087501810295017508810165
:100530000507190029FF150026FF0095067508819B
:10054000000508190129051500250195057501917A
:1005500002950175039101C009023B00020100A050
:10056000FA09040000010301010009211101000141
:10057000224400070581030800010904010001036A
:1005800000000009211101000122B60007058203C5
:100590002000011201000200000008534601000182
:1005A00000010200010C0343006F0072006E006541
:1005B000000000100366006F006F0073007400619C
:1005C000006E000000040309040011241FBECFEFD9
:1005D000DAE0DEBFCDBF04B603FE18C0809152053D
:1005E00090915305A0915405B09155058730904BDB
:1005F000A740B04B59F41092520510925305109237
:10060000540510925505E0E0F8E3099512E0A0E0EA
:10061000B1E0E6E8FFE502C005900D92AC38B10705
:10062000D9F725E0ACE8B2E001C01D92A235B207CF
:10063000E1F70E94A4080C94C12F0C940000A0E0E4
:10064000B0E0E5E2F3E00C94FE2EFC0124812223CD
:1006500009F475C57C0161E00E94CE29EC01863267
:10066000F2E29F07A1F120F484329142B1F03BC045
:10067000C33284E2D80729F0C53298E2D907D9F00D
:1006800032C0F7018681807F99F18581882381F1CD
:1006900060E070E083E292E00BC0F7018681807F2A
:1006A00039F18581882321F160E070E084E292E0F5
:1006B0000E941B2C00C2F7018681807FC9F08581D2
:1006C0008823B1F060E070E085E292E0F1CFF701BD
:1006D0008681807F69F08581882351F060E070E039
:1006E00086E292E0E5CFC337FCE7DF0709F483C178
:1006F00080914D05882309F490C010910704009162
:1007000008040E94661088579C4E9093B402809310
:10071000B302F7018581882309F47FC0102B1D796E
:1007200009F076C0C034F2E5DF07B8F4C11522E560
:10073000D20708F072C0C11530E4D30748F4C115E0
:1007400080E2D80740F5C63ED10509F040C065C03B
:10075000C11590E5D907A0F13AC0C03EE2E5DE0739
:10076000A0F4C03CF2E5DF0708F057C0C03622E530
:10077000D20768F1C03A32E5D30708F44EC0C43B53
:1007800082E5D80709F449C022C0CE0187579C47AB
:100790000297E8F442C0F7018681807FA9F48D2F8B
:1007A0008F718231B1F028F4823091F581EE90E0C2
:1007B00012C0843191F1863159F586EE92E10BC079
:1007C000F7018681807FA9F1CE01992704C0CE016F
:1007D00002C085EE90E0109250058832910530F409
:1007E0008E319105C0F4049798F00EC08D329105BA
:1007F00059F018F48A9779F00BC08C34910559F0B0
:100800008D32924041F004C082E08093500503C0D5
:100810000E94EE2702C00E94B213FE01E851FC477D
:10082000E730F10508F403C1F7019581992309F434
:100830004EC410926203CE019057839708F028C1EE
:1008400084E090E00E94432F90936C0380936B03AD
:10085000FE01E150F047E232F10520F4EA5AFF4F81
:100860000C94A52F80916B038160ACC080916C03C8
:100870008860B4C080916B038260A4C080916B03D8
:1008800020C080916B0388609DC080916C031EC066
:1008900080916C038260A2C080916B03806192C0E2
:1008A00080916B0380628EC080916B0380648AC0EC
:1008B0000E94EA1680916B03806884C080916B036C
:1008C000886084607FC080916C038260816086C094
:1008D00080916B038E7F76C080916C03877F7EC092
:1008E00080916B038D7F6EC080916B0320C08091DF
:1008F0006B03877F67C080916C031EC080916C037F
:100900008D7F6CC080916B038F7E5CC080916B0388
:100910008F7D58C080916B038F7B54C00E94EA1674
:1009200080916B038F774EC080916B03877F8B7FA5
:1009300049C080916C038D7F8E7F50C080916B0386
:1009400082FB222720F991E0922790FB82F990FB0D
:1009500083F938C080916C03982F909591708E7FA9
:10096000892B90FB81F93AC080916B0386FB22278B
:1009700020F991E0922790FB86F924C00E94EA16A4
:1009800080916B0387FB222720F991E0922790FB4F
:1009900087F918C061E001C060E08EE090E00E943D
:1009A000592F1EC080916B0384FB222720F991E010
:1009B000922790FB84F906C080916B03982F909545
:1009C00090FB80F980936B030BC080916C0383FBD9
:1009D000222720F991E0922790FB83F980936C0302
:1009E00060916B0370916C0384E090E00E94772F1C
:1009F0000E94EA1660C0F7018581882309F45BC074
:100A000080914D05882319F00E94EE2754C0109262
:100A100007040E94171E0E94661088579C4E9093F0
:100A2000B4028093B30281E080934D0544C0E8583E
:100A3000FF4F0C94A52F06E221EE41EE6AE17CE720
:100A400005C007E225EE45EE6BE17CE7C7010E9499
:100A50005B1131C006E221EE40EE68E17CE7F6CFA3
:100A600007E225EE44EE69E17CE7F0CF06E221EEF5
:100A700042EE6CE17CE7EACF07E225EE46EE6DE15F
:100A80007CE7E4CF08E221E045EE6EE17CE7DECFD3
:100A900080910704C631FCE7DF07F9F48A7A91E018
:100AA00009F490E090938E0281110FC389E20E94B5
:100AB000C9100E94B2138091DE03877009F43FC30E
:100AC000F7018581882309F43AC380916C0382FF82
:100AD00036C382E00E94A71632C38272FE01E05242
:100AE000F847EB30F105C8F5E158FF4F0C94A52FFE
:100AF000882329F00E949628DECF8823D9F30E940C
:100B0000A028D9CF882329F00E948228D4CF882317
:100B1000D9F30E948C28CFCF882329F00E9468281F
:100B2000CACF8823D9F30E947528C5CF882329F01E
:100B30000E944E28C0CF8823D9F30E945B28BBCFE8
:100B4000882329F00E943228B6CF8823D9F30E9447
:100B50004028B1CF0E94AB28AECF91E09E01205E2D
:100B6000324520323105A8F4911113C0CF7181E0D4
:100B700090E09C0102C0220F331FCA95E2F7E90101
:100B8000622F83E090E00E94592FCE010E94E5166B
:100B900092CFF70185818823E1F1C3303CE7D30789
:100BA00021F140F4C1159CE7D90789F0C130DC4739
:100BB00011F12FC0CB35FCE7DF0741F1CC352CE735
:100BC000D207E1F0CA35DC4721F581E020C00E9460
:100BD000EA168FEF94E3ECE081509040E040E1F7BB
:100BE00000C000000E94E50F66CF6FEF7FEF80E04E
:100BF00090E00E94772F0E94052C5DCF80916C03BE
:100C000082FB882780F991E0892701C080E00E945B
:100C1000BE16F701878190850097B9F4F7018581A9
:100C2000C081D181882349F0CE010E940414182F7D
:100C3000682FCE010E945C1604C0CE010E942916C6
:100C4000182FBE01812F0E94B91C0E94D61CD82FDC
:100C5000C92FF7011581068102950F708091DE037F
:100C60008770F9F01123E9F0892F807F803461F0DB
:100C700080E28D0F8830A8F0892F807E803221F4A9
:100C8000D23078F0002369F080916C0382FF09C0B4
:100C900082E00E94A7168091DE038770DD24D39442
:100CA0008111D12CCC2EC2948FE0C8228C2D90E0E3
:100CB0008C30910508F0E7C1FC01E657FF4F0C941A
:100CC000A52F8C2F807FCF70882311F0C295C07F15
:100CD0001123B9F0CC2309F4C4C180E28D0F883010
:100CE00010F0D11106C090910704C92BC0930704DE
:100CF00005C090915005C92BC09350050E94B213B6
:100D0000B0C18D2F0E94AE17CC2309F4BCC180E284
:100D10008D0F883078F1DD2369F1C09590915005F1
:100D2000C923C093500529C08C2F807FCF7080329B
:100D300011F0C295C07FDD2321F0D13009F44CC001
:100D400055C080916C0382FD1BC0112369F0CC2338
:100D500039F090910704C92BC09307040E94B21385
:100D600080E00E94E1178FC180E00E94AE17CC2383
:100D700009F489C18C2F0E941D1E0E94B21383C1E9
:100D8000112381F00023B1F1013009F07CC1909171
:100D900008048C2F8923C81709F475C1C92BC09387
:100DA000080471C101116FC18C2F0E949D178091A1
:100DB00008049C2F982329F09C2F909589238093D9
:100DC000080490918F028C2F892309F45CC1C0958F
:100DD000C923C0938F0257C1112321F0063008F0B8
:100DE00052C108C0053008F04EC115C0112331F0C2
:100DF000011137C18C2F0E94A41745C1002359F05F
:100E0000D93309F03DC1FFEF27EE33E0F150204028
:100E10003040E1F733C18C2F0E949D1734C18C2FD5
:100E200086958695837019F0813061F02CC111236D
:100E300021F08D2F9C2F937002C080E090E00E94E3
:100E4000251127C1112321F08D2F9C2F937002C0F3
:100E500080E090E00E9400111CC1612F8D2F0E9444
:100E6000602C17C18C2F837009F041C011110FC184
:100E70002D2F229526952770220F220F8D2F8F70F0
:100E800090E0022E02C0880F991F0A94E2F7D4FF67
:100E90000BC04FE050E002C0440F551F2A95E2F707
:100EA0009A012095309502C020E030E0C695C695A5
:100EB000C370C23099F068F440919E0250919F0235
:100EC000C13029F0822B932B8423952304C0842BDB
:100ED000952B822B932B0E94E516D9C0822B932B46
:100EE00020919E0230919F0282279327F4CF1123F5
:100EF00019F08C2F817001C08695882309F4C7C032
:100F00002D2F229526952770220F220F8D2F8F705F
:100F100090E0022E02C0880F991F0A94E2F7D4FFD6
:100F20000BC04FE050E002C0440F551F2A95E2F776
:100F30009A012095309502C020E030E0C695C69514
:100F4000C370C23079F0B8F44091A0025091A10270
:100F5000C13029F0822B932B842395230EC0842B40
:100F6000952B09C0822B932B2091A0023091A102D6
:100F70008227932702C0822B932B0E94901687C052
:100F8000CF70112339F08C2F0E94D5168D2F0E941F
:100F9000A4177DC08D2F0E949D178C2F0E9495163F
:100FA00076C0D23F61F128F4D03F41F0D13F11F13A
:100FB00054C0D33F59F1D43FC9F04FC0112391F031
:100FC000053008F060C0CF7181E090E002C0880F6A
:100FD000991FCA95E2F72091A0023091A1028227C1
:100FE000932721C0063008F04EC0EDCF80916C03EE
:100FF00082FD1CC0112329F08C2F8F7122C0112378
:10100000D9F38C2F8F710E9495163DC0112349F0A2
:10101000CF7181E090E002C0880F991FCA95E2F776
:1010200002C080E090E00E9490162DC0112361F074
:101030008C2F8F7198E0899F900111242360209359
:10104000DE030E94D5161FC081E00E94A716023061
:10105000D0F082E00E94A71616C0112321F00023D1
:1010600059F28D2F7ECE002361F2D93349F4EFEF90
:10107000F7EE23E0E150F0402040E1F700C000002F
:101080008D2F0E94AE1788EF8C0D843010F40E94D3
:101090004A11DD20A9F08091DE0380FD11C0F70127
:1010A00015828695869586950E94D516C7010E9461
:1010B0001F038091DE038695869586950E9495167E
:1010C00060E0C7010E94CE293AC085E3F0CCC6316A
:1010D0002CE7D20751F480918E02811104C089E27D
:1010E0000E949B10E6CC85E3FBCF809107048272BF
:1010F000FE01E054F847ED30F10508F02FCDEA5637
:10110000FF4F0C94A52F80917504837011F41092F9
:101110006701809175048C7F816009C0809175049E
:10112000837011F010926701809175048C7F809319
:10113000750480917404816080937404BCCCCDB735
:10114000DEB7E8E00C941A2FA2E1B0E0EAEAF8E09A
:101150000C94F42E85B7806885BF85B7806885BFFD
:1011600084B7877F84BF0FB6F894A89580916000FC
:10117000886180936000109260000FBE90E080E86C
:101180000FB6F89480936100909361000FBE81E0E8
:101190008093630185E598E190938D0280938C02A2
:1011A0000E94D30D0E94460E8091E20084608093DD
:1011B000E2007894809166048823A1F01091E90000
:1011C0001F709091EC00892F817090FD80E8182BA2
:1011D0001092E9008091E80083FD0E945D241F7059
:1011E0001093E90082E084BD93E095BD9AEF97BD2E
:1011F00080936E00109290021092910210929202CF
:101200001092930288EC90E02091E30027FD0EC03D
:10121000AFE3BCE91197F1F700C000000197A1F717
:101220000E94D30D1092660480E001C081E080939B
:101230006303809364038093000181110E948E2DCB
:101240008091000180910001811102C094E001C0F1
:1012500090E090939D0284E0891B80939C020DE6B0
:1012600011E021E7E22E21E0F22EF80181918F01B9
:101270008F3F11F00E94A21AE016F106B1F701E7C4
:1012800011E097E7E92E91E0F92ED8018D918D01BB
:101290008F3F11F00E94A21AE016F106B1F788E024
:1012A000E2EAF2E0DF01282F1D922A95E9F7E4E94E
:1012B000F2E0DF011D928A95E9F780E090E00E945C
:1012C000432F853E9E4F09F461C065EE7EEF80E0BE
:1012D00090E00E94772F60E082E090E00E94592F1A
:1012E00081E090E090939F0280939E0261E083E012
:1012F00090E00E94592F60E074E184E090E00E9449
:10130000772F60E086E090E00E94592F60E087E050
:1013100090E00E94592F40E050E0BA0188E090E050
:101320000E946B2F60E083E290E00E94592F60E002
:101330008CE090E00E94592F60E08DE090E00E94E8
:10134000592F19821A821B821C821D821E821F82C3
:10135000188648E050E067E170E0CE0101960E94F7
:10136000492F40E050E0BA018FE190E00E946B2FDE
:1013700040E050E0BA018FE090E00E946B2F40E027
:1013800050E0BA0183E190E00E946B2F82E090E090
:101390000E943B2F8093AA0284E090E00E94432F9A
:1013A00090936C0380936B030E94B91AEFEFF6E7FA
:1013B00021E0E150F0402040E1F700C000000E9431
:1013C000B91A80916403811102C0E4E001C0E0E039
:1013D000F0E0EE55FD4F808181FF08C06FEF7FEF99
:1013E00080E090E00E94772F0E94E50F83E090E07C
:1013F0000E943B2F90E00E94E5160E943827109231
:101400007D04E6E9F4E08FEF9FEF8193919334E060
:10141000E63AF307D1F781E08093740448E050E0A6
:1014200067E170E085E794E00E942B2F109274042E
:10143000809175048C7FF9F485E080937504809128
:101440006A0190916B01A0916C0180937604909356
:101450007704A09378048FE7809379048FEF8093CB
:101460007A0448E050E067E170E085E794E00E948C
:10147000492F1092740480916303811102C00E946D
:10148000912D81E091E09093680380936703FF249E
:10149000F39480916604853009F051C010E400E1B6
:1014A00082E1E82E80916604853009F042C0809187
:1014B0006604843009F430C00E94DA288091AA04BE
:1014C000811105C00E942A2080E00E94CD28F09260
:1014D000AA0410926D0388E190E00FB6F894A895E5
:1014E000809360000FBE1093600083B7817F84609B
:1014F00083BF83B7816083BF7894889583B78E7FDD
:1015000083BF0FB6F894A89580916000886180939E
:101510006000109260000FBE0E94B91AE2EAF2E089
:10152000819181113AC2AAEAB2E0AE17BF07C1F7B2
:10153000B9CF0E94EA160E944A111092AA040E9492
:10154000B91A1BEAA12E12E0B12EE2EAF2E0F98B01
:10155000E88BDF01F50191918D91892722E0E33B32
:10156000F20719F08823B9F305C0811103C00E9466
:10157000F31DC1C0309163033A8BBAEB2B2EB1E05F
:101580003B2E712CA889B9894D90B98BA88BF50198
:101590005080542409F4A3C0C12CD12C6624639438
:1015A000852D862109F490C0142D1621FA89FF2378
:1015B000A1F0C9867A860E9466109C878B8721E0FD
:1015C0002D8791E0111101C090E09E8749855A85D1
:1015D0006B857C858D850E94FE29112331F0F101F8
:1015E000EC0DFD1D80818F3F11F4E12C03C08F872E
:1015F000EE24E3940E2D10E080917D04D801A80F15
:10160000B11D1997ACF1E8E08E2E912C801A910A49
:10161000B8016F5F7F4F63587B4FA4018EE794E062
:101620000E94B82FB801675F7F4F63587B4FA401BA
:1016300086E894E00E94B82FA401440F551FB8011A
:10164000660F771F675E7F4F63587B4F86E994E094
:101650000E94B82FB8016F5E7F4F63587B4FA40183
:101660008EE894E00E94B82F88E08E1980937D0464
:1016700080917D0490E0EF85AE2FB0E09D01220FB8
:10168000331F26513E4FAA0FBB1FBD0165517E4F30
:1016900041E0480F9E15B0F490E0FC01E358FB4F89
:1016A000D9015C915183DB015C915187BF85B18B7E
:1016B000880F991FFC01E358FB4F128E118E91E0A9
:1016C000842FE6CF80937D04660CEFEFCE1ADE0AFE
:1016D000F6E0CF16D10409F063CFD5014C92739494
:1016E000BFEFAB1ABB0AE6E02E0E311CF8E07F120A
:1016F00049CF0E94571C809163038823E9F18091B0
:101700003501882341F18091510390915203009754
:1017100011F10E944B1020914E0530914F05281772
:101720003907C8F490914F0380915003981759F0EE
:101730000E946E1210924F0510924E0510925203A5
:101740001092510308C00E949327109252031092E6
:1017500051030E94DD2780914D05882369F00E9486
:1017600066102091B3023091B402821B930B8F3F1D
:101770009F4710F40E94EE270E94DA2886E0EAE5EF
:10178000F3E0DE01119601900D928A95E1F7C09089
:101790005B0310915C03D0905D0300915E03E090C9
:1017A0005F0310925C0310925D0310925E0310922F
:1017B0005F03111103C0DD2009F44BC08091580371
:1017C000909159030E944B109C01909153039923CF
:1017D00009F4FEC025313105E0F19F3F19F09F5F0C
:1017E00090935303112361F00E943112111614F0EB
:1017F0009FEF01C091E0899F802D112480935C03AD
:10180000DD2061F00E9431121D1414F491E001C03A
:101810009FEF899F802D112480935D0380915C034D
:101820008823B9F0B0905D03BB2099F00E9451125B
:10183000882319F080935C0302C0F0925C038B2D27
:101840000E945112882319F080935D0302C0F09228
:101850005D03011103C0EE2009F44BC080915603D3
:10186000909157030E944B109C019091540399232F
:1018700009F4B3C021353105E0F19F3F19F09F5FB6
:1018800090935403002361F00E940F12101614F07D
:101890009FEF01C091E0899F802D112480935E030A
:1018A000EE2061F00E940F121E1414F491E001C0AA
:1018B0009FEF899F802D112480935F0380915E03A9
:1018C0008823B9F0B0905F03BB2099F00E945112B9
:1018D000882319F080935E0302C0F0925E038B2D83
:1018E0000E945112882319F080935F0302C0F09286
:1018F0005F0380915B03C8121AC080915C03882348
:1019000011F0181314C080915D03882311F0D812D0
:101910000EC080915F03882311F0E81208C09091F7
:101920005E03992331F081E0091304C002C081E015
:1019300001C080E080FD15C080915C0381110FC063
:1019400080915D0381110BC080915E03811107C0FE
:1019500081E090915F03911103C080E001C081E0BC
:1019600080FD0E94E511CA821B83DC820D83EE821A
:1019700086E0FE013196AAE5B3E001900D928A95CA
:10198000E1F70E944A119091B502891709F481CDBF
:101990008093B5020E945A107CCD80916504882303
:1019A00009F480CD09BDE9BC09B400FEFDCF8091EA
:1019B000D8008F7D8093D8008091E0008260809372
:1019C000E0008091E00081FDFCCF0E94EA166ACD24
:1019D0002B30310508F003CF3CCF2B30310508F018
:1019E0004ECF87CF2091E4003091E50095E64091FD
:1019F000EC00842F817040FF23C08091E80080FDBF
:101A00001DC080916604882399F0853099F08091FB
:101A1000EB0085FD11C04091E4005091E5002417D2
:101A2000350729F3915011F09A01E1CF84E0089530
:101A300082E0089583E0089581E0089580E00895AC
:101A40004091E80042FFDDCF089580916101089543
:101A50000F931F93CF93DF938B01EA01909166045C
:101A6000943079F58F708093E9008FEF9091E800C2
:101A7000815095FD06C095ED9A95F1F70000811112
:101A8000F5CF8091E80085FF1CC00E94F20C8823EE
:101A900061F08091E8008E778093E80012C0F80131
:101AA00081918F018093F1002197209791F380918C
:101AB000E80085FDF4CF8091E8008E778093E80000
:101AC000E4CFDF91CF911F910F91089543E050E053
:101AD000BC0182E00E94280D089546E050E0BC0160
:101AE00082E00E94280D089540E250E0BC0182E0AF
:101AF0000E94280D0895CF93DF93EC0148E050E059
:101B0000BC0181E00E94280D88E0FE01ACE5B4E054
:101B100001900D928A95E1F7DF91CF9108951F9280
:101B20000F920FB60F9211242F933F934F935F9311
:101B30006F937F938F939F93AF93BF93CF93DF93D5
:101B4000EF93FF93C091E900CF708091EC00D82F04
:101B5000D17080FDD0E81092E9008091F000877F7D
:101B60008093F00078940E945D241092E9008091A7
:101B7000F00088608093F000CD2BCF70C093E90017
:101B8000FF91EF91DF91CF91BF91AF919F918F9195
:101B90007F916F915F914F913F912F910F900FBE69
:101BA0000F901F901895E8EDF0E080818E7F808384
:101BB0001092E2001092DA001092E100A0EEB0E084
:101BC0008C9181608C9380818F77808319BCA7ED85
:101BD000B0E08C918E7F8C9380818F7E8083109279
:101BE000720308958091680487FF11C08091E80016
:101BF00082FD05C0809166048111F8CF11C08091EB
:101C0000E8008B770BC080916604882349F08091AF
:101C1000E80080FFF8CF8091E8008E778093E8009D
:101C20000895982F973068F59093E900981739F048
:101C30007091EC002091ED005091F00003C0242F32
:101C4000762F50E021FD02C09F5FECCF3091EB007A
:101C50003E7F3093EB003091ED003D7F3093ED00FF
:101C60003091EB0031603093EB007093EC002093E7
:101C7000ED005093F0002091EE0027FDE5CF80E0CD
:101C800008958F708093E90081E00895A0E0B0E0AE
:101C9000ECE4FEE00C94FE2EC8EDD0E088818F7E4F
:101CA0008883E7EDF0E080818160808384E082BFFB
:101CB00081E08093720388818E7F888302EE10E03A
:101CC000F80110821092DA0081EEC82ED12CF601B4
:101CD000108288818F778883888180688883888153
:101CE0008F7D888319BC109266041092670410924D
:101CF00065041092640490EEE92EF12CF7018081C6
:101D00008B7F808388818160888342E060E080E00F
:101D10000E94110EF60180818E7F8083F801808100
:101D200081608083808188608083F70180818E7FDD
:101D30008083888180618883CDB7DEB7E8E00C942A
:101D40001A2F1F920F920FB60F9211242F933F93C9
:101D50004F935F936F937F938F939F93AF93BF93B3
:101D6000EF93FF938091E10082FF09C08091E20030
:101D700082FF05C08091E1008B7F8093E10080911C
:101D8000DA0080FF2AC08091D80080FF26C08091B1
:101D9000DA008E7F8093DA008091D90080FF18C02E
:101DA00080E189BD82E189BD09B400FEFDCF81E0FB
:101DB000809366048091720381110FC00E94D30D3D
:101DC0000E94460E8091E20084608093E20005C08C
:101DD00019BC10926604109272038091E10080FF9A
:101DE0001AC08091E20080FF16C08091E2008E7FD1
:101DF0008093E2008091E20080618093E200809114
:101E0000D80080628093D80019BC85E08093660476
:101E100083E0809363018091E10084FF37C080916B
:101E2000E20084FF33C080E189BD82E189BD09B44D
:101E300000FEFDCF8091D8008F7D8093D8008091E7
:101E4000E1008F7E8093E1008091E2008F7E80939D
:101E5000E2008091E20081608093E200809167045B
:101E6000882311F084E007C08091E30087FD02C061
:101E700081E001C083E08093660480916604843031
:101E800011F081E001C082E0809363018091E10064
:101E900083FF2CC08091E20083FF28C08091E10085
:101EA000877F8093E10082E080936604109267044C
:101EB0008091E1008E7F8093E1008091E2008E7F2F
:101EC0008093E2008091E20080618093E20042E032
:101ED00060E080E00E94110E8091F00088608093A5
:101EE000F00081E08093630180936201FF91EF91A4
:101EF000BF91AF919F918F917F916F915F914F9122
:101F00003F912F910F900FBE0F901F901895209129
:101F10006E0430916F042617370748F0611571057C
:101F200039F42091E8002E772093E80001C0B90130
:101F3000FC0120E06115710579F180916604882328
:101F4000F1F18530F1F18091E80083FD3CC0809192
:101F5000E80082FD2EC08091E80080FFEBCF209149
:101F6000F3008091F20090E0922B6115710551F021
:101F70008830910538F421912093F1006150710966
:101F80000196F3CF21E0089709F020E08091E80066
:101F90008E778093E800CECF2111CFCF0AC08091F9
:101FA0006604882361F0853061F08091E80083FD4C
:101FB0000AC08091E80082FFF2CF80E0089582E0BD
:101FC000089583E0089581E0089581E08093E00022
:101FD00080E28093D8001092C9008FE19EE40197BF
:101FE000F1F700C0000087E090EBDC018093520520
:101FF00090935305A0935405B09355059CE088E158
:102000000FB6F894A895809360000FBE909360007F
:10201000FFCF78941F920F920FB60F9211248F93D7
:102020009F93AF93BF9380916E0390916F03A091A4
:102030007003B09171030196A11DB11D80936E03D1
:1020400090936F03A0937003B0937103BF91AF910E
:102050009F918F910F900FBE0F901F901895CF9268
:10206000DF92EF92FF922FB7F894C0906E03D0905A
:102070006F03E0907003F09071032FBFA7019601EA
:10208000261B370B480B590BCA01B901FF90EF9083
:10209000DF90CF9008959C014FB7F89480916E0324
:1020A00090916F03A0917003B09171034FBF821B99
:1020B000930B08952FB7F89460916E0370916F039E
:1020C00080917003909171032FBF08952FB7F894FA
:1020D00080916E0390916F03A0917003B091710392
:1020E0002FBF08951F920F920FB60F9211248F9356
:1020F0009F93AF93BF9380916D03811113C0809123
:102100006E0390916F03A0917003B091710341969B
:10211000A11DB11D80936E0390936F03A093700374
:10212000B0937103BF91AF919F918F910F900FBEAC
:102130000F901F90189590916201913021F4909129
:102140006B0397FD03C0E6EBF2E01DC0E82FE695B8
:10215000E695E695EE31E0F4F0E0E254FD4F87704D
:1021600021E030E0A90102C0440F551F8A95E2F733
:10217000CA0180959281892382830895319652E025
:10218000EC3BF50729F092818913F8CF1282F6CF44
:102190000895909162019130D1F490916B0397FF73
:1021A00016C0E82FE695E695E695EE3140F5F0E0AD
:1021B000E254FD4F877021E030E0A90102C0440FD6
:1021C000551F8A95E2F7CA019281892B16C0A8EBA8
:1021D000B2E0EFEF90E02D91821789F0EF3F19F414
:1021E000211101C0E92F9F5F9630A9F7EF3F39F029
:1021F0000E2E000CFF0BEA54FD4F828308950895C4
:10220000A3E0B0E0E6E0F1E10C94042F2091690333
:1022100030916A0328173907A1F090936A038093DD
:102220006903E0916703F0916803309751F024E06F
:1022300029839B838A830084F185E02DCE0101965A
:1022400009952396E2E00C94202FA3E0B0E0EBE2A6
:10225000F1E10C94042F2091650330916603281757
:102260003907A1F09093660380936503E0916703BB
:10227000F0916803309751F023E029839B838A8390
:102280000084F185E02DCE01019609952396E2E0C8
:102290000C94202F80916303882359F0E091670309
:1022A000F0916803309729F00190F081E02D0995B5
:1022B000089580E00895FF920F931F93CF93DF93CB
:1022C000C42FD22FF02EFC0185818823B1F04093DA
:1022D00062030E946610909361038093600380E222
:1022E0008C0F883008F06CC0C77081E001C0880F87
:1022F000CA95EAF70E94A41763C08091620348134D
:1023000053C080916003909161030E944B10883C00
:10231000910508F049C0CD1729F180E28C0F883073
:1023200040F4C77081E001C0880FCA95EAF70E94A7
:102330009D1780E28D0F883048F481E09D2F9770C3
:1023400001C0880F9A95EAF70E94A417F9E3FF16D7
:1023500019F000E010E002C000E510E08F2D0E94AF
:10236000E11708C099E30913F4CF89E30E94E1174C
:1023700000E510E00115110549F08FE99FE0019794
:10238000F1F700C0000001501109F4CF8F2D0E9419
:10239000AE1780E28D0F883098F4D77081E001C0CD
:1023A000880FDA95EAF70AC080E28C0F883040F493
:1023B000C77081E001C0880FCA95EAF70E949D1797
:1023C000CDB7DEB7E5E00C941D2F0E94661020917A
:1023D0005C03211104C020915D03222321F090931E
:1023E00059038093580320915E03211104C020916A
:1023F0005F03222321F09093570380935603E091CB
:102400006703F0916803309749F082E080935A03A4
:102410000680F781E02D8AE593E009950895809183
:10242000550380FD16C081FD16C082FD18C0809145
:102430005403882391F0883290F428E0829FC001F1
:10244000112468E270E00E94912F862F672B29F0FB
:1024500007C082E0089584E0089581E0089588E04F
:1024600008958091550380FD14C081FD14C082FD44
:1024700016C080915303882381F08E3180F420E5CB
:10248000829FC00111246EE170E00E94912F862F7F
:10249000089584E1089588E2089588E0089580E52C
:1024A0000895282F35EB2303C001112497FF03C0A3
:1024B0008058910902C080589F4F892F089510922B
:1024C0005203109251031092350180915003809372
:1024D0004F030E94DD270E9493270895A0E0B0E0FB
:1024E000E4E7F2E10C94F42EC0914F0397E0892EBB
:1024F00001E010E02DE0922E34E0232E8091500375
:10250000C81709F47AC0D0E0FE01EE0FFF1FE95BA7
:10251000FC4F808191818630910540F4889ED001E6
:10252000899EB00D1124A55FBE4F02C0A0E0B0E0AF
:1025300014962C91149721115DC06090DE024FED2E
:1025400052E020E030E0712C261508F051C0FA016D
:10255000C384D4844D905C9011976FEF7FEF312C42
:10256000A32CB12CF501EE0FFF1FE40DF51DE59036
:10257000F490CE14DF0409F4B501E114F10411F074
:102580003394EECF6F3FFFEF7F0769F1F80102C090
:10259000EE0FFF1F6A95E2F77E2AB801032C02C0F6
:1025A000660F771F0A94E2F761507109E72DF0E09A
:1025B0006E177F07B1F412964D915C911397929E1E
:1025C000F001939EF00D1124E152FD4F5087478397
:1025D00024821082118292878187F1E01596FC9304
:1025E00007C0FA0114822F5F3F4F435F5F4FACCFAC
:1025F0000E945F272196C37081CF0E9493270E947B
:10260000DD27CDB7DEB7E2E10C94102F2091DD037A
:102610009091940359E02917A9F030E0529FF001FE
:10262000539FF00D1124EB56FC4F7181761306C0B9
:102630007081781303C07581741306C02F5F3F4FFC
:102640002770E9CF80E0089581E008958091DD034F
:1026500090919403891719F08F5F8770FBCF0895CD
:10266000CF93C091070480915005C82B8091080436
:102670008823E1F0C82B80916201813041F4809180
:102680006B0387FF04C02EE180EC92E003C026E0DC
:1026900088EB92E0FC0180E0215028F09191992391
:1026A000D9F38F5FF9CF81110E94171E8C2FCF9124
:1026B0000895CF93DF938091910382958F7009F0F5
:1026C0004EC080919003882309F449C08091DD03B6
:1026D0004091940350918C0360918B03C0918D03C2
:1026E000D0918E0379E08417D1F190E0789FF001CA
:1026F000799FF00D1124DF01AB56BC4F14962C913D
:102700001497222349F111962C911197251324C077
:102710002C91261321C015962C91159721111CC0C0
:1027200012962D913C9113972C1B3D0B283C3105A3
:1027300098F4809191038F70806180939103E556A6
:10274000FC4F80818F70806180838BE893E00E94D2
:102750001F030E94261303C001968770C4CFDF9128
:10276000CF91089580916201813051F580916B0382
:1027700087FF26C00E9430138093BF0240E250E0E2
:102780006FED73E08EEB92E00E94AB2F892BD9F1B5
:1027900080E2EEEBF2E0AFEDB3E001900D928A95AE
:1027A000E1F7E0916703F0916803309761F186E00B
:1027B0008093BE020480F581E02D8EEB92E022C072
:1027C0000E9430138093B60248E050E06FEF73E050
:1027D00086EB92E00E94AB2F892BA9F088E0E6EB14
:1027E000F2E0AFEFB3E001900D928A95E1F7E0914E
:1027F0006703F0916803309731F00280F381E02D98
:1028000086EB92E009950895A0E0B0E0EAE0F4E1FB
:102810000C94FD2E7C010091A0021091A1028091E8
:102820009E0290919F02082B192BCFE0D0E0CC2480
:10283000C394D12CC6010C2E02C0880F991F0A9494
:10284000E2F780239123892B21F4219798F7B12C6B
:1028500009C0BC2EB7018C2F0E94B91C0E94D61C47
:10286000019799F38B2DCDB7DEB7E9E00C94192FC2
:10287000CF93DF93EC010E940414BE010E94B91CA7
:102880000E94D61CDF91CF910895FC012481222360
:1028900011F187819085009719F00E94D61C04C021
:1028A000808191810E94381492959F70963079F0C2
:1028B00010F4925001C09A50923068F4803F69F051
:1028C00018F4883E40F409C0843F29F406C0883ECD
:1028D00020F0813F11F080E0089581E00895A8E1A3
:1028E000B0E0E5E7F4E10C94FA2E8C0186E0F80103
:1028F000DE01539601900D928A95E1F7F8018481EB
:10290000E5809BE8892E93E0992E90918F03911199
:1029100020C0882309F496C1EE2009F442C0C80102
:102920000E944514F82E8823E1F189E0F801D401D2
:1029300001900D928A95E1F780918F03813031F4F7
:1029400080918B0390918C030E9438140E9459133C
:102950007BC1F801D080C180A280B380F090900349
:1029600020918D0330918E03FF2009F410C1A50141
:10297000421B530B483C510508F0B6C0882309F4AC
:1029800063C180919103282F207F90918C03222393
:1029900061F09C1509F469C0C8010E9445148111B9
:1029A00076C0C8010E941F034DC19C111CC09091AC
:1029B0008B039D1118C0409192035091930327817E
:1029C00030854217530779F4E1100DC08F70806194
:1029D000809391038BE893E00E941F038091910301
:1029E000F80186832DC1E1103AC040E06C2D8D2D99
:1029F0000E94061340E06C2D8D2D0E940613E82ED8
:102A000081111EC1DB8ACC8A8B899C890E94381473
:102A1000292F22952F70243020F49F70223028F027
:102A200009C02A50223080F014C0992349F0811146
:102A300007C013C0992321F0F8019681907F69F0B7
:102A4000805E883030F409C0803F38F0815F833089
:102A500020F0C8010E941F03EF2CFE2CF5C08091CE
:102A60009103816080939103EBC090918B039D1142
:102A700093CF4091920350919303F80127813085C1
:102A80004217530709F088CFE11086CFB8C0EE2077
:102A900009F487CF20919103822F82958F7090E067
:102AA0000297BCF080918B0390918C039B878A875F
:102AB000BD86AC8680918F038E871F86288B809180
:102AC0009203909193039A8B898BCE010A960E9470
:102AD0001F0389E0F801ABE8B3E001900D928A95FD
:102AE000E1F70E945913AEC090919103292F207FE6
:102AF00051F48BE893E00E941F0389E0F4011192E6
:102B00008A95E9F79DC0882309F49EC080918C03C3
:102B10008C1115C080918B038D1111C040919203CF
:102B200050919303F801278130854217530739F4F8
:102B3000E11005C09683C8010E941F037BC0C80135
:102B40000E944514882309F42CCFEE2009F429CFE4
:102B500020919103822F82958F7090E002970CF460
:102B6000B8CF80918B0390918C039A838983BC8228
:102B7000AB8280918F038D831E822F83809192037D
:102B80009091930399878887CE010196A0CFA21ACE
:102B9000B30AF8ECAF16B10408F04CC0882309F46E
:102BA00051C0FE2CEE2009F4FCCE80918C038C11D8
:102BB00033C080918B038D112FC0209192033091EF
:102BC0009303F801878190852817390729F58091AB
:102BD000910380FD18C082958F70482F50E04115F9
:102BE000510589F02091910326834F30510541F022
:102BF0008F5F982F9295907F822F8F70892B86837D
:102C0000C8010E941F0389E0F801ABE8B3E001901E
:102C10000D928A95E1F718C0C8010E9445148111F0
:102C200058CF80919103816080939103C8010E94E5
:102C30001F030AC089E0F40111928A95E9F704C0E4
:102C4000F12C02C0FF24F3948F2D6896ECE00C94D5
:102C5000162F983078F5863068F5E82FF0E086E09A
:102C6000989FE00DF11D11249E2F977083E0F6953B
:102C7000E7958A95E1F7EE0FFF1FEE0FFF1FED5866
:102C8000FC4F40E050E080E0219130E0092E02C08E
:102C9000369527950A94E2F721703327042E01C058
:102CA000220F0A94EAF7822B4F5F5F4F44305105A1
:102CB00059F7089580E00895983088F5863078F5C2
:102CC000E82FF0E086E0989FE00DF11D11248E2F93
:102CD000877051E001C0550F8A95EAF783E0F695B9
:102CE000E7958A95E1F7EE0FFF1FEE0FFF1FED58F6
:102CF000FC4F20E030E070E04081CB01022E02C0AA
:102D0000969587950A94E2F78170819584278523AB
:102D1000842781932F5F3F4F2430310569F7089551
:102D20009093A1028093A002089521E030E002C0B8
:102D3000220F331F8A95E2F7209530958091A002EB
:102D40009091A102822393230E949016089590915E
:102D5000DE03809589238093DE03282F277069F492
:102D6000981759F090916C0392FF07C0869586954D
:102D700086950E9495161092DE03089590916C033B
:102D800092FB222720F9281779F080FB92F9909383
:102D90006C0360916B0370916C0384E090E00E947F
:102DA000772F82E00E94A716089521E030E002C04C
:102DB000220F331F8A95E2F78091A0029091A10221
:102DC000822B932B0E949016089590939F028093DC
:102DD0009E0208951092070480916201813041F4AF
:102DE00080916B0387FF04C08EE1E0ECF2E003C04A
:102DF00086E0E8EBF2E0DF011D928A95E9F780E0DA
:102E000090E00E94251180E090E00E940011109255
:102E100050050E94B213EAE5F3E086E0DF011D925F
:102E20008A95E9F7109253031092540310925503B8
:102E30000E94E5110895A2E1B0E0E1E2F7E10C940F
:102E4000022F0A871B872C873D874E875F87688BF9
:102E5000798B8A8BCE010A960E946F1481113BC038
:102E600089E0FE013A96DE01119601900D928A9555
:102E7000E1F76E85662379F12091940330E0C90172
:102E80000196877099274091DD0350E084179507DC
:102E9000A1F06D8399E0929FD001939FB00D112412
:102EA000AB56BC4FFE01319601900D929A95E1F719
:102EB000809394030E9426130EC00E94EA1610927B
:102EC00094031092DD03EBE8F3E089E0DF011D924B
:102ED0008A95E9F719C019E08091DD039091940378
:102EE000891791F0189FC00111248B569C4F0E94A6
:102EF0006F14882349F08091DD0390E0019687707C
:102F000099278093DD03E8CF6296E4E00C941E2FAE
:102F1000882341F080959091500589238093500536
:102F20000E94B2130895882339F090915005892B9F
:102F3000809350050E94B2130895882321F00E94C7
:102F40001D1E0E94B2130895882339F09091070442
:102F5000892B809307040E94B2130895882381F17E
:102F60009CEF980F913A18F40E949B100DC090E2CC
:102F7000980F983060F4877091E001C0990F8A959E
:102F8000EAF7892F0E941D1E0E94B21308959BE547
:102F9000980F933028F480E090E00E942511089566
:102FA00098E5980F9B3128F480E090E00E94001192
:102FB000089593E3980F933118F460E00E94602C19
:102FC0000895CF93882309F46EC0C82F8CEF8C0F1F
:102FD000813AA0F5809162018130E1F480916B0328
:102FE00087FF18C0EC2FE695E695E695F0E0E254F1
:102FF000FD4F8281282F30E04C2F477081E090E018
:1030000002C0880F991F4A95E2F782239323892BE8
:1030100061F410C0E8EBF2E08EEB92E02191C21770
:1030200021F08E179F07D1F705C08C2F0E949B10AF
:103030000E94B2138C2F0E94C91010C080E28C0F26
:10304000883078F4C77081E090E001C0880FCA959D
:10305000EAF790910704892B809307040E94B2132A
:1030600022C0EBE5EC0FE33040F4F0E0E958FE4F0E
:10307000808190E00E94251116C0E8E5EC0FEB314D
:1030800050F4F0E0EE0FFF1FE658FE4F8081918173
:103090000E94001108C083E38C0F833120F461E0AB
:1030A0008C2F0E94602CCF91089580E0089590911C
:1030B0006B0392FF10C041E0282F2471243009F0E7
:1030C00040E031E0282F2871283009F030E0431724
:1030D00011F02CE0822793FF10C041E0282F2471CB
:1030E000243109F040E031E0282F2871283109F01F
:1030F00030E0431711F02CE0822730916C0330FF51
:1031000010C051E0282F2171213009F050E041E03A
:10311000282F2871283009F040E0541711F029E0D9
:10312000822731FF10C041E0282F2171213109F0A1
:1031300040E031E0282F2871283109F030E04317B2
:1031400011F029E0822794FD877E08958238910549
:1031500069F1B0F48133910509F475C048F48932FE
:10316000910509F467C08A32910509F471C0089588
:103170008533910509F459C089339105B9F0089553
:10318000833E910589F138F4803E9105D1F0823E6D
:10319000910529F10895863E9105C9F1873E910573
:1031A000D9F1843E910509F06CC027C020916B03D2
:1031B00020FD57C021FD55C020916C0323FD5BC04D
:1031C000089580916B0380FD48C080916C0380FF5F
:1031D00048C080916B0384FD46C083EE51C080914E
:1031E0006B0382FF3CC0F5CF80916B0382FD37C03B
:1031F00080916C0380FD35C0ECCF80916C0381FF22
:1032000036C080916B0384FD2EC087EE39C080915B
:103210006B0383FF2AC0F5CF80916B0383FD25C02C
:1032200080916C0381FD23C0ECCF80916B0385FD01
:1032300022C01FC080916B0385FD1BC080916C0371
:1032400083FF19C00AC080916B0386FD16C017C0AA
:1032500080916B0386FD13C010C089E311C082EE1C
:103260000FC080EE0DC080E00BC086EE09C084EE7A
:1032700007C085E305C089E203C08AE201C081E39B
:1032800090E00895A0E0B0E0E8E4F9E10C94FC2EB1
:103290007C015B016A0180913F048A3018F001E0F3
:1032A00010E002C00AE010E0C1E0D0E0B501C701C3
:1032B000F6010995811115C021960C171D0794F090
:1032C000CC9F9001CD9F300D300D112480E090E017
:1032D00045E34A95F1F70000019682179307C1F77D
:1032E000E5CF81E0CDB7DEB7EAE00C94182FA0E07F
:1032F000B0E0EDE7F9E10C94FE2EC82F7B01D42F4E
:103300006901FB0160817181828193810E942F108C
:10331000643671058105910510F4DD2339F10C2E19
:10332000000CDD0B01151105A9F0FE0183E0EE0F85
:10333000FF1F8A95E1F7EA5CFE4F818192818F5DE4
:103340009B4F408150E00417150708F4A801B6010F
:103350000E94B82FCE010E94792E882341F00E944E
:103360005A10F701608371838283938381E0CDB724
:10337000DEB7E8E00C941A2FA9E0B0E0E2ECF9E146
:103380000C94022F88E0E5E7F4E0DE01119601904D
:103390000D928A95E1F78091AA04898749E050E06F
:1033A0006EE274E0CE0101960E94AB2F41E0892BC2
:1033B00009F440E009E010E09E012F5F3F4F6BE30E
:1033C00074E084E00E9477192996E4E00C941E2FA3
:1033D0000F931F93CF93DF93EC0144E050E066E23C
:1033E00074E00E94AB2F41E0892B09F440E004E037
:1033F00010E09E016DE174E082E00E947719DF9198
:10340000CF911F910F910895EF92FF921F93CF9349
:10341000DF9300D000D01F92CDB7DEB77B0180E0F4
:1034200090E00E94792E882309F456C0409139011A
:1034300050E04115510511F041E050E060913A0132
:1034400070913B016F5D7B4FCE0105960E94B82FB6
:103450006091190470911A0480911B0490911C04CE
:103460000E942F10643671058105910538F482E2BF
:1034700094E00E9446249D81891781F181E090E0CB
:103480000E94792E182F882391F04091410150E03D
:103490004530510510F044E050E0609142017091D8
:1034A00043016F5D7B4FCE0101960E94B82F82E2EF
:1034B00094E00E94462491E02D81281390E0192386
:1034C00041F10E945A106093190470931A0480937A
:1034D0001B0490931C040FC010E001C011E0809108
:1034E000220490912304A0912404B091250489839F
:1034F0009A83AB83BC83112361F089819A81AB816C
:10350000BC818093150490931604A0931704B09384
:1035100018048091150490911604A0911704B0919D
:103520001804F70180839183A283B383812F0F90C6
:103530000F900F900F900F90DF91CF911F91FF9000
:10354000EF900895F894E82FE295EF70F0E031A144
:10355000282F2F7081E090E001C0880F2A95EAF7AC
:10356000982F9095932391A392A1892B82A378946D
:103570000895ACE0B0E0EFEBFAE10C94F72EAE0169
:103580004F5F5F4F7A0188E0DA011D928A95E9F773
:103590000DE611E06A0181E7682E81E0782EAA2409
:1035A000A394B12C27E7822E21E0922EF80180818E
:1035B0008F3F09F440C0F894E82FE295EF70F0E0F7
:1035C00021A18F70A50102C0440F551F8A95E2F713
:1035D000CA01922F982B91A392A18095892382A34F
:1035E000789400C0E1E7F1E0512C31E021912F3FC8
:1035F00089F0A22FA295AF70B0E090968C9190E0E8
:103600002F7002C0959587952A95E2F780FD02C03C
:10361000832F01C080E0582A330F8E169F0631F7A2
:10362000D8018C918F3F11F00E94A21AB0EABA958E
:10363000F1F7F60150820F5F1F4FFFEFCF1ADF0A3D
:103640006016710609F0B2CF48E050E0B70184E996
:1036500092E00E94AB2F892B99F088E0F701A4E952
:10366000B2E001900D928A95E1F781E080930D041C
:103670000E94661090930C0480930B04F12C27C0D9
:1036800080910D048823D1F300919D0280910B0459
:1036900090910C040E944B10059780F310E00E559A
:1036A0001D4F44E050E064E972E0C8010E94AB2F76
:1036B000892B09F4FAC084E0E4E9F2E0D801019032
:1036C0000D928A95E1F7FF24F39410920D048091F6
:1036D0006303E0919D02882309F481C019861A864C
:1036E0001B861C860E2F10E00E551D4F80913F0447
:1036F0008A3058F444E05AE1BE01675F7F4FC80149
:103700000E9442198823E9F10AC080910E04909129
:103710000F040E944B10843F914060F743C048EE75
:1037200059E1BE01675F7F4FC8010E94421988239B
:1037300041F141E75CE1BE01675F7F4FC8010E9434
:1037400042198823F1F04CEB59E1BE01675F7F4FCE
:10375000C8010E9442198823A1F010923F04809171
:103760009C0290E044E050E0BE01675F7F4F8E55C1
:103770009D4F0E94AB2F21E020931404892B01F56B
:103780008EC080913F048F3F19F08F5F80933F047C
:1037900080913F048A3018F30E94661090930F04C2
:1037A00080930E0480911404882309F478C0FE01EC
:1037B000399684E0DF011D928A95E9F7109214048E
:1037C000E0919C02F0E0EE55FD4F89859A85AB852E
:1037D000BC8580839183A283B38381E061C0009123
:1037E0009C0210E00E551D4FF0E0EE55FD4F84E0B9
:1037F000A2E2B4E001900D928A95E1F782E294E0B2
:103800000E9446248093210484E0E6E2F4E0D8019B
:1038100001900D928A95E1F780902A0490902B04F4
:10382000A0902C04B0902D0480911004909111046C
:10383000A0911204B091130488169906AA06BB063B
:10384000B1F08092100490921104A0921204B092F0
:1038500013040E945A10861A970AA80AB90A80927D
:10386000900290929102A0929202B092930288E00C
:10387000EEE2F4E0A5E7B4E001900D928A95E1F75D
:1038800010913604112349F08091AA04811105C0DA
:103890000E942A2080E00E94CD281093AA0480E094
:1038A0008F292C96EFE00C94132FF12C0ECF0F9351
:1038B0001F9380916303882319F00E945A100EC051
:1038C0000E945A1000919002109191022091920250
:1038D00030919302600F711F821F931F1F910F91F0
:1038E0000895A4E0B0E0E7E7FCE10C94042F6091B8
:1038F0003704709138048091390490913A040E9401
:103900002F10643671058105910570F10E94571CD6
:10391000DC01CB010296A11DB11D89839A83AB8383
:10392000BC8380914F01909150018F5D9B4F4091DE
:103930004E0150E04530510510F044E050E0BE012A
:103940006F5F7F4F0E94B82F83E090E00E94792E36
:10395000882359F00E945A106093370470933804FA
:103960008093390490933A0481E02496E2E00C9429
:10397000202F7830B0F46630A0F48530A0F490E3C6
:10398000899FF001112486E0789FE00DF11D11243C
:10399000E60FF11DEE0FFF1FE258FE4F8591949147
:1039A000089580E001C081E090E008951F93CF93D7
:1039B000DF930E94A618EC01C11580E5D807E8F551
:1039C000C11590E4D90708F0A8C0C03ED10530F574
:1039D000CD3CD10508F094C0C83AD10578F4C53A79
:1039E000D10508F083C0C130D10509F47CC008F4CA
:1039F000F2C0C430D10508F0F1C0EDC0C33CD10520
:103A000008F0E9C0C85AD0E0CC0FDD1FC658DE4F21
:103A10000990D881C02DCE019464E1C0C11580E227
:103A2000D80708F0CBC0C11591E0D90708F06BC0EA
:103A3000C83ED10508F4D2C0CEC0C03682E5D80752
:103A400028F5C03492E5D90708F079C0C03282E584
:103A5000D80708F06CC0C11592E5D90708F481C0F9
:103A60004C2F4695469580E2489FA0011124C370D3
:103A700021E030E0C90102C0880F991FCA95E2F722
:103A8000EA01C82BD92BCE019D68A9C0C03A82E5B6
:103A9000D807B8F48C2F8F71C03892E5D90708F099
:103AA0007BC08695869590E2899F90011124C37012
:103AB00081E090E002C0880F991FCA95E2F79A68EA
:103AC00068C0C03C82E5D80708F46DC0C03E92E5EE
:103AD000D90708F080C0CF71DD27DC2FCC27CE01BD
:103AE000806F906A7CC081E090E079C0C55AD0E0D8
:103AF000C958DE4F8881C82FD0E0CE0190646FC0D6
:103B0000CE0190656CC08D2F0E945718182FCE01E2
:103B100099270E94A6181F715CC0CE0199270E94A8
:103B2000A618CC27DF70D06A8C2B9D2B58C0CF7184
:103B3000D0E0DC2FCC27CE01816F906A50C08C2F53
:103B40008F718695869590E2899F90011124C370AC
:103B500081E090E002C0880F991FCA95E2F79C6847
:103B600018C08C2F8F710E94571895E0D695C79575
:103B70009A95E1F7CF70D0E0DC2FCC27282F30E0EA
:103B800084FF05C084E0220F331F8A95E1F7D069D6
:103B9000CE01822B932B23C090E0D82FCC27CE01CF
:103BA000846F906A1CC08C2F8F710E9457188F7180
:103BB00090E0D82FCC27CE01906211C08D2F8F714D
:103BC0000E945718182FCE0199270E94A6181F711E
:103BD0009062912B04C080E090E001C0CE01DF91A3
:103BE000CF911F910895A6E0B0E0E9EFFDE10C94BC
:103BF000022F0E9466108C018091090490910A04A2
:103C00000817190781F019821A820E946610682F1E
:103C100049815A81792F80E090E00E94FE2910931B
:103C20000A04009309042696E4E00C941E2F809168
:103C3000080481111092080408958095909107045A
:103C40008923809307040895A22F50E0FA01EE0F14
:103C5000FF1FE654FE4F91A9905297FD9195440F96
:103C6000551FFA01E651FE4F3081232F30E02A1B09
:103C70003109290F311D97FD3A95620F0895622F82
:103C80000895E42FF0E0EE0FFF1FE651FE4F408154
:103C900034EE439F412D1124E82FF0E050E0445EC4
:103CA0005F4FDA01A21BB1099D01B7FF03C0319537
:103CB0002195310993E0220F331F9A95E1F7AF0167
:103CC000421B530B9A0157FF02C020E030E0582FEF
:103CD000259F212D1124822F0895E42FF0E0EE0F6F
:103CE000FF1FE651FE4F408134EE439F412D1124CA
:103CF000E72FF0E050E0445E5F4FDA01A21BB1090C
:103D00009D01B7FF03C031952195310993E0220F42
:103D1000331F9A95E1F7AF01421B530B9A0157FFEE
:103D200002C020E030E0279F212D1124722F08953A
:103D3000FC019B01009721F477FF2BC080E80895D8
:103D4000AC0197FF04C044275527481B590BB90104
:103D5000640F751F37FD0CC0241B350BC901A5E08E
:103D6000880F991FAA95E1F70E94912F80E20CC05D
:103D7000CB0165E0880F991F6A95E1F7BA01621BD4
:103D8000730B0E94912F80E6861BF7FF03C081957D
:103D9000089580E00895EF920F93CF93DF93D72F8C
:103DA000C82FC9010E19BA010E94981E602F681B06
:103DB0007D2F8C2FDF91CF910F91EF900895EF928F
:103DC0000F931F93CF93DF93D62FC72F182FC901BF
:103DD0000E19010FBA010E94981E081B202F219F67
:103DE000212D1124822F6D2F7C2FDF91CF911F91D8
:103DF0000F91EF900895EF920F931F93CF93DF935E
:103E0000D62F172FC82FC9010E19070FBA010E940C
:103E1000981E702F781B719F712D11246D2F8C2F80
:103E2000DF91CF911F910F91EF900895482F982F18
:103E300046FD9095E92FEF739F7046FD9F5FE295D9
:103E4000EF70EE0FF0E0EE54FE4F2181299F802DA0
:103E5000212D112482958F702295207F822B308115
:103E6000982F930F892F47FD8195805808951F93B0
:103E7000CF93DF93D62FC72F182F822F86950E94BE
:103E8000161F805887FD8195880F282F219F212D8F
:103E90001124822F6D2F7C2FDF91CF911F910895D8
:103EA00030916403311104C08B3191050CF04B97B4
:103EB0000E942C270895FF920F931F93CF93DF93B7
:103EC000182F062FF42EC0E0D0E02F2D402F612FA9
:103ED000CE010E94501F2196C633D105B1F7CDB750
:103EE000DEB7E5E00C941D2F40915E0150915F011B
:103EF00025E038E0429FC001439F900D529F900DF6
:103F00001124875E994C90935F0180935E01890F25
:103F1000089520E030E0869F212D969F200D311DD1
:103F20001124C9010895982F80916403882321F0FA
:103F300081E09B3128F003C081E0963308F080E0F7
:103F40000895A0E0B0E0E7EAFFE10C94FE2E7B01CB
:103F5000E82FF0E0F11006C0E25AFC4F8491782F70
:103F6000682F73C02F2D30E0E25AFC4FE491FE2FF2
:103F70000E2F10E046E0649FC0011124CFEFD0E087
:103F8000BE010E947D2FAB016BEA6403C001659FF7
:103F9000900D11248E0D911D8E0D911D982F990F4E
:103FA000980FBE01621B730B609FD001619FB00D23
:103FB000709FB00D11248B2FF99EB0011124672F33
:103FC00077277E01E61AF70AB701609F7001619FAB
:103FD000F00C709FF00C11246E01C91AD108C29E1A
:103FE000B001C39E700DD29E700D1124272F332770
:103FF000C21BD30BC09F9001C19F300DD09F300DCD
:104000001124732F4230510591F048F441155105A8
:10401000D9F041305105B1F47E2FEF2D15C0443059
:10402000510561F040F04630510571F00BC0EB2FA7
:10403000832F7F2F09C07F2DEB2F02C0E32F7B2F13
:104040008F2F02C07B2F8F2D6E2FCDB7DEB7E8E00C
:104050000C941A2FA5E0B0E0E0E3F0E20C94F42E0B
:10406000782E8091690187110DC02091750423700D
:1040700030E04091680150E081E02417350719F4E1
:1040800080E001C081E081708093660180917A04B4
:1040900090916501981739F08093650140E060E0E8
:1040A00080E00E945B1F88E0781229C08BEF9EE1C0
:1040B00005C0971508F44DC18FED9EE10E94752350
:1040C0000AC0971508F05CC0F5E07F12D6C087E300
:1040D0009FE10E940424909164019F5F909364018A
:1040E0008111D3C282E080936701809166018111C2
:1040F000CCC27110CAC283E080936701C6C2871523
:1041000008F419C193E07912DCCF809164010E9418
:10411000B9289A83898300917704D09078042091FC
:10412000790410E4129F112D1124EA81F981FE1700
:1041300028F58981E82EF12CF701EA5AFD4F90818C
:10414000809165018923B1F0F701EE0FFF1FE6545E
:10415000FE4F81A982958F7060917604819F600DDA
:104160001124702F8D2D0E94A11F472F282FC701CA
:104170000E94501F99819F5F9983D7CF8E2F18C0BF
:10418000E1E07E122DC0809164010E94B9289A83DB
:1041900089836091760470917704809178040E94FD
:1041A000A11F162F072FF82E8A819981981718F0D2
:1041B0000E94931F90CF2981E22FF0E0DF01AA5ADD
:1041C000BD4F8C9190916501982331F02F2D402F98
:1041D000612FCF010E94501F39813F5F3983E4CFA7
:1041E000E71558F080916601882309F444C040E047
:1041F00060E080E00E945B1F3EC0809164010E94ED
:10420000B9289A8389830091770410917804F090FB
:1042100076046F2D702F812F0E94A11FE62ED72EBE
:10422000C82E609179046F0D702F812F0E94A11FFD
:10423000162F072FF82E2A8139813217D0F4E98101
:104240008E2F90E0FC01EA5AFD4F308120916501EC
:10425000232359F030FF04C02F2D402F612F03C0BE
:104260002C2D4D2D6E2D0E94501FF981FF5FF9837B
:10427000E2CF822F9DCF80E02ECF7F1608F03EC088
:10428000809164010E94B9289A8389830091770400
:10429000D09078042091790410E4129F112D1124FC
:1042A0008A819981981708F083CF2981E22EF12C19
:1042B000F701EA5AFD4F9081809165018923D1F081
:1042C000F701EE0FFF1FE651FE4F6081169FB00110
:1042D000112455E0759567955A95E1F7809176041C
:1042E000680F702F8D2D0E94A11F472F282FC70107
:1042F0000E94501F39813F5F3983D2CF26E072126E
:1043000003C08DE69EE1E5CE37E073120EC081E476
:104310009EE1DFCE7E1608F466C0FFE07F1609F44A
:10432000A5C02FEF721609F47FC1809164018F5FE1
:1043300080936401D7CE8CE0781203C08BEC9EE1B1
:10434000BDCE871548F09AE07912B3CE8FE39EE197
:10435000C0CE84E29EE1BDCEEEE07E12DBCF809146
:1043600064010E94B9289A8389830091770410918F
:104370007804F09076046091790466956695669568
:1043800080917004909171040E94891F0E94161FF1
:10439000805887FD8195880F682F2CE0629F612DE2
:1043A00011246F0D702F812F0E94A11F162F072F30
:1043B000F82E8A819981981708F0FACE2981E22F88
:1043C000F0E0DF01AA5ABD4F8C91909165019823CE
:1043D00031F02F2D402F612FCF010E94501F3981C6
:1043E0003F5F3983E6CF809164010E94B928192F7D
:1043F00090916601911121C06091790420E1620FD2
:1044000008F46FEF80917004909171040E94891FED
:104410006AE070E00E947D2F892B31F50E94741FA5
:10442000E6E38E9F9001112460916501832F932F05
:10443000990F990B0E94F82717C0282F30E03D8371
:104440002C83E12EF12CEC81FD81EE15FF0564F447
:10445000609165018C819D810E94F8278C819D81EE
:1044600001969D838C83EFCF812FA2CE8091660130
:10447000882329F040E060E080E00E945B1F80918B
:1044800064010E94B9289B8340917004509171048B
:104490006091720470917304809158049091590452
:1044A000A0915A04B0915B0484179507A607B7073B
:1044B00008F0B8C060917604709177048091780418
:1044C0000E94A11F362E7A83282E00E414E0EAEB26
:1044D000F1E0FD83EC833AEE832E31E0932EAC8045
:1044E000BD806501780132E03983F7018081811157
:1044F00004C0412C512C612C03C0422C5A80632CE7
:10450000F50181915F0190E0FC01EA5AFD4F308195
:1045100020916501232329F0242D452D662D0E942D
:10452000501FF601858190E0FC01EA5AFD4F308171
:1045300020916501232329F0242D452D662D0E940D
:10454000501FF701818181937F01F981F150F98337
:1045500021E0C21AD108F111C8CFF801828181117E
:1045600004C0D12CE12CF12C03C0D22CEA80F32C16
:10457000EC81FD81828190E0FC01EA5AFD4F30819F
:1045800020916501232329F02D2D4E2D6F2D0E94A2
:10459000501FEC81FD81838190E0FC01EA5AFD4FC0
:1045A000308120916501232329F02D2D4E2D6F2D73
:1045B0000E94501F0E94741F837091E009F090E0E8
:1045C000F80192830D5F1F4F2C813D812A5F3F4F81
:1045D0003D832C838216930609F081CF20917904C4
:1045E00030E1230F08F42FEF60E1822F90E00E946A
:1045F000891FBC0188EB9BE00E947D2F8091700495
:1046000090917104A0917204B0917304860F971F6A
:10461000A11DB11D8093580490935904A0935A048E
:10462000B0935B048B81C4CD809170049091710430
:10463000A0917204B091730488279C70AA27BB27AD
:104640002AE0B695A795979587952A95D1F7823058
:104650009105A105B10571F083309105A105B10562
:1046600069F040E00197A105B10511F060E008C0D4
:1046700064E102C044E160E080E003C044E164E141
:1046800084E10E945B1F82E037CD2596E2E10C9425
:10469000102F90917504937071F08093760460935D
:1046A0007704493708F048E7409378048091740410
:1046B0008160809374040895909175049370A1F0C3
:1046C000811102C0946007C0803110F09C6303C068
:1046D000880F880F982B9093750410926701809132
:1046E00074048160809374040895A0E0B0E0EBE767
:1046F000F3E20C94FD2E6C01809164010E94B928B4
:10470000F92E182F6091790466958091700490912C
:1047100071040E94891FB82E1F1508F06DC0C12FAB
:10472000D0E0FE01EA5AFD4F908180916501892316
:1047300009F460C0FE01EE0FFF1FE651FE4F4081FD
:1047400050E040575109FE01EE0FFF1FE654FE4FA7
:10475000E1A9F0E0B097449FB001459F700D700D46
:104760001124EE9FC001EF9F900D900D1124680F52
:10477000791F6230710510F4062F2BC0613E8EE167
:10478000780748F4CB01B5E096958795BA95E1F79F
:1047900028E0280F01C02FEF31E0822F90E0830F37
:1047A000911D95958795889FD001899FB00DB00D7B
:1047B00011246A177B0718F42FEF280F04C08F3FCE
:1047C00039F031E0380F231740F70FEF030F01C026
:1047D0000FEF609176047091770480917804EB2C50
:1047E0009F01F60109950E94A11F472F282FCE0196
:1047F0000E94501F1F5F90CF8F2D0E94931FCDB737
:10480000DEB7E9E00C94192FA0E0B0E0EAE0F4E2B2
:104810000C94FF2E8C01809164010E94B928EC0158
:10482000609179046695669521E0620F08F46FEF58
:1048300080917004909171040E94891FD82ECD1729
:10484000E8F4EC2EF12CF701EA5AFD4F90818091AB
:104850006501892389F060917604709177048091D5
:1048600078042D2D4C2FF80109950E94A11F472F88
:10487000282FC7010E94501FCF5FE1CF8D2F0E94CC
:10488000931FCDB7DEB7E7E00C941B2FFC01AC0102
:104890004C5F5F4F8FEF91E32191822728E030E05A
:1048A00087FF03C0880F892701C0880F2150310975
:1048B000B9F7E417F50781F70895AAE2B0E0E3E657
:1048C000F4E20C94032FE8E6F4E080E794E0209112
:1048D000F10021938E179F07D1F7809169048330EF
:1048E00009F461C030F4813071F0823009F4A0C065
:1048F000B7C08A3009F48CC08B3009F46CC08930A1
:1049000009F0AEC020C080916804813A09F0A8C0C7
:104910008091E800877F8093E80080916C049091FB
:104920006D04892B21F468E08CE594E003C060E01D
:1049300080E090E070E00E94870F8091E8008B7724
:104940008093E8008DC080916804813209F088C0AE
:1049500080916C0490916D04029708F081C0809161
:10496000E800877F8093E8008091E80082FD05C021
:10497000809166048111F8CF73C02091F30080917B
:10498000F20090E0922B029731F48091F100813097
:1049900011F0863021F48091F100809361018091C3
:1049A000E8008B7759C080916804813A09F058C0BB
:1049B00080916C0490916D04892B09F051C0809115
:1049C000E800877F8093E8008091E80080FFFCCFBB
:1049D000809162013CC080916804813209F040C03E
:1049E00080916C0490916D04892BD1F58091E80041
:1049F000877F8093E8000E94F20D81E090916A0425
:104A0000911101C080E0809362010E94EA1628C0E3
:104A100080916804813221F58091E800877F80933E
:104A2000E8000E94F20D80916B048093600118C031
:104A300080916804813AA1F48091E800877F809397
:104A4000E8008091E80080FFFCCF809160018093B6
:104A5000F1008091E8008E778093E8000E94F20DCB
:104A60008091E80083FFD6C1809168049091690429
:104A7000492F50E04A30510508F0CCC1FA01ED55FC
:104A8000FF4F0C94A52F803821F0823809F0C2C165
:104A900008C08091640490916504992389F0826034
:104AA0000FC080916C048F70873008F0B3C1809381
:104AB000E9008091EB0085FB882780F91092E900DE
:104AC0009091E800977F9093E8008093F100109216
:104AD000F10066C1282F2D7F09F09CC1882319F0B1
:104AE000823061F097C180916A04813009F092C1EF
:104AF000933009F080E0809365042EC080916A04B1
:104B000081112AC080916C048F702FEF280F2630FE
:104B100008F080C18093E9002091EB0020FF1CC0C9
:104B2000933021F48091EB00806214C09091EB00EF
:104B300090619093EB0021E030E0A90102C0440FA6
:104B4000551F8A95E2F74093EA001092EA0080919F
:104B5000EB0088608093EB001092E9008091E80000
:104B6000877F21C1811156C110916A041F778091FE
:104B7000E3008078812B8093E3008091E800877FB9
:104B80008093E8000E94F20D8091E80080FFFCCF46
:104B90008091E30080688093E300111102C082E0FD
:104BA00001C083E08093660435C18058823008F0EC
:104BB00031C180916A0490916B048C3D53E095075C
:104BC00079F583E08A838AE289834FB7F894DE011E
:104BD000139620E03EE051E2E32FF0E050935700BF
:104BE000E49120FF03C0E295EF703F5FEF708E2FDE
:104BF00090E0EA3010F0C79601C0C0968D939D9367
:104C00002F5F243149F74FBF8091E800877F809361
:104C1000E8006AE270E0CE0101960E94870FAEC004
:104C200040916C0450916D04292F332723303105B6
:104C3000A9F068F42130310509F4FBC022303105B8
:104C400009F0E8C08BE390E0E8E5F5E044C02132EC
:104C5000310521F12232310571F1DCC09927813013
:104C60009105A1F058F0029709F0D4C0E5EAF5E00B
:104C7000E4918E2F90E0E5EAF5E02AC0E5ECF5E05E
:104C8000E4918E2F90E0E5ECF5E022C0E3EBF5E057
:104C9000E4918E2F90E0E3EBF5E01AC04115510549
:104CA00009F4CCC04130510509F0B4C089E090E06E
:104CB000E3E8F5E010C04115510509F4C4C04130E6
:104CC000510509F0A7C086EB90E0EEE5F4E003C0E3
:104CD000009709F49FC02091E800277F2093E80007
:104CE00020916E0430916F048217930708F49C01A1
:104CF00040E02115310589F180916604882309F48B
:104D00003DC08530D9F18091E80083FD37C08091A6
:104D1000E80082FD2FC08091E80080FFEACF40913B
:104D2000F3008091F20090E0942B2115310559F0A9
:104D30008830910540F444914093F1003196215020
:104D400031090196F2CF41E0089709F040E08091E7
:104D5000E8008E778093E800CCCF4111CDCF0AC018
:104D600080916604882351F0853041F08091E800FD
:104D700083FD04C08091E80082FFF2CF8091E800BB
:104D80008B778093E80046C0803809F043C080915B
:104D9000E800877F8093E800809167048093F100AA
:104DA0008091E8008E778093E8000E94F20D32C077
:104DB000811130C080916A0490916B049927029709
:104DC0004CF58091E800877F8093E80010916A0499
:104DD000109367040E94F20D111106C08091E30048
:104DE00087FD02C081E001C084E08093660442E058
:104DF00061EC81E00E94110E42E261EC82E00E94CF
:104E0000110E80916604843011F081E001C082E0CF
:104E1000809363018091E80083FF1AC08091E800CD
:104E2000877F8093E8008091EB0080628093EB00A5
:104E30000FC082E190E0E3E9F5E04DCF89E090E03A
:104E4000EAE6F5E048CF84E490E0E4E1F5E043CF22
:104E5000AA96E3E00C941F2FFC01EE0FFF1F8E0FAC
:104E60009F1FFC01E555FB4F61834083228308951A
:104E7000539A08958BB1877F9BB198602FB7F894B0
:104E8000EBEAF4E035E0ED34F30789F0319148E0E6
:104E90009BB9000000C037FF8BB9330F000000C082
:104EA00000C000C08BB900C04A9591F7EBCF2FBF6F
:104EB0008FE594E00197F1F700C000000895AC0180
:104EC00080914F0360915003982F961759F1292F25
:104ED00030E0F901EE0FFF1FE95BFC4F0190F0811C
:104EE000E02DE417F507C9F44630510548F467E0B2
:104EF000649FF001659FF00D1124E55FFE4F02C035
:104F0000E0E0F0E041E0448398130CC02F5F3F4F96
:104F10002370332720934F0308952F5F3F4F922F25
:104F20009370D3CF0895EF92FF920F931F93CF9377
:104F3000DF938091DE028823D9F1C09151058DE085
:104F4000F82E8091DE02C81778F5EE24E394EC0E7B
:104F5000E0925105D0E0FC9EF001FD9EF00D112481
:104F6000E152FD4F84818823E9F087819085892B68
:104F700021F481859285019659F400811181228165
:104F80003381448155816681778180850E941B171A
:104F9000FC9EF001FD9EF00D1124E152FD4F1482A4
:104FA00010925005CE2DCDCF1092DE0210925105F9
:104FB000CDB7DEB7E6E00C941C2F10924F0510928F
:104FC0004E05EBE0F1E08581811102C0148216826A
:104FD000379681E0E533F807B1F7089580914D05E4
:104FE000882329F082E20E94881710924D050895C7
:104FF000A0E0B0E0EEEFF7E20C94FF2EEC01FC0134
:10500000EA5AFD4F9081692341F1D09077040091D5
:10501000780410917604E12EF12C0E94741F282F41
:10502000C7018C549F4F68E671E00E94912F8E1942
:105030009F0997FD0396959587959595879523707C
:10504000612F289F600D11247D2D802F0E94A11FAC
:10505000472F282FCE010E94501FCDB7DEB7E7E0C3
:105060000C941B2FE5E7F4E024813AE0231B08F4BD
:1050700020E02483809174048160809374040895F7
:10508000E5E7F4E024813AE0230F08F42FEF2483CE
:10509000809174048160809374040895E5E7F4E0DE
:1050A000438128E0421B08F440E08181628190E066
:1050B0000E9449230895E5E7F4E0438128E0420F88
:1050C00008F44FEF8181628190E00E9449230895A6
:1050D000E5E7F4E0628128E0621B08F460E081818A
:1050E000438190E00E9449230895E5E7F4E062815E
:1050F00028E0620F08F46FEF8181438190E00E9405
:1051000049230895E5E7F4E0818190E043816281DD
:1051100008970E9449230895E5E7F4E0818190E033
:105120004381628108960E94492308958091750405
:1051300086958695815009F48FE00E945C2308953E
:1051400080917504869586958F5F803108F081E0A7
:105150000E945C230895E5E7F4E0908181E08927CF
:10516000808310926701809174048160809374043D
:1051700008959BE0899F802D1124980F973308F0A4
:1051800096E320916403222321F09C3128F09BE1D7
:1051900008958B3108F48BE1089580936901809123
:1051A00075048370809368010E943A2783E080939E
:1051B000670108954F925F926F927F928F929F92B4
:1051C000AF92BF92CF92DF92EF92FF92CF938090F7
:1051D000A6049090A704A090A804B090A904809180
:1051E0006303882339F0C501B4010E942F106B01BD
:1051F0007C0108C00E94571C6B017C01C818D908AB
:10520000EA08FB080E94571C4B015C016093A6044E
:105210007093A7048093A8049093A904A0917D049F
:10522000EDE7F4E08A2F90E04FEF5FEF60E070E091
:105230004C195D096E097F09A91799F0218D328DEE
:105240002901612C712C441555056605770510F46C
:10525000815004C02C0D3D1D328F218F9F5F3296EF
:10526000EBCF80937D048091AA04811108C0C09186
:1052700075048C2F837019F0C695C69501C0C0E0E7
:10528000809167018130A1F028F08230E1F0833015
:10529000F1F049C010926401809270049092710400
:1052A000A0927204B092730481E0809367013BC0C6
:1052B0008C2F0E942A20CC23B1F18091640181506F
:1052C0000E94B92830C08C2F0E94CD282CC080911C
:1052D0007404882351F048E050E067E170E085E70E
:1052E00094E00E94492F10927404C0907004D090F2
:1052F0007104E0907204F09073048091630388233A
:1053000029F0C701B6010E942F1006C00E94571C49
:105310006C197D098E099F09603171058105910520
:1053200010F010926701CF91FF90EF90DF90CF9037
:10533000BF90AF909F908F907F906F905F904F90B5
:1053400008959C013A9521153F4130F5BC0166272F
:105350007270AC01442754709C012227387094FF6E
:105360000FC090FF02C080E101C080E0672B09F010
:105370008062452B09F08064232B79F080680895C2
:10538000892F8170672B09F08260452B09F08460BA
:10539000232B19F08860089580E00895A6E0B0E01E
:1053A000E4EDF9E20C94032FFC01878190850097CE
:1053B00009F5CF0126E0DE01119601900D922A95A4
:1053C000E1F7FC01258189819A81222359F0662326
:1053D00049F00E940414182F682F89819A810E9435
:1053E0005C1603C00E942916182F69817A81812FCB
:1053F0000E94B91C2696E3E00C941F2FACE1B0E0AC
:10540000E4E0FAE20C94F42E4B8B5C8B6D8B7E8B7C
:105410008F8B988F9111109250058E01065F1F4F50
:1054200089E0F80111928A95E9F786E0FE0173960A
:10543000D80101900D928A95E1F78E8581110CC0FB
:105440000A851B852C853D854E855F856889798910
:105450008A890E941B17D5C161E0C8010E94CE292C
:1054600061E0C8010E94CE296C018035FCE79F07EE
:1054700039F48F858823D1F081E080933501BFC155
:1054800081359C4731F48F85882381F00E945F121B
:10549000B6C182E5C8168CE7D80641F48F8588230B
:1054A00029F080913501882339F3F0CFFBE0EF2E0E
:1054B000F1E0FF2E512CA12CB12C66246394712CA9
:1054C00044244394FE013196FA8FE98FF70140811D
:1054D000518188248A94982C60E0262F30E0F901CD
:1054E000EE0FFF1FE40FF51F85919491C816D906A2
:1054F00009F44901892B11F06F5FEFCFFFEF8F1691
:105500009F0609F41FC1F7014481411104C01091A5
:105510003501812F02C080E090E0182F11702F8597
:10552000F70195818681222309F4B3C0112309F480
:10553000B0C0911114C09301082C01C0220F0A942D
:10554000EAF7822B868380914E0590914F05C29792
:1055500030F482E390E090934F0580934E059301E1
:1055600002C0220F331F6A95E2F721503109F7017B
:10557000868190E02817390709F0E5C08091510332
:1055800090915203009741F00E944B10C39720F076
:10559000F701448211E0D7C080914F03209150035E
:1055A0002B8FA0E0B0E02B8D821709F460C0282F6C
:1055B00030E0F901EE0FFF1FE95BFC4F40815181A4
:1055C0004630510548F497E0949FD001959FB00D67
:1055D0001124A55FBE4F02C0A0E0B0E03C90119640
:1055E0002C90119770E090E060E0E32DF22DE60F33
:1055F000F11DE60FF11D8590949081149104C1F086
:10560000F701008191819C8F90E0E02FFC8DE90FE4
:10561000F11DE90FF11D459154914115510531F0EE
:105620008416950609F471E09F5FEFCF6F5FDDCFC1
:105630007723B9F0961708F4DBC01097A1F0149601
:105640004C921497AE15BF0509F47DC090914F039D
:10565000891309C0C90101968370992780934F036C
:1056600002C0A0E0B0E0C901019683709CCFAE15E6
:10567000BF0509F468C090E0FC01EE0FFF1FE95B75
:10568000FC4FB182A08201968370992780935003CA
:105690005AC0911112C0930102C0220F331F6A95A4
:1056A000E2F72150310990E028173907F1F544233A
:1056B000E9F1C5010E945F2738C090E09C012150AC
:1056C000310928233923082C02C0959587950A941F
:1056D000E2F7232B39F580FF25C0F7018281938102
:1056E000892BE1F089E0E98DFA8D11928A95E9F72D
:1056F0000E946610282F8B839C8384E08D83F701A2
:1057000082819381782F8887998709811A813C81CA
:1057100044E05E816F81892F0E941B17F70115827B
:1057200011E004C0182F117001C010E0C301082C53
:1057300001C0880F0A94EAF78095F70196818923C2
:10574000868301C010E0512AFFEFAF1ABF0A27E09D
:10575000E20EF11C86E0A816B10409F0B7CE8F85E1
:10576000882379F1552069F10E94661090935203C5
:10577000809351038091DE028830A0F591E0980F6C
:105780009093DE0299E0FE013A96DE0111960190B7
:105790000D929A95E1F7EDE08E9FC00111248152A0
:1057A0009D4F29E0FE013196DC0101900D922A9572
:1057B000E1F72FEF3FEFFC0132872187D486C386C4
:1057C00011C090914F0380915003981719F00E94D7
:1057D0006E1208C00E949327109252031092510338
:1057E0000E94DD2781E0511080E080FD29CE09C0B4
:1057F000E114F10409F435CFF7014482A4CF81E02C
:10580000F4CF6C96E2E10C94102F0E94EA162FEF71
:1058100084E39CE0215080409040E1F700C000000C
:105820009CE088E10FB6F894A895809360000FBEC5
:1058300090936000FFCFEF92FF920F931F93CF934F
:10584000DF93EC018B017C0180EEE81AF10898E00F
:10585000E916F10410F0209731F4CE010E94A1293D
:105860000E94A41705C0CE010E94A1290E9493178F
:105870008C2F0E94E1170115110549F08FE99FE077
:105880000197F1F700C0000001501109F4CF8C2FEF
:105890000E94AE1798E0E916F10410F0209731F459
:1058A000CE010E94A1290E949D1705C0CE010E9431
:1058B000A1290E948817CDB7DEB7E6E00C941C2F13
:1058C000662309F45CC08D3C21F40E94311281955D
:1058D00004C08E3C29F40E94311280935D03C5C040
:1058E0008F3C21F40E943112819504C0803D29F43F
:1058F0000E94311280935C03B8C0893D19F40E9464
:105900000F1205C08A3D31F40E940F1281958093D9
:105910005E03ABC08B3D21F40E940F12819504C041
:105920008C3D29F40E940F1280935F039EC09FE27A
:10593000980F983078F421E030E0A90102C0440FBC
:10594000551F9A95E2F7CA0190915B03892B8093CA
:105950005B038BC08D3D21F48091550381600CC0A9
:105960008E3D21F480915503826006C08F3D09F081
:105970007CC08091550384608093550376C08D3C34
:1059800039F490915D0397FF35C010925D0359C0C3
:105990008E3C29F490915D031916BCF32BC09091B5
:1059A0005C038F3C29F497FF25C010925C0349C02B
:1059B000803D19F41916CCF31DC090915E03893D0A
:1059C00029F41916BCF410925E033BC08A3D19F409
:1059D00097FF10C0F8CF8B3D39F490915F0397FF8C
:1059E00009C010925F032DC08C3D21F490915F039C
:1059F0001916BCF39FE2980F983080F421E030E054
:105A0000A90102C0440F551F9A95E2F7CA0180957B
:105A100090915B03892380935B0313C08D3D21F438
:105A2000809155038E7F0BC08E3D21F480915503EC
:105A30008D7F05C08F3D29F4809155038B7F809326
:105A4000550380915C03811106C080915D03811133
:105A500002C01092530380915E03811106C08091B1
:105A60005F03811102C0109254030E94E511089552
:105A70008EE14A9B02C08150E1F74A9BFECF089518
:105A80005A9880E28A95F1F75A9A0895FC012AE023
:105A90002A95F1F728E090E080E031E040E14A9576
:105AA000F1F7880F4A9B02C08160932700C0000075
:105AB00040E14A95F1F7215089F720E12A95F1F765
:105AC00029B100C0000030E13A95F1F722FB22270E
:105AD00020F992272081920F90830895A1E0B0E0F1
