:100000000C9400060C9438060C9438060C943F2C83
:100010000C9438060C9438060C9438060C94380668
:100020000C9438060C9438060C942B160C946D1511
:100030000C94C0220C9438060C9438060C943806A4
:100040000C9438060C9438060C9438060C94380638
:100050000C9438060C9473220C9438060C943806D1
:100060000C9438060C9438060C9438060C94380618
:100070000C9438060C9438060C9438060C94380608
:100080000C9438060C9438060C9438060C943806F8
:100090000C9438060C9438060C9438060C943806E8
:1000A0000C9438060C9438060C943806750DE90D3E
:1000B0007D0D470D4B0D810D4E0D840D8F0D590D8E
:1000C000DF0D5D0D930D610D970DC10D650D9B0D40
:1000D000CB0D6B0DA10DAB0D520D880D550D8B0D7C
:1000E000700DA60DB70DD70DD90D430D790DF20D7D
:1000F000320E380E260E2C0E3E0E440E4A0E150FF2
:10010000150F480F480FB80FD60FF310F310DB0F81
:1001100069107A107A108C13B3134B15B3134B1567
:10012000FB131E144B150D15201500DA0281FFD9A3
:10013000F1DB20A4A62EAF00A0C0D30000A1C8D33D
:100140000000AED580A81F408D142000556E646558
:10015000660041646A757374005261697365004C8E
:100160006F7765720044656661756C74004C6179E7
:1001700065723A20003A002C206B007800000000E5
:100180000000FEFFFFFFFFFFFFFFFFFFFFFFFFFF7E
:10019000FFFFFFFFFFFFFFFFFFFFFFFFFFFFFFFF6F
:1001A000FFFFFFFFFFFFFFFFFF0F0F0F0F0FFFFF0F
:1001B000FFFFFFFFFFFFFFFFFFFFFFFFFFFFFE004F
:1001C000000000000000000000000000000000002F
:1001D000000000000000000000000000000000001F
:1001E000000000000000000000000000000000000F
:1001F00000000000000000000000000000000000FF
:100200000000FFFFFFFF8383838383FFFF838383DC
:1002100083FFFF8383838383FFFF83838383FFFFC6
:100220008383838383FFFFFFFF8282828282FFFFBB
:1002300083838383FFFF8383838383FFFFFFFF0029
:10024000000000000000000000F8FCFCFC9C9CFC8E
:10025000FCF8F870000000000030787C3C9CFCFC4E
:10026000F8F00000000000C0F0F8F83C3C9CBCFC3A
:10027000B8B8A0000000000000000000000000006E
:100280000000FFFFFFFF4141414141FFFFFFFFFF32
:10029000FFFFFF4141414141FFFFFFFFFFFFFFFF24
:1002A0004141414141FFFFFFFF4141414141FFFFCA
:1002B0007F7F7F7FFFFF4141414141FFFFFFFF0003
:1002C0000000000000000000003F3F3F3F03070F19
:1002D0003F3F3E382000000000383C3E3F3F3F3B60
:1002E00039380000000000070F1F3F3C383B3B3F00
:1002F0001F1F0F00000000000000000000000000B1
:1003000000007FFFFFFFF0F0F0F0F0FFFFFFFFFFC6
:10031000FFFFFFF0F0F0F0F0FFFFFFFFFFFFFFFF38
:10032000F0F0F0F0F0FFFFFFFFF0F0F0F0F0FFFF73
:10033000F0F0F0F0FFFFF0F0F0F0F0FFFFFF7F00D3
:1003400000000000000000000000000000000000AD
:10035000000000000000000000000000000000009D
:10036000000000000000000000000000000000008D
:10037000000000000000000000000000002020201D
:10038000206162636465666768696A6B6C6D6E6F35
:10039000707172737475767778797A313233343557
:1003A0003637383930524542545F2D3D5B5D5C2312
:1003B0003B27602C2E2F20202005010902A101855A
:1003C000020901A100050919012908150025019557
:1003D00008750181020501093009311581257F95D4
:1003E000027508810609381581257F9501750881F8
:1003F00006050C0A38021581257F950175088106CE
:10040000C0C005010980A101850319012AB70015A3
:100410000126B700950175108100C0050C0901A1E6
:1004200001850419012AA002150126A00295017573
:10043000108100C005010906A1018506050719E024
:1004400029E71500250195087501810205071900A6
:1004500029EF1500250195F07501810205081901A4
:100460002905950575019102950175039101C00556
:10047000010906A101050719E029E71500250195E5
:100480000875018102950175088101050719002988
:10049000FF150026FF009506750881000508190163
:1004A0002905150025019505750191029501750332
:1004B0009101C009023B00020100A0FA09040000FA
:1004C0000103010100092111010001224400070577
:1004D0008103080001090401000103000000092153
:1004E0001101000122B6000705820320000112015C
:1004F0000002000000085346010001000102000153
:100500000C0343006F0072006E00650000001003D2
:1005100066006F006F007300740061006E000000E1
:10052000040309040000000000003E5B4F5B3E0036
:100530003E6B4F6B3E001C3E7C3E1C00183C7E3CDC
:1005400018001C577D571C001C5E7F5E1C000018A5
:100550003C180000FFE7C3E7FF0000182418000064
:10056000FFE7DBE7FF0030483A060E00262979292D
:100570002600407F05050700407F05253F005A3CC7
:10058000E73C5A007F3E1C1C0800081C1C3E7F00F4
:1005900014227F2214005F5F005F5F0006097F0165
:1005A0007F00006689956A0060606060600094A2C8
:1005B000FFA2940008047E04080010207E20100092
:1005C00008082A1C0800081C2A0808001E10101021
:1005D00010000C1E0C1E0C0030383E383000060E89
:1005E0003E0E060000000000000000005F0000005A
:1005F000000700070000147F147F1400242A7F2ABC
:100600001200231308646200364956205000000887
:1006100007030000001C224100000041221C0000D2
:100620002A1C7F1C2A0008083E0808000080703041
:1006300000000808080808000000606000002010A2
:10064000080402003E5149453E0000427F40000040
:100650007249494946002141494D33001814127F1F
:1006600010002745454539003C4A494931004121A0
:1006700011090700364949493600464949291E00F3
:1006800000001400000000403400000000081422A4
:100690004100141414141400004122140800020133
:1006A000590906003E415D594E007C1211127C0032
:1006B0007F49494936003E41414122007F41414145
:1006C0003E007F49494941007F09090901003E4137
:1006D000415173007F0808087F0000417F410000FE
:1006E0002040413F01007F08142241007F404040EC
:1006F00040007F021C027F007F0408107F003E4103
:1007000041413E007F09090906003E4151215E003A
:100710007F091929460026494949320003017F0112
:1007200003003F4040403F001F2040201F003F404B
:1007300038403F0063140814630003047804030086
:100740006159494D4300007F4141410002040810B6
:100750002000004141417F000402010204004040AA
:100760004040400000030708000020545478400037
:100770007F284444380038444444280038444428FE
:100780007F0038545454180000087E0902001824D1
:10079000241C78007F080404780000447D40000099
:1007A0002040403D00007F102844000000417F4071
:1007B00000007C04780478007C0804047800384445
:1007C000444438007C1824241800182424187C0081
:1007D0007C080404080048545454240004043F4492
:1007E00024003C4040207C001C2040201C003C4059
:1007F00030403C004428102844004C9090907C00ED
:100800004464544C44000008364100000000770066
:1008100000000041360800000201020402003C26EC
:1008200023263C0000000000000000000000000043
:1008300000000000C0E0F0F8F81800C0F0FCFEFF77
:10084000FFFFFFFFFFFF7E00000000000000000030
:1008500080C0E0E0E0E0E0E0E0E0C0800000000018
:1008600080C0E0E0E0E0E0E0E0E0C080000000E028
:10087000E0C0C0E0E0E0E00000E0E0C0C0E0E0E0B8
:10088000E0E0C0800000000080C0E0E0E0E0E0E0E8
:10089000E0E0C08000000000000000000000000058
:1008A0000000E0F0F0F0E0ECEEF7F37020007C7C6C
:1008B0007C7E007E7E7E7F7F7F000080C0E07E5B4E
:1008C0004F5BFEC00000C000DCD7DEDEDED7DC0000
:1008D000C000000000000000000000000000000058
:1008E00000000000000000000000000000F8FCFE16
:1008F000FFE000FFFFFFFFFFFF80FFFFFFFFFFFFA5
:10090000FFFFFF1F0701000000000000000000FFC4
:10091000FFFF8100000000000081C3C3C30000FF8F
:10092000FFFF8100000000000081FFFFFF0000FFCB
:10093000FFFF01000000000000FFFFFF01000000BA
:100940000001FFFFFF0000FFFFFF9D1C1C1C1C1C83
:100950001C9DDFDFDF000000000000000000000041
:1009600000000F1F3F7F7F7F7F7F3F1E0C001F1FF8
:100970001F3F003F3F3F7F7F7F00307B7F783020ED
:100980002030787F3B0003000F7F0F0F0F7F0F0099
:100990000300000000000000000000000000000054
:1009A00000000000000000000000000000030F1F16
:1009B0003F3F3F3F1F1F3F3F7F7F7F3F3F1F3F7FA7
:1009C0007F7F7F7C7878381C0F00000000000000DB
:1009D00001030707070707070707030100000000D7
:1009E00001030707070707070707030100000007C0
:1009F00007070000000000000007070700000000D4
:100A000000000707070000000103070707070707A3
:100A100007070301000000000000000000000000C4
:100A200000000000000000000000000000000000C6
:100A300000000000000000000000000000000000B6
:100A400000000000000000000000000000000000A6
:100A50000000000000000000000000000000000096
:100A600000000000737C14001A0008001500170035
:100A70002B0004241621072809220A00E1001D008A
:100A80001B00060019000500000000000000000027
:100A90003441E1003200130012000C0018001C0069
:100AA000340033340F310E380D320B00E5003800BE
:100AB0003700360010001100000000000000235233
:100AC0002C422A0235001E021F02200221022202AD
:100AD000350223242421252826222702010035005F
:100AE0002F0030002F0230020000000000000052F2
:100AF000000000002A002D022600250024002E02FE
:100B000028002D242331223821322E002A003700DC
:100B100020001F001E00320000000000000027001F
:100B20002800290000000000D100CD00D200D9002B
:100B300000000000CF00CE00D000DA00000000006E
:100B4000DB00D300DC0000000000000000000052C9
:100B500023522C000000A9004D004B004E004A001B
:100B60000000AA004F005200510050000000A800F1
:100B7000BB00AD00AE00BC00000000000000E600BD
:100B800001002800007C2B782C782D782E782F7887
:100B90002078237825782778297830782178247868
:100BA000267828782A78317800000000000000526A
:100BB00000002C0000000000000000000000000009
:100BC000000000000000000000003378000000007A
:100BD000000000000000327800000000000000006B
:100BE000000028000D320E38000006001900000039
:100BF00009220D32000014001A00000000AF00AE00
:100C000011241FBECFEFDAE0DEBFCDBF04B603FE76
:100C100018C08091A2059091A305A091A405B09160
:100C2000A5058730904BA740B04B59F41092A20510
:100C30001092A3051092A4051092A505E0E0F8E338
:100C4000099511E0A0E0B1E0ECECFCE502C00590F4
:100C50000D92A03AB107D9F725E0A0EAB1E001C0B2
:100C60001D92A23AB207E1F70E943A060C94642E54
:100C70000C940000A0E1B0E0E0E4F6E00C94742DE8
:100C800085B7806885BF85B7806885BF84B7877F53
:100C900084BF0FB6F894A895809160008861809316
:100CA0006000109260000FBE90E080E80FB6F894EC
:100CB00080936100909361000FBE85E397E190936C
:100CC000A1018093A0010E94B1150E94D0158091CE
:100CD000E20084608093E200789480910602882389
:100CE000A1F01091E9001F709091EC00892F8170A4
:100CF00090FD80E8182B1092E9008091E80083FDB8
:100D00000E94AB121F701093E90082E084BD93E053
:100D100095BD9AEF97BD80936E001092A20110923C
:100D2000A3011092A4011092A50188EC90E02091FB
:100D3000E30027FD0EC0AFE3BCE91197F1F700C057
:100D400000000197A1F70E94B1151092060280E001
:100D500001C081E080939305809394058093000106
:100D600081110E94FA2B8091000180910001811174
:100D700002C094E001C090E09093AF0184E0891B31
:100D80008093AE0103E511E0F80181918F018F3F5F
:100D900011F00E945219F1E007351F07A9F707E586
:100DA00011E0D8018D918D018F3F11F00E945219F1
:100DB000B1E00D351B07A9F788E0E2EBF1E0DF01B8
:100DC000282F1D922A95E9F7E6EAF1E0DF011D924E
:100DD0008A95E9F780E090E00E94BC2D863E9E4F08
:100DE00009F466C066EE7EEF80E090E00E94F02D90
:100DF00060E082E090E00E94D22D81E090E090934C
:100E0000B1018093B00161E083E090E00E94D22DB7
:100E100060E074E184E090E00E94F02D60E086E004
:100E200090E00E94D22D60E087E090E00E94D22DF9
:100E300040E050E0BA0188E090E00E94E42D60E0DC
:100E400084E290E00E94D22D60E087E190E00E9471
:100E5000D22D60E08CE090E00E94D22D60E08DE029
:100E600090E00E94D22D19821A821B821C821D8260
:100E70001E821F82188648E050E068E170E0CE01D3
:100E800001960E94C22D40E050E0BA0180E290E05D
:100E90000E94E42D40E050E0BA018FE090E00E9413
:100EA000E42D40E050E0BA0183E190E00E94E42D9F
:100EB00082E090E00E94B42D8093BA0184E090E03B
:100EC0000E94BC2D90939C0580939B050E94951BCE
:100ED000EFEFF6E721E0E150F0402040E1F700C0FD
:100EE00000000E94951B80919405811102C0E4E0EE
:100EF00001C0E0E0F0E0EE54FE4F808181FF08C0C9
:100F00006FEF7FEF80E090E00E94F02D0E944F2273
:100F100083E090E00E94B42D90E00E949E2080919A
:100F20009305882311F080E001C082E08093F201F4
:100F300080E8809310020E948A2A6BE070E081E4CE
:100F400091E00E941726882309F443C08091F201A2
:100F500065E070E081FD3AC08CE391E00E941726C5
:100F60008823B9F16DE070E08AE291E00E941726D3
:100F7000882379F10E94A822DC01CB01805A954197
:100F8000AF4FBF4F8093030590930405A0930505D1
:100F9000B0930605E3E1F2E080E092E0DF019C011E
:100FA0001D9221503040E1F7F0931A04E0931904A8
:100FB0008FEF9FEF909312028093110281E0809354
:100FC0000805809307051092F30103C087E391E0C1
:100FD000C5CF80919305811102C00E94FD2B81E055
:100FE00091E090939805809397050AE0C02ED12C4C
:100FF000E12CF12C80910602853009F048C010E404
:10100000B12E00E112E180910602853009F03BC06B
:1010100080910602843029F10E94242610929D05B9
:1010200068E170E00FB6F894A895609360000FBE79
:10103000B092600083B7817F846083BF83B7816093
:1010400083BF7894889583B78E7F83BF0FB6F8945B
:10105000A895809160008861809360001092600084
:101060000FBE80910502882309F4CDCF0E94951B05
:10107000E2EBF1E08191811197C38AEB91E08E1749
:101080009F07C1F7C0CF0E94A3200E9498230E940F
:10109000951BABEBAA2EA1E0BA2EB2EB8B2EB1E0E2
:1010A0009B2E23EC31E0D401F50191918D9189279C
:1010B0002E173F0719F08823C1F306C0811104C021
:1010C0000E94711BB12C38C04090930510E033246E
:1010D0003394D4015D904D01F5016080652411F1D8
:1010E00000E077247394872D8621B1F04420A1F08D
:1010F00009871A870E94B4229C878B873D8691E0DE
:10110000872D852109F490E09E8749855A856B8556
:101110007C858D850E9442270F5F770C063019F77A
:10112000D5015C921F5FBFEFAB1ABB0A183089F67E
:101130000E946919BB24B394809193058823E9F137
:1011400080915201882341F180918105909182051F
:10115000009711F10E94992220910A0530910B0508
:1011600028173907C8F490917F058091800598175A
:1011700059F00E94452510920B0510920A05109215
:1011800082051092810508C00E94DB24109282051E
:10119000109281050E94252580910905882369F018
:1011A0000E94B4222091C3013091C401821B930B91
:1011B0008F3F9F4710F40E94DD258091080588230A
:1011C00009F4E8C18091F4019091F5010E949922FF
:1011D000C29708F4D3C00E94B4229093F501809383
:1011E000F40183E192E090931A04809319048091B2
:1011F0009305882309F499C08DE691E00E9480123E
:101200008091C5019091C6010E949126813059F0CC
:1012100038F0823059F0833061F482E591E00BC000
:1012200085E691E008C08FE591E005C089E591E091
:1012300002C08CE491E00E948E128091D101805D09
:101240000E9401128BE791E00E9480128091D001F0
:10125000805D0E94011287E791E00E948012409019
:10126000CE015090CF0180910B0190910C01481656
:10127000590639F48091CD01803219F487EC91E060
:1012800036C050920C0140920B0180E28093CD0158
:10129000612C712C1092CC01FCEC8F2EF1E09F2E72
:1012A00000E010E0C301B201A70196010E94262EC2
:1012B000605D603319F40115110539F041145104D2
:1012C0006104710419F460E201C060E3D4016E931B
:1012D0004D01C301B201A70196010E94262E2901EA
:1012E0003A010F5F1F4F05301105E1F6C7CF4C01E2
:1012F0000196F40120812032D1F301900020E9F71A
:101300008F01015011098016910630F4D4018D919E
:101310004D010E940112F7CF85E791E00E948012F3
:1013200080910D010E94011229C02091110230917B
:101330001202A3E1B2E080E090E0FC01E358FE4F2E
:10134000E4914C91E41781F0EC93AC01E5E0569503
:101350004795EA95E1F7E1E0F0E002C0EE0FFF1FEC
:101360004A95E2F72E2B3F2B019611968115F2E05C
:101370009F0719F7309312022093110280911102F6
:1013800090911202892B31F480910705882309F48A
:1013900001C1E9C0809108058823B1F38091F30170
:1013A0008111F2CF0E943E2620911102309112024B
:1013B0002115310549F380E0282E312C88248394AF
:1013C000912C082E02C0880C991C0A94E2F7A40103
:1013D00042235323452B11F48F5FEECF9091F201FE
:1013E000910165E0220F331F6A95E1F790FF13C06A
:1013F00055E0369527955A95E1F7220F220F220FD7
:101400002093100110921301295F2093110183E0B2
:101410008093140111C0220F232F221F330B31950B
:101420008295880F80768093100120931301815E4E
:10143000809311012093140124E630E047E050E04E
:101440006EE071E088E70E94BF2A892B09F09CCFEB
:101450008091F20180FF66C080E2E2EDF1E0DF0101
:101460001D928A95E9F735E0220C331C3A95E1F795
:10147000E1E6F1E0F88BEF874DE551E0AF85B88903
:101480008D91B88BAF87FA019191AF019101290F2E
:10149000311DB9016D5E7D4F2B0190E08E529E4F44
:1014A000FC0107E09F01281B390B7724739401C0CE
:1014B000770C2A95EAF7B201A12CDB011D91BD0141
:1014C0001721202F2A192770622E022E000C330BB1
:1014D000B12F01C0BB0F6A94EAF76B2E31952195AD
:1014E00031092770332701C016952A95EAF7612A3A
:1014F0001081612A6082A39428E0A212DECF0150FD
:1015000031960F3F79F665E671E08F859889681707
:10151000790709F0B3CF04E610E020E230E042EDB5
:1015200051E00DC0C10125E0880F991F2A95E1F710
:10153000AC014D5E5D4F04E610E020E230E060E477
:1015400088E70E94562B892B09F01ECF8094909437
:101550008091110290911202882299229092120297
:101560008092110211CF0E94A822009103051091D0
:1015700004052091050530910605DC01CB01801B97
:10158000910BA20BB30B8F3F9F4FAF4FBF4710F490
:101590000E942426B1100E943E2686E0EAE8F5E08B
:1015A000DE01119601900D928A95E1F790908B05DE
:1015B000A0908C0510918D05B0908E0500918F053F
:1015C00010928C0510928D0510928E0510928F0549
:1015D000A11003C0112309F447C0809188059091A0
:1015E00089050E9499229C0190918305992309F411
:1015F000F1C025313105C0F19F3F19F09F5F9093F5
:101600008305AA2061F00E947F241A1414F09FEF32
:1016100001C091E0899F802D112480938C051123B6
:1016200061F00E947F24111614F491E001C09FEF35
:10163000899F802D112480938D0580918C058823AE
:1016400099F080908D05882079F00E949F24811167
:1016500001C081E080938C05882D0E949F24811118
:1016600001C081E080938D05B11003C0002309F40F
:1016700047C080918605909187050E9499229C0120
:1016800090918405992309F4AAC021353105C0F150
:101690009F3F19F09F5F90938405BB2061F00E94EB
:1016A0005D241B1414F09FEF01C091E0899F802DF1
:1016B000112480938E05002361F00E945D24101692
:1016C00014F491E001C09FEF899F802D1124809335
:1016D0008F0580918E05882399F080908F05882052
:1016E00079F00E949F24811101C081E080938E05D2
:1016F000882D0E949F24811101C081E080938F0575
:1017000080918B0598121AC080918C05882311F066
:101710008A1114C080918D05882311F018130EC012
:1017200080918F05882311F0081308C090918E05D1
:10173000992331F081E0B91204C002C081E001C0F8
:1017400080E080FD15C080918C0581110FC08091D3
:101750008D0581110BC080918E05811107C081E03C
:1017600090918F05911103C080E001C081E080FD60
:101770000E9433249A82AB821C83BD820E8386E052
:10178000FE013196AAE8B5E001900D928A95E1F745
:101790000E9498239091F601891709F42BCC80932D
:1017A000F6010E94A82226CC09BD19BD09B400FE8D
:1017B000FDCF8091D8008F7D8093D8008091E0008C
:1017C00082608093E0008091E00081FDFCCF0E9468
:1017D000A32019CC2B30310508F010CF45CF2B308A
:1017E000310508F057CF8CCFA0E0B0E0EAEFFBE086
:1017F0000C947E2DFC012481222309F422C57C0156
:1018000061E00E94B726EC01F70185818823B9F1D8
:1018100091819093D10190819093D00190E2909327
:101820000D01D093CF01C093CE019E0130522115FE
:10183000304228F4F7019681907F79F420C09E0110
:1018400030542115304120F4F7019681907F29F41E
:101850009E013A9521153F4118F4FE01FF2707C06C
:101860009E01205A32452032310548F0FE01ED3309
:10187000F10528F4E358FC4FE491E0930D01C632E2
:1018800022E2D20791F128F4C432E1E2DE07A9F0A6
:1018900037C0C332F4E2DF0729F0C53228E2D207AD
:1018A000C9F02EC0F7019681907F79F1882369F104
:1018B00060E070E083E292E00AC0F7019681907FD9
:1018C00021F1882311F160E070E084E292E00E944F
:1018D000FD26FCC1F7019681907FB9F08823A9F01D
:1018E00060E070E085E292E0F2CFF7019681907FB0
:1018F00061F0882351F060E070E086E292E0E7CF8B
:10190000C337FCE7DF0709F483C180910905882309
:1019100009F490C010914304009144040E94B42241
:1019200088579C4E9093C4018093C301F701858131
:10193000882309F47FC0102B1D7909F076C0C034CC
:10194000F2E5DF07B8F4C11522E5D20708F072C04E
:10195000C11580E4D80748F4C11590E2D90740F5D5
:10196000C63ED10509F040C065C0C115E0E5DE07FF
:10197000A0F13AC0C03EF2E5DF07A0F4C03C22E58A
:10198000D20708F057C0C03682E5D80768F1C03AE0
:1019900092E5D90708F44EC0C43BE2E5DE0709F43E
:1019A00049C022C0CE0187579C470297E8F442C045
:1019B000F7018681807FA9F48D2F8F718231B1F07C
:1019C00028F4823091F581EE90E012C0843191F1DB
:1019D000863159F586EE92E10BC0F7018681807F52
:1019E000A9F1CE01992704C0CE0102C085EE90E096
:1019F00010920C058832910530F48E319105C0F4B7
:101A0000049798F00EC08D32910559F018F48A971A
:101A100079F00BC08C34910559F08D32924041F031
:101A200004C082E080930C0503C00E94DD2502C043
:101A30000E941F1BFE01E851FC47E730F10508F446
:101A400001C1F7018581882309F452C110929205E2
:101A5000CE019057839708F026C184E090E00E9461
:101A6000BC2D90939C0580939B05FE01E150F047AF
:101A7000E232F10520F4EA5AFF4F0C94482E80918F
:101A80009B058160ACC080919C058860B4C080914A
:101A90009B058260A4C080919B0520C080919B051E
:101AA00088609DC080919C051EC080919C058260CD
:101AB000A2C080919B05806192C080919B0580624D
:101AC0008EC080919B0580648AC00E94A320809173
:101AD0009B05806884C080919B05886084607FC07E
:101AE00080919C058260816086C080919B058E7F7D
:101AF00076C080919C05877F7EC080919B058D7FFD
:101B00006EC080919B0520C080919B05877F67C038
:101B100080919C051EC080919C058D7F6CC080913A
:101B20009B058F7E5CC080919B058F7D58C0809106
:101B30009B058F7B54C00E94A32080919B058F77CB
:101B40004EC080919B05877F8B7F49C080919C050B
:101B50008D7F8E7F50C080919B0582FB222720F9CC
:101B600091E0922790FB82F990FB83F938C0809135
:101B70009C05982F909591708E7F892B90FB81F911
:101B80003AC080919B0586FB222720F991E092279D
:101B900090FB86F924C00E94A32080919B0587FBBF
:101BA000222720F991E0922790FB87F918C061E085
:101BB00001C060E08EE090E00E94D22D1EC08091B6
:101BC0009B0584FB222720F991E0922790FB84F962
:101BD00006C080919B05982F909590FB80F980938B
:101BE0009B050BC080919C0583FB222720F991E087
:101BF000922790FB83F980939C0560919B057091DF
:101C00009C0584E090E00E94F02D0E94A3205EC01D
:101C1000882309F45BC080910905882319F00E948C
:101C2000DD2554C0109243040E94121B0E94B4226E
:101C300088579C4E9093C4018093C30181E08093A8
:101C4000090544C0E858FF4F0C94482E06E221EEE7
:101C500041EE6AE17CE723C007E225EE45EE6BE149
:101C60007CE71DC006E221EE40EE68E17CE717C08C
:101C700007E225EE44EE69E17CE711C006E221EEC1
:101C800042EE6CE17CE70BC007E225EE46EE6DE12B
:101C90007CE705C008E221E045EE6EE17CE7C70184
:101CA0000E94A92313C0C631FCE7DF0731F58091FC
:101CB00043048A7A91E009F490E09093F70181114E
:101CC000B4C289E20E9417230E941F1B8091DA048C
:101CD000877009F4B6C2F7018581882309F4B1C27F
:101CE00080919C0582FFADC282E00E946020A9C263
:101CF000C6312CE7D20709F49AC2F70185818823FF
:101D0000E1F1C330FCE7DF0721F140F4C1158CE7B6
:101D1000D80789F0C130DC4711F12FC0CB35ECE793
:101D2000DE0741F1CC35FCE7DF07E1F0CA35DC47DF
:101D300021F581E020C00E94A3208FEF94E3ECE026
:101D400081509040E040E1F700C000000E944F2227
:101D5000BDCF6FEF7FEF80E090E00E94F02D0E94FA
:101D6000E726B4CF80919C0582FB882780F991E01B
:101D7000892701C080E00E947720F7018781908544
:101D80000097B9F4F7018581C081D181882349F09A
:101D9000CE010E94BD1D182F682FCE010E94152074
:101DA00004C0CE010E94E21F182FBE01812F0E94A5
:101DB000D8190E94F519D82FC92FF701158106816E
:101DC00002950F708091DA048770F9F01123E9F021
:101DD000892F807F803461F080E28D0F8830A8F0F9
:101DE000892F807E803221F4D23078F0002369F090
:101DF00080919C0582FF09C082E00E946020809152
:101E0000DA048770DD24D3948111D12CCC2EC294B6
:101E10008FE0C8228C2D90E08C30910508F0E3C152
:101E2000FC01E158FF4F0C94482E8C2F807FCF701F
:101E3000882311F0C295C07F1123B9F0CC2309F497
:101E4000C0C180E28D0F883010F0D11106C0909192
:101E50004304C92BC093430405C090910C05C92BC2
:101E6000C0930C050E941F1BACC18D2F0E946721DF
:101E7000CC2309F4B8C180E28D0F883078F1DD23DE
:101E800069F1C09590910C05C923C0930C0529C038
:101E90008C2F807FCF70803211F0C295C07FDD2300
:101EA00021F0D13009F44CC055C080919C0582FDD1
:101EB0001BC0112369F0CC2339F090914304C92B46
:101EC000C09343040E941F1B80E00E949A218BC193
:101ED00080E00E946721CC2309F485C18C2F0E94E9
:101EE000181B0E941F1B7FC1112381F00023B1F139
:101EF000013009F078C1909144048C2F8923C817D0
:101F000009F471C1C92BC09344046DC101116BC1A7
:101F10008C2F0E945621809144049C2F982329F0F5
:101F20009C2F90958923809344049091F8018C2FE5
:101F3000892309F458C1C095C923C093F80153C13E
:101F4000112321F0063008F04EC108C0053008F01A
:101F50004AC10AC0112331F0011133C18C2F0E94F4
:101F60005D2141C1011131C18C2F0E9456213BC11D
:101F70008C2F86958695837019F0813061F033C17E
:101F8000112321F08D2F9C2F937002C080E090E0F0
:101F90000E9473232EC1112321F08D2F9C2F93704B
:101FA00002C080E090E00E944E2323C1612F8D2F5C
:101FB0000E944B291EC18C2F837009F041C0111162
:101FC00016C12D2F229526952770220F220F8D2FB7
:101FD0008F7090E0022E02C0880F991F0A94E2F7DA
:101FE000D4FF0BC04FE050E002C0440F551F2A95AC
:101FF000E2F79A012095309502C020E030E0C695C6
:10200000C695C370C23099F068F44091B001509108
:10201000B101C13029F0822B932B8423952304C076
:10202000842B952B822B932B0E949E20E0C0822B29
:10203000932B2091B0013091B10182279327F4CFE7
:10204000112319F08C2F817001C08695882309F423
:10205000CEC02D2F229526952770220F220F8D2F6F
:102060008F7090E0022E02C0880F991F0A94E2F749
:10207000D4FF0BC04FE050E002C0440F551F2A951B
:10208000E2F79A012095309502C020E030E0C69535
:10209000C695C370C23079F0B8F44091C501509133
:1020A000C601C13029F0822B932B842395230EC0C7
:1020B000842B952B09C0822B932B2091C501309145
:1020C000C6018227932702C0822B932B0E944920AE
:1020D0008EC0CF70112339F08C2F0E948E208D2F4F
:1020E0000E945D2184C08D2F0E9456218C2F0E945A
:1020F0004E207DC0D23F61F128F4D03F41F0D13F66
:1021000011F15BC0D33F59F1D43FC9F056C0112340
:1021100091F0053008F067C0CF7181E090E002C017
:10212000880F991FCA95E2F72091C5013091C60129
:102130008227932721C0063008F055C0EDCF80914B
:102140009C0582FD1CC0112329F08C2F8F7129C0A2
:102150001123D9F38C2F8F710E944E2044C011237C
:1021600049F0CF7181E090E002C0880F991FCA95B5
:10217000E2F702C080E090E00E94492034C01123C1
:1021800099F0CF718C2F0E948E2080919C0582FF48
:1021900007C0E8E0CE9FC001112483608093DA0479
:1021A0008C2F0E948E201FC081E00E946020023090
:1021B000D0F082E00E94602016C0112321F000239D
:1021C00021F28D2F82CE002329F2D93349F4FFEF7B
:1021D00027EE83E0F15020408040E1F700C000008E
:1021E0008D2F0E94672188EF8C0D843010F40E949F
:1021F0009823DD20A9F08091DA0480FD11C0F70159
:1022000015828695869586950E948E20C7010E942C
:10221000F40B8091DA048695869586950E944E206F
:1022200060E0C7010E94B7260CC085E34BCD8091CA
:10223000F701811104C089E20E94E92245CD85E3BE
:10224000FBCFCDB7DEB7E8E00C949A2D8091080261
:1022500087FF11C08091E80082FD05C080910602D1
:102260008111F8CF11C08091E8008B770BC080916D
:102270000602882349F08091E80080FFF8CF809122
:10228000E8008E778093E8000895982F973068F5DE
:102290009093E900981739F07091EC002091ED00CF
:1022A0005091F00003C0242F762F50E021FD02C092
:1022B0009F5FECCF3091EB003E7F3093EB0030918D
:1022C000ED003D7F3093ED003091EB0031603093B5
:1022D000EB007093EC002093ED005093F000209100
:1022E000EE0027FDE5CF80E008958F708093E90030
:1022F00081E0089520910E0230910F0226173707D2
:1023000048F06115710539F42091E8002E7720938B
:10231000E80001C0B901FC0120E06115710579F107
:10232000809106028823F1F18530F1F18091E80077
:1023300083FD3CC08091E80082FD2EC08091E800C2
:1023400080FFEBCF2091F3008091F20090E0922B80
:102350006115710551F08830910538F42191209371
:10236000F100615071090196F3CF21E0089709F05F
:1023700020E08091E8008E778093E800CECF211195
:10238000CFCF0AC080910602882361F0853061F0CA
:102390008091E80083FD0AC08091E80082FFF2CFBF
:1023A00080E0089582E0089583E0089581E0089533
:1023B00043E050E0BC0182E00E941122089546E013
:1023C00050E0BC0182E00E941122089540E250E0FA
:1023D000BC0182E00E9411220895CF93DF93EC01AB
:1023E00048E050E0BC0181E00E94112288E0FE013B
:1023F000ACEFB1E001900D928A95E1F7DF91CF91BA
:102400000895CF93DF93682F8A3011F481E003C0E1
:102410008D3021F480E00E94E7256FC0809119047F
:1024200090911A0426E0FC01A3E1B4E001900D9222
:102430002A95E1F7603E30F026E0FC0111922A95E2
:10244000E9F70AC0F6E06F9FB00111246C5D7A4F86
:1024500046E050E00E94AB2DC0911904D0911A04BF
:1024600046E050E0BE0183E194E00E944E2E892BAD
:1024700049F19E0123513240A90185E056954795C7
:102480008A95E1F781E090E0BC0102C0660F771FFA
:102490004A95E2F74091110250911202462B572BB8
:1024A0002B5F3F4F65E0369527956A95E1F702C0AF
:1024B000880F991F2A95E2F7842B952B909312028F
:1024C000809311029E012D50324040911002642FE2
:1024D00070E0C9010E94602D481B463010F4240FA3
:1024E000311D211582E0380710F020E030E02D5E2C
:1024F0003D4F30931A0420931904DF91CF91089532
:10250000CF93DF93EC01FE018491882321F00E9498
:1025100001122196F8CFDF91CF9108950E94801289
:1025200081E00E94E7250895FC01AC014C5F5F4FFC
:102530008FEF91E32191822728E030E087FF03C0ED
:10254000880F892701C0880F21503109B9F7E41796
:10255000F50781F70895AAE2B0E0E1EBF2E10C940F
:10256000832DE8E0F2E080E192E02091F1002193F8
:102570008E179F07D1F780910902833009F461C05B
:1025800030F4813071F0823009F49BC0B2C08A30DF
:1025900009F487C08B3009F46CC0893009F0A9C0F8
:1025A00020C080910802813A09F0A3C08091E80020
:1025B000877F8093E80080910C0290910D02892B17
:1025C00021F468E08CEF91E003C060E080E090E0EF
:1025D00070E00E947A118091E8008B778093E80088
:1025E00088C080910802813209F083C080910C027A
:1025F00090910D02029708F07CC08091E800877FDF
:102600008093E8008091E80082FD05C08091060279
:102610008111F8CF6EC02091F3008091F20090E01C
:10262000922B029731F48091F100813011F08630C5
:1026300021F48091F1008093FB018091E8008B7779
:1026400054C080910802813A09F053C080910C0275
:1026500090910D02892B09F04CC08091E800877F92
:102660008093E8008091E80080FFFCCF8091150105
:1026700037C0809108028132E1F580910C0290917F
:102680000D02892BB1F58091E800877F8093E800E7
:102690000E94261180910A02809315010E94A320B6
:1026A00028C080910802813221F58091E800877F5F
:1026B0008093E8000E94261180910B028093FA011A
:1026C00018C080910802813AA1F48091E800877FC8
:1026D0008093E8008091E80080FFFCCF8091FA01B0
:1026E0008093F1008091E8008E778093E8000E944B
:1026F00026118091E80083FFCEC18091080290915D
:102700000902492F50E04A30510508F0C4C1FA01CE
:10271000E557FF4F0C94482E803821F0823809F09D
:10272000BAC108C08091040290910502992389F0F2
:1027300082600FC080910C028F70873008F0ABC1AF
:102740008093E9008091EB0085FB882780F9109247
:10275000E9009091E800977F9093E8008093F10062
:102760001092F10065C1282F2D7F09F094C18823B4
:1027700019F0823061F08FC180910A02813009F036
:102780008AC1933009F080E0809305022EC08091C9
:102790000A0281112AC080910C028F702FEF280F3E
:1027A000263008F078C18093E9002091EB0020FFEB
:1027B0001CC0933021F48091EB00806214C0909192
:1027C000EB0090619093EB0021E030E0A90102C0A2
:1027D000440F551F8A95E2F74093EA001092EA00F1
:1027E0008091EB0088608093EB001092E90080916B
:1027F000E800877F20C181114EC110910A021F7726
:102800008091E3008078812B8093E3008091E80041
:10281000877F8093E8000E9426118091E80080FF66
:10282000FCCF8091E30080688093E300111102C027
:1028300082E001C083E0809306022DC1805882307F
:1028400008F029C180910A0290910B028C3D53E05F
:10285000950779F583E08A838AE289834FB7F894F4
:10286000DE01139620E03EE051E2E32FF0E05093CA
:102870005700E49120FF03C0E295EF703F5FEF70D7
:102880008E2F90E0EA3010F0C79601C0C0968D936D
:102890009D932F5F243149F74FBF8091E800877FD8
:1028A0008093E8006AE270E0CE0101960E947A11FE
:1028B000AEC040910C0250910D02292F33272330D6
:1028C0003105A9F068F42130310509F4F3C0223054
:1028D000310509F0E0C08BE390E0E3EBF4E044C0A5
:1028E0002132310521F12232310571F1D4C099270D
:1028F00081309105A1F058F0029709F0CCC0E0E0DA
:10290000F5E0E4918E2F90E0E0E0F5E02AC0E0E20F
:10291000F5E0E4918E2F90E0E0E2F5E022C0EEE0F9
:10292000F5E0E4918E2F90E0EEE0F5E01AC041155D
:10293000510509F4C4C04130510509F0ACC089E02B
:1029400090E0EEEDF4E010C04115510509F4BCC073
:102950004130510509F09FC086EB90E0E9EBF3E0D0
:1029600003C0009709F497C02091E800277F2093C7
:10297000E80020910E0230910F028217930708F4AD
:102980009C0140E02115310589F1809106028823E0
:1029900009F43DC08530D9F18091E80083FD37C04E
:1029A0008091E80082FD2FC08091E80080FFEACF8F
:1029B0004091F3008091F20090E0942B21153105B5
:1029C00059F08830910540F444914093F1003196DC
:1029D000215031090196F2CF41E0089709F040E01B
:1029E0008091E8008E778093E800CCCF4111CDCF65
:1029F0000AC080910602882351F0853041F0809111
:102A0000E80083FD04C08091E80082FFF2CF80914E
:102A1000E8008B778093E8003EC08038E1F5809134
:102A2000E800877F8093E800809107028093F1009F
:102A30008091E8008E778093E8000E9426112BC0D9
:102A4000811129C080910A0290910B029927029767
:102A500014F58091E800877F8093E80010910A02C6
:102A6000109307020E942611111106C08091E30005
:102A700087FD02C081E001C084E08093060242E04D
:102A800061EC81E00E94451142E261EC82E00E942B
:102A90004511809106028091E80083FF1AC0809161
:102AA000E800877F8093E8008091EB00806280934C
:102AB000EB000FC082E190E0EEEEF4E055CF89E04C
:102AC00090E0E5ECF4E050CF84E490E0EFE6F4E051
:102AD0004BCFAA96E3E00C949F2D1F920F920FB656
:102AE0000F9211242F933F934F935F936F937F9394
:102AF0008F939F93AF93BF93CF93DF93EF93FF9306
:102B0000C091E900CF708091EC00D82FD17080FD8A
:102B1000D0E81092E9008091F000877F8093F00068
:102B200078940E94AB121092E9008091F0008860C6
:102B30008093F000CD2BCF70C093E900FF91EF910F
:102B4000DF91CF91BF91AF919F918F917F916F91C5
:102B50005F914F913F912F910F900FBE0F901F905B
:102B60001895E8EDF0E080818E7F80831092E2007E
:102B70001092DA001092E100A0EEB0E08C9181603A
:102B80008C9380818F77808319BCA7EDB0E08C9106
:102B90008E7F8C9380818F7E80831092F9010895BF
:102BA000A0E0B0E0E6EDF5E10C947E2DC8EDD0E0BC
:102BB00088818F7E8883E7EDF0E08081816080836B
:102BC00084E082BF81E08093F90188818E7F8883D1
:102BD00002EE10E0F80110821092DA0081EEC82EA9
:102BE000D12CF601108288818F7788838881806854
:102BF000888388818F7D888319BC10920602109289
:102C00000702109205021092040290EEE92EF12CB8
:102C1000F70180818B7F808388818160888342E097
:102C200060E080E00E944511F60180818E7F808304
:102C3000F801808181608083808188608083F701D2
:102C400080818E7F8083888180618883CDB7DEB765
:102C5000E8E00C949A2D1F920F920FB60F92112458
:102C60002F933F934F935F936F937F938F939F9394
:102C7000AF93BF93EF93FF938091E10082FF09C070
:102C80008091E20082FF05C08091E1008B7F8093FC
:102C9000E1008091DA0080FF2AC08091D80080FF97
:102CA00026C08091DA008E7F8093DA008091D9006F
:102CB00080FF18C080E189BD82E189BD09B400FEB2
:102CC000FDCF81E0809306028091F90181110FC050
:102CD0000E94B1150E94D0158091E200846080931B
:102CE000E20005C019BC109206021092F901809111
:102CF000E10080FF17C08091E20080FF13C0809147
:102D0000E2008E7F8093E2008091E20080618093F8
:102D1000E2008091D80080628093D80019BC85E0E1
:102D2000809306028091E10084FF30C08091E20030
:102D300084FF2CC080E189BD82E189BD09B400FE19
:102D4000FDCF8091D8008F7D8093D8008091E100E5
:102D50008F7E8093E1008091E2008F7E8093E2007D
:102D60008091E20081608093E200809107028823D5
:102D700011F084E007C08091E30087FD02C081E08C
:102D800001C083E080930602809106028091E100F9
:102D900083FF27C08091E20083FF23C08091E10080
:102DA000877F8093E10082E0809306021092070201
:102DB0008091E1008E7F8093E1008091E2008E7F20
:102DC0008093E2008091E20080618093E20042E023
:102DD00060E080E00E9445118091F000886080935F
:102DE000F000FF91EF91BF91AF919F918F917F91F3
:102DF0006F915F914F913F912F910F900FBE0F9068
:102E00001F9018952091E4003091E50095E64091DF
:102E1000EC00842F817040FF23C08091E80080FD8A
:102E20001DC080910602882399F0853099F0809129
:102E3000EB0085FD11C04091E4005091E50024179E
:102E4000350729F3915011F09A01E1CF84E00895FC
:102E500082E0089583E0089581E0089580E0089578
:102E60004091E80042FFDDCF089580E00895909101
:102E70009B0592FF10C041E0282F2471243009F0F7
:102E800040E031E0282F2871283009F030E0431766
:102E900011F02CE0822793FF10C041E0282F24710D
:102EA000243109F040E031E0282F2871283109F061
:102EB00030E0431711F02CE0822730919C0530FF61
:102EC00010C051E0282F2171213009F050E041E07D
:102ED000282F2871283009F040E0541711F029E01C
:102EE000822731FF10C041E0282F2171213109F0E4
:102EF00040E031E0282F2871283109F030E04317F5
:102F000011F029E0822794FD877E0895823891058B
:102F100069F1B0F48133910509F475C048F4893240
:102F2000910509F467C08A32910509F471C00895CA
:102F30008533910509F459C089339105B9F0089595
:102F4000833E910589F138F4803E9105D1F0823EAF
:102F5000910529F10895863E9105C9F1873E9105B5
:102F6000D9F1843E910509F06CC027C020919B05E2
:102F700020FD57C021FD55C020919C0523FD5BC05D
:102F8000089580919B0580FD48C080919C0580FF3D
:102F900048C080919B0584FD46C083EE51C080915E
:102FA0009B0582FF3CC0F5CF80919B0582FD37C019
:102FB00080919C0580FD35C0ECCF80919C0581FF00
:102FC00036C080919B0584FD2EC087EE39C080916C
:102FD0009B0583FF2AC0F5CF80919B0583FD25C00B
:102FE00080919C0581FD23C0ECCF80919B0585FDE0
:102FF00022C01FC080919B0585FD1BC080919C0550
:1030000083FF19C00AC080919B0586FD16C017C0BA
:1030100080919B0586FD13C010C089E311C082EE2C
:103020000FC080EE0DC080E00BC086EE09C084EEBC
:1030300007C085E305C089E203C08AE201C081E3DD
:1030400090E00895A0E0B0E0E8E2F8E10C947C2D77
:103050007C015B016A0180916E048A3018F001E006
:1030600010E002C00AE010E0C1E0D0E0B501C70105
:10307000F6010995811115C021960C171D0794F0D2
:10308000CC9F9001CD9F300D300D112480E090E059
:1030900045E34A95F1F70000019682179307C1F7BF
:1030A000E5CF81E0CDB7DEB7EAE00C94982D0F9321
:1030B0001F93CF93DF93EC0144E050E062E674E0AD
:1030C0000E944E2E0091590410915A0420915B04E5
:1030D00030915C04EFB7F89440919E0550919F05A4
:1030E0006091A0057091A105EFBF401B510B620BD1
:1030F000730B443651056105710510F4892B09F1F4
:103100008091270190912801835A9B4F409126017D
:1031100050E04530510510F044E050E0BE010E94FF
:103120005B2E82E090E00E94E52C882359F00E94FB
:10313000A8226093590470935A0480935B0490937F
:103140005C0481E0DF91CF911F910F910895EF9280
:10315000FF921F93CF93DF9300D000D01F92CDB783
:10316000DEB77B0180E090E00E94E52C882309F423
:1031700063C04091190150E04115510511F041E043
:1031800050E060911A0170911B01635A7B4FCE0190
:1031900005960E945B2E4091550450915604609113
:1031A0005704709158042FB7F89480919E05909120
:1031B0009F05A091A005B091A1052FBF841B950B81
:1031C000A60BB70B84369105A105B10538F48EE541
:1031D00094E00E9494129D81891781F181E090E032
:1031E0000E94E52C182F882391F04091210150E096
:1031F0004530510510F044E050E06091220170919B
:103200002301635A7B4FCE0101960E945B2E8EE50F
:1032100094E00E94941291E02D81281390E01923EC
:1032200041F10E94A8226093550470935604809344
:103230005704909358040FC010E001C011E0809132
:103240005E0490915F04A0916004B0916104898351
:103250009A83AB83BC83112361F089819A81AB810E
:10326000BC818093510490935204A0935304B09373
:1032700054048091510490915204A0915304B09150
:103280005404F70180839183A283B383812F0F902D
:103290000F900F900F900F90DF91CF911F91FF90A3
:1032A000EF900895F894E82FE295EF70F0E031A1E7
:1032B000282F2F7081E090E001C0880F2A95EAF74F
:1032C000982F9095932391A392A1892B82A3789410
:1032D00008950F931F9380919305882319F00E94FE
:1032E000A8220EC00E94A8220091A2011091A30161
:1032F0002091A4013091A501600F711F821F931FBF
:103300001F910F910895A4E0B0E0E9E8F9E10C9471
:10331000842D40916A0450916B0460916C0470910B
:103320006D042FB7F89480919E0590919F05A09110
:10333000A005B091A1052FBF841B950BA60BB70B61
:1033400084369105A105B10570F10E946919DC016F
:10335000CB010296A11DB11D89839A83AB83BC83E7
:1033600080912F0190913001835A9B4F40912E0103
:1033700050E04530510510F044E050E0BE016F5F71
:103380007F4F0E945B2E83E090E00E94E52C882313
:1033900059F00E94A82260936A0470936B04809392
:1033A0006C0490936D0481E02496E2E00C94A02DCF
:1033B0007830B0F46630A0F48430A0F490E3899FB4
:1033C000F001112486E0789FE00DF11D1124E60F35
:1033D000F11DEE0FFF1FEC59F54F85919491089563
:1033E00080E001C081E090E008951F93CF93DF93C8
:1033F0000E948617EC01C11580E5D807E8F5C115D4
:1034000090E4D90708F0A8C0C03ED10530F5CD3C06
:10341000D10508F094C0C83AD10578F4C53AD10571
:1034200008F083C0C130D10509F47CC008F4F2C0B3
:10343000C430D10508F0F1C0EDC0C33CD10508F09F
:10344000E9C0C85AD0E0CC0FDD1FC859DE4F099043
:10345000D881C02DCE019464E1C0C11580E2D807A7
:1034600008F0CBC0C11591E0D90708F06BC0C83E89
:10347000D10508F4D2C0CEC0C03682E5D80728F501
:10348000C03492E5D90708F079C0C03282E5D80788
:1034900008F06CC0C11592E5D90708F481C04C2F23
:1034A0004695469580E2489FA0011124C37021E013
:1034B00030E0C90102C0880F991FCA95E2F7EA01FE
:1034C000C82BD92BCE019D68A9C0C03A82E5D80788
:1034D000B8F48C2F8F71C03892E5D90708F07BC003
:1034E0008695869590E2899F90011124C37081E0B2
:1034F00090E002C0880F991FCA95E2F79A6868C0E9
:10350000C03C82E5D80708F46DC0C03E92E5D907FB
:1035100008F080C0CF71DD27DC2FCC27CE01806F73
:10352000906A7CC081E090E079C0C55AD0E0CB5968
:10353000DE4F8881C82FD0E0CE0190646FC0CE01ED
:1035400090656CC08D2F0E943717182FCE019927D8
:103550000E9486171F715CC0CE0199270E948617B2
:10356000CC27DF70D06A8C2B9D2B58C0CF71D0E058
:10357000DC2FCC27CE01816F906A50C08C2F8F71C9
:103580008695869590E2899F90011124C37081E011
:1035900090E002C0880F991FCA95E2F79C6818C096
:1035A0008C2F8F710E94371795E0D695C7959A9505
:1035B000E1F7CF70D0E0DC2FCC27282F30E084FF5C
:1035C00005C084E0220F331F8A95E1F7D069CE0150
:1035D000822B932B23C090E0D82FCC27CE01846F71
:1035E000906A1CC08C2F8F710E9437178F7190E0EA
:1035F000D82FCC27CE01906211C08D2F8F710E94E1
:103600003717182FCE0199270E9486171F719062D5
:10361000912B04C080E090E001C0CE01DF91CF91FA
:103620001F910895809144048111109244040895DB
:103630008095909143048923809343040895809159
:103640001501882351F180919B0587FF26C00E94B8
:10365000941D8093E40440E250E06BE174E083EE5B
:1036600094E00E944E2E892BD9F180E2E3EEF4E043
:10367000ABE1B4E001900D928A95E1F7E0919705F6
:10368000F0919805309761F186E08093E30404801F
:10369000F581E02D83EE94E022C00E94941D80937A
:1036A000DB0448E050E06BE374E08BED94E00E94B3
:1036B0004E2E892BA9F088E0EBEDF4E0ABE3B4E00B
:1036C00001900D928A95E1F7E0919705F0919805A8
:1036D000309731F00280F381E02D8BED94E0099575
:1036E0000895A6E0B0E0E7E7FBE10C94822D0E948C
:1036F000B4228C0180914504909146040817190763
:1037000081F019821A820E94B422682F49815A815D
:10371000792F80E090E00E944227109346040093A6
:1037200045042696E4E00C949E2DACE0B0E0EBE975
:10373000FBE10C94772DAE014F5F5F4F7A0188E07B
:10374000DA011D928A95E9F703E511E06A0187E540
:10375000682E81E0782EAA24A394B12C2DE5822E28
:1037600021E0922EF80180818F3F09F440C0F89447
:10377000E82FE295EF70F0E021A18F70A50102C063
:10378000440F551F8A95E2F7CA01922F982B91A3F7
:1037900092A18095892382A3789400C0E7E5F1E0A7
:1037A000512C31E021912F3F89F0A22FA295AF70CB
:1037B000B0E090968C9190E02F7002C0959587951F
:1037C0002A95E2F780FD02C0832F01C080E0582ACD
:1037D000330F8E169F0631F7D8018C918F3F11F071
:1037E0000E945219B0EABA95F1F7F60150820F5FC4
:1037F0001F4FFFEFCF1ADF0A6016710609F0B2CF34
:1038000048E050E0B70186EA91E00E944E2E892BF5
:1038100099F088E0F701A6EAB1E001900D928A954F
:10382000E1F781E0809349040E94B4229093480418
:1038300080934704F12C27C0809149048823D1F359
:103840000091AF0180914704909148040E94992211
:10385000059780F310E00E541E4F44E050E066EAF6
:1038600071E0C8010E944E2E892B09F4D8C084E073
:10387000E6EAF1E0D80101900D928A95E1F7FF2484
:10388000F3941092490480919305E091AF0188234D
:1038900009F477C019861A861B861C860E2F10E045
:1038A0000E541E4F80916E048A3058F447EA58E156
:1038B000BE01675F7F4FC8010E942218882399F1DB
:1038C0000AC080914A0490914B040E949922843F3F
:1038D000914060F739C047E558E1BE01675F7F4F0F
:1038E000C8010E9422188823F1F043E859E1BE0183
:1038F000675F7F4FC8010E9422188823A1F01092B1
:103900006E048091AE0190E044E050E0BE01675F3C
:103910007F4F8E549E4F0E944E2E21E020935004E4
:10392000892B01F576C080916E048F3F19F08F5F6F
:1039300080936E0480916E048A3018F30E94B42242
:1039400090934B0480934A0480915004882309F497
:1039500060C0FE01399684E0DF011D928A95E9F787
:1039600010925004E091AE01F0E0EE54FE4F8985D4
:103970009A85AB85BC8580839183A283B38381E0E4
:1039800049C00091AE0110E00E541E4FF0E0EE541D
:10399000FE4F84E0AEE5B4E001900D928A95E1F728
:1039A0008EE594E00E94941280935D0484E0E2E648
:1039B000F4E0D80101900D928A95E1F780906604B9
:1039C00090906704A0906804B090690480914C04C2
:1039D00090914D04A0914E04B0914F048816990621
:1039E000AA06BB06B1F080924C0490924D04A092BE
:1039F0004E04B0924F040E94A822861A970AA80A81
:103A0000B90A8092A2019092A301A092A401B0925F
:103A1000A50180E08F292C96EFE00C94932DF12CDA
:103A200030CF2091D9049091900459E02917A9F042
:103A300030E0529FF001539FF00D1124EF56FB4FE1
:103A40007181761306C07081781303C07581741379
:103A500006C02F5F3F4F2770E9CF80E0089581E0D7
:103A600008958091D90490919004891719F08F5F7F
:103A70008770FBCF0895CF93DF9380918D0482955B
:103A80008F7009F04EC080918C04882309F449C0DE
:103A90008091D904409190045091880460918704EA
:103AA000C0918904D0918A0479E08417D1F190E023
:103AB000789FF001799FF00D1124DF01AF56BB4FC5
:103AC00014962C911497222349F111962C91119759
:103AD000251324C02C91261321C015962C911597DF
:103AE00021111CC012962D913C9113972C1B3D0B5C
:103AF000283C310598F480918D048F70806180930B
:103B00008D04E956FB4F80818F708061808387E848
:103B100094E00E94F40B0E94311D03C0019687704F
:103B2000C4CFDF91CF910895CF93C091430480918A
:103B30000C05C82B809144048823E1F0C82B8091A8
:103B40001501882341F080919B0587FF04C02EE179
:103B500085EE94E003C026E08DED94E0FC0180E06A
:103B6000215028F091919923D9F38F5FF9CF8111DA
:103B70000E94121B8C2FCF910895A0E0B0E0E3ECDF
:103B8000FDE10C947D2D7C010091C5011091C601D1
:103B90008091B0019091B101082B192BCFE0D0E0BA
:103BA000CC24C394D12CC6010C2E02C0880F991FBF
:103BB0000A94E2F780239123892B21F4219798F727
:103BC000B12C09C0BC2EB7018C2F0E94D8190E94BD
:103BD000F519019799F38B2DCDB7DEB7E9E00C9479
:103BE000992DCF93DF93EC010E94BD1DBE010E9471
:103BF000D8190E94F519DF91CF910895FC01248115
:103C0000222311F187819085009719F00E94F51900
:103C100004C0808191810E94F11D92959F70963021
:103C200079F010F4925001C09A50923068F4803FBD
:103C300069F018F4883E40F409C0843F29F406C0B6
:103C4000883E20F0813F11F080E0089581E00895E2
:103C5000A8E1B0E0EEE2FEE10C947A2D8C0186E062
:103C6000F801DE01539601900D928A95E1F7F80173
:103C70008481E58097E8892E94E0992E90918B04B9
:103C8000911120C0882309F496C1EE2009F442C0A6
:103C9000C8010E94FE1DF82E8823E1F189E0F80199
:103CA000D40101900D928A95E1F780918B048130C7
:103CB00031F480918704909188040E94F11D0E9444
:103CC0003B1D7BC1F801D080C180A280B380F09001
:103CD0008C042091890430918A04FF2009F410C1DA
:103CE000A501421B530B483C510508F0B6C0882380
:103CF00009F463C180918D04282F207F909188045E
:103D0000222361F09C1509F469C0C8010E94FE1DC0
:103D1000811176C0C8010E94F40B4DC19C111CC0DA
:103D2000909187049D1118C040918E0450918F048A
:103D3000278130854217530779F4E1100DC08F7049
:103D4000806180938D0487E894E00E94F40B809159
:103D50008D04F80186832DC1E1103AC040E06C2D3E
:103D60008D2D0E94111D40E06C2D8D2D0E94111D86
:103D7000E82E81111EC1DB8ACC8A8B899C890E9426
:103D8000F11D292F22952F70243020F49F702230AE
:103D900028F009C02A50223080F014C0992349F03D
:103DA000811107C013C0992321F0F8019681907FFB
:103DB00069F0805E883030F409C0803F38F0815F60
:103DC000833020F0C8010E94F40BEF2CFE2CF5C0CC
:103DD00080918D04816080938D04EBC09091870465
:103DE0009D1193CF40918E0450918F04F80127814B
:103DF00030854217530709F088CFE11086CFB8C04D
:103E0000EE2009F487CF20918D04822F82958F7048
:103E100090E00297BCF080918704909188049B8782
:103E20008A87BD86AC8680918B048E871F86288BFF
:103E300080918E0490918F049A8B898BCE010A9683
:103E40000E94F40B89E0F801A7E8B4E001900D921C
:103E50008A95E1F70E943B1DAEC090918D04292FF9
:103E6000207F51F487E894E00E94F40B89E0F4018C
:103E700011928A95E9F79DC0882309F49EC080912C
:103E800088048C1115C0809187048D1111C0409158
:103E90008E0450918F04F801278130854217530713
:103EA00039F4E11005C09683C8010E94F40B7BC071
:103EB000C8010E94FE1D882309F42CCFEE2009F4CE
:103EC00029CF20918D04822F82958F7090E00297E8
:103ED0000CF4B8CF80918704909188049A838983E9
:103EE000BC82AB8280918B048D831E822F83809154
:103EF0008E0490918F0499878887CE010196A0CF78
:103F0000A21AB30AF8ECAF16B10408F04CC088232B
:103F100009F451C0FE2CEE2009F4FCCE80918804F7
:103F20008C1133C0809187048D112FC020918E0495
:103F300030918F04F801878190852817390729F57A
:103F400080918D0480FD18C082958F70482F50E0BD
:103F50004115510589F020918D0426834F3051057C
:103F600041F08F5F982F9295907F822F8F70892BD1
:103F70008683C8010E94F40B89E0F801A7E8B4E049
:103F800001900D928A95E1F718C0C8010E94FE1DAC
:103F9000811158CF80918D04816080938D04C80178
:103FA0000E94F40B0AC089E0F40111928A95E9F7A6
:103FB00004C0F12C02C0FF24F3948F2D6896ECE02E
:103FC0000C94962D983078F5863068F5E82FF0E05F
:103FD00086E0989FE00DF11D11249E2F977083E0DD
:103FE000F695E7958A95E1F7EE0FFF1FEE0FFF1F9D
:103FF000E159FB4F40E050E080E0219130E0092E94
:1040000002C0369527950A94E2F721703327042ED3
:1040100001C0220F0A94EAF7822B4F5F5F4F4430B2
:10402000510559F7089580E00895983088F5863055
:1040300078F5E82FF0E086E0989FE00DF11D11245F
:104040008E2F877051E001C0550F8A95EAF783E003
:10405000F695E7958A95E1F7EE0FFF1FEE0FFF1F2C
:10406000E159FB4F20E030E070E04081CB01022EAF
:1040700002C0969587950A94E2F78170819584270E
:104080008523842781932F5F3F4F2430310569F7C3
:1040900008959093C6018093C501089521E030E012
:1040A00002C0220F331F8A95E2F720953095809148
:1040B000C5019091C601822393230E94492008954F
:1040C0009091DA04809589238093DA04282F277051
:1040D00069F4981759F090919C0592FF07C0869556
:1040E000869586950E944E201092DA04089590914C
:1040F0009C0592FB222720F9281779F080FB92F982
:1041000090939C0560919B0570919C0584E090E0E4
:104110000E94F02D82E00E946020089521E030E0AE
:1041200002C0220F331F8A95E2F78091C50190915A
:10413000C601822B932B0E94492008959093B101D0
:104140008093B00108951092430480911501882353
:1041500041F080919B0587FF04C08EE1E5EEF4E01D
:1041600003C086E0EDEDF4E0DF011D928A95E9F7EA
:1041700080E090E00E94732380E090E00E944E2354
:1041800010920C050E941F1BEAE8F5E086E0DF01B3
:104190001D928A95E9F7109283051092840510927A
:1041A00085050E9433240895A2E1B0E0EAEDF0E233
:1041B0000C94822D0A871B872C873D874E875F874B
:1041C000688B798B8A8BCE010A960E94281E8111FA
:1041D0003BC089E0FE013A96DE01119601900D92F6
:1041E0008A95E1F76E85662379F12091900430E09D
:1041F000C9010196877099274091D90450E084172E
:104200009507A1F06D8399E0929FD001939FB00D27
:104210001124AF56BB4FFE01319601900D929A9535
:10422000E1F7809390040E94311D0EC00E94A320EC
:10423000109290041092D904E7E8F4E089E0DF01DD
:104240001D928A95E9F719C019E08091D9049091DF
:104250009004891791F0189FC00111248F569B4F2D
:104260000E94281E882349F08091D90490E001968D
:10427000877099278093D904E8CF6296E4E00C9484
:104280009E2D882341F0809590910C058923809381
:104290000C050E941F1B0895882339F090910C058E
:1042A000892B80930C050E941F1B0895882321F001
:1042B0000E94181B0E941F1B0895882339F09091BB
:1042C0004304892B809343040E941F1B0895882375
:1042D00081F19CEF980F913A18F40E94E9220DC0E9
:1042E00090E2980F983060F4877091E001C0990FC8
:1042F0008A95EAF7892F0E94181B0E941F1B0895B8
:104300009BE5980F933028F480E090E00E9473239F
:10431000089598E5980F9B3128F480E090E00E9482
:104320004E23089593E3980F933118F460E00E94B0
:104330004B290895CF93882309F46EC0C82F8CEFC2
:104340008C0F813AA0F5809115018823E1F08091CE
:104350009B0587FF18C0EC2FE695E695E695F0E003
:10436000ED51FB4F8281282F30E04C2F477081E0C8
:1043700090E002C0880F991F4A95E2F782239323A9
:10438000892B61F410C0EDEDF4E083EE94E021910F
:10439000C21721F08E179F07D1F705C08C2F0E94FE
:1043A000E9220E941F1B8C2F0E94172310C080E25D
:1043B0008C0F883078F4C77081E090E001C0880FDE
:1043C000CA95EAF790914304892B809343040E9495
:1043D0001F1B22C0EBE5EC0FE33040F4F0E0EB599B
:1043E000FE4F808190E00E94732316C0E8E5EC0F39
:1043F000EB3150F4F0E0EE0FFF1FE859FE4F8081E3
:1044000091810E944E2308C083E38C0F833120F4F6
:1044100061E08C2F0E944B29CF9108958091FB0180
:1044200008950F931F93CF93DF938B01EA0190912F
:104430000602943079F58F708093E9008FEF9091A8
:10444000E800815095FD06C095ED9A95F1F70000C2
:104450008111F5CF8091E80085FF1CC00E940217F2
:10446000882361F08091E8008E778093E80012C085
:10447000F80181918F018093F1002197209791F3AA
:104480008091E80085FDF4CF8091E8008E778093DD
:10449000E800E4CFDF91CF911F910F91089581E063
:1044A0008093E00080E28093D8001092C9008FE1F1
:1044B0009EE40197F1F700C0000087E090EBDC017B
:1044C0008093A2059093A305A093A405B093A5059E
:1044D0009CE088E10FB6F894A895809360000FBE29
:1044E00090936000FFCF78941F920F920FB60F92B7
:1044F00011248F939F93AF93BF9380919E059091CA
:104500009F05A091A005B091A1050196A11DB11D27
:1045100080939E0590939F05A093A005B093A1055D
:10452000BF91AF919F918F910F900FBE0F901F90F1
:1045300018959C014FB7F89480919E0590919F0526
:10454000A091A005B091A1054FBF821B930B0895C8
:104550002FB7F89460919E0570919F058091A005FA
:104560009091A1052FBF08952FB7F89480919E05D3
:1045700090919F05A091A005B091A1052FBF08952E
:104580001F920F920FB60F9211248F939F93AF93A8
:10459000BF9380919D05811113C080919E059091DC
:1045A0009F05A091A005B091A1054196A11DB11D47
:1045B00080939E0590939F05A093A005B093A105BD
:1045C000BF91AF919F918F910F900FBE0F901F9051
:1045D000189590911501992321F090919B0597FDD5
:1045E00003C0EBEDF4E01DC0E82FE695E695E695F7
:1045F000EE31E0F4F0E0ED51FB4F877021E030E068
:10460000A90102C0440F551F8A95E2F7CA0180959F
:104610009281892382830895319654E0E13EF50723
:1046200029F092818913F8CF1282F6CF08959091E4
:1046300015019923D1F090919B0597FF16C0E82FA3
:10464000E695E695E695EE3140F5F0E0ED51FB4F4D
:10465000877021E030E0A90102C0440F551F8A9500
:10466000E2F7CA019281892B16C0ADEDB4E0EFEFFD
:1046700090E02D91821789F0EF3F19F4211101C0CC
:10468000E92F9F5F9630A9F7EF3F39F00E2E000C0F
:10469000FF0BE552FB4F828308950895A3E0B0E03D
:1046A000E4E5F3E20C94842D2091990530919A056C
:1046B00028173907A1F090939A0580939905E09106
:1046C0009705F0919805309751F024E029839B835A
:1046D0008A830084F185E02DCE0101960995239609
:1046E000E2E00C94A02DA3E0B0E0E9E7F3E20C9443
:1046F000842D209195053091960528173907A1F052
:104700009093960580939505E0919705F091980513
:10471000309751F023E029839B838A830084F185BD
:10472000E02DCE01019609952396E2E00C94A02D90
:1047300080919305882359F0E0919705F0919805B1
:10474000309729F00190F081E02D0995089580E0DF
:104750000895FF920F931F93CF93DF93C42FD22F0F
:10476000F02EFC0185818823B1F0409392050E94D0
:10477000B422909391058093900580E28C0F88304D
:1047800008F06CC0C77081E001C0880FCA95EAF7D5
:104790000E945D2163C080919205481353C08091AF
:1047A0009005909191050E949922883C910508F00E
:1047B00049C0CD1729F180E28C0F883040F4C770D2
:1047C00081E001C0880FCA95EAF70E94562180E275
:1047D0008D0F883048F481E09D2F977001C0880FBD
:1047E0009A95EAF70E945D21F9E3FF1619F000E0BF
:1047F00010E002C000E510E08F2D0E949A2108C051
:1048000099E30913F4CF89E30E949A2100E510E0AF
:104810000115110549F08FE99FE00197F1F700C0FC
:10482000000001501109F4CF8F2D0E94672180E212
:104830008D0F883098F4D77081E001C0880FDA9529
:10484000EAF70AC080E28C0F883040F4C77081E03C
:1048500001C0880FCA95EAF70E945621CDB7DEB78E
:10486000E5E00C949D2D0E94B42220918C0521112D
:1048700004C020918D05222321F090938905809317
:10488000880520918E05211104C020918F052223D7
:1048900021F09093870580938605E0919705F0912C
:1048A0009805309749F082E080938A050680F78169
:1048B000E02D8AE895E0099508958091850580FDB1
:1048C00016C081FD16C082FD18C080918405882322
:1048D00091F0883290F428E0829FC001112468E2B0
:1048E00070E00E94122E862F672B29F007C082E00D
:1048F000089584E0089581E0089588E00895809106
:10490000850580FD14C081FD14C082FD16C0809114
:104910008305882381F08E3180F420E5829FC001D9
:1049200011246EE170E00E94122E862F089584E11A
:10493000089588E2089588E0089580E50895282F75
:1049400035EB2303C001112497FF03C08058910960
:1049500002C080589F4F892F0895BC0140917F0568
:1049600080918005942F981729F1292F30E0F901C3
:10497000EE0FFF1FE958FA4F0190F081E02DE61786
:10498000F70799F487E0869FF001879FF00D1124C7
:10499000EA5CFE4F81E0848394130CC02F5F3F4F8D
:1049A0002370332720937F0508952F5F3F4F922F69
:1049B0009370D9CF0895EF92FF920F931F93CF93E7
:1049C000DF9380910E058823D9F1C0910D058DE00C
:1049D000F82E80910E05C81778F5EE24E394EC0EBE
:1049E000E0920D05D0E0FC9EF001FD9EF00D11243B
:1049F000E15FFA4F84818823E9F087819085892BD4
:104A000021F481859285019659F4008111812281DA
:104A10003381448155816681778180850E94D420CD
:104A2000FC9EF001FD9EF00D1124E15FFA4F14820F
:104A300010920C05CE2DCDCF10920E0510920D05C3
:104A4000CDB7DEB7E6E00C949C2D10920B051092CA
:104A50000A05E6E3F1E08581811102C01482168225
:104A6000379681E0E235F807B1F708951092820594
:104A700010928105109252018091800580937F05EC
:104A80000E9425250E94DB240895A0E0B0E0EBE41D
:104A9000F5E20C94742DC0917F05E7E0FE2E01E055
:104AA00010E0FDE02F2EEE24E39480918005C817DE
:104AB00009F47AC0D0E0FE01EE0FFF1FE958FA4F6B
:104AC00080819181F89EF001F99EF00D1124EA5C3D
:104AD000FE4F2481211165C060900E05AFE0B5E066
:104AE00020E030E0712C5F01261508F058C01B96BD
:104AF0004D905C901C97F501808091804FEF5FEFA7
:104B0000312CC32CD12CF601EE0FFF1FE80DF91D3F
:104B1000659174914616570609F4A601672B11F0AA
:104B20003394EFCF4F3FFFEF5F07A9F1B80102C009
:104B3000660F771F4A95E2F7762AA801032C02C078
:104B4000440F551F0A94E2F741505109672D70E058
:104B500046175707E9F4229EF001239EF00D112419
:104B6000E15FFA4FF89ED001F99EB00D1124AA5CC6
:104B7000BE4F12962D913C9113973087278374E096
:104B8000748310821182928781871596EC9207C0F8
:104B900014961C9214972F5F3F4F1D96A5CF0E942D
:104BA000AD242196C37081CF0E94DB240E9425256D
:104BB000CDB7DEB7E2E10C94902D809109058823F2
:104BC00029F082E20E944121109209050895CF93B5
:104BD000E82F2091190430911A042351324040915A
:104BE0001002642F70E0C9010E94602D481B842FC1
:104BF000EE2351F066E00E94062EC82FC150A8F0A7
:104C000080E20E940112FACFA901480F511D4115FF
:104C1000524018F080E020E030E0280F311D2D5E7A
:104C20003D4F30931A0420931904CF910895AB019E
:104C300024E630E0BC0188E70E940A2B21E0892BA2
:104C400009F020E0822F08958091080590910705D2
:104C5000882389F0992369F062E070E08EEF9BE091
:104C60000E941726811103C08091070508951092B4
:104C700007059091070581E089270895809108052F
:104C80008823F9F00E94A822DC01CB01805A9541CB
:104C9000AF4FBF4F8093030590930405A093050584
:104CA000B09306058091070581110BC062E070E0AA
:104CB0008CEF9BE00E941726882319F081E08093F7
:104CC00007058091070508959C013A9521153F41FC
:104CD00030F5BC0166277270AC01442754709C010A
:104CE0002227387094FF0FC090FF02C080E101C0FE
:104CF00080E0672B09F08062452B09F08064232B4C
:104D000079F080680895892F8170672B09F082609F
:104D1000452B09F08460232B19F08860089580E00A
:104D20000895292F33272115310519F0C90148E0CD
:104D300001C040E09C0164E0369527956A95E1F753
:104D40002115310511F04C5FC9019C01369527955D
:104D5000369527952115310511F04E5FC9019C014B
:104D600036952795232B09F04F5F842F0895A6E0F1
:104D7000B0E0EDEBF6E20C94832DFC018781908589
:104D8000009709F5CF0126E0DE01119601900D9202
:104D90002A95E1F7FC01258189819A81222359F026
:104DA000662349F00E94BD1D182F682F89819A81C2
:104DB0000E94152003C00E94E21F182F69817A818A
:104DC000812F0E94D8192696E3E00C949F2D0E9413
:104DD000A3202FEF84E39CE0215080409040E1F736
:104DE00000C000009CE088E10FB6F894A89580937D
:104DF00060000FBE90936000FFCFEF92FF920F9381
:104E00001F93CF93DF93EC018B017C0180EEE81AB6
:104E1000F10898E0E916F10410F0209731F4CE0182
:104E20000E9464260E945D2105C0CE010E94642676
:104E30000E944C218C2F0E949A210115110549F0E6
:104E40008FE99FE00197F1F700C0000001501109C0
:104E5000F4CF8C2F0E94672198E0E916F10410F03E
:104E6000209731F4CE010E9464260E94562105C08D
:104E7000CE010E9464260E944121CDB7DEB7E6E054
:104E80000C949C2DADE1B0E0E8E4F7E20C94742DB5
:104E90004B8B5C8B6D8B7E8B8F8B988F91111092CF
:104EA0000C05CE010A9629E0FC0111922A95E9F73A
:104EB00026E0FE017396DC0101900D922A95E1F740
:104EC0002E8521110CC00A851B852C853D854E85BC
:104ED0005F85688979898A890E94D420D8C161E078
:104EE0000E94B7266C018035FCE79F0739F48F8557
:104EF0008823A1F081E080935201C6C181352CE75F
:104F0000920731F48F85882349F00E943625BCC171
:104F100082359C4719F48F85811111C066E3E62E16
:104F200061E0F62E512CA12CB12C88248394912C75
:104F300044244394CE0101969A8F898F39C0809181
:104F400052018823B9F2E1CFFFEF6F167F0609F413
:104F500047C1F7016481611146C020915201822F3F
:104F600081701F85F70135812681112309F4DEC088
:104F7000882309F4DBC03323C9F1940102C0220F56
:104F8000331F9A95E2F721503109F701868190E0AD
:104F90002817390709F441C0512AFFEFAF1ABF0A99
:104FA00027E0E20EF11C44E0A416B10409F41AC192
:104FB000F701208131816FEF8FEF90E0692E712C26
:104FC000F301EE0FFF1FE20FF31F45915491C4163A
:104FD000D50611F0662E782E452B09F4B5CF9F5FCC
:104FE000662D872DEBCF20E030E0B9CFA401062C51
:104FF00001C0440F0A94EAF7242B268320910A0566
:1050000030910B052233310508F0B7CF22E330E0B1
:1050100030930B0520930A05B0CF809181059091C4
:105020008205009729F00E949922C39708F029C1B0
:1050300080917F05B0918005982FE0E0F0E08B171C
:1050400009F460C0282F30E0F901EE0FFF1FE95886
:10505000FA4F6080718047E0469DF001479DF00D5A
:105060001124EA5CFE4F008141814D8FA0E060E099
:1050700070E0E02FFD8DE70FF11DE70FF11D25908A
:10508000349021143104D1F0F701F081FB8FF70146
:10509000F181FC8F60E0EB8DFC8DE60FF11DE60FDA
:1050A000F11D459154914115510531F024163506F5
:1050B00009F4A1E06F5FEFCF7F5FDBCFAA23D9F0C8
:1050C000671708F4D8C047E0469DF001479DF00DF2
:1050D0001124EA5CFE4F309781F04482EE15FF0503
:1050E00019F490937F0558CF891307C0C901019621
:1050F000982F937002C0E0E0F0E02F5F3F4F822FC7
:1051000083709DCF90937F05EE15FF0509F444CF82
:1051100090E0FC01EE0FFF1FE958FA4FB182A08228
:105120000196837099278093800536CF311112C084
:10513000A40102C0440F551F9A95E2F7415051094E
:1051400030E042175307F1F56623E9F1C5010E94EB
:10515000AD2438C0822F90E09C01215031092823D2
:105160003923062C02C0959587950A94E2F7232BE4
:1051700039F580FF25C0F70182819381892BE1F009
:1051800089E0E98DFA8D11928A95E9F70E94B4229F
:10519000282F8B839C8384E08D83F7018281938108
:1051A000782F8887998709811A813C8144E05E8144
:1051B0006F81892F0E94D420F701158281E003C0FE
:1051C000817001C080E09401062C01C0220F0A9476
:1051D000EAF72095F701968129232683182FDCCE44
:1051E00010E0DACE8F85882379F1552069F10E948D
:1051F000B422909382058093810580910E058830BA
:10520000A0F591E0980F90930E0599E0FE013A9673
:10521000DE01119601900D929A95E1F7EDE08E9FD7
:10522000C0011124815F9A4F29E0FE013196DC0113
:1052300001900D922A95E1F72FEF3FEFFC013287A5
:105240002187D486C38611C090917F058091800507
:10525000981719F00E94452508C00E94DB2410927F
:105260008205109281050E94252581E05826852D12
:1052700080FD29CE0CC0E114F10409F43CCF9093D9
:105280007F05F701448288CE81E090E0F1CF6D96F2
:10529000E2E10C94902D90918C05662309F470C086
:1052A00091110CC090918D05911108C090918F05BE
:1052B000911104C090918E05992331F098E090935C
:1052C000830591E0909384058D3C21F40E947F2416
:1052D000819504C08E3C29F40E947F2480938D0523
:1052E000C3C08F3C21F40E947F24819504C0803D7F
:1052F00029F40E947F2480938C05B6C0893D19F45F
:105300000E945D2405C08A3D31F40E945D24819590
:1053100080938E05A9C08B3D21F40E945D24819568
:1053200004C08C3D29F40E945D2480938F059CC0AD
:105330009FE2980F983078F421E030E0A90102C094
:10534000440F551F9A95E2F7CA0190918B05892B5E
:1053500080938B0589C08D3D21F480918505816006
:105360000CC08E3D21F480918505826006C08F3D82
:1053700009F07AC08091850584608093850574C0AA
:105380008D3C39F490918D0597FF33C010928D05B7
:1053900057C08E3C29F490918D051916BCF329C095
:1053A0008F3C29F497FF25C010928C0549C0803DA1
:1053B00019F41916CCF31DC090918E05893D29F47E
:1053C0001916BCF410928E053BC08A3D19F497FF64
:1053D00010C0F8CF8B3D39F490918F0597FF09C02D
:1053E00010928F052DC08C3D21F490918F051916D8
:1053F000BCF39FE2980F983080F421E030E0A901DF
:1054000002C0440F551F9A95E2F7CA01809590910A
:105410008B05892380938B0513C08D3D21F48091EA
:1054200085058E7F0BC08E3D21F4809185058D7F93
:1054300005C08F3D29F4809185058B7F809385057C
:1054400080918C05811106C080918D05811102C06B
:105450001092830580918E05811106C080918F0581
:10546000811102C0109284050E9433240895EF92A6
:10547000FF920F931F93CF93DF93182FEB0110929E
:10548000BC0084EA8093BC000E94B4227C0180911D
:10549000BC0087FD0DC0CF3F8FEFD807C1F3C70118
:1054A0000E949922C817D90790F78EEF9FEF2DC061
:1054B0008091B900887F883041F08091B900887F61
:1054C000803119F08FEF9FEF20C01093BB0084E86C
:1054D0008093BC000E94B4228C018091BC0087FDA7
:1054E0000BC0CF3F8FEFD807C1F3C8010E949922AC
:1054F000C817D90790F7D9CF8091B900887F883134
:1055000011F08034F9F680E090E0CDB7DEB7E6E048
:105510000C949C2D1092B9008CE08093B8000895F3
:105520000F931F93CF93DF93EB018093BB0084E82D
:105530008093BC000E94B4228C018091BC0087FD46
:105540000DC0CF3F8FEFD807C1F3C8010E94992249
:10555000C817D90790F78EEF9FEF0CC02091B900C4
:10556000287F81E090E0283211F480E090E091956E
:1055700081959109DF91CF911F910F910895A0E03E
:10558000B0E0E5ECFAE20C94792D782EB62EA72E39
:105590006A0189010E94B4224C010431110558F0BE
:1055A0000F3F8FEF180751F0C80164E170E00E94CF
:1055B000602DEB0105C0C1E0D0E002C0C5E0D0E045
:1055C000BE01872D0E94372A7C0197FD05C0CB2D97
:1055D000DA2DCC0EDD1E12C00F3F8FEF180781F3BE
:1055E000C4010E9499220817190750F7F0CFF7FC61
:1055F00008C0B80189910E94902A7C01CC15DD0574
:10560000B1F784E98093BC00C701CDB7DEB7EDE008
:105610000C94952DA0E0B0E0E0E1FBE20C94792D34
:10562000782EEB016A0189010E94B4224C010431F9
:10563000110558F00F3F8FEF180759F0C80164E1CA
:1056400070E00E94602D5B0107C0AA24A394B12CD6
:1056500003C085E0A82EB12CB501872D0E94372A02
:105660007C0197FD03C0CC0EDD1E14C00F3FEFEF91
:105670001E0791F3C4010E9499220817190760F7C9
:10568000F2CFF7FC0AC0FE018491B8010E94902A73
:105690007C012196CC15DD05A1F784E98093BC003F
:1056A000C701CDB7DEB7EDE00C94952DA0E0B0E0DA
:1056B000ECE5FBE20C94782D682E762E5A016901F8
:1056C0000E94B4224C010431110558F00F3F8FEFB6
:1056D000180751F0C80164E170E00E94602DEB01F1
:1056E00005C0C1E0D0E002C0C5E0D0E0BE01862D1B
:1056F0000E94372A7C0197FF0BC00F3F8FEF1807DE
:10570000A9F3C4010E9499220817190778F713C05A
:10571000B801872D0E94902A7C01E501CA0CDB1C90
:10572000CC15DD0541F0F7FC06C0B80189910E9457
:10573000902A7C01F5CF84E98093BC00C701CDB7E6
:10574000DEB7EEE00C94942D8EE14A9B02C08150AE
:10575000E1F74A9BFECF08955A9880E28A95F1F7C7
:105760005A9A0895FC012AE02A95F1F728E090E082
:1057700080E031E040E14A95F1F7880F4A9B02C092
:105780008160932700C0000040E14A95F1F7215065
:1057900089F720E12A95F1F729B100C0000030E136
:1057A0003A95F1F722FB222720F992272081920FC8
:1057B00090830895A1E0B0E0E0EEFBE20C94802D30
:1057C00019828C017C01E60EF11C0E151F0551F0AB
:1057D0000E94A42BCE0101960E94B22BF801819366
:1057E0008F01F3CF81E09981911180E02196E6E06D
:1057F0000C949C2D529A5A9A089552985A9AEA9A61
:10580000E9E6F0E080818F7C80830895615091E02B
:1058100001C0990F6A95EAF720E031E0992361F021
:10582000492F482319F05A9A232701C05A9840E279
:105830004A95F1F79695F2CF222311F05A9A01C0BA
:105840005A9880E28A95F1F75A980895FF920F933B
:105850001F93CF93DF93EC018C01060F111DC0172E
:10586000D10741F0F9900E94AC2B68E08F2D0E9487
:10587000062CF5CFCDB7DEB7E5E00C949D2D1F9239
:105880000F920FB60F9211240F931F932F933F93F4
:105890004F935F936F937F938F939F93AF93BF9338
:1058A000EF93FF93CF93DF931F92CDB7DEB71982AB
:1058B0000E94A42BCE0101960E94B22B082F0695C0
:1058C00006950695902F96959570202F2570920F2E
:1058D000292F237096959695920F877089135FC034
:1058E000898181115CC0053008F059C080E18A953A
:1058F000F1F75A9A529A82E08A95F1F700C05A98C5
:1059000088E0089F80011124D801AA5EBE4F169638
:10591000ED91FC9117973097A9F060919E017091DD
:105920009F0114962D913C911597260F371F1196C4
:105930008D919C911297680F791F13964C91139734
:105940008C910995F801EA5EFE4F6381662351F060
:1059500080919E0190919F0124813581820F931F38
:105960000E94262C0E94AC2B80E18A95F1F75A9870
:1059700052985A9A80E18A95F1F7F801EA5EFE4F53
:105980006081662351F080919E0190919F01218159
:105990003281820F931F0E94DA2B0E94A42B0F905A
:1059A000DF91CF91FF91EF91BF91AF919F918F9137
:1059B0007F916F915F914F913F912F911F910F9127
:1059C0000F900FBE0F901F9018950F931F93CF93BA
:1059D000DF93853091050CF06DC0EC01F894529A7C
:1059E0005A9885E08A95F1F700009C2F969595705E
:1059F0002C2F2570920F892F83709695969523E012
:105A0000CC0FDD1F2A95E1F7980F8E01092B0E941C
:105A1000AC2B84E08A95F1F700C068E0802F0E94EB
:105A2000062C80E18A95F1F752985A9A4A9902C059
:105A300000C0FCCF87E090E04A9B08C0019721F4AA
:105A4000529A5A9A789436C000C0F6CFFE01EA5EA8
:105A5000FE4F6381662381F080919E0190919F01AA
:105A600024813581820F931F0E94DA2B811104C09B
:105A7000529A5A9A78941FC00E94A42B80E28A9569
:105A8000F1F75A98529A80E18A95F1F7CA5EDE4F93
:105A90006881662351F080919E0190919F01298138
:105AA0003A81820F931F0E94262C0E94AC2B78947F
:105AB00081E001C080E0DF91CF911F910F910895A7
:105AC000AA1BBB1B51E107C0AA1FBB1FA617B70724
:105AD00010F0A61BB70B881F991F5A95A9F7809540
