:100000000C94B5050C94D2050C94D2050C94623373
:100010000C94D2050C94D2050C94D2050C94D20504
:100020000C94D2050C94D2050C947D130C946B1295
:100030000C942C150C94D2050C94D2050C94D2057A
:100040000C94D2050C94D2050C94D2050C94D205D4
:100050000C94D2050C94C3140C94D2050C94D205C4
:100060000C94D2050C94D2050C94D2050C94D205B4
:100070000C94D2050C94D2050C94D2050C94D205A4
:100080000C94D2050C94D2050C94D2050C94D20594
:100090000C94D2050C94D2050C94D2050C94D20584
:1000A0000C94D2050C94D2050C94D205C30D370ED6
:1000B000CB0D950D990DCF0D9C0DD20DDD0DA70D1E
:1000C0002D0EAB0DE10DAF0DE50D0F0EB30DE90DCE
:1000D000190EB90DEF0DF90DA00DD60DA30DD90D0B
:1000E000BE0DF40D050E250E270E910DC70D400E09
:1000F000830E890E740E7A0E8F0E950E9B0E6D0F69
:100100006D0FA00FA00F10102E104B114B113310BC
:10011000C110D210D2107311811186118B11901160
:1001200095119A119F11A411A911AE11B511B71112
:10013000B911BB11B40EB40EB40EB40EB40EB40E9D
:100140002D2A542AEC2B542AEC2B9C2ABF2AEC2B68
:10015000AE2BC12B00DA0281FFD9F1DB20A4A62E41
:10016000AF00A0C0D30000A1C8D30000AED580A8C6
:100170001F408D142000556E6465660041646A75E9
:100180007374005261697365004C6F776572004447
:10019000656661756C74004C617965723A20003A4D
:1001A000002C206B0078008081828384858687887C
:1001B000898A8B8C8D8E8F9091929394A0A1A2A30B
:1001C000A4A5A6A7A8A9AAABACADAEAFB0B1B2B377
:1001D000B4C0C1C2C3C4C5C6C7C8C9CACBCCCDCEC2
:1001E000CFD0D1D2D3D400202020206162636465B7
:1001F000666768696A6B6C6D6E6F70717273747527
:10020000767778797A313233343536373839305237
:100210004542545F2D3D5B5D5C233B27602C2E2FB8
:100220002020200D320E38000006001900000009C1
:10023000220D32000014001A000000737C14001A12
:10024000000800150017002B0004241621072809B8
:10025000220A00E1001D001B000600190005000035
:10026000000000000000003441E1003200130012E1
:10027000000C0018001C00340033340F310E380D10
:10028000320B00E500380037003600100011000086
:10029000000000000023522C422A0235001E021FDB
:1002A00002200221022202350223242421252826AD
:1002B000222702010035002F0030002F02300200FB
:1002C00000000000000052000000002A002D02265D
:1002D00000250024002E0228002D2423312238215D
:1002E000322E002A00370020001F001E00320000BE
:1002F000000000000027002800290000000000D1B5
:1003000000CD00D200D90000000000CF00CE00D008
:1003100000DA0000000000DB00D300DC0000000079
:100320000000000000005223522C000000A9004DE4
:10033000004B004E004A000000AA004F005200513E
:100340000050000000A800BB00AD00AE00BC0000E3
:100350000000000000E60001002800007C2B782C43
:10036000782D782E782F782078237825782778298B
:1003700078307821782478267828782A783178009F
:100380000000000000005200002C000000000000EF
:10039000000000000000000000000000000000005D
:1003A00000337800000000000000000000327800F8
:1003B000000000000000000000280000AF00AE05B3
:1003C000010902A10185020901A1000509190129FC
:1003D00008150025019508750181020501093009FC
:1003E000311581257F95027508810609381581250B
:1003F0007F950175088106050C0A38021581257F55
:10040000950175088106C0C005010980A101850319
:1004100019012AB700150126B70095017510810052
:10042000C0050C0901A101850419012AA0021501CA
:1004300026A002950175108100C005010906A101E1
:100440008506050719E029E71500250195087501BE
:1004500081020507190029EF1500250195F07501A6
:10046000810205081901290595057501910295017B
:1004700075039101C005010906A101050719E029CD
:10048000E715002501950875018102950175088120
:10049000010507190029FF150026FF0095067508BC
:1004A000810005081901290515002501950575012B
:1004B0009102950175039101C009023B0002010000
:1004C000A0FA090400000103010100092111010043
:1004D000012244000705810308000109040100010D
:1004E0000300000009211101000122B60007058266
:1004F0000320000112010002000000085346010021
:100500000100010200010C0343006F0072006E0045
:1005100065000000100366006F006F007300740038
:1005200061006E00000004030904000000000000E8
:100530003E5B4F5B3E003E6B4F6B3E001C3E7C3E85
:100540001C00183C7E3C18001C577D571C001C5E8C
:100550007F5E1C0000183C180000FFE7C3E7FF00A7
:10056000001824180000FFE7DBE7FF0030483A06D8
:100570000E00262979292600407F05050700407FC7
:1005800005253F005A3CE73C5A007F3E1C1C0800F2
:10059000081C1C3E7F0014227F2214005F5F005F56
:1005A0005F0006097F017F00006689956A00606030
:1005B0006060600094A2FFA2940008047E0408001A
:1005C00010207E20100008082A1C0800081C2A0899
:1005D00008001E10101010000C1E0C1E0C003038ED
:1005E0003E383000060E3E0E0600000000000000FF
:1005F00000005F000000000700070000147F147F68
:100600001400242A7F2A120023130864620036494A
:1006100056205000000807030000001C2241000083
:100620000041221C00002A1C7F1C2A0008083E08EA
:10063000080000807030000008080808080000006A
:10064000606000002010080402003E5149453E0051
:1006500000427F4000007249494946002141494D0E
:1006600033001814127F10002745454539003C4AD5
:1006700049493100412111090700364949493600ED
:10068000464949291E0000001400000000403400C3
:100690000000000814224100141414141400004136
:1006A000221408000201590906003E415D594E001E
:1006B0007C1211127C007F49494936003E4141417C
:1006C00022007F4141413E007F49494941007F0965
:1006D000090901003E41415173007F0808087F006D
:1006E00000417F4100002040413F01007F0814226B
:1006F00041007F40404040007F021C027F007F0499
:1007000008107F003E4141413E007F090909060073
:100710003E4151215E007F09192946002649494979
:10072000320003017F0103003F4040403F001F2093
:1007300040201F003F4038403F006314081463000E
:100740000304780403006159494D4300007F41418F
:100750004100020408102000004141417F000402D2
:100760000102040040404040400000030708000030
:100770002054547840007F2844443800384444448E
:100780002800384444287F00385454541800000886
:100790007E0902001824241C78007F0804047800D5
:1007A00000447D4000002040403D00007F10284470
:1007B000000000417F4000007C04780478007C0841
:1007C000040478003844444438007C182424180079
:1007D000182424187C007C0804040800485454544D
:1007E000240004043F4424003C4040207C001C20A2
:1007F00040201C003C4030403C004428102844006D
:100800004C9090907C004464544C44000008364165
:1008100000000000770000000041360800000201DF
:10082000020402003C2623263C00000000000000D9
:1008300000000000000000000000C0E0F0F8F81820
:1008400000C0F0FCFEFFFFFFFFFFFFFF7E00000087
:1008500000000000000080C0E0E0E0E0E0E0E0E058
:10086000C0800000000080C0E0E0E0E0E0E0E0E008
:10087000C080000000E0E0C0C0E0E0E0E00000E098
:10088000E0C0C0E0E0E0E0E0C0800000000080C028
:10089000E0E0E0E0E0E0E0E0C08000000000000018
:1008A0000000000000000000E0F0F0F0E0ECEEF7E7
:1008B000F37020007C7C7C7E007E7E7E7F7F7F00CC
:1008C0000080C0E07E5B4F5BFEC00000C000DCD754
:1008D000DEDEDED7DC00C00000000000000000000B
:1008E0000000000000000000000000000000000008
:1008F000000000F8FCFEFFE000FFFFFFFFFFFF80AD
:10090000FFFFFFFFFFFFFFFFFF1F070100000000C9
:100910000000000000FFFFFF8100000000000081D8
:10092000C3C3C30000FFFFFF81000000000000817F
:10093000FFFFFF0000FFFFFF01000000000000FFBD
:10094000FFFF010000000001FFFFFF0000FFFFFFAD
:100950009D1C1C1C1C1C1C9DDFDFDF000000000018
:1009600000000000000000000F1F3F7F7F7F7F7F9F
:100970003F1E0C001F1F1F3F003F3F3F7F7F7F0038
:10098000307B7F7830202030787F3B0003000F7F62
:100990000F0F0F7F0F000300000000000000000099
:1009A0000000000000000000000000000000000047
:1009B000000000030F1F3F3F3F3F1F1F3F3F7F7F50
:1009C0007F3F3F1F3F7F7F7F7F7C7878381C0F0001
:1009D00000000000000001030707070707070707DB
:1009E00003010000000001030707070707070707C7
:1009F00003010000000707070000000000000007D7
:100A000007070000000000000707070000000103BF
:100A1000070707070707070703010000000000009A
:100A200000000000000000000000000000000000C6
:100A300000000000000000000000000000000000B6
:100A400000000000000000000000000000000000A6
:100A50000000000000000000000000000000000096
:100A60000000000000000000000000010101010181
:100A70000101010102020202020202020203030357
:100A80000303030303040404040404040505050527
:100A900005060606060607070707070808080809E7
:100AA0000909090A0A0A0B0B0B0C0C0C0D0D0D0E93
:100AB0000E0E0F0F0F101011111112121313141428
:100AC000151516161717181819191A1A1B1B1C1D9D
:100AD0001D1E1E1F202021222223242425262627F6
:100AE0002829292A2B2C2D2D2E2F30313232333428
:100AF00035363738393A3B3C3D3E3F40414243442E
:100B000045464748494A4C4D4E4F5051535455560F
:100B100058595A5B5D5E5F616264656668696B6CBB
:100B20006D6F7072737577787A7B7D7E8082838536
:100B300087888A8C8E8F91939596989A9C9EA0A276
:100B4000A3A5A7A9ABADAFB1B3B5B7BABCBEC0C280
:100B5000C4C6C9CBCDCFD1D4D6D8DBDDDFE2E4E744
:100B6000E9EBEEF0F3F5F8FAFDFF11241FBECFEF2D
:100B7000DAE0DEBFCDBF12E0A0E0B1E0E2E1FBE6EB
:100B800002C005900D92AC38B107D9F727E0ACE868
:100B9000B2E001C01D92A937B207E1F70E94D40567
:100BA0000C9487350C940000A1E1B0E0EAEDF5E08B
:100BB0000C94973485B7806885BF85B7806885BFFA
:100BC00084B7877F84BF0FB6F894A89580916000A2
:100BD000886180936000109260000FBE90E080E812
:100BE0000FB6F89480936100909361000FBE83E587
:100BF00098E190938D0280938C020E94AF120E9424
:100C000022138091E20084608093E20078948091C6
:100C100057058823A1F01091E9001F709091EC0016
:100C2000892F817090FD80E8182B1092E900809147
:100C3000E80083FD0E944C291F701093E90082E0B8
:100C400084BD93E095BD9AEF97BD80936E0010929E
:100C50008E0210928F021092900210929102809157
:100C6000D80080618093D8002AE12A95F1F700C06E
:100C70008091D900182F117080FD04C00E94AF121E
:100C80001092570510939703109398031093000147
:100C900011110E941D33809100018091000181118A
:100CA00002C094E001C090E090939B0284E0891B15
:100CB00080939A0204E611E078E6E72E71E0F72EC1
:100CC000D8018D918D018F3F11F00E94A01AE0167E
:100CD000F106B1F708E611E06EE6E62E61E0F62EC9
:100CE000F80181918F018F3F11F00E94A01AE01648
:100CF000F106B1F788E0EEE9F2E0DF01282F1D925E
:100D00002A95E9F7E2E9F2E0DF011D928A95E9F719
:100D100080E090E00E94EF34863E9E4F09F466C06A
:100D200066EE7EEF80E090E00E94233560E082E096
:100D300090E00E94053581E090E090939D028093C1
:100D40009C0261E083E090E00E94053560E074E180
:100D500084E090E00E94233560E086E090E00E940D
:100D6000053560E087E090E00E94053540E050E006
:100D7000BA0188E090E00E94173560E084E290E0DC
:100D80000E94053560E087E190E00E94053560E053
:100D90008CE090E00E94053560E08DE090E00E94DC
:100DA000053519821A821B821C821D821E821F82B7
:100DB000188648E050E068E170E0CE0101960E949C
:100DC000F53440E050E0BA0180E290E00E9417352F
:100DD00040E050E0BA018FE090E00E94173540E01B
:100DE00050E0BA0183E190E00E94173582E090E084
:100DF0000E94E7348093A60284E090E00E94EF34E2
:100E00009093A00380939F030E94841CEFEFF6E76A
:100E100021E0E150F0402040E1F700C000000E94D6
:100E2000841C80919803811102C0E4E001C0E0E0DD
:100E3000F0E0E256FD4F808181FF08C06FEF7FEF49
:100E400080E090E00E9423350E94B21483E090E09D
:100E50000E94E73490E00E9401220E949D2310929C
:100E60007404EDE8F4E08FEF9FEF8193919334E009
:100E7000ED39F307D1F781E08093650548E050E054
:100E800068E170E086E695E00E94D734109265052F
:100E9000809166058C7FF9F489E1809366058091E5
:100EA000610190916201A091630180936705909325
:100EB0006805A09369058FE780936A058FEF80939B
:100EC0006B0548E050E068E170E086E695E00E943E
:100ED000F5341092650580919703882311F080E026
:100EE00001C082E08093DE0280E880936E050E945C
:100EF000AD316BE070E08BE691E00E948E24882398
:100F000009F443C08091DE0265E070E081FD3AC0E3
:100F100086E691E00E948E248823B9F16DE070E0AE
:100F200084E591E00E948E24882379F10E941415B3
:100F3000DC01CB01805A9541AF4FBF4F80934505EF
:100F400090934605A0934705B0934805E1E7F5E087
:100F500080E092E0DF019C011D9221503040E1F7DA
:100F6000F0937807E09377078FEF9FEF90937005EA
:100F700080936F0581E080934A0580934905109224
:100F8000DF0203C081E691E0C5CF80919703811114
:100F900002C00E94203381E091E090939C038093F3
:100FA0009B0380915705853009F05AC050E4F52E17
:100FB000EE24E39400E112E180915705853009F0B9
:100FC00049C080915705843009F432C00E941C2723
:100FD0008091A104811105C00E94032580E00E9438
:100FE000F624E092A1040E949B241092A10388E1C0
:100FF00090E00FB6F894A895809360000FBEF09231
:10100000600083B7817F846083BF83B7816083BFC3
:101010007894889583B78E7F83BF0FB6F894A89590
:1010200080916000886180936000109260000FBE24
:1010300080915605882309F4BFCF0E94841CEEE9F5
:10104000F2E081918111FEC3A6EAB2E0AE17BF07BC
:10105000C1F7B2CF0E9406220E9404161092A1048A
:101060000E94841C47EA442E42E0542EEEE9F2E04E
:10107000F88BEF87DF01F20191918D91892722E0B2
:10108000EF3AF20719F08823B9F306C0811104C0C2
:101090000E94601CD12CC1C030919703398B31EB79
:1010A000232E31E0332EA12CAF85B8897D90B88BEB
:1010B000AF87F2018080872409F4A1C0E12CF12CD4
:1010C00099249394892D882109F48EC0192D172114
:1010D000F989FF23A1F0E986AA860E9420159C8742
:1010E0008B8721E02D8791E0111101C090E09E8750
:1010F00049855A856B857C858D850E94EC2C112352
:1011000031F0F101EE0DFF1D80818F3F11F4B12C04
:1011100003C0682EBB24B3940B2D10E0809174049F
:10112000D801A80FB11D1997ACF188E0C82ED12CB9
:10113000C01AD10AB8016F5F7F4F6C587B4FA60170
:1011400085E794E00E947E35B801675F7F4F6C5859
:101150007B4FA6018DE794E00E947E35A601440FE7
:10116000551FB801660F771F675E7F4F6C587B4F26
:101170008DE894E00E947E35B8016F5E7F4F6C5819
:101180007B4FA60185E894E00E947E3588E08B19AC
:10119000809374048091740490E0A62DB0E09D01CA
:1011A000220F331F2F513E4FAA0FBB1FBD016E519F
:1011B0007E4F41E0480F9B15A8F490E0FC01EC58ED
:1011C000FB4FD9015C915183DB015C915187618AAE
:1011D000880F991FFC01EC58FB4F128E118E91E085
:1011E000842FE7CF80937404990CBFEFEB1AFB0AAE
:1011F000E6E0EE16F10409F065CFD2017C92A394EB
:10120000BFEF4B1A5B0AE6E02E0E311CF8E0AF127E
:101210004BCF0E94B71ADD24D39480919703882383
:10122000E9F180913101882341F18091850390910A
:101230008603009711F10E94051520910E0330914D
:101240000F0328173907C8F4909183038091840312
:10125000981759F00E94B11710920F0310920E03C5
:10126000109286031092850308C00E9447171092BF
:101270008603109285030E94911780910D038823A5
:1012800069F00E9420152091AF023091B002821BBC
:10129000930B8F3F9F4710F40E9449180E941C2710
:1012A00080914A05882309F4C3C18091E00290919E
:1012B000E1020E940515C29708F4B3C00E942015F0
:1012C0009093E1028093E00281E795E090937807A4
:1012D0008093770780919703882309F49EC087E95C
:1012E00091E00E9462288091B1029091B2020E9426
:1012F0003B2C813059F038F0823059F0833061F462
:101300008CE791E00BC08FE891E008C089E891E09C
:1013100005C083E891E002C086E791E00E94702852
:101320008091BD02805D0E94E32785EA91E00E94E2
:1013300062288091BC02805D0E94E32781EA91E0EF
:101340000E9462288090BA029090BB0280910B01AB
:1013500090910C018816990639F48091B902803277
:1013600019F483EB92E03AC090920C0180920B0149
:1013700080E28093B902A12CB12C1092B802E8EB64
:10138000EE2EE2E0FE2E00E010E0C501B4012AE0FE
:1013900030E040E050E00E944935605D603319F470
:1013A0000115110539F081149104A104B10419F457
:1013B00060E201C060E3D7016E937D01C501B40115
:1013C0002AE030E040E050E00E94493549015A01EE
:1013D0000F5F1F4F05301105C1F6C3CF8C01019679
:1013E000F80120812032D1F301900020E9F79F011C
:1013F0002150310979010E151F0530F4D8018D9166
:101400008D010E94E327F7CF8FE991E00E946228C7
:1014100080910D010E94E32704C087EA91E00E94B9
:10142000622880916F0590917005892B31F480912D
:101430004905882309F4FCC0E4C080914A0588234B
:10144000B1F38091DF028111F2CF0E94B524209187
:101450006F05309170052115310549F380E041E0B9
:1014600050E0482E512C7A01082E02C0EE0CFF1CD1
:101470000A94E2F7B70162237323672B11F48F5F9D
:10148000F0CF9091DE02920175E0220F331F7A9522
:10149000E1F790FF13C065E0369527956A95E1F76F
:1014A000220F220F220F2093100110921301295FA7
:1014B0002093110183E08093140111C0220F232F88
:1014C000221F330B31958295880F8076809310010F
:1014D00020931301815E809311012093140124E66F
:1014E00030E047E050E06EE071E088E70E94E231D2
:1014F000892B09F09CCF8091DE0280FF61C080E2E1
:10150000EEEBF2E0DF011D928A95E9F735E0440C3D
:10151000551C3A95E1F742E7242E41E0342E0EE6C1
:1015200011E088248394F10121911F01D8018D914C
:101530008D01B201680F711D6F587A4F30E022544F
:101540003D4FF90197E0AF01421B530B982C01C0AE
:10155000990C4A95EAF75B01C12CD5018D915D018B
:101560008921492F4C194770742E042E000C550BFD
:10157000B82F01C0BB0F7A94EAF77B2E51954195A5
:1015800051094770552701C086954A95EAF7782A90
:101590008081782A7082C39488E0C812DECF91508F
:1015A00031969F3F81F696E7291691E0390609F0BA
:1015B000BACF04E610E020E230E04EEB52E00DC07E
:1015C000C20125E0880F991F2A95E1F7AC014F5819
:1015D0005A4F04E610E020E230E060E488E70E9421
:1015E0007932892B09F023CFE094F09480916F0534
:1015F00090917005E822F922F0927005E0926F0553
:1016000016CF0E94141500914505109146052091B2
:10161000470530914805DC01CB01801B910BA20BE3
:10162000B30B8F3F9F4FAF4FBF4710F40E949B24D7
:10163000D1100E94B52486E0EEE8F3E0DE011196B9
:1016400001900D928A95E1F7D0908F03009190035D
:10165000F0909103E0909203109193031092900305
:10166000109291031092920310929303011103C000
:10167000FF2009F447C080918C0390918D030E9454
:1016800005159C0190918703992309F4F1C0253138
:101690003105C0F19F3F19F09F5F909387030023AE
:1016A00061F00E94EB16101614F09FEF01C091E05C
:1016B000899F802D112480939003FF2061F00E9468
:1016C000EB161F1414F491E001C09FEF899F802D49
:1016D00011248093910380919003882399F0C09006
:1016E0009103CC2079F00E940B17811101C081E099
:1016F000809390038C2D0E940B17811101C081E013
:1017000080939103E11003C0112309F447C0809135
:101710008A0390918B030E9405159C019091880388
:10172000992309F4AAC021353105C0F19F3F19F072
:101730009F5F90938803EE2061F00E94C9161E14EB
:1017400014F09FEF01C091E0899F802D11248093B8
:101750009203112361F00E94C916111614F491E04E
:1017600001C09FEF899F802D112480939303809166
:101770009203882399F0C0909303CC2079F00E94C3
:101780000B17811101C081E0809392038C2D0E9480
:101790000B17811101C081E08093930380918F0327
:1017A000D8121AC080919003882311F0081314C036
:1017B00080919103882311F0F8120EC08091930359
:1017C000882311F0181308C090919203992331F0E7
:1017D00081E09E1104C002C081E001C080E080FD74
:1017E00015C08091900381110FC0809191038111E8
:1017F0000BC080919203811107C081E09091930307
:10180000911103C080E001C081E080FD0E949F161D
:10181000DA820B83FC82ED821E8386E0FE01319624
:10182000AEE8B3E001900D928A95E1F70E940416AC
:101830009091E202891709F4B4CB8093E2020E94EE
:101840001415AFCB09BD19BD09B400FEFDCF8091C1
:10185000D8008F7D8093D8008091E00082608093D3
:10186000E0008091E00081FDFCCF0E940622A4CB25
:101870002B30310508F010CF45CF2B30310508F063
:1018800057CF8CCFA0E0B0E0E8E4FCE00C94A134AA
:10189000FC012481222309F47CC57C0161E00E94C3
:1018A000612CEC01F70185818823B9F19181909336
:1018B000BD0290819093BC0290E290930D01D09371
:1018C000BB02C093BA029E0130522115304228F467
:1018D000F7019681907F79F420C09E013054211544
:1018E000304120F4F7019681907F29F49E013A95CA
:1018F00021153F4118F4FE01FF2707C09E01205A21
:1019000032452032310548F0FE01ED33F10528F46F
:10191000E951FE4FE491E0930D01C63222E2D20775
:1019200091F128F4C432E1E2DE07A9F037C0C332F6
:10193000F4E2DF0729F0C53228E2D207C9F02EC051
:10194000F7019681907F79F1882369F160E070E07A
:1019500083E292E00AC0F7019681907F21F188230B
:1019600011F160E070E084E292E00E94A72CFCC1DB
:10197000F7019681907FB9F08823A9F060E070E0CC
:1019800085E292E0F2CFF7019681907F61F08823A3
:1019900051F060E070E086E292E0E7CFC337FCE709
:1019A000DF0709F483C180910D03882309F490C0F7
:1019B0001091A7030091A8030E94201588579C4E00
:1019C0009093B0028093AF02F7018581882309F4D8
:1019D0007FC0102B1D7909F076C0C034F2E5DF0717
:1019E000B8F4C11522E5D20708F072C0C11580E431
:1019F000D80748F4C11590E2D90740F5C63ED10595
:101A000009F040C065C0C115E0E5DE07A0F13AC0AD
:101A1000C03EF2E5DF07A0F4C03C22E5D20708F0A3
:101A200057C0C03682E5D80768F1C03A92E5D907B9
:101A300008F44EC0C43BE2E5DE0709F449C022C009
:101A4000CE0187579C470297E8F442C0F701868190
:101A5000807FA9F48D2F8F718231B1F028F482300C
:101A600091F581EE90E012C0843191F1863159F503
:101A700086EE92E10BC0F7018681807FA9F1CE014D
:101A8000992704C0CE0102C085EE90E010921003A9
:101A90008832910530F48E319105C0F4049798F0A6
:101AA0000EC08D32910559F018F48A9779F00BC069
:101AB0008C34910559F08D32924041F004C082E09F
:101AC0008093100303C00E94491802C00E94CE1EDA
:101AD000FE01E851FC47E730F10508F401C1F701C8
:101AE0008581882309F452C110929603CE01905744
:101AF000839708F026C184E090E00E94EF34909331
:101B0000A00380939F03FE01E150F047E232F1050C
:101B100020F4EA5AFF4F0C946B3580919F0381604B
:101B2000ACC08091A0038860B4C080919F038260A4
:101B3000A4C080919F0320C080919F0388609DC0B6
:101B40008091A0031EC08091A0038260A2C08091FA
:101B50009F03806192C080919F0380628EC08091BC
:101B60009F0380648AC00E94062280919F03806840
:101B700084C080919F03886084607FC08091A003AF
:101B80008260816086C080919F038E7F76C0809145
:101B9000A003877F7EC080919F038D7F6EC0809160
:101BA0009F0320C080919F03877F67C08091A0031F
:101BB0001EC08091A0038D7F6CC080919F038F7E9B
:101BC0005CC080919F038F7D58C080919F038F7B65
:101BD00054C00E94062280919F038F774EC080914F
:101BE0009F03877F8B7F49C08091A0038D7F8E7F6D
:101BF00050C080919F0382FB222720F991E0922719
:101C000090FB82F990FB83F938C08091A003982F54
:101C1000909591708E7F892B90FB81F93AC08091CD
:101C20009F0386FB222720F991E0922790FB86F9FB
:101C300024C00E94062280919F0387FB222720F95F
:101C400091E0922790FB87F918C061E001C060E045
:101C50008EE090E00E9405351EC080919F0384FBBA
:101C6000222720F991E0922790FB84F906C0809109
:101C70009F03982F909590FB80F980939F030BC052
:101C80008091A00383FB222720F991E0922790FB0B
:101C900083F98093A00360919F037091A00384E077
:101CA00090E00E9423350E9406225EC0882309F43A
:101CB0005BC080910D03882319F00E94491854C01D
:101CC0001092A7030E94531C0E94201588579C4E17
:101CD0009093B0028093AF0281E080930D0344C0E3
:101CE000E858FF4F0C946B3506E221EE41EE6AE1B5
:101CF0007CE705C007E225EE45EE6BE17CE7C70116
:101D00000E94151631C006E221EE40EE68E17CE744
:101D1000F6CF07E225EE44EE69E17CE7F0CF06E27C
:101D200021EE42EE6CE17CE7EACF07E225EE46EEDB
:101D30006DE17CE7E4CF08E221E045EE6EE17CE76F
:101D4000DECFC631FCE7DF0781F58091A7038A7AF1
:101D500091E009F490E09093E3028111BEC289E220
:101D60000E9483150E94CE1E80914B04877009F457
:101D700010C3F7018581882309F40BC38091A00368
:101D800082FF07C382E00E94C32103C3C6312CE750
:101D9000D20709F4F4C28091A7038272FE01E052D7
:101DA000F847E531F10508F49AC2F70185818823E7
:101DB000E1F1C330FCE7DF0721F140F4C1158CE706
:101DC000D80789F0C130DC4711F12FC0CB35ECE7E3
:101DD000DE0741F1CC35FCE7DF07E1F0CA35DC472F
:101DE00021F581E020C00E9406228FEF94E3ECE011
:101DF00081509040E040E1F700C000000E94B21422
:101E0000B3CF6FEF7FEF80E090E00E9423350E9418
:101E1000912CAACF8091A00382FB882780F991E0C2
:101E2000892701C080E00E94DA21F701878190852F
:101E30000097B9F4F7018581C081D181882349F0E9
:101E4000CE010E94201F182F682FCE010E947821FA
:101E500004C0CE010E944521182FBE01812F0E948F
:101E6000191B0E94361BD82FC92FF7011581068137
:101E700002950F7080914B048770F9F01123E9F0FF
:101E8000892F807F803461F080E28D0F8830A8F048
:101E9000892F807E803221F4D23078F0002369F0DF
:101EA0008091A00382FF09C082E00E94C32180913B
:101EB0004B048770DD24D3948111D12CCC2EC29495
:101EC0008FE0C8228C2D90E08C30910508F0E3C1A2
:101ED000FC01E158FF4F0C946B358C2F807FCF7045
:101EE000882311F0C295C07F1123B9F0CC2309F4E7
:101EF000C0C180E28D0F883010F0D11106C09091E2
:101F0000A703C92BC093A70305C090911003C92B49
:101F1000C09310030E94CE1EACC18D2F0E94CA2216
:101F2000CC2309F4B8C180E28D0F883078F1DD232D
:101F300069F1C09590911003C923C093100329C083
:101F40008C2F807FCF70803211F0C295C07FDD234F
:101F500021F0D13009F44CC055C08091A00382FD1E
:101F60001BC0112369F0CC2339F09091A703C92B32
:101F7000C093A7030E94CE1E80E00E94FD228BC169
:101F800080E00E94CA22CC2309F485C18C2F0E94D4
:101F9000591C0E94CE1E7FC1112381F00023B1F194
:101FA000013009F078C19091A8038C2F8923C817BC
:101FB00009F471C1C92BC093A8036DC101116BC194
:101FC0008C2F0E94B9228091A8039C2F982329F07E
:101FD0009C2F909589238093A8039091E4028C2FE5
:101FE000892309F458C1C095C923C093E40253C1A1
:101FF000112321F0063008F04EC108C0053008F06A
:102000004AC10AC0112331F0011133C18C2F0E9443
:10201000C02241C1011131C18C2F0E94B9223BC1A4
:102020008C2F86958695837019F0813061F033C1CD
:10203000112321F08D2F9C2F937002C080E090E03F
:102040000E94DF152EC1112321F08D2F9C2F93703C
:1020500002C080E090E00E94BA1523C1612F8D2F4D
:102060000E946E301EC18C2F837009F041C0111187
:1020700016C12D2F229526952770220F220F8D2F06
:102080008F7090E0022E02C0880F991F0A94E2F729
:10209000D4FF0BC04FE050E002C0440F551F2A95FB
:1020A000E2F79A012095309502C020E030E0C69515
:1020B000C695C370C23099F068F440919C0250916B
:1020C0009D02C13029F0822B932B8423952304C0D9
:1020D000842B952B822B932B0E940122E0C0822B14
:1020E000932B20919C0230919D0282279327F4CF5D
:1020F000112319F08C2F817001C08695882309F473
:10210000CEC02D2F229526952770220F220F8D2FBE
:102110008F7090E0022E02C0880F991F0A94E2F798
:10212000D4FF0BC04FE050E002C0440F551F2A956A
:10213000E2F79A012095309502C020E030E0C69584
:10214000C695C370C23079F0B8F44091B102509195
:10215000B202C13029F0822B932B842395230EC029
:10216000842B952B09C0822B932B2091B1023091A7
:10217000B2028227932702C0822B932B0E94AC21AC
:102180008EC0CF70112339F08C2F0E94F1218D2F3A
:102190000E94C02284C08D2F0E94B9228C2F0E94E1
:1021A000B1217DC0D23F61F128F4D03F41F0D13F51
:1021B00011F15BC0D33F59F1D43FC9F056C0112390
:1021C00091F0053008F067C0CF7181E090E002C067
:1021D000880F991FCA95E2F72091B1023091B2029F
:1021E0008227932721C0063008F055C0EDCF80919B
:1021F000A00382FD1CC0112329F08C2F8F7129C0F0
:102200001123D9F38C2F8F710E94B12144C0112367
:1022100049F0CF7181E090E002C0880F991FCA9504
:10222000E2F702C080E090E00E94AC2134C01123AC
:1022300099F0CF718C2F0E94F1218091A00382FF31
:1022400007C0E8E0CE9FC0011124836080934B0457
:102250008C2F0E94F1211FC081E00E94C321023017
:10226000D0F082E00E94C32116C0112321F0002388
:1022700021F28D2F82CE002329F2D93349F4FFEFCA
:1022800027EE83E0F15020408040E1F700C00000DD
:102290008D2F0E94CA2288EF8C0D843010F40E948A
:1022A0000416DD20A9F080914B0480FD11C0F701D8
:1022B00015828695869586950E94F121C7010E9418
:1022C000420C80914B048695869586950E94B1219B
:1022D00060E0C7010E94612C5CC085E341CDE557F9
:1022E000FF4F0C946B359091660581E089278093B0
:1022F0006605109260018091650581608093650597
:1023000033CD40E354E26AE374E22CC04AE354E282
:1023100060E374E227C04CE154E266E274E222C05A
:1023200046E254E26CE174E21DC042E054E26FE028
:1023300074E218C04FE054E262E074E213C048EE69
:1023400053E265EF73E20EC045EF53E268EE73E2CD
:1023500009C040EA53E26EEA73E204C04EEA53E277
:1023600060EA73E20E94DB24FFCC81E005C083E0D9
:1023700003C086E001C087E00E947628F5CC8091FA
:10238000E302811104C089E20E945515EBCC85E37C
:10239000FBCFCDB7DEB7E8E00C94BD342091E4006C
:1023A0003091E50095E64091EC00842F817040FF6C
:1023B00023C08091E80080FD1DC0809157058823CF
:1023C00099F0853099F08091EB0085FD11C0409126
:1023D000E4005091E5002417350729F3915011F0DE
:1023E0009A01E1CF84E0089582E0089583E00895A2
:1023F00081E0089580E008954091E80042FFDDCF3C
:10240000089580914C0508950F931F93CF93DF9308
:102410008B01EA0190915705943079F58F70809384
:10242000E9008FEF9091E800815095FD06C095ED91
:102430009A95F1F700008111F5CF8091E80085FFB2
:102440001CC00E94CE11882361F08091E8008E7735
:102450008093E80012C0F80181918F018093F10010
:102460002197209791F38091E80085FDF4CF80912A
:10247000E8008E778093E800E4CFDF91CF911F9141
:102480000F91089543E050E0BC0182E00E940412E5
:10249000089546E050E0BC0182E00E9404120895D5
:1024A00040E250E0BC0182E00E9404120895CF9304
:1024B000DF93EC0148E050E0BC0181E00E9404128F
:1024C00088E0FE01ADE4B5E001900D928A95E1F758
:1024D000DF91CF9108951F920F920FB60F921124A2
:1024E0002F933F934F935F936F937F938F939F931C
:1024F000AF93BF93CF93DF93EF93FF93C091E90026
:10250000CF708091EC00D82FD17080FDD0E8109270
:10251000E9008091F000877F8093F00078940E941A
:102520004C291092E9008091F00088608093F000BF
:10253000CD2BCF70C093E900FF91EF91DF91CF9148
:10254000BF91AF919F918F917F916F915F914F91CB
:102550003F912F910F900FBE0F901F901895E8EDAF
:10256000F0E080818E7F80831092E2001092DA008A
:102570001092E100A0EEB0E08C9181608C9380819C
:102580008F77808319BCA7EDB0E08C918E7F8C9300
:1025900080818F7E80831092A603089580915905D3
:1025A00087FF11C08091E80082FD05C0809157052A
:1025B0008111F8CF11C08091E8008B770BC080911A
:1025C0005705882349F08091E80080FFF8CF80917B
:1025D000E8008E778093E8000895982F973068F58B
:1025E0009093E900981739F07091EC002091ED007C
:1025F0005091F00003C0242F762F50E021FD02C03F
:102600009F5FECCF3091EB003E7F3093EB00309139
:10261000ED003D7F3093ED003091EB003160309361
:10262000EB007093EC002093ED005093F0002091AC
:10263000EE0027FDE5CF80E008958F708093E900DC
:1026400081E00895A0E0B0E0E8E2F3E10C94A13469
:10265000C8EDD0E088818F7E8883E7EDF0E080814F
:102660008160808384E082BF81E08093A6038881BB
:102670008E7F888302EE10E0F80110821092DA005B
:1026800081EEC82ED12CF601108288818F77888345
:1026900088818068888388818F7D888319BC1092A7
:1026A000570510925805109256051092550590EE58
:1026B000E92EF12CF70180818B7F808388818160F6
:1026C000888342E060E080E00E94ED12F6018081A4
:1026D0008E7F8083F8018081816080838081886023
:1026E0008083F70180818E7F8083888180618883E9
:1026F000CDB7DEB7E8E00C94BD341F920F920FB651
:102700000F9211242F933F934F935F936F937F9377
:102710008F939F93AF93BF93EF93FF938091E100CB
:1027200082FF09C08091E20082FF05C08091E10034
:102730008B7F8093E1008091DA0080FF2AC0809136
:10274000D80080FF26C08091DA008E7F8093DA0067
:102750008091D90080FF18C080E189BD82E189BDE8
:1027600009B400FEFDCF81E0809357058091A60358
:1027700081110FC00E94AF120E9422138091E200CB
:1027800084608093E20005C019BC10925705109236
:10279000A6038091E10080FF17C08091E20080FFD6
:1027A00013C08091E2008E7F8093E2008091E2006E
:1027B00080618093E2008091D80080628093D8008D
:1027C00019BC85E0809357058091E10084FF30C0FB
:1027D0008091E20084FF2CC080E189BD82E189BD47
:1027E00009B400FEFDCF8091D8008F7D8093D80082
:1027F0008091E1008F7E8093E1008091E2008F7EE6
:102800008093E2008091E20081608093E2008091F9
:102810005805882311F084E007C08091E30087FD0C
:1028200002C081E001C083E0809357058091570585
:102830008091E10083FF27C08091E20083FF23C0E5
:102840008091E100877F8093E10082E080935705CB
:10285000109258058091E1008E7F8093E100809175
:10286000E2008E7F8093E2008091E200806180939D
:10287000E20042E060E080E00E94ED128091F00012
:1028800088608093F000FF91EF91BF91AF919F918D
:102890008F917F916F915F914F913F912F910F9009
:1028A0000FBE0F901F90189520915F053091600525
:1028B0002617370748F06115710539F42091E800B3
:1028C0002E772093E80001C0B901FC0120E06115DA
:1028D000710579F1809157058823F1F18530F1F187
:1028E0008091E80083FD3CC08091E80082FD2EC00D
:1028F0008091E80080FFEBCF2091F3008091F200FF
:1029000090E0922B6115710551F08830910538F4F3
:1029100021912093F100615071090196F3CF21E0DC
:10292000089709F020E08091E8008E778093E80016
:10293000CECF2111CFCF0AC080915705882361F0F7
:10294000853061F08091E80083FD0AC08091E80045
:1029500082FFF2CF80E0089582E0089583E0089539
:1029600081E0089587E797E7909301088093000836
:102970009AE088E10FB6F894A895809360000FBEA6
:1029800090936000FFCF78941F920F920FB60F9232
:1029900011248F939F93AF93BF938091A203909143
:1029A000A303A091A403B091A5030196A11DB11D9D
:1029B0008093A2039093A303A093A403B093A503D1
:1029C000BF91AF919F918F910F900FBE0F901F906D
:1029D0001895CF92DF92EF92FF922FB7F894C090A4
:1029E000A203D090A303E090A403F090A5032FBF0F
:1029F000A7019601261B370B480B590BCA01B901D9
:102A0000FF90EF90DF90CF9008959C014FB7F8941E
:102A10008091A2039091A303A091A403B091A50378
:102A20004FBF821B930B08952FB7F8946091A203B8
:102A30007091A3038091A4039091A5032FBF0895E3
:102A40002FB7F8948091A2039091A303A091A403BF
:102A5000B091A5032FBF08951F920F920FB60F924A
:102A600011248F939F93AF93BF938091A103811102
:102A700013C08091A2039091A303A091A403B091ED
:102A8000A5034196A11DB11D8093A2039093A303BA
:102A9000A093A403B093A503BF91AF919F918F9191
:102AA0000F900FBE0F901F90189590915C01992385
:102AB00021F090919F0397FD03C0E5EEF2E01DC069
:102AC000E82FE695E695E695EE31E0F4F0E0E35187
:102AD000FD4F877021E030E0A90102C0440F551F6F
:102AE0008A95E2F7CA0180959281892382830895AD
:102AF000319652E0EB3EF50729F092818913F8CF29
:102B00001282F6CF089590915C019923D1F09091B3
:102B10009F0397FF16C0E82FE695E695E695EE3100
:102B200040F5F0E0E351FD4F877021E030E0A9016E
:102B300002C0440F551F8A95E2F7CA019281892B82
:102B400016C0A7EEB2E0EFEF90E02D91821789F06A
:102B5000EF3F19F4211101C0E92F9F5F9630A9F7CB
:102B6000EF3F39F00E2E000CFF0BEB51FD4F82832F
:102B700008950895A3E0B0E0E0ECF5E10C94A734EB
:102B800020919D0330919E0328173907A1F090935F
:102B90009E0380939D03E0919B03F0919C033097EB
:102BA00051F024E029839B838A830084F185E02D02
:102BB000CE01019609952396E2E00C94C334A3E07C
:102BC000B0E0E5EEF5E10C94A73420919903309143
:102BD0009A0328173907A1F090939A0380939903D9
:102BE000E0919B03F0919C03309751F023E02983FF
:102BF0009B838A830084F185E02DCE01019609959F
:102C00002396E2E00C94C33480919703882359F013
:102C1000E0919B03F0919C03309729F00190F081A3
:102C2000E02D0995089580E00895FF920F931F937A
:102C3000CF93DF93C42FD22FF02EFC018581882300
:102C4000B1F0409396030E942015909395038093D2
:102C5000940380E28C0F883008F06CC0C77081E06C
:102C600001C0880FCA95EAF70E94C02263C0809114
:102C70009603481353C080919403909195030E944A
:102C80000515883C910508F049C0CD1729F180E26F
:102C90008C0F883040F4C77081E001C0880FCA955E
:102CA000EAF70E94B92280E28D0F883048F481E073
:102CB0009D2F977001C0880F9A95EAF70E94C02255
:102CC000F9E3FF1619F000E010E002C000E510E0A3
:102CD0008F2D0E94FD2208C099E30913F4CF89E3E8
:102CE0000E94FD2200E510E00115110549F08FE971
:102CF0009FE00197F1F700C0000001501109F4CFE7
:102D00008F2D0E94CA2280E28D0F883098F4D770F0
:102D100081E001C0880FDA95EAF70AC080E28C0FE3
:102D2000883040F4C77081E001C0880FCA95EAF787
:102D30000E94B922CDB7DEB7E5E00C94C0340E9402
:102D4000201520919003211104C02091910322238A
:102D500021F090938D0380938C0320919203211195
:102D600004C020919303222321F090938B0380933E
:102D70008A03E0919B03F0919C03309749F082E035
:102D800080938E030680F781E02D8EE893E009950D
:102D900008958091890380FD16C081FD16C082FDD3
:102DA00018C080918803882391F0883290F428E03D
:102DB000829FC001112468E270E00E943535862FA1
:102DC000672B29F007C082E0089584E0089581E030
:102DD000089588E008958091890380FD14C081FDE5
:102DE00014C082FD16C080918703882381F08E3144
:102DF00080F420E5829FC00111246EE170E00E9402
:102E00003535862F089584E1089588E2089588E095
:102E1000089580E50895282F35EB2303C001112480
:102E200097FF03C08058910902C080589F4F892F97
:102E30000895BC014091830380918403942F9817D7
:102E400029F1292F30E0F901EE0FFF1FE558FC4F63
:102E50000190F081E02DE617F70799F487E0869F4F
:102E6000F001879FF00D1124EB5EFE4F81E084831B
:102E700094130CC02F5F3F4F23703327209383039D
:102E800008952F5F3F4F922F9370D9CF0895EF92FF
:102E9000FF920F931F93CF93DF93809112038823A8
:102EA000D9F1C09111038DE0F82E80911203C8175B
:102EB00078F5EE24E394EC0EE0921103D0E0FC9E52
:102EC000F001FD9EF00D1124ED5EFC4F84818823FE
:102ED000E9F087819085892B21F48185928501967F
:102EE00059F40081118122813381448155816681A9
:102EF000778180850E943722FC9EF001FD9EF00DB7
:102F00001124ED5EFC4F148210921003CE2DCDCF14
:102F10001092120310921103CDB7DEB7E6E00C94C5
:102F2000BF3410920F0310920E03E5E1F1E08581AA
:102F3000811102C014821682379681E0E133F807CE
:102F4000B1F7089510928603109285031092310113
:102F500080918403809383030E9491170E944717F6
:102F60000895A0E0B0E0E7EBF7E10C949734C0914E
:102F70008303E7E0FE2E01E010E0FDE02F2EEE24BB
:102F8000E39480918403C81709F47AC0D0E0FE016D
:102F9000EE0FFF1FE558FC4F80819181F89EF001F4
:102FA000F99EF00D1124EB5EFE4F2481211165C0C6
:102FB00060901203A3E1B3E020E030E0712C5F01E8
:102FC000261508F058C01B964D905C901C97F50193
:102FD000808091804FEF5FEF312CC32CD12CF60114
:102FE000EE0FFF1FE80DF91D659174914616570607
:102FF00009F4A601672B11F03394EFCF4F3FFFEF99
:103000005F07A9F1B80102C0660F771F4A95E2F782
:10301000762AA801032C02C0440F551F0A94E2F738
:1030200041505109672D70E046175707E9F4229E79
:10303000F001239EF00D1124ED5EFC4FF89ED001AF
:10304000F99EB00D1124AB5EBE4F12962D913C91AE
:1030500013973087278374E07483108211829287DC
:1030600081871596EC9207C014961C9214972F5FD7
:103070003F4F1D96A5CF0E9419172196C37081CF8F
:103080000E9447170E949117CDB7DEB7E2E10C947A
:10309000B33480910D03882329F082E20E94A42298
:1030A00010920D03089580E0089590919F0392FF80
:1030B00010C041E0282F2471243009F040E031E0B5
:1030C000282F2871283009F030E0431711F02CE048
:1030D000822793FF10C041E0282F2471243109F08A
:1030E00040E031E0282F2871283109F030E0431703
:1030F00011F02CE082273091A00330FF10C051E086
:10310000282F2171213009F050E041E0282F28714B
:10311000283009F040E0541711F029E0822731FFF0
:1031200010C041E0282F2171213109F040E031E049
:10313000282F2871283109F030E0431711F029E0D9
:10314000822794FD877E08958238910569F1B0F455
:103150008133910509F475C048F48932910509F469
:1031600067C08A32910509F471C0089585339105CD
:1031700009F459C089339105B9F00895833E91054A
:1031800089F138F4803E9105D1F0823E910529F114
:103190000895863E9105C9F1873E9105D9F1843E97
:1031A000910509F06CC027C020919F0320FD57C0F6
:1031B00021FD55C02091A00323FD5BC0089580919F
:1031C0009F0380FD48C08091A00380FF48C080918C
:1031D0009F0384FD46C083EE51C080919F0382FF10
:1031E0003CC0F5CF80919F0382FD37C08091A00342
:1031F00080FD35C0ECCF8091A00381FF36C0809167
:103200009F0384FD2EC087EE39C080919F0383FF0A
:103210002AC0F5CF80919F0383FD25C08091A00334
:1032200081FD23C0ECCF80919F0385FD22C01FC08C
:1032300080919F0385FD1BC08091A00383FF19C06F
:103240000AC080919F0386FD16C017C080919F031E
:1032500086FD13C010C089E311C082EE0FC080EE5E
:103260000DC080E00BC086EE09C084EE07C085E388
:1032700005C089E203C08AE201C081E390E00895BD
:10328000A0E0B0E0E6E4F9E10C949F347C015B013E
:103290006A018091DF038A3018F001E010E002C07B
:1032A0000AE010E0C1E0D0E0B501C701F6010995E0
:1032B000811115C021960C171D0794F0CC9F900129
:1032C000CD9F300D300D112480E090E045E34A950C
:1032D000F1F70000019682179307C1F7E5CF81E06F
:1032E000CDB7DEB7EAE00C94BB34A0E0B0E0EBE78A
:1032F000F9E10C94A134C82F7B01D42F6901FB01A3
:1033000060817181828193810E94E9146436710524
:103310008105910510F4DD2339F10C2E000CDD0B35
:1033200001151105A9F0FE0183E0EE0FFF1F8A953C
:10333000E1F7EE5CFE4F818192818F539C4F40817B
:1033400050E00417150708F4A801B6010E947E3565
:10335000CE010E940834882341F00E941415F70121
:10336000608371838283938381E0CDB7DEB7E8E029
:103370000C94BD34A9E0B0E0E0ECF9E10C94A53484
:1033800088E0E6E6F5E0DE01119601900D928A955F
:10339000E1F78091A104898749E050E06EEC73E089
:1033A000CE0101960E94713541E0892B09F440E07D
:1033B00009E010E09E012F5F3F4F6BED73E084E06A
:1033C0000E9475192996E4E00C94C1340F931F9361
:1033D000CF93DF93EC0144E050E066EC73E00E9491
:1033E000713541E0892B09F440E004E010E09E01D2
:1033F0006DEB73E082E00E947519DF91CF911F9110
:103400000F910895EF92FF921F93CF93DF9300D017
:1034100000D01F92CDB7DEB77B0180E090E00E9424
:103420000834882309F456C04091350150E0411515
:10343000510511F041E050E0609136017091370183
:103440006F537C4FCE0105960E947E356091B90383
:103450007091BA038091BB039091BC030E94E91460
:10346000643671058105910538F482EC93E00E9481
:1034700022299D81891781F181E090E00E94083422
:10348000182F882391F040913D0150E045305105BF
:1034900010F044E050E060913E0170913F016F53A5
:1034A0007C4FCE0101960E947E3582EC93E00E9413
:1034B000222991E02D81281390E0192341F10E94E7
:1034C00014156093B9037093BA038093BB03909370
:1034D000BC030FC010E001C011E08091C2039091C5
:1034E000C303A091C403B091C50389839A83AB83BE
:1034F000BC83112361F089819A81AB81BC81809367
:10350000B5039093B603A093B703B093B80380912B
:10351000B5039091B603A091B703B091B803F7013A
:1035200080839183A283B383812F0F900F900F909C
:103530000F900F90DF91CF911F91FF90EF90089522
:10354000F894E82FE295EF70F0E031A1282F2F706A
:1035500081E090E001C0880F2A95EAF7982F9095B6
:10356000932391A392A1892B82A3789408950F931A
:103570001F9380919703882319F00E9414150EC0A1
:103580000E94141500918E0210918F0220919002DA
:1035900030919102600F711F821F931F1F910F9135
:1035A0000895A4E0B0E0E7EDFAE10C94A73460914F
:1035B000D7037091D8038091D9039091DA030E94C8
:1035C000E914643671058105910570F10E94B71AFE
:1035D000DC01CB010296A11DB11D89839A83AB83C7
:1035E000BC8380914B0190914C018F539C4F409133
:1035F0004A0150E04530510510F044E050E0BE0172
:103600006F5F7F4F0E947E3583E090E00E94083418
:10361000882359F00E9414156093D7037093D80340
:103620008093D9039093DA0381E02496E2E00C942E
:10363000C3347830B0F46630A0F48430A0F490E362
:10364000899FF001112486E0789FE00DF11D11247F
:10365000E60FF11DEE0FFF1FE55CFD4F8591949184
:10366000089580E001C081E090E008951F93CF931A
:10367000DF930E94A418EC01C11580E5D807E8F596
:10368000C11590E4D90708F0A8C0C03ED10530F5B7
:10369000CD3CD10508F094C0C83AD10578F4C53ABC
:1036A000D10508F083C0C130D10509F47CC008F40D
:1036B000F2C0C430D10508F0F1C0EDC0C33CD10563
:1036C00008F0E9C0C85AD0E0CC0FDD1FC758DE4F64
:1036D0000990D881C02DCE019464E1C0C11580E26B
:1036E000D80708F0CBC0C11591E0D90708F06BC02E
:1036F000C83ED10508F4D2C0CEC0C03682E5D80796
:1037000028F5C03492E5D90708F079C0C03282E5C7
:10371000D80708F06CC0C11592E5D90708F481C03C
:103720004C2F4695469580E2489FA0011124C37016
:1037300021E030E0C90102C0880F991FCA95E2F765
:10374000EA01C82BD92BCE019D68A9C0C03A82E5F9
:10375000D807B8F48C2F8F71C03892E5D90708F0DC
:103760007BC08695869590E2899F90011124C37055
:1037700081E090E002C0880F991FCA95E2F79A682D
:1037800068C0C03C82E5D80708F46DC0C03E92E531
:10379000D90708F080C0CF71DD27DC2FCC27CE0100
:1037A000806F906A7CC081E090E079C0C55AD0E01B
:1037B000CA58DE4F8881C82FD0E0CE0190646FC018
:1037C000CE0190656CC08D2F0E945518182FCE0128
:1037D00099270E94A4181F715CC0CE0199270E94EE
:1037E000A418CC27DF70D06A8C2B9D2B58C0CF71CA
:1037F000D0E0DC2FCC27CE01816F906A50C08C2F97
:103800008F718695869590E2899F90011124C370EF
:1038100081E090E002C0880F991FCA95E2F79C688A
:1038200018C08C2F8F710E94551895E0D695C795BA
:103830009A95E1F7CF70D0E0DC2FCC27282F30E02D
:1038400084FF05C084E0220F331F8A95E1F7D06919
:10385000CE01822B932B23C090E0D82FCC27CE0112
:10386000846F906A1CC08C2F8F710E9455188F71C5
:1038700090E0D82FCC27CE01906211C08D2F8F7190
:103880000E945518182FCE0199270E94A4181F7165
:103890009062912B04C080E090E001C0CE01DF91E6
:1038A000CF911F9108958091A80381111092A803D0
:1038B000089580959091A70389238093A703089585
:1038C000A6E0B0E0E6E6FCE10C94A5340E942015E9
:1038D0008C018091A9039091AA030817190781F020
:1038E00019821A820E942015682F49815A81792FE6
:1038F00080E090E00E94EC2C1093AA030093A903AF
:103900002696E4E00C94C134ACE0B0E0EAE8FCE1D7
:103910000C949A34AE014F5F5F4F7A0188E0DA0170
:103920001D928A95E9F704E611E06A0188E6682E9F
:1039300081E0782EAA24A394B12C2EE6822E21E0D9
:10394000922EF80180818F3F09F440C0F894E82F4F
:10395000E295EF70F0E021A18F70A50102C0440F45
:10396000551F8A95E2F7CA01922F982B91A392A135
:103970008095892382A3789400C0E8E6F1E0512C79
:1039800031E021912F3F89F0A22FA295AF70B0E0D6
:1039900090968C9190E02F7002C0959587952A950E
:1039A000E2F780FD02C0832F01C080E0582A330F68
:1039B0008E169F0631F7D8018C918F3F11F00E942F
:1039C000A01AB0EABA95F1F7F60150820F5F1F4FC7
:1039D000FFEFCF1ADF0A6016710609F0B2CF48E098
:1039E00050E0B70182E992E00E947135892B99F08D
:1039F00088E0F701A2E9B2E001900D928A95E1F723
:103A000081E08093AD030E9420159093AC038093D6
:103A1000AB03F12C27C08091AD038823D1F3009133
:103A20009B028091AB039091AC030E940515059712
:103A300080F310E002561D4F44E050E062E972E06E
:103A4000C8010E947135892B09F4FAC084E0E2E9CB
:103A5000F2E0D80101900D928A95E1F7FF24F394EA
:103A60001092AD0380919703E0919B02882309F4A3
:103A700081C019861A861B861C860E2F10E00256FE
:103A80001D4F8091DF038A3058F442E05AE1BE01B5
:103A9000675F7F4FC8010E9440198823E9F10AC07F
:103AA0008091AE039091AF030E940515843F914031
:103AB00060F743C046EE59E1BE01675F7F4FC80122
:103AC0000E944019882341F141ED5AE1BE01675F30
:103AD0007F4FC8010E9440198823F1F04AEB59E159
:103AE000BE01675F7F4FC8010E9440198823A1F083
:103AF0001092DF0380919A0290E044E050E0BE0112
:103B0000675F7F4F82569D4F0E94713521E0209361
:103B1000B403892B01F58EC08091DF038F3F19F02C
:103B20008F5F8093DF038091DF038A3018F30E9458
:103B300020159093AF038093AE038091B403882344
:103B400009F478C0FE01399684E0DF011D928A9560
:103B5000E9F71092B403E0919A02F0E0E256FD4FCB
:103B600089859A85AB85BC8580839183A283B38345
:103B700081E061C000919A0210E002561D4FF0E012
:103B8000E256FD4F84E0A2ECB3E001900D928A95DD
:103B9000E1F782EC93E00E9422298093C10384E044
:103BA000E6ECF3E0D80101900D928A95E1F7809060
:103BB000CA039090CB03A090CC03B090CD0380912A
:103BC000B0039091B103A091B203B091B3038816F2
:103BD0009906AA06BB06B1F08092B0039092B10399
:103BE000A092B203B092B3030E941415861A970AEA
:103BF000A80AB90A80928E0290928F02A092900237
:103C0000B092910288E0EEECF3E0A6E6B5E0019018
:103C10000D928A95E1F71091D603112349F0809116
:103C2000A104811105C00E94032580E00E94F624B2
:103C30001093A10480E08F292C96EFE00C94B63409
:103C4000F12C0ECF20914A049091010459E02917DC
:103C5000A9F030E0529FF001539FF00D1124EE5F68
:103C6000FB4F7181761306C07081781303C0758194
:103C7000741306C02F5F3F4F2770E9CF80E008958F
:103C800081E0089580914A0490910104891719F008
:103C90008F5F8770FBCF0895CF93C091A70380916A
:103CA0001003C82B8091A8038823E1F0C82B8091D2
:103CB0005C01882341F080919F0387FF04C02EE1BF
:103CC0008FEE92E003C026E087EE92E0FC0180E0F8
:103CD000215028F091919923D9F38F5FF9CF811169
:103CE0000E94531C8C2FCF910895CF93DF93809126
:103CF000FE0382958F7009F04EC08091FD038823EA
:103D000009F449C080914A04409101045091F9039B
:103D10006091F803C091FA03D091FB0379E0841716
:103D2000D1F190E0789FF001799FF00D1124DF012F
:103D3000AE5FBB4F14962C911497222349F1119634
:103D40002C911197251324C02C91261321C0159670
:103D50002C91159721111CC012962D913C9113970F
:103D60002C1B3D0B283C310598F48091FE038F708D
:103D700080618093FE03E85FFB4F80818F708061DC
:103D8000808388EF93E00E94420C0E94421E03C091
:103D900001968770C4CFDF91CF91089580915C0127
:103DA000882351F180919F0387FF26C00E944C1EFB
:103DB0008093EE0240E250E06CE474E08DEE92E01D
:103DC0000E947135892BD9F180E2EDEEF2E0ACE48E
:103DD000B4E001900D928A95E1F7E0919B03F09198
:103DE0009C03309761F186E08093ED020480F581B9
:103DF000E02D8DEE92E022C00E944C1E8093E502E1
:103E000048E050E06CE674E085EE92E00E94713587
:103E1000892BA9F088E0E5EEF2E0ACE6B4E0019091
:103E20000D928A95E1F7E0919B03F0919C03309706
:103E300031F00280F381E02D85EE92E0099508953E
:103E4000A0E0B0E0E6E2FFE10C94A0347C01009138
:103E5000B1021091B20280919C0290919D02082BB8
:103E6000192BCFE0D0E0CC24C394D12CC6010C2E6A
:103E700002C0880F991F0A94E2F780239123892BAF
:103E800021F4219798F7B12C09C0BC2EB7018C2FD3
:103E90000E94191B0E94361B019799F38B2DCDB7F9
:103EA000DEB7E9E00C94BC34CF93DF93EC010E94C1
:103EB000201FBE010E94191B0E94361BDF91CF916B
:103EC0000895FC012481222311F1878190850097B8
:103ED00019F00E94361B04C0808191810E94541FFA
:103EE00092959F70963079F010F4925001C09A50DC
:103EF000923068F4803F69F018F4883E40F409C0BD
:103F0000843F29F406C0883E20F0813F11F080E014
:103F1000089581E00895A8E1B0E0E1E9FFE10C94A3
:103F20009D348C0186E0F801DE01539601900D92DC
:103F30008A95E1F7F8018481E58098EF892E93E076
:103F4000992E9091FC03911120C0882309F496C109
:103F5000EE2009F442C0C8010E94611FF82E882398
:103F6000E1F189E0F801D40101900D928A95E1F721
:103F70008091FC03813031F48091F8039091F90332
:103F80000E94541F0E94751E7BC1F801D080C18021
:103F9000A280B380F090FD032091FA033091FB03DF
:103FA000FF2009F410C1A501421B530B483C5105E9
:103FB00008F0B6C0882309F463C18091FE03282F5E
:103FC000207F9091F903222361F09C1509F469C0C8
:103FD000C8010E94611F811176C0C8010E94420C75
:103FE0004DC19C111CC09091F8039D1118C04091C7
:103FF000FF0350910004278130854217530779F45D
:10400000E1100DC08F7080618093FE0388EF93E014
:104010000E94420C8091FE03F80186832DC1E110BD
:104020003AC040E06C2D8D2D0E94221E40E06C2D88
:104030008D2D0E94221EE82E81111EC1DB8ACC8AA2
:104040008B899C890E94541F292F22952F70243020
:1040500020F49F70223028F009C02A50223080F0CE
:1040600014C0992349F0811107C013C0992321F08E
:10407000F8019681907F69F0805E883030F409C045
:10408000803F38F0815F833020F0C8010E94420CED
:10409000EF2CFE2CF5C08091FE0381608093FE031F
:1040A000EBC09091F8039D1193CF4091FF03509185
:1040B0000004F801278130854217530709F088CFA3
:1040C000E11086CFB8C0EE2009F487CF2091FE031F
:1040D000822F82958F7090E00297BCF08091F80358
:1040E0009091F9039B878A87BD86AC868091FC03FB
:1040F0008E871F86288B8091FF03909100049A8BF6
:10410000898BCE010A960E94420C89E0F801A8EF43
:10411000B3E001900D928A95E1F70E94751EAEC042
:104120009091FE03292F207F51F488EF93E00E94A5
:10413000420C89E0F40111928A95E9F79DC0882329
:1041400009F49EC08091F9038C1115C08091F80389
:104150008D1111C04091FF0350910004F801278197
:1041600030854217530739F4E11005C09683C80122
:104170000E94420C7BC0C8010E94611F882309F481
:104180002CCFEE2009F429CF2091FE03822F8295B7
:104190008F7090E002970CF4B8CF8091F803909163
:1041A000F9039A838983BC82AB828091FC038D835F
:1041B0001E822F838091FF03909100049987888746
:1041C000CE010196A0CFA21AB30AF8ECAF16B10443
:1041D00008F04CC0882309F451C0FE2CEE2009F4ED
:1041E000FCCE8091F9038C1133C08091F8038D11BE
:1041F0002FC02091FF0330910004F8018781908542
:104200002817390729F58091FE0380FD18C0829593
:104210008F70482F50E04115510589F02091FE0321
:1042200026834F30510541F08F5F982F9295907FF4
:10423000822F8F70892B8683C8010E94420C89E0EF
:10424000F801A8EFB3E001900D928A95E1F718C04C
:10425000C8010E94611F811158CF8091FE038160C7
:104260008093FE03C8010E94420C0AC089E0F40159
:1042700011928A95E9F704C0F12C02C0FF24F3944F
:104280008F2D6896ECE00C94B934983078F5863030
:1042900068F5E82FF0E086E0989FE00DF11D11240D
:1042A0009E2F977083E0F695E7958A95E1F7EE0FDC
:1042B000FF1FEE0FFF1FE052FC4F40E050E080E098
:1042C000219130E0092E02C0369527950A94E2F735
:1042D00021703327042E01C0220F0A94EAF7822BA3
:1042E0004F5F5F4F4430510559F7089580E00895BE
:1042F000983088F5863078F5E82FF0E086E0989FD2
:10430000E00DF11D11248E2F877051E001C0550F73
:104310008A95EAF783E0F695E7958A95E1F7EE0F3F
:10432000FF1FEE0FFF1FE052FC4F20E030E070E077
:104330004081CB01022E02C0969587950A94E2F740
:104340008170819584278523842781932F5F3F4F38
:104350002430310569F708959093B2028093B10239
:10436000089521E030E002C0220F331F8A95E2F762
:10437000209530958091B1029091B20282239323CF
:104380000E94AC21089590914B04809589238093DD
:104390004B04282F277069F4981759F09091A003C7
:1043A00092FF07C08695869586950E94B12110924E
:1043B0004B0408959091A00392FB222720F928171F
:1043C00079F080FB92F99093A00360919F03709124
:1043D000A00384E090E00E94233582E00E94C32184
:1043E000089521E030E002C0220F331F8A95E2F7E2
:1043F0008091B1029091B202822B932B0E94AC214A
:10440000089590939D0280939C0208951092A703B3
:1044100080915C01882341F080919F0387FF04C055
:104420008EE1EFEEF2E003C086E0E7EEF2E0DF01BE
:104430001D928A95E9F780E090E00E94DF1580E008
:1044400090E00E94BA15109210030E94CE1EEEE872
:10445000F3E086E0DF011D928A95E9F71092870369
:1044600010928803109289030E949F160895A2E17A
:10447000B0E0EDE3F2E20C94A5340A871B872C87A9
:104480003D874E875F87688B798B8A8BCE010A9632
:104490000E948B1F81113BC089E0FE013A96DE012C
:1044A000119601900D928A95E1F76E85662379F158
:1044B0002091010430E0C90101968770992740914D
:1044C0004A0450E084179507A1F06D8399E0929F0C
:1044D000D001939FB00D1124AE5FBB4FFE0131960A
:1044E00001900D929A95E1F7809301040E94421E7B
:1044F0000EC00E9406221092010410924A04E8EFB6
:10450000F3E089E0DF011D928A95E9F719C019E00F
:1045100080914A0490910104891791F0189FC0017D
:1045200011248E5F9B4F0E948B1F882349F080913E
:104530004A0490E001968770992780934A04E8CF57
:104540006296E4E00C94C134882341F08095909108
:1045500010038923809310030E94CE1E08958823A0
:1045600039F090911003892B809310030E94CE1E86
:104570000895882321F00E94591C0E94CE1E0895A0
:10458000882339F09091A703892B8093A7030E9479
:10459000CE1E0895882381F19CEF980F913A18F46C
:1045A0000E9455150DC090E2980F983060F4877006
:1045B00091E001C0990F8A95EAF7892F0E94591C52
:1045C0000E94CE1E08959BE5980F933028F480E05A
:1045D00090E00E94DF15089598E5980F9B3128F42C
:1045E00080E090E00E94BA15089593E3980F93310C
:1045F00018F460E00E946E300895CF93882309F488
:104600006EC0C82F8CEF8C0F813AA0F580915C01B1
:104610008823E1F080919F0387FF18C0EC2FE69577
:10462000E695E695F0E0E351FD4F8281282F30E0DA
:104630004C2F477081E090E002C0880F991F4A9587
:10464000E2F782239323892B61F410C0E7EEF2E0B6
:104650008DEE92E02191C21721F08E179F07D1F7BE
:1046600005C08C2F0E9455150E94CE1E8C2F0E94D3
:10467000831510C080E28C0F883078F4C77081E019
:1046800090E001C0880FCA95EAF79091A703892BA3
:104690008093A7030E94CE1E22C0EBE5EC0FE3300F
:1046A00040F4F0E0EA58FE4F808190E00E94DF1570
:1046B00016C0E8E5EC0FEB3150F4F0E0EE0FFF1F11
:1046C000E758FE4F808191810E94BA1508C083E3AC
:1046D0008C0F833120F461E08C2F0E946E30CF91DB
:1046E000089530919803311105C08B31910524F163
:1046F0004B9703C08B319105FCF4FC01EE0FFF1FBB
:10470000DF01A80FB91FAD55BB4F11963C91119712
:10471000361307C03C91341304C012963C913217F3
:1047200059F031E03093A2048E0F9F1FFC01ED552C
:10473000FB4F61834083228308951092A204089561
:10474000E6E6F5E024813AE0231B08F420E0248328
:10475000809165058160809365050895E6E6F5E042
:1047600024813AE0230F08F42FEF2483809165051C
:1047700081608093650508958091A204882339F1B2
:10478000539A8BB1877F9BB198602FB7F894E3EA77
:10479000F4E035E0E534F30789F0319148E09BB966
:1047A000000000C037FF8BB9330F000000C000C00D
:1047B00000C08BB900C04A9591F7EBCF2FBF8FE5B2
:1047C00094E00197F1F700C000001092A204089550
:1047D000E6E6F5E0438128E0421B08F440E08181F1
:1047E000628190E00E9439290895E6E6F5E0438170
:1047F00028E0420F08F44FEF8181628190E00E942F
:1048000039290895E6E6F5E0628128E0621B08F4A4
:1048100060E08181438190E00E9439290895E6E6B5
:10482000F5E0628128E0620F08F46FEF8181438137
:1048300090E00E9439290895E6E6F5E0818190E054
:104840004381628108970E9439290895E6E6F5E0E0
:10485000818190E04381628108960E943929089500
:104860008091660586958695815009F489E00E94BD
:104870007628089580916605869586958F5F8A30A3
:1048800008F081E00E9476280895FF920F931F930D
:10489000CF93DF93182F062FF42EC0E0D0E02F2DFA
:1048A000402F612FCE010E94622F2196C633D10581
:1048B000B1F7CDB7DEB7E5E00C94C034CF93E82F65
:1048C00020917707309178072157354040916E0548
:1048D000642F70E0C9010E948334481B842FEE23AB
:1048E00051F066E00E942935C82FC150A8F080E23F
:1048F0000E94E327FACFA901480F511D41155240EC
:1049000018F080E020E030E0280F311D2F583A4F9A
:104910003093780720937707CF910895AB0124E671
:1049200030E0BC0188E70E942D3221E0892B09F09C
:1049300020E0822F089580914A05909149058823AF
:1049400089F0992369F062E070E08DEB93E00E94BA
:104950008E24811103C08091490508951092490564
:104960009091490581E08927089580914A0588231F
:10497000F9F00E941415DC01CB01805A9541AF4F2C
:10498000BF4F8093450590934605A0934705B0938C
:1049900048058091490581110BC062E070E08BEB06
:1049A00093E00E948E24882319F081E080934905CA
:1049B000809149050895882311F0FA0101C0FB0197
:1049C000099508959BE0899F802D1124980F9733B6
:1049D00008F096E320919803222321F09C3128F0DF
:1049E0009BE108958B3108F48BE1089580935B017E
:1049F00080916605837080935A010E94BC2383E0F6
:104A0000809360010895A0E0B0E0E9E0F5E20C9445
:104A10009F34C82F80915B018C130DC020916605D7
:104A2000237030E040915A0150E081E024173507AF
:104A300019F480E001C081E0817080935F01809172
:104A40006B0590915E01981739F080935E0140E00C
:104A500060E080E00E944524C53049F58EEF9EE27B
:104A600008C0C93008F067C1C63009F089C185EFB8
:104A70009EE20E94DF2807C0C43009F092C084E49F
:104A80009FE20E948F2890915D019F5F90935D014E
:104A90008111CDC182E08093600180915F0181111D
:104AA000C6C1C111C4C183E080936001C0C1C630DA
:104AB00008F0BFC0C230B9F580915D010E94E224C8
:104AC000092FD82FF0906805B090690520916A05EC
:104AD00010E4129F112D1124D01718F5CD2ED12CD2
:104AE000F601E35BFD4F908180915E018923B9F06F
:104AF000F601EE0FFF1FEF54FE4F81A982958F70D4
:104B000060916705819F600D11247F2D8B2D0E9480
:104B1000E42F462F282F672FC6010E94622FDF5FE8
:104B2000DBCF802F1BC0C33008F041C0CC23C9F0BD
:104B3000C130B9F580915D010E94E224192FD82F70
:104B40006091670570916805809169050E94E42F66
:104B5000062FF72ED82ED11778F0812F0E94D62F4E
:104B600092CF80915F01882329F040E060E080E0EF
:104B70000E94452480E087CFED2FF0E0DF01A35BAA
:104B8000BD4F8C9190915E01982331F02D2D402FD7
:104B90006F2DCF010E94622FDF5FDDCFCF3F09F481
:104BA00015C180915D018F5F80935D0173CFC3302C
:104BB00009F062CF80915D010E94E224192FD82F65
:104BC000F090670500916805D090690560916A05CD
:104BD00066956695669580916105909162050E9443
:104BE000CC2F0E94AB2F805887FD8195880F282FEE
:104BF0003D2D239F212D1124822F6F2D702F0E9478
:104C0000E42F062FF72ED82ED11708F0A6CFED2FC0
:104C1000F0E0DF01A35BBD4F8C9190915E01982382
:104C200031F02D2D402F6F2DCF010E94622FDF5FBD
:104C3000EBCFC83009F015CF80915D010E94E224CE
:104C4000F92ED82F60916A05669580916105909143
:104C500062050E94CC2FB82EDF1508F08FC0CD2E34
:104C6000D12CF601E35BFD4F908180915E01892399
:104C700009F45FC0F601EE0FFF1FEF51FE4F4081B8
:104C800050E040575109F601EE0FFF1FEF54FE4F61
:104C9000E1A9F0E0B097449F8001459F100D100DF1
:104CA0001124EE9FC001EF9F900D900D1124080F6D
:104CB000191F0230110558F1013E8EE1180748F422
:104CC000C80175E0969587957A95E1F728E0280F59
:104CD00001C02FEF31E0822F90E0830F911D959559
:104CE0008795889FB001899F700D700D112406175C
:104CF000170718F42FEF280F04C08F3F39F031E069
:104D0000380F231740F70FEF030F01C00FEF60912B
:104D100067057091680580916905EB2C9F010E94E1
:104D2000972F0E94E42F462F282F672FC6010E943D
:104D3000622FDF5F91CFC93009F030CF80915D01E4
:104D40000E94E224F92ED82F60916A056695669537
:104D500080916105909162050E94CC2F182F80E40C
:104D6000810F0E94AB2F30E8B32EB80E812F0E9426
:104D7000AB2F40E8A42EA80EDF1540F08F2DEECE0D
:104D8000C73009F00ECF83E39FE27BCECD2ED12C2E
:104D9000F601E35BFD4F908180915E018923A1F0D4
:104DA000609167057091680580916905E12E0D2F6E
:104DB0002A2D4B2D0E94652F0E94E42F462F282F6D
:104DC000672FC6010E94622FDF5FD6CF80916105F9
:104DD00090916205A0916305B091640588279C704D
:104DE000AA27BB272AE0B695A795979587952A9578
:104DF000D1F782309105A105B10571F0833091059D
:104E0000A105B10569F040E00197A105B10511F0D8
:104E100060E008C064E102C044E160E080E003C0FB
:104E200044E164E184E10E94452482E03DCECDB7B7
:104E3000DEB7EAE00C94BB344F925F926F927F92A0
:104E40008F929F92AF92BF92CF92DF92EF92FF929A
:104E5000CF9380909D0490909E04A0909F04B0906A
:104E6000A00480919703882339F0C501B4010E9402
:104E7000E9146B017C0108C00E94B71A6B017C0128
:104E8000C818D908EA08FB080E94B71A4B015C0150
:104E900060939D0470939E0480939F049093A0045C
:104EA000A0917404E4E7F4E08A2F90E04FEF5FEF05
:104EB00060E070E04C195D096E097F09A91799F04F
:104EC000218D328D2901612C712C44155505660503
:104ED000770510F4815004C02C0D3D1D328F218FB9
:104EE0009F5F3296EBCF809374048091A10481116F
:104EF00008C0C09166058C2F837019F0C695C695C1
:104F000001C0C0E0809160018130A1F028F08230C2
:104F1000E1F08330F1F049C010925D0180926105AB
:104F200090926205A0926305B092640581E080933F
:104F300060013BC08C2F0E940325CC23B1F18091EE
:104F40005D0181500E94E22430C08C2F0E94F62423
:104F50002CC080916505882351F048E050E068E15D
:104F600070E086E695E00E94F53410926505C090E9
:104F70006105D0906205E0906305F0906405809132
:104F80009703882329F0C701B6010E94E91406C0DF
:104F90000E94B71A6C197D098E099F09603171054D
:104FA0008105910510F010926001CF91FF90EF9074
:104FB000DF90CF90BF90AF909F908F907F906F9039
:104FC0005F904F900895CF93DF93682F8A3011F44C
:104FD00081E003C08D3021F480E00E945E246FC028
:104FE000809177079091780726E0FC01A1E7B7E070
:104FF00001900D922A95E1F7603E30F026E0FC0129
:1050000011922A95E9F70AC0F6E06F9FB0011124CA
:10501000665D7A4F46E050E00E94CE34C09177073B
:10502000D091780746E050E0BE0181E797E00E940A
:105030007135892B49F19E0121573540A90185E041
:10504000569547958A95E1F781E090E0BC0102C052
:10505000660F771F4A95E2F740916F0550917005F2
:10506000462B572B2B5F3F4F65E0369527956A956A
:10507000E1F702C0880F991F2A95E2F7842B952B40
:105080009093700580936F059E012B56354040919B
:105090006E05642F70E0C9010E948334481B4630BE
:1050A00010F4240F311D211582E0380710F020E0A4
:1050B00030E02F583A4F3093780720937707DF91ED
:1050C000CF910895CF93DF93EC01FE018491882363
:1050D00021F00E94E3272196F8CFDF91CF91089528
:1050E0000E94622881E00E945E24089590916605E6
:1050F0009370A1F0811102C0946007C08A3010F053
:10510000946203C0880F880F982B909366051092C5
:105110006001809165058160809365050895A0E038
:10512000B0E0E5E9F8E20C94A1347C0180915D01E6
:105130000E94E224D92E182F60916A05669580910D
:105140006105909162050E94CC2FC82E1D1578F53F
:10515000C12FD0E0FE01E35BFD4F908180915E01A5
:10516000892319F1FE01EE0FFF1FEF54FE4F21A915
:1051700030E020523109FE01EE0FFF1FEF51FE4FCC
:10518000408150E040575109609167057091680572
:10519000809169050C2DF70109950E94E42F462F97
:1051A000282F672FCE010E94622F1F5FCFCF8D2D3A
:1051B0000E94D62FCDB7DEB7E8E00C94BD34A0E056
:1051C000B0E0E5EEF8E20C94A2348C0180915D0130
:1051D0000E94E224EC0160916A056695669521E0E3
:1051E000620F08F46FEF80916105909162050E9453
:1051F000CC2FD82ECD17F0F4EC2EF12CF701E35B79
:10520000FD4F908180915E01892391F06091670547
:1052100070916805809169052D2D4C2FF801099535
:105220000E94E42F462F282F672FC7010E94622F6C
:10523000CF5FE0CF8D2F0E94D62FCDB7DEB7E7E04E
:105240000C94BE34FC01AC014C5F5F4F8FEF91E3D7
:105250002191822728E030E087FF03C0880F89274B
:1052600001C0880F21503109B9F7E417F50781F71C
:10527000089590916605937071F08093670560932F
:105280006805473908F046E940936905809165054E
:105290008160809365050895AAE2B0E0E2E5F9E255
:1052A0000C94A634E9E5F5E081E695E02091F10063
:1052B00021938E179F07D1F780915A05833009F407
:1052C00061C030F4813071F0823009F49BC0B2C00B
:1052D0008A3009F487C08B3009F46CC0893009F03A
:1052E000A9C020C080915905813A09F0A3C08091DE
:1052F000E800877F8093E80080915D0590915E05CE
:10530000892B21F468E08DE495E003C060E080E043
:1053100090E070E00E9454148091E8008B778093B5
:10532000E80088C080915905813209F083C08091DE
:105330005D0590915E05029708F07CC08091E800C1
:10534000877F8093E8008091E80082FD05C080910E
:1053500057058111F8CF6EC02091F3008091F200C3
:1053600090E0922B029731F48091F100813011F09E
:10537000863021F48091F10080934C058091E80003
:105380008B7754C080915905813A09F053C08091C0
:105390005D0590915E05892B09F04CC08091E80075
:1053A000877F8093E8008091E80080FFFCCF8091A8
:1053B0005C0137C0809159058132E1F580915D052E
:1053C00090915E05892BB1F58091E800877F8093ED
:1053D000E8000E94CE1280915B0580935C010E94E0
:1053E000062228C080915905813221F58091E8007C
:1053F000877F8093E8000E94CE1280915C058093A5
:105400004B0518C080915905813AA1F48091E800BC
:10541000877F8093E8008091E80080FFFCCF809137
:105420004B058093F1008091E8008E778093E8002F
:105430000E94CE128091E80083FFCEC18091590571
:1054400090915A05492F50E04A30510508F0C4C1E7
:10545000FA01E056FF4F0C946B35803821F082380A
:1054600009F0BAC108C0809155059091560599235D
:1054700089F082600FC080915D058F70873008F0E1
:10548000ABC18093E9008091EB0085FB882780F910
:105490001092E9009091E800977F9093E800809344
:1054A000F1001092F10065C1282F2D7F09F094C101
:1054B000882319F0823061F08FC180915B058130C3
:1054C00009F08AC1933009F080E0809356052EC020
:1054D00080915B0581112AC080915D058F702FEF4F
:1054E000280F263008F078C18093E9002091EB0066
:1054F00020FF1CC0933021F48091EB00806214C027
:105500009091EB0090619093EB0021E030E0A901D5
:1055100002C0440F551F8A95E2F74093EA001092AB
:10552000EA008091EB0088608093EB001092E90024
:105530008091E800877F20C181114EC110915B05E9
:105540001F778091E3008078812B8093E300809126
:10555000E800877F8093E8000E94CE128091E800E7
:1055600080FFFCCF8091E30080688093E3001111FD
:1055700002C082E001C083E0809357052DC18058AE
:10558000823008F029C180915B0590915C058C3DCB
:1055900053E0950779F583E08A838AE289834FB7E0
:1055A000F894DE01139620E03EE051E2E32FF0E0B4
:1055B00050935700E49120FF03C0E295EF703F5FE6
:1055C000EF708E2F90E0EA3010F0C79601C0C096C1
:1055D0008D939D932F5F243149F74FBF8091E80051
:1055E000877F8093E8006AE270E0CE0101960E9416
:1055F0005414AEC040915D0550915E05292F3327AC
:1056000023303105A9F068F42130310509F4F3C0E5
:105610002230310509F0E0C08BE390E0E9EBF4E0E3
:1056200044C02132310521F12232310571F1D4C05B
:10563000992781309105A1F058F0029709F0CCC06C
:10564000E6E0F5E0E4918E2F90E0E6E0F5E02AC098
:10565000E6E2F5E0E4918E2F90E0E6E2F5E022C08C
:10566000E4E1F5E0E4918E2F90E0E4E1F5E01AC08A
:105670004115510509F4C4C04130510509F0ACC0D1
:1056800089E090E0E4EEF4E010C04115510509F422
:10569000BCC04130510509F09FC086EB90E0EFEBB4
:1056A000F3E003C0009709F497C02091E800277F3A
:1056B0002093E80020915F053091600582179307E1
:1056C00008F49C0140E02115310589F180915705CE
:1056D000882309F43DC08530D9F18091E80083FD2D
:1056E00037C08091E80082FD2FC08091E80080FFE4
:1056F000EACF4091F3008091F20090E0942B2115C5
:10570000310559F08830910540F444914093F100FF
:105710003196215031090196F2CF41E0089709F006
:1057200040E08091E8008E778093E800CCCF411173
:10573000CDCF0AC080915705882351F0853041F0C4
:105740008091E80083FD04C08091E80082FFF2CFE1
:105750008091E8008B778093E8003EC08038E1F5C7
:105760008091E800877F8093E800809158058093BE
:10577000F1008091E8008E778093E8000E94CE12BD
:105780002BC0811129C080915B0590915C05992700
:10579000029714F58091E800877F8093E8001091CC
:1057A0005B05109358050E94CE12111106C080911E
:1057B000E30087FD02C081E001C084E080935705CB
:1057C00042E061EC81E00E94ED1242E261EC82E095
:1057D0000E94ED12809157058091E80083FF1AC066
:1057E0008091E800877F8093E8008091EB008062E1
:1057F0008093EB000FC082E190E0E4EFF4E055CF3E
:1058000089E090E0EBECF4E050CF84E490E0E5E751
:10581000F4E04BCFAA96E3E00C94C2349C013A9595
:1058200021153F4130F5BC0166277270AC01442759
:1058300054709C012227387094FF0FC090FF02C063
:1058400080E101C080E0672B09F08062452B09F000
:105850008064232B79F080680895892F8170672BED
:1058600009F08260452B09F08460232B19F08860D1
:10587000089580E00895292F33272115310519F067
:10588000C90148E001C040E09C0164E036952795DD
:105890006A95E1F72115310511F04C5FC9019C01B2
:1058A00036952795369527952115310511F04E5FD0
:1058B000C9019C0136952795232B09F04F5F842F52
:1058C0000895A6E0B0E0E7E6FCE20C94A634FC0103
:1058D00087819085009709F5CF0126E0DE011196BA
:1058E00001900D922A95E1F7FC01258189819A8129
:1058F000222359F0662349F00E94201F182F682F99
:1059000089819A810E94782103C00E944521182F25
:1059100069817A81812F0E94191B2696E3E00C94FD
:10592000C2340E9406222FEF84E39CE02150804085
:105930009040E1F700C000009AE088E10FB6F894CB
:10594000A895809360000FBE90936000FFCFEF9208
:10595000FF920F931F93CF93DF93EC018B017C0198
:1059600080EEE81AF10898E0E916F10410F02097AB
:1059700031F4CE010E940E2C0E94C02205C0CE013F
:105980000E940E2C0E94AF228C2F0E94FD22011536
:10599000110549F08FE99FE00197F1F700C0000081
:1059A00001501109F4CF8C2F0E94CA2298E0E91609
:1059B000F10410F0209731F4CE010E940E2C0E94C9
:1059C000B92205C0CE010E940E2C0E94A422CDB7A0
:1059D000DEB7E6E00C94BF34ADE1B0E0E2EFFCE20C
:1059E0000C9497344B8B5C8B6D8B7E8B8F8B988F4D
:1059F000911110921003CE010A9629E0FC01119238
:105A00002A95E9F726E0FE017396DC0101900D92DC
:105A10002A95E1F72E8521110CC00A851B852C855E
:105A20003D854E855F85688979898A890E943722FC
:105A3000D8C161E00E94612C6C018035FCE79F07B2
:105A400039F48F858823A1F081E080933101C6C1AC
:105A500081352CE7920731F48F85882349F00E9425
:105A6000A217BCC182359C4719F48F85811111C0E2
:105A700065E1E62E61E0F62E512CA12CB12C882494
:105A80008394912C44244394CE0101969A8F898F5C
:105A900039C0809131018823B9F2E1CFFFEF6F1651
:105AA0007F0609F447C1F7016481611146C0209166
:105AB0003101822F81701F85F701358126811123E5
:105AC00009F4DEC0882309F4DBC03323C9F1940153
:105AD00002C0220F331F9A95E2F721503109F701D6
