:100000000C94AF050C94CC050C94CC050C94603387
:100010000C94CC050C94CC050C94CC050C94CC051C
:100020000C94CC050C94CC050C9477130C946512AD
:100030000C9426150C94CC050C94CC050C94CC0592
:100040000C94CC050C94CC050C94CC050C94CC05EC
:100050000C94CC050C94BD140C94CC050C94CC05DC
:100060000C94CC050C94CC050C94CC050C94CC05CC
:100070000C94CC050C94CC050C94CC050C94CC05BC
:100080000C94CC050C94CC050C94CC050C94CC05AC
:100090000C94CC050C94CC050C94CC050C94CC059C
:1000A0000C94CC050C94CC050C94CC05BD0D310EF4
:1000B000C50D8F0D930DC90D960DCC0DD70DA10D4E
:1000C000270EA50DDB0DA90DDF0D090EAD0DE30DFE
:1000D000130EB30DE90DF30D9A0DD00D9D0DD30D3B
:1000E000B80DEE0DFF0D1F0E210E8B0DC10D3A0E3A
:1000F0007D0E830E6E0E740E890E8F0E950E670F99
:10010000670F9A0F9A0F0A102810451145112D10EC
:10011000BB10CC10CC106D117B11801185118A1190
:100120008F11941199119E11A311A811AF11B11142
:10013000B311B511AE0EAE0EAE0EAE0EAE0EAE0ECD
:100140002B2A522AEA2B522AEA2B9A2ABD2AEA2B78
:10015000AC2BBF2B00DA0281FFD9F1DB20A4A62E45
:10016000AF00A0C0D30000A1C8D30000AED580A8C6
:100170001F408D142000556E6465660041646A75E9
:100180007374005261697365004C6F776572004447
:10019000656661756C74004C617965723A20003A4D
:1001A000002C206B0078008081828384858687887C
:1001B000898A8B8C8D8E8F9091929394A0A1A2A30B
:1001C000A4A5A6A7A8A9AAABACADAEAFB0B1B2B377
:1001D000B4C0C1C2C3C4C5C6C7C8C9CACBCCCDCEC2
:1001E000CFD0D1D2D3D400202020206162636465B7
:1001F000666768696A6B6C6D6E6F70717273747527
:10020000767778797A313233343536373839305237
:100210004542545F2D3D5B5D5C233B27602C2E2FB8
:100220002020200D000E00000014001A00000073B2
:100230007C14001A000800150017002B0004241677
:1002400021072809220A00E1001D001B00060019F1
:1002500000050000000000000000003441E1003211
:1002600000130012000C0018001C00340033340F7F
:10027000310E380D320B00E5003800370036001023
:1002800000110000000000000023522C422A023519
:10029000001E021F02200221022202350223242412
:1002A00021252826222702010000002F0030002FE0
:1002B0000230020000000000000052000000002A8E
:1002C000002D022600250024002E0228002D2423C4
:1002D00031223821322E002A00370020001F001E54
:1002E0000027000000000000000000280029000096
:1002F000000000D100CD00D200D90000000000CFE6
:1003000000CE00D000DA0000000000DB00D300DCEB
:10031000000000000000000000005223522C0000EA
:1003200000A9004D004B004E004A000000AA004FFB
:10033000005200510050000000A800BB00AD00AE0C
:1003400000BC00000000000000E6000100280000E2
:100350007C2B782C782D782E782F78207823782590
:100360007827782978307821782478267828782A90
:10037000783178000000000000005200002C0000DE
:10038000000000000000000000000000000000006D
:1003900000000000003378000000000000000000B2
:1003A000003278000000000000000000002800007B
:1003B000AF00AE05010902A10185020901A10005F6
:1003C0000919012908150025019508750181020503
:1003D00001093009311581257F95027508810609CB
:1003E000381581257F950175088106050C0A3802AC
:1003F0001581257F950175088106C0C0050109801A
:10040000A101850319012AB700150126B70095013E
:1004100075108100C0050C0901A101850419012A8C
:10042000A002150126A002950175108100C00501EA
:100430000906A1018506050719E029E71500250130
:100440009508750181020507190029EF150025019E
:1004500095F07501810205081901290595057501B9
:100460009102950175039101C005010906A10105DD
:100470000719E029E7150025019508750181029506
:1004800001750881010507190029FF150026FF00E5
:100490009506750881000508190129051500250133
:1004A000950575019102950175039101C009023B03
:1004B00000020100A0FA0904000001030101000983
:1004C00021110100012244000705810308000109F0
:1004D000040100010300000009211101000122B6FE
:1004E000000705820320000112010002000000083D
:1004F000534601000100010200010C0343006F009C
:1005000072006E0065000000100366006F006F004F
:100510007300740061006E00000004030904000011
:10052000000000003E5B4F5B3E003E6B4F6B3E00A9
:100530001C3E7C3E1C00183C7E3C18001C577D571E
:100540001C001C5E7F5E1C0000183C180000FFE7CA
:10055000C3E7FF00001824180000FFE7DBE7FF00F7
:1005600030483A060E00262979292600407F0505E5
:100570000700407F05253F005A3CE73C5A007F3E7C
:100580001C1C0800081C1C3E7F0014227F22140043
:100590005F5F005F5F0006097F017F00006689954D
:1005A0006A0060606060600094A2FFA2940008048A
:1005B0007E04080010207E20100008082A1C080075
:1005C000081C2A0808001E10101010000C1E0C1E1B
:1005D0000C0030383E383000060E3E0E060000009B
:1005E0000000000000005F0000000007000700009E
:1005F000147F147F1400242A7F2A12002313086416
:100600006200364956205000000807030000001C15
:10061000224100000041221C00002A1C7F1C2A00ED
:1006200008083E080800008070300000080808082C
:1006300008000000606000002010080402003E5125
:1006400049453E0000427F4000007249494946004A
:100650002141494D33001814127F100027454545AC
:1006600039003C4A49493100412111090700364906
:1006700049493600464949291E000000140000007F
:100680000040340000000008142241001414141427
:1006900014000041221408000201590906003E41DD
:1006A0005D594E007C1211127C007F494949360089
:1006B0003E41414122007F4141413E007F4949493D
:1006C00041007F09090901003E41415173007F0843
:1006D00008087F0000417F4100002040413F0100A9
:1006E0007F08142241007F40404040007F021C02EE
:1006F0007F007F0408107F003E4141413E007F099A
:10070000090906003E4151215E007F091929460072
:1007100026494949320003017F0103003F40404020
:100720003F001F2040201F003F4038403F0063141F
:10073000081463000304780403006159494D430021
:10074000007F414141000204081020000041414166
:100750007F000402010204004040404040000003CA
:10076000070800002054547840007F284444380093
:10077000384444442800384444287F0038545454B2
:10078000180000087E0902001824241C78007F0845
:100790000404780000447D4000002040403D0000FB
:1007A0007F102844000000417F4000007C04780452
:1007B00078007C08040478003844444438007C18ED
:1007C00024241800182424187C007C080404080041
:1007D00048545454240004043F4424003C40402026
:1007E0007C001C2040201C003C4030403C00442841
:1007F000102844004C9090907C004464544C440079
:100800000008364100000000770000000041360873
:1008100000000201020402003C2623263C000000E6
:100820000000000000000000000000000000C0E028
:10083000F0F8F81800C0F0FCFEFFFFFFFFFFFFFF1D
:100840007E00000000000000000080C0E0E0E0E06A
:10085000E0E0E0E0C0800000000080C0E0E0E0E018
:10086000E0E0E0E0C080000000E0E0C0C0E0E0E0E8
:10087000E00000E0E0C0C0E0E0E0E0E0C0800000B8
:10088000000080C0E0E0E0E0E0E0E0E0C0800000E8
:10089000000000000000000000000000E0F0F0F0A8
:1008A000E0ECEEF7F37020007C7C7C7E007E7E7EA8
:1008B0007F7F7F000080C0E07E5B4F5BFEC000005A
:1008C000C000DCD7DEDEDED7DC00C00000000000A8
:1008D0000000000000000000000000000000000018
:1008E00000000000000000F8FCFEFFE000FFFFFF3A
:1008F000FFFFFF80FFFFFFFFFFFFFFFFFF1F07015D
:10090000000000000000000000FFFFFF8100000069
:1009100000000081C3C3C30000FFFFFF810000008F
:1009200000000081FFFFFF0000FFFFFF010000004B
:10093000000000FFFFFF010000000001FFFFFF00BB
:1009400000FFFFFF9D1C1C1C1C1C1C9DDFDFDF002B
:100950000000000000000000000000000F1F3F7FAB
:100960007F7F7F7F3F1E0C001F1F1F3F003F3F3FC9
:100970007F7F7F00307B7F7830202030787F3B0086
:1009800003000F7F0F0F0F7F0F0003000000000018
:100990000000000000000000000000000000000057
:1009A00000000000000000030F1F3F3F3F3F1F1FDC
:1009B0003F3F7F7F7F3F3F1F3F7F7F7F7F7C7878F8
:1009C000381C0F00000000000000010307070707A4
:1009D00007070707030100000000010307070707D7
:1009E00007070707030100000007070700000000D2
:1009F00000000007070700000000000007070700CD
:100A000000000103070707070707070703010000A6
:100A100000000000000000000000000000000000D6
:100A200000000000000000000000000000000000C6
:100A300000000000000000000000000000000000B6
:100A400000000000000000000000000000000000A6
:100A50000000000000000000000000000000000195
:100A6000010101010101010102020202020202026E
:100A70000203030303030303030404040404040440
:100A80000505050505060606060607070707070804
:100A9000080808090909090A0A0A0B0B0B0C0C0CB7
:100AA0000D0D0D0E0E0E0F0F0F1010111111121251
:100AB00013131414151516161717181819191A1ACE
:100AC0001B1B1C1D1D1E1E1F20202122222324242F
:100AD000252626272829292A2B2C2D2D2E2F30316B
:100AE0003232333435363738393A3B3C3D3E3F407D
:100AF0004142434445464748494A4C4D4E4F505168
:100B00005354555658595A5B5D5E5F616264656621
:100B100068696B6C6D6F7072737577787A7B7D7EA8
:100B20008082838587888A8C8E8F91939596989AF8
:100B30009C9EA0A2A3A5A7A9ABADAFB1B3B5B7BA10
:100B4000BCBEC0C2C4C6C9CBCDCFD1D4D6D8DBDDE4
:100B5000DFE2E4E7E9EBEEF0F3F5F8FAFDFF11244C
:100B60001FBECFEFDAE0DEBFCDBF12E0A0E0B1E004
:100B7000EEE0FBE602C005900D92AE37B107D9F763
:100B800027E0AEE7B2E001C01D92AB36B207E1F755
:100B90000E94CE050C9485350C940000A1E1B0E0D4
:100BA000E4EDF5E00C94953485B7806885BF85B792
:100BB000806885BF84B7877F84BF0FB6F894A895F7
:100BC00080916000886180936000109260000FBE89
:100BD00090E080E80FB6F8948093610090936100F4
:100BE0000FBE81E598E190937F0280937E020E9480
:100BF000A9120E941C138091E20084608093E2009D
:100C00007894809149058823A1F01091E9001F7024
:100C10009091EC00892F817090FD80E8182B109244
:100C2000E9008091E80083FD0E944A291F7010931B
:100C3000E90082E084BD93E095BD9AEF97BD809373
:100C40006E00109280021092810210928202109225
:100C500083028091D80080618093D8002AE12A9590
:100C6000F1F700C08091D900182F117080FD04C0E9
:100C70000E94A912109249051093890310938A03C8
:100C80001093000111110E941B338091000180918B
:100C90000001811102C094E001C090E090938D02A8
:100CA00084E0891B80938C0206E511E07AE5E72E4B
:100CB00071E0F72ED8018D918D018F3F11F00E94C8
:100CC0009E1AE016F106B1F70AE511E060E6E62E9D
:100CD00061E0F62EF80181918F018F3F11F00E94A3
:100CE0009E1AE016F106B1F788E0E0E9F2E0DF01D4
:100CF000282F1D922A95E9F7E4E8F2E0DF011D9222
:100D00008A95E9F780E090E00E94ED34863E9E4FA0
:100D100009F466C066EE7EEF80E090E00E94213527
:100D200060E082E090E00E94033581E090E09093E3
:100D30008F0280938E0261E083E090E00E94033591
:100D400060E074E184E090E00E94213560E086E09C
:100D500090E00E94033560E087E090E00E94033558
:100D600040E050E0BA0188E090E00E94153560E074
:100D700084E290E00E94033560E087E190E00E9409
:100D8000033560E08CE090E00E94033560E08DE088
:100D900090E00E94033519821A821B821C821D82F8
:100DA0001E821F82188648E050E068E170E0CE01A4
:100DB00001960E94F33440E050E0BA0180E290E0F6
:100DC0000E94153540E050E0BA018FE090E00E94AB
:100DD000153540E050E0BA0183E190E00E941535FE
:100DE00082E090E00E94E5348093980284E090E0F5
:100DF0000E94ED3490939203809391030E94821C91
:100E0000EFEFF6E721E0E150F0402040E1F700C0CD
:100E100000000E94821C80918A03811102C0E4E0DC
:100E200001C0E0E0F0E0E057FD4F808181FF08C0A5
:100E30006FEF7FEF80E090E00E9421350E94AC14BC
:100E400083E090E00E94E53490E00E94FF210E9440
:100E50009B2310926604EFE7F4E08FEF9FEF8193FE
:100E6000919334E0EF38F307D1F781E08093570591
:100E700048E050E068E170E088E595E00E94D534F4
:100E800010925705809158058C7FF9F489E1809381
:100E900058058091530190915401A0915501809380
:100EA000590590935A05A0935B058FE780935C05E5
:100EB0008FEF80935D0548E050E068E170E088E5E1
:100EC00095E00E94F334109257058091890388239E
:100ED00011F080E001C082E08093D00280E880932E
:100EE00060050E94AB316BE070E08BE691E00E9400
:100EF0008C24882309F443C08091D00265E070E01F
:100F000081FD3AC086E691E00E948C248823B9F1E5
:100F10006DE070E084E591E00E948C24882379F1F3
:100F20000E940E15DC01CB01805A9541AF4FBF4F97
:100F30008093370590933805A0933905B0933A050F
:100F4000E3E6F5E080E092E0DF019C011D92215094
:100F50003040E1F7F0936A07E09369078FEF9FEF66
:100F6000909362058093610581E080933C058093B6
:100F70003B051092D10203C081E691E0C5CF80917C
:100F80008903811102C00E941E3381E091E0909399
:100F90008E0380938D0380914905853009F05AC0F6
:100FA00050E4F52EEE24E39400E112E1809149052E
:100FB000853009F049C080914905843009F432C078
:100FC0000E941A2780919304811105C00E94012577
:100FD00080E00E94F424E09293040E9499241092ED
:100FE000930388E190E00FB6F894A8958093600091
:100FF0000FBEF092600083B7817F846083BF83B7A8
:10100000816083BF7894889583B78E7F83BF0FB646
:10101000F894A89580916000886180936000109298
:1010200060000FBE80914805882309F4BFCF0E945D
:10103000821CE0E9F2E081918111FEC3A8E9B2E0EF
:10104000AE17BF07C1F7B2CF0E9404220E94FE155F
:10105000109293040E94821C49E9442E42E0542ECF
:10106000E0E9F2E0F88BEF87DF01F20191918D91D9
:10107000892722E0E13AF20719F08823B9F306C084
:10108000811104C00E945E1CD12CC1C03091890323
:10109000398B33EA232E31E0332EA12CAF85B8896A
:1010A0007D90B88BAF87F2018080872409F4A1C0BE
:1010B000E12CF12C99249394892D882109F48EC078
:1010C000192D1721F989FF23A1F0E986AA860E942C
:1010D0001A159C878B8721E02D8791E0111101C0A3
:1010E00090E09E8749855A856B857C858D850E9419
:1010F000EA2C112331F0F101EE0DFF1D80818F3FAD
:1011000011F4B12C03C0682EBB24B3940B2D10E056
:1011100080916604D801A80FB11D1997ACF188E041
:10112000C82ED12CC01AD10AB8016F5F7F4F6A59FF
:101130007B4FA60187E694E00E947C35B801675F8B
:101140007F4F6A597B4FA6018FE694E00E947C3561
:10115000A601440F551FB801660F771F675E7F4FCA
:101160006A597B4F8FE794E00E947C35B8016F5E2F
:101170007F4F6A597B4FA60187E794E00E947C3538
:1011800088E08B19809366048091660490E0A62D18
:10119000B0E09D01220F331F2D523E4FAA0FBB1FFF
:1011A000BD016C527E4F41E0480F9B15A8F490E0C2
:1011B000FC01EA59FB4FD9015C915183DB015C9141
:1011C0005187618A880F991FFC01EA59FB4F128EE3
:1011D000118E91E0842FE7CF80936604990CBFEFC6
:1011E000EB1AFB0AE6E0EE16F10409F065CFD20136
:1011F0007C92A394BFEF4B1A5B0AE6E02E0E311CE3
:10120000F8E0AF124BCF0E94B51ADD24D394809141
:1012100089038823E9F180912301882341F180919A
:10122000770390917803009711F10E94FF142091A9
:1012300000033091010328173907C8F49091750312
:1012400080917603981759F00E94AF17109201030E
:1012500010920003109278031092770308C00E9446
:10126000411710927803109277030E948B17809198
:10127000FF02882369F00E941A152091A102309183
:10128000A202821B930B8F3F9F4710F40E944718C6
:101290000E941A2780913C05882309F4C3C18091DC
:1012A000D2029091D3020E94FF14C29708F4B3C0F7
:1012B0000E941A159093D3028093D20283E695E0A0
:1012C00090936A078093690780918903882309F4C2
:1012D0009EC087E991E00E9460288091A3029091CE
:1012E000A4020E94392C813059F038F0823059F034
:1012F000833061F48CE791E00BC08FE891E008C087
:1013000089E891E005C083E891E002C086E791E0BA
:101310000E946E288091AF02805D0E94E12785EADD
:1013200091E00E9460288091AE02805D0E94E127DA
:1013300081EA91E00E9460288090AC029090AD021A
:1013400080910B0190910C018816990639F48091D7
:10135000AB02803219F485EA92E03AC090920C0117
:1013600080920B0180E28093AB02A12CB12C1092F1
:10137000AA02EAEAEE2EE2E0FE2E00E010E0C5014D
:10138000B4012AE030E040E050E00E944735605D63
:10139000603319F40115110539F081149104A10489
:1013A000B10419F460E201C060E3D7016E937D01DE
:1013B000C501B4012AE030E040E050E00E9447352A
:1013C00049015A010F5F1F4F05301105C1F6C3CF08
:1013D0008C010196F80120812032D1F30190002088
:1013E000E9F79F012150310979010E151F0530F4ED
:1013F000D8018D918D010E94E127F7CF8FE991E00F
:101400000E94602880910D010E94E12704C087EAB4
:1014100091E00E9460288091610590916205892B7E
:1014200031F480913B05882309F4FCC0E4C080912D
:101430003C058823B1F38091D1028111F2CF0E9443
:10144000B32420916105309162052115310549F3DE
:1014500080E041E050E0482E512C7A01082E02C075
:10146000EE0CFF1C0A94E2F7B70162237323672B8B
:1014700011F48F5FF0CF9091D002920175E0220FAE
:10148000331F7A95E1F790FF13C065E036952795F5
:101490006A95E1F7220F220F220F2093100110927C
:1014A0001301295F2093110183E08093140111C07F
:1014B000220F232F221F330B31958295880F8076C0
:1014C0008093100120931301815E8093110120937A
:1014D000140124E630E047E050E06EE071E088E778
:1014E0000E94E031892B09F09CCF8091D00280FFCF
:1014F00061C080E2E0EBF2E0DF011D928A95E9F73E
:1015000035E0440C551C3A95E1F744E6242E41E0C1
:10151000342E00E611E088248394F10121911F010B
:10152000D8018D918D01B201680F711D6D597A4FEF
:1015300030E020553D4FF90197E0AF01421B530BBE
:10154000982C01C0990C4A95EAF75B01C12CD50192
:101550008D915D018921492F4C194770742E042EFD
:10156000000C550BB82F01C0BB0F7A94EAF77B2E05
:101570005195419551094770552701C086954A9567
:10158000EAF7782A8081782A7082C39488E0C812AA
:10159000DECF915031969F3F81F698E6291691E073
:1015A000390609F0BACF04E610E020E230E040EB63
:1015B00052E00DC0C20125E0880F991F2A95E1F77E
:1015C000AC014D595A4F04E610E020E230E060E4EF
:1015D00088E70E947732892B09F023CFE094F094BA
:1015E0008091610590916205E822F922F0926205EE
:1015F000E092610516CF0E940E15009137051091FB
:1016000038052091390530913A05DC01CB01801B6A
:10161000910BA20BB30B8F3F9F4FAF4FBF4710F4FF
:101620000E949924D1100E94B32486E0E0E8F3E000
:10163000DE01119601900D928A95E1F7D090810319
:1016400000918203F0908303E0908403109185035E
:1016500010928203109283031092840310928503E8
:10166000011103C0FF2009F447C080917E039091CF
:101670007F030E94FF149C0190917903992309F440
:10168000F1C025313105C0F19F3F19F09F5F909364
:101690007903002361F00E94E516101614F09FEF05
:1016A00001C091E0899F802D112480938203FF2047
:1016B00061F00E94E5161F1414F491E001C09FEF41
:1016C000899F802D11248093830380918203882336
:1016D00099F0C0908303CC2079F00E940517811106
:1016E00001C081E0809382038C2D0E940517811137
:1016F00001C081E080938303E11003C0112309F44A
:1017000047C080917C0390917D030E94FF149C014F
:1017100090917A03992309F4AAC021353105C0F1CB
:101720009F3F19F09F5F90937A03EE2061F00E9433
:10173000C3161E1414F09FEF01C091E0899F802D05
:10174000112480938403112361F00E94C3161116A3
:1017500014F491E001C09FEF899F802D11248093A4
:10176000850380918403882399F0C0908503CC2061
:1017700079F00E940517811101C081E080938403F4
:101780008C2D0E940517811101C081E08093850393
:1017900080918103D8121AC080918203882311F0AE
:1017A000081314C080918303882311F0F8120EC02F
:1017B00080918503882311F0181308C09091840349
:1017C000992331F081E09E1104C002C081E001C084
:1017D00080E080FD15C08091820381110FC080914F
:1017E000830381110BC080918403811107C081E0C4
:1017F00090918503911103C080E001C081E080FDDC
:101800000E949916DA820B83FC82ED821E8386E0A9
:10181000FE013196A0E8B3E001900D928A95E1F7C0
:101820000E94FE159091D402891709F4B4CB8093DD
:10183000D4020E940E15AFCB09BD19BD09B400FE3C
:10184000FDCF8091D8008F7D8093D8008091E000FB
:1018500082608093E0008091E00081FDFCCF0E94D7
:101860000422A4CB2B30310508F010CF45CF2B300C
:10187000310508F057CF8CCFA0E0B0E0E2E4FCE007
:101880000C949F34FC012481222309F47CC57C0143
:1018900061E00E945F2CEC01F70185818823B9F19A
:1018A00091819093AF0290819093AE0290E29093D9
:1018B0000D01D093AD02C093AC029E0130522115B0
:1018C000304228F4F7019681907F79F420C09E0180
:1018D00030542115304120F4F7019681907F29F48E
:1018E0009E013A9521153F4118F4FE01FF2707C0DC
:1018F0009E01205A32452032310548F0FE01ED3379
:10190000F10528F4E951FE4FE491E0930D01C63250
:1019100022E2D20791F128F4C432E1E2DE07A9F015
:1019200037C0C332F4E2DF0729F0C53228E2D2071C
:10193000C9F02EC0F7019681907F79F1882369F173
:1019400060E070E083E292E00AC0F7019681907F48
:1019500021F1882311F160E070E084E292E00E94BE
:10196000A52CFCC1F7019681907FB9F08823A9F0DE
:1019700060E070E085E292E0F2CFF7019681907F1F
:1019800061F0882351F060E070E086E292E0E7CFFA
:10199000C337FCE7DF0709F483C18091FF02882386
:1019A00009F490C01091990300919A030E941A15AE
:1019B00088579C4E9093A2028093A102F7018581E3
:1019C000882309F47FC0102B1D7909F076C0C0343C
:1019D000F2E5DF07B8F4C11522E5D20708F072C0BE
:1019E000C11580E4D80748F4C11590E2D90740F545
:1019F000C63ED10509F040C065C0C115E0E5DE076F
:101A0000A0F13AC0C03EF2E5DF07A0F4C03C22E5F9
:101A1000D20708F057C0C03682E5D80768F1C03A4F
:101A200092E5D90708F44EC0C43BE2E5DE0709F4AD
:101A300049C022C0CE0187579C470297E8F442C0B4
:101A4000F7018681807FA9F48D2F8F718231B1F0EB
:101A500028F4823091F581EE90E012C0843191F14A
:101A6000863159F586EE92E10BC0F7018681807FC1
:101A7000A9F1CE01992704C0CE0102C085EE90E005
:101A8000109202038832910530F48E319105C0F432
:101A9000049798F00EC08D32910559F018F48A978A
:101AA00079F00BC08C34910559F08D32924041F0A1
:101AB00004C082E08093020303C00E94471802C062
:101AC0000E94CC1EFE01E851FC47E730F10508F406
:101AD00001C1F7018581882309F452C1109288035E
:101AE000CE019057839708F026C184E090E00E94D1
:101AF000ED349093920380939103FE01E150F047FF
:101B0000E232F10520F4EA5AFF4F0C9469358091D6
:101B100091038160ACC0809192038860B4C08091D1
:101B200091038260A4C08091910320C080919103B1
:101B300088609DC0809192031EC080919203826054
:101B4000A2C080919103806192C0809191038062D4
:101B50008EC08091910380648AC00E94042280918B
:101B60009103806884C080919103886084607FC005
:101B7000809192038260816086C0809191038E7F04
:101B800076C080919203877F7EC0809191038D7F84
:101B90006EC08091910320C080919103877F67C0C0
:101BA000809192031EC0809192038D7F6CC08091C2
:101BB00091038F7E5CC0809191038F7D58C080918E
:101BC00091038F7B54C00E940422809191038F77F0
:101BD0004EC080919103877F8B7F49C08091920393
:101BE0008D7F8E7F50C08091910382FB222720F948
:101BF00091E0922790FB82F990FB83F938C08091A5
:101C00009203982F909591708E7F892B90FB81F98C
:101C10003AC08091910386FB222720F991E0922718
:101C200090FB86F924C00E9404228091910387FBD7
:101C3000222720F991E0922790FB87F918C061E0F4
:101C400001C060E08EE090E00E9403351EC08091EC
:101C5000910384FB222720F991E0922790FB84F9DD
:101C600006C080919103982F909590FB80F9809306
:101C700091030BC08091920383FB222720F991E00E
:101C8000922790FB83F98093920360919103709166
:101C9000920384E090E00E9421350E9404225EC0FD
:101CA000882309F45BC08091FF02882319F00E9409
:101CB000471854C0109299030E94511C0E941A1593
:101CC00088579C4E9093A2028093A10281E080935A
:101CD000FF0244C0E858FF4F0C94693506E221EE3C
:101CE00041EE6AE17CE705C007E225EE45EE6BE1D7
:101CF0007CE7C7010E940F1631C006E221EE40EEDC
:101D000068E17CE7F6CF07E225EE44EE69E17CE787
:101D1000F0CF06E221EE42EE6CE17CE7EACF07E28B
:101D200025EE46EE6DE17CE7E4CF08E221E045EEEA
:101D30006EE17CE7DECFC631FCE7DF0781F58091FD
:101D400099038A7A91E009F490E09093D502811189
:101D5000BEC289E20E947D150E94CC1E80913D0486
:101D6000877009F410C3F7018581882309F40BC338
:101D70008091920382FF07C382E00E94C12103C3C6
:101D8000C6312CE7D20709F4F4C28091990382721C
:101D9000FE01E052F847E531F10508F49AC2F70177
:101DA00085818823E1F1C330FCE7DF0721F140F4AE
:101DB000C1158CE7D80789F0C130DC4711F12FC07D
:101DC000CB35ECE7DE0741F1CC35FCE7DF07E1F08E
:101DD000CA35DC4721F581E020C00E9404228FEF44
:101DE00094E3ECE081509040E040E1F700C0000057
:101DF0000E94AC14B3CF6FEF7FEF80E090E00E94C1
:101E000021350E948F2CAACF8091920382FB8827D4
:101E100080F991E0892701C080E00E94D821F70174
:101E2000878190850097B9F4F7018581C081D181C0
:101E3000882349F0CE010E941E1F182F682FCE0163
:101E40000E94762104C0CE010E944321182FBE01BA
:101E5000812F0E94171B0E94341BD82FC92FF70116
:101E60001581068102950F7080913D048770F9F00D
:101E70001123E9F0892F807F803461F080E28D0F9B
:101E80008830A8F0892F807E803221F4D23078F01B
:101E9000002369F08091920382FF09C082E00E94D2
:101EA000C12180913D048770DD24D3948111D12C10
:101EB000CC2EC2948FE0C8228C2D90E08C309105FE
:101EC00008F0E3C1FC01E158FF4F0C9469358C2FF9
:101ED000807FCF70882311F0C295C07F1123B9F0A5
:101EE000CC2309F4C0C180E28D0F883010F0D111ED
:101EF00006C090919903C92BC093990305C0909196
:101F00000203C92BC09302030E94CC1EACC18D2FCB
:101F10000E94C822CC2309F4B8C180E28D0F88301A
:101F200078F1DD2369F1C09590910203C923C09334
:101F3000020329C08C2F807FCF70803211F0C295B0
:101F4000C07FDD2321F0D13009F44CC055C0809111
:101F5000920382FD1BC0112369F0CC2339F09091CC
:101F60009903C92BC09399030E94CC1E80E00E9464
:101F7000FB228BC180E00E94C822CC2309F485C1DA
:101F80008C2F0E94571C0E94CC1E7FC1112381F010
:101F90000023B1F1013009F078C190919A038C2FA0
:101FA0008923C81709F471C1C92BC0939A036DC165
:101FB00001116BC18C2F0E94B72280919A039C2F34
:101FC000982329F09C2F9095892380939A039091D0
:101FD000D6028C2F892309F458C1C095C923C09318
:101FE000D60253C1112321F0063008F04EC108C0BB
:101FF000053008F04AC10AC0112331F0011133C184
:102000008C2F0E94BE2241C1011131C18C2F0E9430
:10201000B7223BC18C2F86958695837019F081304D
:1020200061F033C1112321F08D2F9C2F937002C0DA
:1020300080E090E00E94D9152EC1112321F08D2F50
:102040009C2F937002C080E090E00E94B41523C1E1
:10205000612F8D2F0E946C301EC18C2F837009F070
:1020600041C0111116C12D2F229526952770220FE0
:10207000220F8D2F8F7090E0022E02C0880F991FC3
:102080000A94E2F7D4FF0BC04FE050E002C0440FC7
:10209000551F2A95E2F79A012095309502C020E05D
:1020A00030E0C695C695C370C23099F068F440918F
:1020B0008E0250918F02C13029F0822B932B842302
:1020C000952304C0842B952B822B932B0E94FF21F8
:1020D000E0C0822B932B20918E0230918F028227B9
:1020E0009327F4CF112319F08C2F817001C08695AE
:1020F000882309F4CEC02D2F229526952770220F14
:10210000220F8D2F8F7090E0022E02C0880F991F32
:102110000A94E2F7D4FF0BC04FE050E002C0440F36
:10212000551F2A95E2F79A012095309502C020E0CC
:1021300030E0C695C695C370C23079F0B8F44091CE
:10214000A3025091A402C13029F0822B932B842347
:1021500095230EC0842B952B09C0822B932B2091A5
:10216000A3023091A4028227932702C0822B932BD3
:102170000E94AA218EC0CF70112339F08C2F0E94AB
:10218000EF218D2F0E94BE2284C08D2F0E94B72286
:102190008C2F0E94AF217DC0D23F61F128F4D03F47
:1021A00041F0D13F11F15BC0D33F59F1D43FC9F0A9
:1021B00056C0112391F0053008F067C0CF7181E05F
:1021C00090E002C0880F991FCA95E2F72091A30200
:1021D0003091A4028227932721C0063008F055C011
:1021E000EDCF8091920382FD1CC0112329F08C2F2A
:1021F0008F7129C01123D9F38C2F8F710E94AF21C9
:1022000044C0112349F0CF7181E090E002C0880FF3
:10221000991FCA95E2F702C080E090E00E94AA21CF
:1022200034C0112399F0CF718C2F0E94EF2180913F
:10223000920382FF07C0E8E0CE9FC00111248360B3
:1022400080933D048C2F0E94EF211FC081E00E94EB
:10225000C1210230D0F082E00E94C12116C01123BA
:1022600021F0002321F28D2F82CE002329F2D933D1
:1022700049F4FFEF27EE83E0F15020408040E1F782
:1022800000C000008D2F0E94C82288EF8C0D843082
:1022900010F40E94FE15DD20A9F080913D0480FD20
:1022A00011C0F70115828695869586950E94EF21CB
:1022B000C7010E943C0C80913D04869586958695C9
:1022C0000E94AF2160E0C7010E945F2C5CC085E3E3
:1022D00041CDE557FF4F0C9469359091580581E049
:1022E000892780935805109252018091570581608B
:1022F0008093570533CD4EE254E268E374E22CC07C
:1023000048E354E26EE274E227C04AE154E264E238
:1023100074E222C044E254E26AE174E21DC040E08B
:1023200054E26DE074E218C04DE054E260E074E203
:1023300013C046EE53E263EF73E20EC043EF53E285
:1023400066EE73E209C04EE953E26CEA73E204C040
:102350004CEA53E26EE973E20E94D924FFCC81E09B
:1023600005C083E003C086E001C087E00E947428B6
:10237000F5CC8091D502811104C089E20E944F15ED
:10238000EBCC85E3FBCFCDB7DEB7E8E00C94BB34F4
:102390002091E4003091E50095E64091EC00842F17
:1023A000817040FF23C08091E80080FD1DC08091B6
:1023B0004905882399F0853099F08091EB0085FDDF
:1023C00011C04091E4005091E5002417350729F32E
:1023D000915011F09A01E1CF84E0089582E00895D0
:1023E00083E0089581E0089580E008954091E80039
:1023F00042FFDDCF089580913E0508950F931F930E
:10240000CF93DF938B01EA0190914905943079F5E0
:102410008F708093E9008FEF9091E800815095FDD7
:1024200006C095ED9A95F1F700008111F5CF8091E6
:10243000E80085FF1CC00E94C811882361F08091CC
:10244000E8008E778093E80012C0F80181918F0137
:102450008093F1002197209791F38091E80085FD0A
:10246000F4CF8091E8008E778093E800E4CFDF918D
:10247000CF911F910F91089543E050E0BC0182E09D
:102480000E94FE11089546E050E0BC0182E00E94E7
:10249000FE11089540E250E0BC0182E00E94FE116E
:1024A0000895CF93DF93EC0148E050E0BC0181E058
:1024B0000E94FE1188E0FE01AFE3B5E001900D92AD
:1024C0008A95E1F7DF91CF9108951F920F920FB691
:1024D0000F9211242F933F934F935F936F937F93AA
:1024E0008F939F93AF93BF93CF93DF93EF93FF931C
:1024F000C091E900CF708091EC00D82FD17080FDA1
:10250000D0E81092E9008091F000877F8093F0007E
:1025100078940E944A291092E9008091F000886026
:102520008093F000CD2BCF70C093E900FF91EF9125
:10253000DF91CF91BF91AF919F918F917F916F91DB
:102540005F914F913F912F910F900FBE0F901F9071
:102550001895E8EDF0E080818E7F80831092E20094
:102560001092DA001092E100A0EEB0E08C91816050
:102570008C9380818F77808319BCA7EDB0E08C911C
:102580008E7F8C9380818F7E808310929803089534
:1025900080914B0587FF11C08091E80082FD05C046
:1025A000809149058111F8CF11C08091E8008B77A7
:1025B0000BC080914905882349F08091E80080FF95
:1025C000F8CF8091E8008E778093E8000895982FE7
:1025D000973068F59093E900981739F07091EC0006
:1025E0002091ED005091F00003C0242F762F50E091
:1025F00021FD02C09F5FECCF3091EB003E7F309316
:10260000EB003091ED003D7F3093ED003091EB0019
:1026100031603093EB007093EC002093ED00509309
:10262000F0002091EE0027FDE5CF80E008958F7047
:102630008093E90081E00895A0E0B0E0E2E2F3E1F8
:102640000C949F34C8EDD0E088818F7E8883E7EDBD
:10265000F0E080818160808384E082BF81E08093AC
:10266000980388818E7F888302EE10E0F801108243
:102670001092DA0081EEC82ED12CF60110828881EA
:102680008F77888388818068888388818F7D88831D
:1026900019BC1092490510924A05109248051092F3
:1026A000470590EEE92EF12CF70180818B7F808326
:1026B00088818160888342E060E080E00E94E712C8
:1026C000F60180818E7F8083F80180818160808324
:1026D000808188608083F70180818E7F80838881FC
:1026E00080618883CDB7DEB7E8E00C94BB341F92DD
:1026F0000F920FB60F9211242F933F934F935F9336
:102700006F937F938F939F93AF93BF93EF93FF93B9
:102710008091E10082FF09C08091E20082FF05C044
:102720008091E1008B7F8093E1008091DA0080FF4F
:102730002AC08091D80080FF26C08091DA008E7F69
:102740008093DA008091D90080FF18C080E189BDB4
:1027500082E189BD09B400FEFDCF81E08093490587
:102760008091980381110FC00E94A9120E941C132E
:102770008091E20084608093E20005C019BC109251
:102780004905109298038091E10080FF17C0809165
:10279000E20080FF13C08091E2008E7F8093E20010
:1027A0008091E20080618093E2008091D800806295
:1027B0008093D80019BC85E0809349058091E100A1
:1027C00084FF30C08091E20084FF2CC080E189BD8D
:1027D00082E189BD09B400FEFDCF8091D8008F7DD4
:1027E0008093D8008091E1008F7E8093E1008091FA
:1027F000E2008F7E8093E2008091E200816080930E
:10280000E20080914A05882311F084E007C080919E
:10281000E30087FD02C081E001C083E080934905A9
:10282000809149058091E10083FF27C08091E200FB
:1028300083FF23C08091E100877F8093E10082E0E5
:102840008093490510924A058091E1008E7F809324
:10285000E1008091E2008E7F8093E2008091E200AF
:1028600080618093E20042E060E080E00E94E71235
:102870008091F00088608093F000FF91EF91BF910C
:10288000AF919F918F917F916F915F914F913F9108
:102890002F910F900FBE0F901F901895209151050A
:1028A000309152052617370748F06115710539F444
:1028B0002091E8002E772093E80001C0B901FC01C7
:1028C00020E06115710579F1809149058823F1F1C6
:1028D0008530F1F18091E80083FD3CC08091E800F3
:1028E00082FD2EC08091E80080FFEBCF2091F300A5
:1028F0008091F20090E0922B6115710551F08830C3
:10290000910538F421912093F100615071090196ED
:10291000F3CF21E0089709F020E08091E8008E775E
:102920008093E800CECF2111CFCF0AC08091490516
:10293000882361F0853061F08091E80083FD0AC052
:102940008091E80082FFF2CF80E0089582E0089550
:1029500083E0089581E0089587E797E79093010861
:10296000809300089AE088E10FB6F894A8958093C8
:1029700060000FBE90936000FFCF78941F920F927B
:102980000FB60F9211248F939F93AF93BF938091B3
:10299000940390919503A0919603B09197030196AB
:1029A000A11DB11D8093940390939503A09396036A
:1029B000B0939703BF91AF919F918F910F900FBEEE
:1029C0000F901F901895CF92DF92EF92FF922FB742
:1029D000F894C0909403D0909503E0909603F09003
:1029E00097032FBFA7019601261B370B480B590BE6
:1029F000CA01B901FF90EF90DF90CF9008959C013C
:102A00004FB7F8948091940390919503A091960309
:102A1000B09197034FBF821B930B08952FB7F89483
:102A20006091940370919503809196039091970320
:102A30002FBF08952FB7F894809194039091950338
:102A4000A0919603B09197032FBF08951F920F9204
:102A50000FB60F9211248F939F93AF93BF938091E2
:102A60009303811113C08091940390919503A091D9
:102A70009603B09197034196A11DB11D80939403D5
:102A800090939503A0939603B0939703BF91AF9152
:102A90009F918F910F900FBE0F901F90189590915E
:102AA0004E01992321F09091910397FD03C0E7ED2A
:102AB000F2E01DC0E82FE695E695E695EE31E0F4EC
:102AC000F0E0E152FD4F877021E030E0A90102C043
:102AD000440F551F8A95E2F7CA0180959281892398
:102AE00082830895319652E0ED3DF50729F09281F9
:102AF0008913F8CF1282F6CF089590914E01992351
:102B0000D1F09091910397FF16C0E82FE695E695D6
:102B1000E695EE3140F5F0E0E152FD4F877021E09F
:102B200030E0A90102C0440F551F8A95E2F7CA019F
:102B30009281892B16C0A9EDB2E0EFEF90E02D91C4
:102B4000821789F0EF3F19F4211101C0E92F9F5F2F
:102B50009630A9F7EF3F39F00E2E000CFF0BE9522B
:102B6000FD4F828308950895A3E0B0E0EAEBF5E11C
:102B70000C94A53420918F033091900328173907C6
:102B8000A1F09093900380938F03E0918D03F091D7
:102B90008E03309751F024E029839B838A8300843D
:102BA000F185E02DCE01019609952396E2E00C9483
:102BB000C134A3E0B0E0EFEDF5E10C94A534209131
:102BC0008B0330918C0328173907A1F090938C0365
:102BD00080938B03E0918D03F0918E03309751F039
:102BE00023E029839B838A830084F185E02DCE0135
:102BF000019609952396E2E00C94C13480918903F3
:102C0000882359F0E0918D03F0918E03309729F0DD
:102C10000190F081E02D0995089580E00895FF92DC
:102C20000F931F93CF93DF93C42FD22FF02EFC016D
:102C300085818823B1F0409388030E941A159093F0
:102C400087038093860380E28C0F883008F06CC085
:102C5000C77081E001C0880FCA95EAF70E94BE22C2
:102C600063C080918803481353C08091860390917C
:102C700087030E94FF14883C910508F049C0CD17D6
:102C800029F180E28C0F883040F4C77081E001C0E8
:102C9000880FCA95EAF70E94B72280E28D0F88302C
:102CA00048F481E09D2F977001C0880F9A95EAF74C
:102CB0000E94BE22F9E3FF1619F000E010E002C006
:102CC00000E510E08F2D0E94FB2208C099E3091354
:102CD000F4CF89E30E94FB2200E510E00115110505
:102CE00049F08FE99FE00197F1F700C00000015023
:102CF0001109F4CF8F2D0E94C82280E28D0F8830F9
:102D000098F4D77081E001C0880FDA95EAF70AC01D
:102D100080E28C0F883040F4C77081E001C0880FDA
:102D2000CA95EAF70E94B722CDB7DEB7E5E00C946A
:102D3000BE340E941A1520918203211104C02091F3
:102D40008303222321F090937F0380937E032091BD
:102D50008403211104C020918503222321F0909344
:102D60007D0380937C03E0918D03F0918E03309777
:102D700049F082E0809380030680F781E02D80E8AF
:102D800093E00995089580917B0380FD16C081FD35
:102D900016C082FD18C080917A03882391F0883292
:102DA00090F428E0829FC001112468E270E00E9444
:102DB0003335862F672B29F007C082E0089584E021
:102DC000089581E0089588E0089580917B0380FD57
:102DD00014C081FD14C082FD16C080917903882340
:102DE00081F08E3180F420E5829FC00111246EE1D4
:102DF00070E00E943335862F089584E1089588E2BB
:102E0000089588E0089580E50895282F35EB230381
:102E1000C001112497FF03C08058910902C0805857
:102E20009F4F892F0895BC014091750380917603CF
:102E3000942F981729F1292F30E0F901EE0FFF1F89
:102E4000E359FC4F0190F081E02DE617F70799F464
:102E500087E0869FF001879FF00D1124EB5EFE4F07
:102E600081E0848394130CC02F5F3F4F237033277E
:102E70002093750308952F5F3F4F922F9370D9CF02
:102E80000895EF92FF920F931F93CF93DF9380915A
:102E900004038823D9F1C09103038DE0F82E8091BB
:102EA0000403C81778F5EE24E394EC0EE0920303D4
:102EB000D0E0FC9EF001FD9EF00D1124EB5FFC4F75
:102EC00084818823E9F087819085892B21F481858D
:102ED0009285019659F400811181228133814481C8
:102EE00055816681778180850E943522FC9EF001A4
:102EF000FD9EF00D1124EB5FFC4F14821092020333
:102F0000CE2DCDCF1092040310920303CDB7DEB7C0
:102F1000E6E00C94BD3410920103109200038091FE
:102F20001A01811104C01092190110921B018091A5
:102F30002101811104C010922001109222010895F4
:102F400010927803109277031092230180917603F8
:102F5000809375030E948B170E9441170895A0E08B
:102F6000B0E0E5EBF7E10C949534C0917503E7E030
:102F7000FE2E01E010E0FDE02F2EEE24E394809180
:102F80007603C81709F47AC0D0E0FE01EE0FFF1FE8
:102F9000E359FC4F80819181F89EF001F99EF00D7C
:102FA0001124EB5EFE4F2481211165C06090040363
:102FB000A5E0B3E020E030E0712C5F01261508F0B9
:102FC00058C01B964D905C901C97F50180809180B5
:102FD0004FEF5FEF312CC32CD12CF601EE0FFF1F0A
:102FE000E80DF91D659174914616570609F4A6017E
:102FF000672B11F03394EFCF4F3FFFEF5F07A9F13D
:10300000B80102C0660F771F4A95E2F7762AA80139
:10301000032C02C0440F551F0A94E2F74150510996
:10302000672D70E046175707E9F4229EF001239EB2
:10303000F00D1124EB5FFC4FF89ED001F99EB00D0E
:103040001124AB5EBE4F12962D913C9113973087A1
:10305000278374E07483108211829287818715968A
:10306000EC9207C014961C9214972F5F3F4F1D9649
:10307000A5CF0E9413172196C37081CF0E944117DC
:103080000E948B17CDB7DEB7E2E10C94B13480918A
:10309000FF02882329F082E20E94A2221092FF02FE
:1030A000089580E008959091910392FF10C041E04F
:1030B000282F2471243009F040E031E0282F2871B6
:1030C000283009F030E0431711F02CE0822793FFFD
:1030D00010C041E0282F2471243109F040E031E094
:1030E000282F2871283109F030E0431711F02CE027
:1030F00082273091920330FF10C051E0282F2171B8
:10310000213009F050E041E0282F2871283009F0E3
:1031100040E0541711F029E0822731FF10C041E050
:10312000282F2171213109F040E031E0282F28714A
:10313000283109F030E0431711F029E0822794FD8F
:10314000877E08958238910569F1B0F48133910545
:1031500009F475C048F48932910509F467C08A32D0
:10316000910509F471C008958533910509F459C09A
:1031700089339105B9F00895833E910589F138F4BA
:10318000803E9105D1F0823E910529F10895863E59
:103190009105C9F1873E9105D9F1843E910509F069
:1031A0006CC027C02091910320FD57C021FD55C060
:1031B0002091920323FD5BC008958091910380FDCF
:1031C00048C08091920380FF48C08091910384FDA4
:1031D00046C083EE51C08091910382FF3CC0F5CF81
:1031E0008091910382FD37C08091920380FD35C0AC
:1031F000ECCF8091920381FF36C08091910384FDD2
:103200002EC087EE39C08091910383FF2AC0F5CF8D
:103210008091910383FD25C08091920381FD23C09D
:10322000ECCF8091910385FD22C01FC08091910356
:1032300085FD1BC08091920383FF19C00AC0809155
:10324000910386FD16C017C08091910386FD13C0BF
:1032500010C089E311C082EE0FC080EE0DC080E087
:103260000BC086EE09C084EE07C085E305C089E285
:1032700003C08AE201C081E390E00895A0E0B0E0DD
:10328000E4E4F9E10C949D347C015B016A018091D6
:10329000D1038A3018F001E010E002C00AE010E02B
:1032A000C1E0D0E0B501C701F6010995811115C053
:1032B00021960C171D0794F0CC9F9001CD9F300DE7
:1032C000300D112480E090E045E34A95F1F70000CD
:1032D000019682179307C1F7E5CF81E0CDB7DEB73E
:1032E000EAE00C94B934A0E0B0E0E9E7F9E10C942D
:1032F0009F34C82F7B01D42F6901FB01608171814C
:10330000828193810E94E3146436710581059105E1
:1033100010F4DD2339F10C2E000CDD0B0115110525
:10332000A9F0FE0183E0EE0FFF1F8A95E1F7EC5D47
:10333000FE4F818192818D549C4F408150E0041753
:10334000150708F4A801B6010E947C35CE010E9441
:103350000634882341F00E940E15F70160837183C3
:103360008283938381E0CDB7DEB7E8E00C94BB3471
:10337000A9E0B0E0EEEBF9E10C94A33488E0E8E5D5
:10338000F5E0DE01119601900D928A95E1F78091AA
:103390009304898749E050E060EC73E0CE01019628
:1033A0000E946F3541E0892B09F440E009E010E00C
:1033B0009E012F5F3F4F6DEC73E084E00E94731914
:1033C0002996E4E00C94BF340F931F93CF93DF93BF
:1033D000EC0144E050E068EB73E00E946F3541E09F
:1033E000892B09F440E004E010E09E016FEA73E0ED
:1033F00082E00E947319DF91CF911F910F91089580
:10340000EF92FF921F93CF93DF9300D000D01F92D3
:10341000CDB7DEB77B0180E090E00E9406348823C0
:1034200009F456C04091270150E04115510511F0B3
:1034300041E050E060912801709129016D547C4F6A
:10344000CE0105960E947C356091AB037091AC0370
:103450008091AD039091AE030E94E3146436710530
:103460008105910538F484EB93E00E9420299D8129
:10347000891781F181E090E00E940634182F88239B
:1034800091F040912F0150E04530510510F044E09B
:1034900050E060913001709131016D547C4FCE014C
:1034A00001960E947C3584EB93E00E94202991E0F4
:1034B0002D81281390E0192341F10E940E1560938D
:1034C000AB037093AC038093AD039093AE030FC036
:1034D00010E001C011E08091B4039091B503A09178
:1034E000B603B091B70389839A83AB83BC8311235E
:1034F00061F089819A81AB81BC818093A70390930D
:10350000A803A093A903B093AA038091A703909165
:10351000A803A091A903B091AA03F7018083918326
:10352000A283B383812F0F900F900F900F900F9075
:10353000DF91CF911F91FF90EF900895F894E82FBD
:10354000E295EF70F0E031A1282F2F7081E090E03C
:1035500001C0880F2A95EAF7982F9095932391A39D
:1035600092A1892B82A3789408950F931F93809141
:103570008903882319F00E940E150EC00E940E15B3
:103580000091800210918102209182023091830289
:10359000600F711F821F931F1F910F910895A4E068
:1035A000B0E0E5EDFAE10C94A5346091C9037091A7
:1035B000CA038091CB039091CC030E94E31464363C
:1035C00071058105910570F10E94B51ADC01CB01EE
:1035D0000296A11DB11D89839A83AB83BC83809120
:1035E0003D0190913E018D549C4F40913C0150E033
:1035F0004530510510F044E050E0BE016F5F7F4F51
:103600000E947C3583E090E00E940634882359F0C4
:103610000E940E156093C9037093CA038093CB0375
:103620009093CC0381E02496E2E00C94C13478308E
:10363000B0F46630A0F48430A0F490E3899FF001E8
:10364000112486E0789FE00DF11D1124E60FF11D95
:10365000EE0FFF1FE15DFD4F85919491089580E08D
:1036600001C081E090E008951F93CF93DF930E9403
:10367000A218EC01C11580E5D807E8F5C11590E462
:10368000D90708F0A8C0C03ED10530F5CD3CD10522
:1036900008F094C0C83AD10578F4C53AD10508F0CD
:1036A00083C0C130D10509F47CC008F4F2C0C43035
:1036B000D10508F0F1C0EDC0C33CD10508F0E9C068
:1036C000C85AD0E0CC0FDD1FC559DE4F0990D88114
:1036D000C02DCE019464E1C0C11580E2D80708F086
:1036E000CBC0C11591E0D90708F06BC0C83ED10529
:1036F00008F4D2C0CEC0C03682E5D80728F5C03461
:1037000092E5D90708F079C0C03282E5D80708F001
:103710006CC0C11592E5D90708F481C04C2F4695BD
:10372000469580E2489FA0011124C37021E030E05B
:10373000C90102C0880F991FCA95E2F7EA01C82B98
:10374000D92BCE019D68A9C0C03A82E5D807B8F44C
:103750008C2F8F71C03892E5D90708F07BC0869511
:10376000869590E2899F90011124C37081E090E0DA
:1037700002C0880F991FCA95E2F79A6868C0C03CDA
:1037800082E5D80708F46DC0C03E92E5D90708F07D
:1037900080C0CF71DD27DC2FCC27CE01806F906AEF
:1037A0007CC081E090E079C0C55AD0E0C859DE4FB6
:1037B0008881C82FD0E0CE0190646FC0CE019065A3
:1037C0006CC08D2F0E945318182FCE0199270E948C
:1037D000A2181F715CC0CE0199270E94A218CC27A5
:1037E000DF70D06A8C2B9D2B58C0CF71D0E0DC2FBE
:1037F000CC27CE01816F906A50C08C2F8F71869537
:10380000869590E2899F90011124C37081E090E039
:1038100002C0880F991FCA95E2F79C6818C08C2FC8
:103820008F710E94531895E0D695C7959A95E1F748
:10383000CF70D0E0DC2FCC27282F30E084FF05C0EC
:1038400084E0220F331F8A95E1F7D069CE01822BE5
:10385000932B23C090E0D82FCC27CE01846F906AA1
:103860001CC08C2F8F710E9453188F7190E0D82F3D
:10387000CC27CE01906211C08D2F8F710E945318FA
:10388000182FCE0199270E94A2181F719062912BC8
:1038900004C080E090E001C0CE01DF91CF911F9184
:1038A000089580919A03811110929A03089580954A
:1038B000909199038923809399030895A6E0B0E03D
:1038C000E4E6FCE10C94A3340E941A158C0180916B
:1038D0009B0390919C030817190781F019821A82A3
:1038E0000E941A15682F49815A81792F80E090E053
:1038F0000E94EA2C10939C0300939B032696E4E01D
:103900000C94BF34ACE0B0E0E8E8FCE10C949834EF
:10391000AE014F5F5F4F7A0188E0DA011D928A9510
:10392000E9F706E511E06A018AE5682E81E0782E64
:10393000AA24A394B12C20E6822E21E0922EF80135
:1039400080818F3F09F440C0F894E82FE295EF7032
:10395000F0E021A18F70A50102C0440F551F8A9588
:10396000E2F7CA01922F982B91A392A18095892307
:1039700082A3789400C0EAE5F1E0512C31E0219176
:103980002F3F89F0A22FA295AF70B0E090968C9156
:1039900090E02F7002C0959587952A95E2F780FDFB
:1039A00002C0832F01C080E0582A330F8E169F0675
:1039B00031F7D8018C918F3F11F00E949E1AB0EA26
:1039C000BA95F1F7F60150820F5F1F4FFFEFCF1A44
:1039D000DF0A6016710609F0B2CF48E050E0B70187
:1039E00084E892E00E946F35892B99F088E0F70116
:1039F000A4E8B2E001900D928A95E1F781E080930E
:103A00009F030E941A1590939E0380939D03F12CAF
:103A100027C080919F038823D1F300918D0280916C
:103A20009D0390919E030E94FF14059780F310E080
:103A300000571D4F44E050E064E872E0C8010E9466
:103A40006F35892B09F4FAC084E0E4E8F2E0D8018C
:103A500001900D928A95E1F7FF24F39410929F0351
:103A600080918903E0918D02882309F481C0198631
:103A70001A861B861C860E2F10E000571D4F809162
:103A8000D1038A3058F440E05AE1BE01675F7F4FAE
:103A9000C8010E943E198823E9F10AC08091A00361
:103AA0009091A1030E94FF14843F914060F743C0AE
:103AB00044EE59E1BE01675F7F4FC8010E943E1985
:103AC000882341F14FEC5AE1BE01675F7F4FC80187
:103AD0000E943E198823F1F048EB59E1BE01675F6F
:103AE0007F4FC8010E943E198823A1F01092D10394
:103AF00080918C0290E044E050E0BE01675F7F4F10
:103B000080579D4F0E946F3521E02093A603892B9B
:103B100001F58EC08091D1038F3F19F08F5F8093A4
:103B2000D1038091D1038A3018F30E941A15909323
:103B3000A1038093A0038091A603882309F478C091
:103B4000FE01399684E0DF011D928A95E9F7109213
:103B5000A603E0918C02F0E0E057FD4F89859A853D
:103B6000AB85BC8580839183A283B38381E061C0F0
:103B700000918C0210E000571D4FF0E0E057FD4F20
:103B800084E0A4EBB3E001900D928A95E1F784EB19
:103B900093E00E9420298093B30384E0E8EBF3E0F4
:103BA000D80101900D928A95E1F78090BC03909026
:103BB000BD03A090BE03B090BF038091A20390917B
:103BC000A303A091A403B091A50388169906AA06A1
:103BD000BB06B1F08092A2039092A303A092A4032B
:103BE000B092A5030E940E15861A970AA80AB90A70
:103BF0008092800290928102A0928202B09283020F
:103C000088E0E0ECF3E0A8E5B5E001900D928A953C
:103C1000E1F71091C803112349F0809193048111B9
:103C200005C00E94012580E00E94F42410939304B3
:103C300080E08F292C96EFE00C94B434F12C0ECF59
:103C400020913C049091F30359E02917A9F030E04A
:103C5000529FF001539FF00D1124EC50FC4F7181E5
:103C6000761306C07081781303C07581741306C083
:103C70002F5F3F4F2770E9CF80E0089581E00895DE
:103C800080913C049091F303891719F08F5F87703E
:103C9000FBCF0895CF93C091990380910203C82B65
:103CA00080919A038823E1F0C82B80914E018823EC
:103CB00041F08091910387FF04C02EE181EE92E0F4
:103CC00003C026E089ED92E0FC0180E0215028F05D
:103CD00091919923D9F38F5FF9CF81110E94511CE3
:103CE0008C2FCF910895CF93DF938091F00382952D
:103CF0008F7009F04EC08091EF03882309F449C00A
:103D000080913C044091F3035091EB036091EA03EE
:103D1000C091EC03D091ED0379E08417D1F190E0EC
:103D2000789FF001799FF00D1124DF01AC50BC4F5A
:103D300014962C911497222349F111962C911197E6
:103D4000251324C02C91261321C015962C9115976C
:103D500021111CC012962D913C9113972C1B3D0BE9
:103D6000283C310598F48091F0038F708061809336
:103D7000F003E650FC4F80818F70806180838AEE73
:103D800093E00E943C0C0E94401E03C00196877085
:103D9000C4CFDF91CF91089580914E01882351F1D6
:103DA0008091910387FF26C00E944A1E8093E00203
:103DB00040E250E06EE374E08FED92E00E946F35D8
:103DC000892BD9F180E2EFEDF2E0AEE3B4E00190AF
:103DD0000D928A95E1F7E0918D03F0918E03309773
:103DE00061F186E08093DF020480F581E02D8FEDA4
:103DF00092E022C00E944A1E8093D70248E050E021
:103E00006EE574E087ED92E00E946F35892BA9F092
:103E100088E0E7EDF2E0AEE5B4E001900D928A951E
:103E2000E1F7E0918D03F0918E03309731F002803D
:103E3000F381E02D87ED92E009950895A0E0B0E0D0
:103E4000E4E2FFE10C949E347C010091A302109106
:103E5000A40280918E0290918F02082B192BCFE043
:103E6000D0E0CC24C394D12CC6010C2E02C0880F04
:103E7000991F0A94E2F780239123892B21F421973B
:103E800098F7B12C09C0BC2EB7018C2F0E94171BCC
:103E90000E94341B019799F38B2DCDB7DEB7E9E073
:103EA0000C94BA34CF93DF93EC010E941E1FBE0125
:103EB0000E94171B0E94341BDF91CF910895FC01D3
:103EC0002481222311F187819085009719F00E94A7
:103ED000341B04C0808191810E94521F92959F7073
:103EE000963079F010F4925001C09A50923068F4F4
:103EF000803F69F018F4883E40F409C0843F29F4FB
:103F000006C0883E20F0813F11F080E0089581E0F6
:103F10000895A8E1B0E0EFE8FFE10C949B348C0138
:103F200086E0F801DE01539601900D928A95E1F743
:103F3000F8018481E5809AEE892E93E0992E909184
:103F4000EE03911120C0882309F496C1EE2009F4F4
:103F500042C0C8010E945F1FF82E8823E1F189E06A
:103F6000F801D40101900D928A95E1F78091EE035A
:103F7000813031F48091EA039091EB030E94521F4B
:103F80000E94731E7BC1F801D080C180A280B380E3
:103F9000F090EF032091EC033091ED03FF2009F442
:103FA00010C1A501421B530B483C510508F0B6C097
:103FB000882309F463C18091F003282F207F90911A
:103FC000EB03222361F09C1509F469C0C8010E942B
:103FD0005F1F811176C0C8010E943C0C4DC19C112D
:103FE0001CC09091EA039D1118C04091F1035091BB
:103FF000F203278130854217530779F4E1100DC091
:104000008F7080618093F0038AEE93E00E943C0CF5
:104010008091F003F80186832DC1E1103AC040E0A1
:104020006C2D8D2D0E94201E40E06C2D8D2D0E9448
:10403000201EE82E81111EC1DB8ACC8A8B899C89C7
:104040000E94521F292F22952F70243020F49F7038
:10405000223028F009C02A50223080F014C0992361
:1040600049F0811107C013C0992321F0F80196810E
:10407000907F69F0805E883030F409C0803F38F06E
:10408000815F833020F0C8010E943C0CEF2CFE2C95
:10409000F5C08091F00381608093F003EBC09091B4
:1040A000EA039D1193CF4091F1035091F203F8017F
:1040B000278130854217530709F088CFE11086CF5A
:1040C000B8C0EE2009F487CF2091F003822F8295AB
:1040D0008F7090E00297BCF08091EA039091EB031F
:1040E0009B878A87BD86AC868091EE038E871F866C
:1040F000288B8091F1039091F2039A8B898BCE01EA
:104100000A960E943C0C89E0F801AAEEB3E0019007
:104110000D928A95E1F70E94731EAEC09091F00354
:10412000292F207F51F48AEE93E00E943C0C89E015
:10413000F40111928A95E9F79DC0882309F49EC085
:104140008091EB038C1115C08091EA038D1111C091
:104150004091F1035091F203F80127813085421715
:10416000530739F4E11005C09683C8010E943C0C46
:104170007BC0C8010E945F1F882309F42CCFEE206A
:1041800009F429CF2091F003822F82958F7090E05F
:1041900002970CF4B8CF8091EA039091EB039A83D5
:1041A0008983BC82AB828091EE038D831E822F8334
:1041B0008091F1039091F20399878887CE0101964F
:1041C000A0CFA21AB30AF8ECAF16B10408F04CC0A5
:1041D000882309F451C0FE2CEE2009F4FCCE809116
:1041E000EB038C1133C08091EA038D112FC0209115
:1041F000F1033091F203F801878190852817390780
:1042000029F58091F00380FD18C082958F70482FAA
:1042100050E04115510589F02091F00326834F307D
:10422000510541F08F5F982F9295907F822F8F706C
:10423000892B8683C8010E943C0C89E0F801AAEE14
:10424000B3E001900D928A95E1F718C0C8010E9471
:104250005F1F811158CF8091F00381608093F0033C
:10426000C8010E943C0C0AC089E0F40111928A95B1
:10427000E9F704C0F12C02C0FF24F3948F2D689657
:10428000ECE00C94B734983078F5863068F5E82F78
:10429000F0E086E0989FE00DF11D11249E2F9770AD
:1042A00083E0F695E7958A95E1F7EE0FFF1FEE0F95
:1042B000FF1FEE52FC4F40E050E080E0219130E0E3
:1042C000092E02C0369527950A94E2F7217033270C
:1042D000042E01C0220F0A94EAF7822B4F5F5F4F32
:1042E0004430510559F7089580E00895983088F5D5
:1042F000863078F5E82FF0E086E0989FE00DF11D1C
:1043000011248E2F877051E001C0550F8A95EAF76E
:1043100083E0F695E7958A95E1F7EE0FFF1FEE0F24
:10432000FF1FEE52FC4F20E030E070E04081CB01F7
:10433000022E02C0969587950A94E2F781708195C6
:1043400084278523842781932F5F3F4F24303105B5
:1043500069F708959093A4028093A302089521E041
:1043600030E002C0220F331F8A95E2F72095309586
:104370008091A3029091A402822393230E94AA21F8
:10438000089590913D048095892380933D04282FC2
:10439000277069F4981759F09091920392FF07C023
:1043A0008695869586950E94AF2110923D040895CA
:1043B0009091920392FB222720F9281779F080FB35
:1043C00092F990939203609191037091920384E02B
:1043D00090E00E94213582E00E94C121089521E0F1
:1043E00030E002C0220F331F8A95E2F78091A302CA
:1043F0009091A402822B932B0E94AA21089590935E
:104400008F0280938E0208951092990380914E013D
:10441000882341F08091910387FF04C08EE1E1EE93
:10442000F2E003C086E0E9EDF2E0DF011D928A953B
:10443000E9F780E090E00E94D91580E090E00E94CA
:10444000B415109202030E94CC1EE0E8F3E086E06F
:10445000DF011D928A95E9F71092790310927A0391
:1044600010927B030E9499160895A2E1B0E0EBE35D
:10447000F2E20C94A3340A871B872C873D874E8772
:104480005F87688B798B8A8BCE010A960E94891F81
:1044900081113BC089E0FE013A96DE011196019040
:1044A0000D928A95E1F76E85662379F12091F303E9
:1044B00030E0C90101968770992740913C0450E093
:1044C00084179507A1F06D8399E0929FD001939F87
:1044D000B00D1124AC50BC4FFE01319601900D92ED
:1044E0009A95E1F78093F3030E94401E0EC00E944C
:1044F00004221092F30310923C04EAEEF3E089E008
:10450000DF011D928A95E9F719C019E080913C04FA
:104510009091F303891791F0189FC00111248C50DA
:104520009C4F0E94891F882349F080913C0490E0B1
:1045300001968770992780933C04E8CF6296E4E067
:104540000C94BF34882341F0809590910203892315
:10455000809302030E94CC1E0895882339F0909125
:104560000203892B809302030E94CC1E08958823A6
:1045700021F00E94571C0E94CC1E0895882339F018
:1045800090919903892B809399030E94CC1E0895E2
:10459000882381F19CEF980F913A18F40E944F15EF
:1045A0000DC090E2980F983060F4877091E001C0E0
:1045B000990F8A95EAF7892F0E94571C0E94CC1EFA
:1045C00008959BE5980F933028F480E090E00E94D6
:1045D000D915089598E5980F9B3128F480E090E074
:1045E0000E94B415089593E3980F933118F460E096
:1045F0000E946C300895CF93882309F46EC0C82FB1
:104600008CEF8C0F813AA0F580914E018823E1F068
:104610008091910387FF18C0EC2FE695E695E6950B
:10462000F0E0E152FD4F8281282F30E04C2F47709F
:1046300081E090E002C0880F991F4A95E2F782233B
:104640009323892B61F410C0E9EDF2E08FED92E045
:104650002191C21721F08E179F07D1F705C08C2F2B
:104660000E944F150E94CC1E8C2F0E947D1510C0F9
:1046700080E28C0F883078F4C77081E090E001C050
:10468000880FCA95EAF790919903892B8093990333
:104690000E94CC1E22C0EBE5EC0FE33040F4F0E0CA
:1046A000E859FE4F808190E00E94D91516C0E8E5D8
:1046B000EC0FEB3150F4F0E0EE0FFF1FE559FE4F29
:1046C000808191810E94B41508C083E38C0F8331EF
:1046D00020F461E08C2F0E946C30CF9108953091CE
:1046E0008A03311105C08B31910524F14B9703C02A
:1046F0008B319105FCF4FC01EE0FFF1FDF01A80FC9
:10470000B91FAB56BB4F11963C911197361307C09A
:104710003C91341304C012963C91321759F031E0A9
:10472000309394048E0F9F1FFC01EB56FB4F618367
:10473000408322830895109294040895E8E5F5E0FB
:1047400024813AE0231B08F420E02483809157055C
:104750008160809357050895E8E5F5E024813AE00B
:10476000230F08F42FEF24838091570581608093F5
:104770005705089580919404882339F1539A8BB199
:10478000877F9BB198602FB7F894E5E9F4E035E0B6
:10479000E733F30789F0319148E09BB9000000C08E
:1047A00037FF8BB9330F000000C000C000C08BB9C9
:1047B00000C04A9591F7EBCF2FBF8FE594E00197AA
:1047C000F1F700C00000109294040895E8E5F5E0C8
:1047D000438128E0421B08F440E08181628190E03F
:1047E0000E9437290895E8E5F5E0438128E0420F6B
:1047F00008F44FEF8181628190E00E94372908958B
:10480000E8E5F5E0628128E0621B08F460E0818160
:10481000438190E00E9437290895E8E5F5E0628140
:1048200028E0620F08F46FEF8181438190E00E94DD
:1048300037290895E8E5F5E0818190E043816281C0
:1048400008970E9437290895E8E5F5E0818190E016
:104850004381628108960E94372908958091580506
:1048600086958695815009F489E00E947428089500
:1048700080915805869586958F5F8A3008F081E093
:104880000E9474280895FF920F931F93CF93DF9394
:10489000182F062FF42EC0E0D0E02F2D402F612FCF
:1048A000CE010E94602F2196C633D105B1F7CDB756
:1048B000DEB7E5E00C94BE34CF93E82F2091690772
:1048C00030916A072356354040916005642F70E0AF
:1048D000C9010E948134481B842FEE2351F066E009
:1048E0000E942735C82FC150A8F080E20E94E1271E
:1048F000FACFA901480F511D4115524018F080E030
:1049000020E030E0280F311D2D593A4F30936A07CF
:1049100020936907CF910895AB0124E630E0BC01F4
:1049200088E70E942B3221E0892B09F020E0822FBA
:10493000089580913C0590913B05882389F0992347
:1049400069F062E070E081EB93E00E948C248111B9
:1049500003C080913B05089510923B0590913B0563
:1049600081E08927089580913C058823F9F00E9411
:104970000E15DC01CB01805A9541AF4FBF4F80939C
:10498000370590933805A0933905B0933A05809187
:104990003B0581110BC062E070E08FEA93E00E945A
:1049A0008C24882319F081E080933B0580913B059E
:1049B0000895882311F0FA0101C0FB0109950895BB
:1049C0009BE0899F802D1124980F973308F096E380
:1049D00020918A03222321F09C3128F09BE1089545
:1049E0008B3108F48BE1089580934D018091580537
:1049F000837080934C010E94BA2383E0809352011C
:104A00000895A0E0B0E0E7E0F5E20C949D34C82FF3
:104A100080914D018C130DC020915805237030E01A
:104A200040914C0150E081E02417350719F480E0F3
:104A300001C081E081708093510180915D0590916A
:104A40005001981739F08093500140E060E080E019
:104A50000E944324C53049F58CEF9EE208C0C9305E
:104A600008F067C1C63009F089C183EF9EE20E9459
:104A7000DD2807C0C43009F092C082E49FE20E94A2
:104A80008D2890914F019F5F90934F018111CDC16F
:104A900082E080935201809151018111C6C1C11100
:104AA000C4C183E080935201C0C1C63008F0BFC0CA
:104AB000C230B9F580914F010E94E024092FD82F10
:104AC000F0905A05B0905B0520915C0510E4129FB0
:104AD000112D1124D01718F5CD2ED12CF601E15C43
:104AE000FD4F9081809150018923B9F0F601EE0FBE
:104AF000FF1FED55FE4F81A982958F70609159057A
:104B0000819F600D11247F2D8B2D0E94E22F462F57
:104B1000282F672FC6010E94602FDF5FDBCF802F19
:104B20001BC0C33008F041C0CC23C9F0C130B9F577
:104B300080914F010E94E024192FD82F60915905D0
:104B400070915A0580915B050E94E22F062FF72E87
:104B5000D82ED11778F0812F0E94D42F92CF809138
:104B60005101882329F040E060E080E00E94432466
:104B700080E087CFED2FF0E0DF01A15CBD4F8C918D
:104B800090915001982331F02D2D402F6F2DCF01A2
:104B90000E94602FDF5FDDCFCF3F09F415C1809108
:104BA0004F018F5F80934F0173CFC33009F062CF05
:104BB00080914F010E94E024192FD82FF0905905C1
:104BC00000915A05D0905B0560915C0566956695ED
:104BD000669580915305909154050E94CA2F0E94BA
:104BE000A92F805887FD8195880F282F3D2D239F61
:104BF000212D1124822F6F2D702F0E94E22F062F5E
:104C0000F72ED82ED11708F0A6CFED2FF0E0DF0158
:104C1000A15CBD4F8C9190915001982331F02D2DC6
:104C2000402F6F2DCF010E94602FDF5FEBCFC83088
:104C300009F015CF80914F010E94E024F92ED82F62
:104C400060915C05669580915305909154050E9492
:104C5000CA2FB82EDF1508F08FC0CD2ED12CF6014B
:104C6000E15CFD4F908180915001892309F45FC080
:104C7000F601EE0FFF1FED52FE4F408150E040570E
:104C80005109F601EE0FFF1FED55FE4FE1A9F0E0CF
:104C9000B097449F8001459F100D100D1124EE9F89
:104CA000C001EF9F900D900D1124080F191F0230C5
:104CB000110558F1013E8EE1180748F4C80175E06E
:104CC000969587957A95E1F728E0280F01C02FEF98
:104CD00031E0822F90E0830F911D95958795889FF5
:104CE000B001899F700D700D11240617170718F475
:104CF0002FEF280F04C08F3F39F031E0380F231712
:104D000040F70FEF030F01C00FEF6091590570914D
:104D10005A0580915B05EB2C9F010E94952F0E9404
:104D2000E22F462F282F672FC6010E94602FDF5FDA
:104D300091CFC93009F030CF80914F010E94E0241B
:104D4000F92ED82F60915C05669566958091530584
:104D5000909154050E94CA2F182F80E4810F0E9461
:104D6000A92F30E8B32EB80E812F0E94A92F40E85A
:104D7000A42EA80EDF1540F08F2DEECEC73009F01F
:104D80000ECF81E39FE27BCECD2ED12CF601E15CEC
:104D9000FD4F9081809150018923A1F060915905C8
:104DA00070915A0580915B05E12E0D2F2A2D4B2D18
:104DB0000E94632F0E94E22F462F282F672FC601E3
:104DC0000E94602FDF5FD6CF8091530590915405EC
:104DD000A0915505B091560588279C70AA27BB273E
:104DE0002AE0B695A795979587952A95D1F78230B1
:104DF0009105A105B10571F083309105A105B105BB
:104E000069F040E00197A105B10511F060E008C02C
:104E100064E102C044E160E080E003C044E164E199
:104E200084E10E94432482E03DCECDB7DEB7EAE0C4
:104E30000C94B9344F925F926F927F928F929F92AF
:104E4000AF92BF92CF92DF92EF92FF92CF9380907A
:104E50008F0490909004A0909104B090920480915F
:104E60008903882339F0C501B4010E94E3146B0162
:104E70007C0108C00E94B51A6B017C01C818D908D2
:104E8000EA08FB080E94B51A4B015C0160938F048D
:104E9000709390048093910490939204A09166047F
:104EA000E6E6F4E08A2F90E04FEF5FEF60E070E01D
:104EB0004C195D096E097F09A91799F0218D328D72
:104EC0002901612C712C441555056605770510F4F0
:104ED000815004C02C0D3D1D328F218F9F5F329673
:104EE000EBCF8093660480919304811108C0C09138
:104EF00058058C2F837019F0C695C69501C0C0E087
:104F0000809152018130A1F028F08230E1F08330AD
:104F1000F1F049C010924F018092530590925405D0
:104F2000A0925505B092560581E0809352013BC096
:104F30008C2F0E940125CC23B1F180914F0181502B
:104F40000E94E02430C08C2F0E94F4242CC0809159
:104F50005705882351F048E050E068E170E088E5AB
:104F600095E00E94F33410925705C0905305D090FD
:104F70005405E0905505F0905605809189038823EB
:104F800029F0C701B6010E94E31406C00E94B51AB9
:104F90006C197D098E099F096031710581059105A4
:104FA00010F010925201CF91FF90EF90DF90CF90D0
:104FB000BF90AF909F908F907F906F905F904F9039
:104FC0000895CF93DF93682F8A3011F481E003C0F6
:104FD0008D3021F480E00E945C246FC080916907CD
:104FE00090916A0726E0FC01A3E6B7E001900D92DC
:104FF0002A95E1F7603E30F026E0FC0111922A95F7
:10500000E9F70AC0F6E06F9FB0011124625E7A4FA3
:1050100046E050E00E94CC34C0916907D0916A0705
:1050200046E050E0BE0183E697E00E946F35892B91
:1050300049F19E0123563540A90185E056954795D3
:105040008A95E1F781E090E0BC0102C0660F771F0E
:105050004A95E2F74091610550916205462B572B26
:105060002B5F3F4F65E0369527956A95E1F702C0C3
:10507000880F991F2A95E2F7842B952B9093620550
:10508000809361059E012D55354040916005642F48
:1050900070E0C9010E948134481B463010F4240F8F
:1050A000311D211582E0380710F020E030E02D5945
:1050B0003A4F30936A0720936907DF91CF910895A3
:1050C000CF93DF93EC01FE018491882321F00E94AD
:1050D000E1272196F8CFDF91CF9108950E946028B3
:1050E00081E00E945C240895909158059370A1F08E
:1050F000811102C0946007C08A3010F0946203C02E
:10510000880F880F982B9093580510925201809128
:1051100057058160809357050895A0E0B0E0E3E96A
:10512000F8E20C949F347C0180914F010E94E024AE
:10513000D92E182F60915C0566958091530590914A
:1051400054050E94CA2FC82E1D1578F5C12FD0E036
:10515000FE01E15CFD4F908180915001892319F19E
:10516000FE01EE0FFF1FED55FE4F21A930E020524A
:105170003109FE01EE0FFF1FED52FE4F408150E05E
:10518000405751096091590570915A0580915B050E
:105190000C2DF70109950E94E22F462F282F672F2B
:1051A000CE010E94602F1F5FCFCF8D2D0E94D42F84
:1051B000CDB7DEB7E8E00C94BB34A0E0B0E0E3EE9E
:1051C000F8E20C94A0348C0180914F010E94E024FD
:1051D000EC0160915C056695669521E0620F08F42C
:1051E0006FEF80915305909154050E94CA2FD82EDD
:1051F000CD17F0F4EC2EF12CF701E15CFD4F90811E
:1052000080915001892391F06091590570915A0560
:1052100080915B052D2D4C2FF80109950E94E22FFE
:10522000462F282F672FC7010E94602FCF5FE0CF46
:105230008D2F0E94D42FCDB7DEB7E7E00C94BC349D
:10524000FC01AC014C5F5F4F8FEF91E3219182270E
:1052500028E030E087FF03C0880F892701C0880F4E
:1052600021503109B9F7E417F50781F708959091B6
:105270005805937071F08093590560935A0547392A
:1052800008F046E940935B05809157058160809363
:1052900057050895AAE2B0E0E0E5F9E20C94A434E1
:1052A000EBE4F5E083E595E02091F10021938E1782
:1052B0009F07D1F780914C05833009F461C030F429
:1052C000813071F0823009F49BC0B2C08A3009F499
:1052D00087C08B3009F46CC0893009F0A9C020C0A8
:1052E00080914B05813A09F0A3C08091E800877F47
:1052F0008093E80080914F0590915005892B21F40F
:1053000068E08FE395E003C060E080E090E070E04B
:105310000E944E148091E8008B778093E80088C04B
:1053200080914B05813209F083C080914F059091A7
:105330005005029708F07CC08091E800877F809339
:10534000E8008091E80082FD05C080914905811147
:10535000F8CF6EC02091F3008091F20090E0922B84
:10536000029731F48091F100813011F0863021F400
:105370008091F10080933E058091E8008B7754C0C6
:1053800080914B05813A09F053C080914F0590916F
:105390005005892B09F04CC08091E800877F8093ED
:1053A000E8008091E80080FFFCCF80914E0137C07B
:1053B00080914B058132E1F580914F059091500528
:1053C000892BB1F58091E800877F8093E8000E94E7
:1053D000C81280914D0580934E010E94042228C07E
:1053E00080914B05813221F58091E800877F809381
:1053F000E8000E94C81280914E0580933D0518C0B8
:1054000080914B05813AA1F48091E800877F8093D9
:10541000E8008091E80080FFFCCF80913D058093FB
:10542000F1008091E8008E778093E8000E94C81216
:105430008091E80083FFCEC180914B0590914C058F
:10544000492F50E04A30510508F0C4C1FA01E05636
:10545000FF4F0C946935803821F0823809F0BAC1C9
:1054600008C08091470590914805992389F0826092
:105470000FC080914F058F70873008F0ABC18093CB
:10548000E9008091EB0085FB882780F91092E90004
:105490009091E800977F9093E8008093F10010923C
:1054A000F10065C1282F2D7F09F094C1882319F0E0
:1054B000823061F08FC180914D05813009F08AC141
:1054C000933009F080E0809348052EC080914D050F
:1054D00081112AC080914F058F702FEF280F263041
:1054E00008F078C18093E9002091EB0020FF1CC0F8
:1054F000933021F48091EB00806214C09091EB0016
:1055000090619093EB0021E030E0A90102C0440FCC
:10551000551F8A95E2F74093EA001092EA008091C5
:10552000EB0088608093EB001092E9008091E80026
:10553000877F20C181114EC110914D051F77809149
:10554000E3008078812B8093E3008091E800877FDF
:105550008093E8000E94C8128091E80080FFFCCF91
:105560008091E30080688093E300111102C082E023
:1055700001C083E0809349052DC18058823008F036
:1055800029C180914D0590914E058C3D53E09507C2
:1055900079F583E08A838AE289834FB7F894DE0144
:1055A000139620E03EE051E2E32FF0E050935700E5
:1055B000E49120FF03C0E295EF703F5FEF708E2F04
:1055C00090E0EA3010F0C79601C0C0968D939D938D
:1055D0002F5F243149F74FBF8091E800877F809388
:1055E000E8006AE270E0CE0101960E944E14AEC05F
:1055F00040914F0550915005292F33272330310515
:10560000A9F068F42130310509F4F3C022303105E6
:1056100009F0E0C08BE390E0EDEAF4E044C0213211
:10562000310521F12232310571F1D4C09927813041
:105630009105A1F058F0029709F0CCC0EAEFF4E030
:10564000E4918E2F90E0EAEFF4E02AC0EAE1F5E081
:10565000E4918E2F90E0EAE1F5E022C0E8E0F5E089
:10566000E4918E2F90E0E8E0F5E01AC04115510575
:1056700009F4C4C04130510509F0ACC089E090E0A4
:10568000E8EDF4E010C04115510509F4BCC041300B
:10569000510509F09FC086EB90E0E3EBF3E003C017
:1056A000009709F497C02091E800277F2093E80035
:1056B00020915105309152058217930708F49C01FF
:1056C00040E02115310589F180914905882309F4CD
:1056D0003DC08530D9F18091E80083FD37C08091CD
:1056E000E80082FD2FC08091E80080FFEACF409162
:1056F000F3008091F20090E0942B2115310559F0D0
:105700008830910540F444914093F1003196215046
:1057100031090196F2CF41E0089709F040E080910D
:10572000E8008E778093E800CCCF4111CDCF0AC03E
:1057300080914905882351F0853041F08091E8003F
:1057400083FD04C08091E80082FFF2CF8091E800E1
:105750008B778093E8003EC08038E1F58091E800C7
:10576000877F8093E80080914A058093F1008091C3
:10577000E8008E778093E8000E94C8122BC0811148
:1057800029C080914D0590914E059927029714F5F7
:105790008091E800877F8093E80010914D05109379
:1057A0004A050E94C812111106C08091E30087FDCE
:1057B00002C081E001C084E08093490542E061ECD1
:1057C00081E00E94E71242E261EC82E00E94E7126F
:1057D000809149058091E80083FF1AC08091E8001C
:1057E000877F8093E8008091EB0080628093EB00DC
:1057F0000FC082E190E0E8EEF4E055CF89E090E060
:10580000EFEBF4E050CF84E490E0E9E6F4E04BCF36
:10581000AA96E3E00C94C0349C013A9521153F41CF
:1058200030F5BC0166277270AC01442754709C01AE
:105830002227387094FF0FC090FF02C080E101C0A2
:1058400080E0672B09F08062452B09F08064232BF0
:1058500079F080680895892F8170672B09F0826044
:10586000452B09F08460232B19F08860089580E0AF
:105870000895292F33272115310519F0C90148E072
:1058800001C040E09C0164E0369527956A95E1F7F8
:105890002115310511F04C5FC9019C013695279502
:1058A000369527952115310511F04E5FC9019C01F0
:1058B00036952795232B09F04F5F842F0895A6E096
:1058C000B0E0E5E6FCE20C94A434FC01878190850D
:1058D000009709F5CF0126E0DE01119601900D92A7
:1058E0002A95E1F7FC01258189819A81222359F0CB
:1058F000662349F00E941E1F182F682F89819A8104
:105900000E94762103C00E944321182F69817A8169
:10591000812F0E94171B2696E3E00C94C0340E944E
:1059200004222FEF84E39CE0215080409040E1F777
:1059300000C000009AE088E10FB6F894A895809323
:1059400060000FBE90936000FFCFEF92FF920F9325
:105950001F93CF93DF93EC018B017C0180EEE81A5B
:10596000F10898E0E916F10410F0209731F4CE0127
:105970000E940C2C0E94BE2205C0CE010E940C2C5D
:105980000E94AD228C2F0E94FB220115110549F0C7
:105990008FE99FE00197F1F700C000000150110965
:1059A000F4CF8C2F0E94C82298E0E916F10410F081
:1059B000209731F4CE010E940C2C0E94B72205C022
:1059C000CE010E940C2C0E94A222CDB7DEB7E6E0E9
:1059D0000C94BD34ADE1B0E0E0EFFCE20C94953402
:1059E0004B8B5C8B6D8B7E8B8F8B988F9111109274
:1059F0000203CE010A9629E0FC0111922A95E9F7EB
:105A000026E0FE017396DC0101900D922A95E1F7E4
:105A10002E8521110CC00A851B852C853D854E8560
:105A20005F85688979898A890E943522D8C161E0B9
:105A30000E945F2C6C018035FCE79F0739F48F854D
:105A40008823A1F081E080932301C6C181352CE732
:105A5000920731F48F85882349F00E94A017BCC1BA
:105A600082359C4719F48F85811111C065E1E62EBE
:105A700061E0F62E512CA12CB12C88248394912C1A
:105A800044244394CE0101969A8F898F39C0809126
:105A900023018823B9F2E1CFFFEF6F167F0609F4E7
:105AA00047C1F7016481611146C020912301822F13
:105AB00081701F85F70135812681112309F4DEC02D
:105AC000882309F4DBC03323C9F1940102C0220FFB
:105AD000331F9A95E2F721503109F701868190E052
